:020000040800F2
:10000000F0050020F101000831400008EB3600083F
:100010002D40000865090008415A00080000000052
:10002000000000000000000000000000C1430008C4
:10003000690900080000000035400008C3430008BB
:100040000B0200080B0200080B0200080B0200085C
:100050000B0200080B0200080B0200080B0200084C
:100060000B0200080B0200080B0200080B0200083C
:100070000B0200080B0200080B0200080B0200082C
:100080000B020008000000000B0200080B02000831
:100090000B0200080B0200080B0200080B0200080C
:1000A0000B0200080B0200080B0200080B020008FC
:1000B000494400080B0200080B0200080B0200086C
:1000C0000B0200080B0200080B0200080B020008DC
:1000D0000B020008315A00080B0200080B0200084E
:1000E0000B0200080B0200080B0200080B020008BC
:1000F0000B0200080B0200080B02000800000000C1
:10010000000000000B020008000000000B020008C5
:100110000B020008000000000B0200080B020008A0
:100120000B0200080B0200080B0200080B0200087B
:100130000B02000800000000000000000B02000895
:100140000B0200080B020008000000000000000085
:10015000000000000000000000000000000000009F
:100160000000000000000000000000000B0200087A
:100170000B0200080000000000000000000000006A
:10018000000000000B02000800000000000000005A
:10019000000000000000000000000000000000005F
:1001A00000000000000000000B0200080B02000825
:1001B0000B0200080B0200080B0200080000000000
:1001C000000000000B02000800000000000000001A
:1001D0000B0200080B020008DFF810D000F04CFB07
:1001E0000048004745680008AFF30080F005002094
:1001F0000648804706480047FEE7FEE7FEE7FEE7C1
:10020000FEE7FEE7FEE7FEE7FEE7FEE7354400080F
:10021000D90100082DE9F05F0546002092469B4673
:1002200088460646814640241BE02846414647460C
:10023000224600F052FA53465A46C01A914110D352
:1002400011461846224600F039FA2D1A67EB0108CC
:100250004F4622460120002100F030FA17EB00093A
:100260004E41201EA4F10104DFDC484631462A46F7
:100270004346BDE8F09FD2B201E000F8012B491ED1
:10028000FBD270470022F6E710B513460A46044633
:100290001946FFF7F0FF204610BD421C10F8011B65
:1002A0000029FBD1801A70472DE9FE4F804681EA74
:1002B0000300C00F0C46009021F0004123F00045E0
:1002C000B8EB0200A94105D24046214690461C46A3
:1002D0000B46024623F00040104347D0270DC7F3DA
:1002E0000A00C3F30A510290401A019040286BDAC9
:1002F000C3F3130040F4801B0098924620B1002302
:10030000D2EB030A63EB0B0B01985946C0F1400294
:10031000504600F0D3F906460D4650465946019A1C
:1003200000F0EBF910EB08006141002487EA11525C
:1003300084EAE7731A4340D0009A62B3019A012A13
:100340004FEA075215DC001B61EB02014FF000423F
:1003500002EA0752CDE90042001C41F58011324605
:100360002B4600F022FA03B0BDE8F08F404621464C
:10037000F9E7001B61EB0201001C41F58013001836
:100380005B412018A2F5001747EB030140EAD57046
:10039000B6196D4111E06D084FEA360645EAC075A1
:1003A0004FEA0752001B61EB0201001C41F580116E
:1003B00049084FEA30000019514132462B4603B03C
:1003C000BDE8F04F00F0E2B90098012240000023A0
:1003D000D0EB020263EBE073009821464FEAE07431
:1003E000B8EB000061EB0401E9E783F000435BE751
:1003F00081F0004158E72DE9FE4F81EA030404F043
:10040000004421F0004100944FF0000B23F0004322
:1004100050EA01045ED052EA03045BD0C3F30A54ED
:10042000C1F30A552C44A4F2F3340194A0FB025406
:10043000C1F3130141F48011C3F3130343F4801398
:1004400001FB024400FB034E840A970A44EA8154EC
:1004500047EA8357A4FB076802958D0A05FB0785C9
:100460004FEA932C04FB0C542705029D4FEA0658D3
:1004700047EA1637B5EB08056EEB070C870E920EB0
:1004800047EA811742EA8312A7FB0201B6EB0B0190
:1004900064EB00042B0D43EA0C335E1844EB1C5054
:1004A000DA465146E7FB0201C5F313044FEA0B336A
:1004B00043EA14534FEA0432019C43EA0603A4F1D1
:1004C0000C040294009CCDE900B400F06EF903B076
:1004D000BDE8F08F00200146F9E72DE9F04D81EAF3
:1004E000030404F0004B21F0004514464FF0000ACD
:1004F00023F0004150EA050220D054EA01021DD049
:10050000C5F30A570246C5F31303C1F31300C1F341
:100510000A5640F4801543F48013A7EB0608101B1D
:10052000D64608F2FD3873EB050002D308F1010846
:1005300001E092185B41B8F1000F03DA0020014698
:10054000BDE8F08D00204FF48011064684460EE091
:10055000171B73EB050705D3121B63EB050306435B
:100560004CEA010C49084FEA300092185B4150EA0E
:100570000107EDD152EA030012D082EA040083EAB7
:100580000501084305D0101BAB4106D20122002310
:1005900006E000224FF0004302E06FF0010253102A
:1005A0001AEB06004CEB085110EB0A0041EB0B0173
:1005B000BDE8F04D00F0EAB80EB540F233410291CB
:1005C0000021CDE900110A460B4600F0EEF803B019
:1005D00000BD00F0004230F000400AD0C10D01F52E
:1005E0006071C0F3160042EA0151C208400711438E
:1005F000704700200146704730B5041E71F10004B9
:1006000004DB4FF00044404264EB0101141E73F11F
:10061000000405DB1C464FF00043524263EB040329
:100620008B4208BF824230BD30B5041E71F1000418
:1006300004DB4FF00044404264EB0101141E73F1EF
:10064000000405DB1C464FF00043524263EB0403F9
:10065000994208BF904230BD01F0004330B421F010
:10066000004150EA010206D00A0DA2F56072C1F302
:100670001301002A02DC30BC00207047440F44EA1A
:10068000C104C100E01830BC00EBC25000F047B814
:1006900030B50B46014600202022012409E021FA52
:1006A00002F59D4205D303FA02F5491B04FA02F54F
:1006B0002844151EA2F10102F1DC30BD202A04DB22
:1006C000203A00FA02F1002070479140C2F1200365
:1006D00020FA03F3194390407047202A04DB203AA4
:1006E00021FA02F00021704721FA02F3D040C2F152
:1006F00020029140084319467047202A06DBCB1799
:10070000203A41FA02F043EAE07306E041FA02F3CC
:10071000D040C2F120029140084319467047002999
:10072000A8BF7047401C490008BF20F00100704777
:1007300010B4B0FA80FC00FA0CF050EA010404BFD7
:1007400010BC704749B1CCF1200421FA04F411FA2D
:100750000CF118BF012121430843A3EB0C01CB1D71
:100760004FEA00614FEA102042BF002010BC7047E2
:1007700000EBC35010440029A4BF10BC7047401CBC
:10078000490008BF20F0010010BC704710B5141ECE
:1007900073F1000408DA401C41F1000192185B413A
:1007A0001A4301D120F0010010BD2DE9F04D924611
:1007B0009B4611B1B1FA81F202E0B0FA80F2203228
:1007C0009046FFF77BFF04460F4640EA0A0041EAE5
:1007D0000B0153465A46084313D0114653EA010011
:1007E00019D0C8F140025046FFF777FF05460E4684
:1007F000504659464246FFF761FF084305D00120A5
:1008000004E020463946BDE8F08D0020054346EA65
:10081000E0762C4337430A986305E40AA0EB08000E
:100820000022FD0A44EA47540A3002D5002001465E
:10083000E9E7010510196941DDE908450019694139
:10084000BDE8F04DA2E7C1F30A52C1F3130140F233
:10085000FF3341F480119A4202DA002001467047CA
:1008600040F233439A42A2F2334202DC5242FFF793
:1008700034BFFFF723BF0000064C074D06E0E068D9
:1008800040F0010394E8070098471034AC42F6D3D7
:10089000FFF7A6FC847B0008A47B000838B504465B
:1008A00000200090206803F0CCF900284FD1206888
:1008B00080682849084048B1E06D40F01000E065CC
:1008C000206E40F001002066012038BD206803F052
:1008D0009DF900BF2048806800F0E07000F400003F
:1008E00080B11E4800681E49B0FBF1F0401C00EBCF
:1008F00040008000009002E00098401E00900098A8
:100900000028F9D100F074FE05461AE0206803F0D3
:1009100098F910B9206803F079F900F069FE401BDE
:1009200002280ED92068006800F0010048B9E06D87
:1009300040F01000E065206E40F0010020660120CC
:10094000C3E72068006800F001000028DED0002026
:10095000BBE700003F000080000300500C000020B7
:10096000400D030000BFFEE77047002109E00022B0
:1009700001E0531C9AB240F6B8339A42F9DB4B1CA3
:1009800099B28142F3DB704772B600BFFEE7000008
:100990002DE9F84F05460C464FF0000A0020009064
:1009A000FE49E068884200D000E000BF00BF95F833
:1009B0005800012802D10220BDE8F88F012085F8F7
:1009C000580000BF286803F046F900287DD1296847
:1009D000D4E9002001F1300CC0F3012B0CEB8B03A8
:1009E000D3F800C000F01F0E4FF01F0B0BFA0EFBE8
:1009F0002CEA0B0C00F01F0BC2F3846E0EFA0BFEF8
:100A00004CEA0E0CC3F800C000BF286803F023F9BD
:100A10008146286803F010F98046B9F1000F64D1CF
:100A2000B8F1000FFBD1A068B0F1004F0AD12168E6
:100A30000022286803F01CF94FF00041286803F0F9
:100A40003CF908E0A2682168286803F011F9002148
:100A5000286803F032F960692968C968C1F3C101E7
:100A6000490000FA01F7206904283FD0286822686D
:100A7000216900F1600C0CEB8103D3F800C0DFF8B2
:100A800020B30CEA0B0C02F0F84B4BF0004B4BEA96
:100A9000070B4CEA0B0CC3F800C000BF2868A26922
:100AA000216900F1600C0CEB8103D3F800C02CF03D
:100AB000807C4CEA020CC3F800C000BF2868227F8B
:100AC0002169012A02D1520601E0C6E10022134643
:100AD00000F1600C0CEB8102D2F800C02CF0007C1D
:100AE0004CEA030CC2F800C000BFA7E00021286850
:100AF00003F099F8C0F3120030B90021286803F020
:100B000092F8C0F3846007E00021286803F08BF8B6
:100B100090FAA0F0B0FA80F02168C1F3120119B97F
:100B20002168C1F3846104E0216891FAA1F1B1FA6E
:100B300081F1884204D100221146286803F0B2F8FE
:100B40000121286803F06FF8C0F3120030B90121C9
:100B5000286803F068F8C0F3846007E00121286882
:100B600003F061F890FAA0F0B0FA80F02168C1F3C8
:100B7000120119B92168C1F3846104E0216891FA76
:100B8000A1F1B1FA81F1884204D100220121286843
:100B900003F088F80221286803F045F8C0F312003A
:100BA00030B90221286803F03EF8C0F3846007E002
:100BB0000221286803F037F890FAA0F0B0FA80F02C
:100BC0002168C1F3120119B92168C1F3846104E0FD
:100BD000216891FAA1F1B1FA81F1884204D1002291
:100BE0000221286803F05EF80321286803F01BF84F
:100BF000C0F3120030B90321286803F014F8C0F3E1
:100C0000846007E00321286803F00DF890FAA0F053
:100C1000B0FA80F02168C1F3120119B92168C1F35B
:100C2000846104E0216891FAA1F1B1FA81F188426E
:100C300004D100220321286803F034F8286803F067
:100C400000F8002872D12868E2682168D0F8B03036
:100C5000C1F3120C23EA0C0302F0180BDFF844C1B5
:100C60002CFA0BFC0CEA010C43EA0C03C0F8B03080
:100C700000BF4A49E068884258D12368C3F3120391
:100C80001BB92368C3F3846304E0236893FAA3F3D6
:100C9000B3FA83F35B1C03F01F03092B3ED82368D0
:100CA000C3F312031BB92368C3F3846304E023680E
:100CB00093FAA3F3B3FA83F35B1C03F01F034FF023
:100CC000010C0CFA03FC2368C3F312031BB923685D
:100CD000C3F3846304E0236893FAA3F3B3FA83F3C2
:100CE0005B1C03F01F034CEA836C2368C3F31203FD
:100CF0001BB92368C3F3846304E0236893FAA3F366
:100D0000B3FA83F35B1C03F01F0303EB43034FF0C1
:100D1000000B4BEA03534CEA030347E02368C3F399
:100D2000120323B92368C3F3846305E043E0236817
:100D300093FAA3F3B3FA83F35B1C03F01F034FF0A2
:100D4000010C0CFA03FC2368C3F312031BB92368DC
:100D5000C3F3846304E0236893FAA3F3B3FA83F341
:100D60005B1C03F01F034CEA836C2368C3F312037C
:100D70001BB92368C3F3846304E0236893FAA3F3E5
:100D8000B3FA83F35B1C03F01F030A3B03EB43033B
:100D90004FF0007B4BEA035306E0000000007F4069
:100DA00000F0FF03FFFF07004CEA03031946A268A7
:100DB000286802F05DFF2F492068084050B300BF4B
:100DC0002D48806800F0E07600BF2C4920688842FA
:100DD00003D02B49206888421DD106F40000D0B909
:100DE0002868B0F1A04F3ED146F40001224802F03D
:100DF00053FF244800682449B0FBF1F0401C00EB8D
:100E000040008000009002E00098401E0090009892
:100E10000028F9D127E01D49206888420CD106F04E
:100E2000807048B91A49286888421CD046F0807101
:100E3000114802F031FF16E016492068884212D1AD
:100E400006F4800078B91249286888420BD046F42D
:100E50008001094802F020FF05E0E86D40F0200025
:100E6000E8654FF0010A00BF002085F8580000BF78
:100E70005046A1E50000088000030050000021C397
:100E80001000C0900C000020400D0300000052C76D
:100E900000010050000084CB01460868006C7047D8
:100EA0002DE9F84304464FF000080020009014B9E3
:100EB0000120BDE8F883606920B194F8240001287E
:100EC00000D100BFE06D30B9204600F017F90020D6
:100ED000206684F8580020688168C1F3407131B100
:100EE000206881687E4A1140816000BF00BF206891
:100EF00002F0ACFEB0B9206881687A4A114041F036
:100F00008051816000BF784800687849B0FBF1F0FB
:100F1000401C4000009002E00098401E00900098A5
:100F20000028F9D1206802F091FE48B9E06D40F048
:100F30001000E065206E40F0010020664FF00108CF
:100F4000206802F088FE0646E06D00F010000028E0
:100F500077D1002EFCD1E06D20F4807040F00200CB
:100F6000E065206802F06DFEB0B94FF0A04002F0DD
:100F700068FE81465E4802F064FE49EA0009B9F164
:100F8000000F09D160685B49896821F47C11014335
:100F9000584A916000BF00BF607FE16B41EA40307A
:100FA000E1680843A168084394F8241040EA014529
:100FB00094F82400012803D1208D401E45EA4045C5
:100FC000E06A28B1A08D00F47870216B08430543D6
:100FD0002068C0684849084028432168C8602068E4
:100FE000006920F04060616B084321680861206857
:100FF00002F022FE0746002E50D1EFBB207F0021D9
:1010000041EA803194F8380041EA40052068C06820
:1010100044F20201884328432168C860206988B1EE
:101020002068006940F48030216808612068D0F8A9
:10103000C0006FF30D00216908432168C1F8C000AA
:101040000EE045E02068006920F4803021680861E6
:101050002068D0F8C0006FF30D002168C1F8C0000F
:1010600094F84000012813D1606C40F00101A06C9D
:101070000843E16C084300E010E0216D084321685B
:10108000096940F2FC72914308432168086105E058
:101090002068006920F0010021680861606901286A
:1010A00009D12068006B20F00F00216A491E084317
:1010B0002168086305E02068006B20F00F002168BC
:1010C0000863E06D20F0020040F00100E06505E0FB
:1010D000E06D40F01000E0654FF001084046E8E6A2
:1010E000C0FFFF5FC0FFFF7F0C000020400D03002A
:1010F00000010050000300500740F0FF10B598B009
:101100000446142113A8FFF7BDF8442102A8FFF7F5
:10111000B9F81B49206888422FD1C0010290800392
:10112000119002A800F0D0FB08B1FFF72DFC00BF22
:101130001448C06C40F400501249C8640846C06CA2
:1011400000F40050019000BF00BF00BF0846C06C13
:1011500040F00200C8640846C06C00F00200019034
:1011600000BF00BF4FF400401390032014900020F4
:10117000159013A9044800F035F918B010BD00000F
:101180000001005000100240000400482DE9F04129
:101190000446434802F042FD0646206802F05BFD2B
:1011A00000287AD100BF94F85800012802D102200B
:1011B000BDE8F081012084F8580000BF2046FFF709
:1011C0006DFB0546002D63D1E06D40F6016188435B
:1011D00040F48070E06533492068884202D14FF0C6
:1011E000A04000E020682168884200D01EB9E06D70
:1011F00020F48010E065E06D00F48050B0F5805F71
:1012000004D1206E20F00600206601E00020206658
:101210001C202168086000BF002084F8580000BF2F
:1012200020492068884202D14FF0A04000E02068A9
:101230002168884204D01EB1052E01D0092E0ED19E
:101240002068C06800F0007028B1E06D20F4005004
:1012500040F48050E065206802F002FD1EE0E06D81
:1012600040F48010E0650F492068884202D14FF0B9
:10127000A04000E020680746F86800F0007068B100
:10128000E06D20F4005040F48050E06506E004E09A
:1012900000BF002084F8580000E00225284687E7B8
:1012A00000030050000100500146002209B901204E
:1012B000704791F82500022803D00420C86301225A
:1012C00027E00868006820F001000B6818600868D3
:1012D000006820F00E000B681860886C006820F42D
:1012E00080708B6C186091F8440000F01F0301209F
:1012F00098400B6C5860D1E913305860486D40B18C
:10130000486D006820F480704B6D1860D1E916308C
:101310005860012081F8250000BF002081F82400DA
:1013200000BF1046C4E770B50446002594F82500B8
:1013300002280BD00420E063012084F8250000BFC0
:10134000002084F8240000BF012534E020680068F4
:1013500020F00100216808602068006820F00E007D
:1013600021680860A06C006820F48070A16C08609F
:1013700094F8440000F01F0101208840216C48606F
:10138000D4E913104860606D40B1606D006820F4CE
:101390008070616D0860D4E916104860012084F8FF
:1013A000250000BF002084F8240000BFA06B10B10E
:1013B0002046A16B8847284670BD000070B50446E2
:1013C00000F016F906462546681C10B1044800686E
:1013D000054400BF00F00CF9801BA842FAD370BD91
:1013E0000800002078B503460022D2E0012696408E
:1013F0000D6805EA0604002C7BD00D7905F0030585
:10140000012D04D00D7905F00305022D13D1986844
:1014100056000325B540A8435600CD68B540284383
:101420009860586801259540A8430D79C5F30015CB
:101430009540284358600D7905F00305032D07D129
:101440000D7905F00305032D0CD18D68012D09D010
:10145000D86856000325B540A84356008D68B540AE
:101460002843D8600D7905F00305022D13D1D60865
:1014700003F1200555F826005507EE0E0F25B5405F
:10148000A8435607F60E0D69B5402843D60803F168
:10149000200545F82600186856000325B540A843E6
:1014A0000D7905F003055600B540284318604D68D6
:1014B00005F44035002D6BD000BF394D2D6E45F041
:1014C0000105374E356635462D6E05F00105009550
:1014D00000BF00BF4FEAB635960855F826009507BD
:1014E0002E0F0F25B540A843B3F1904F02D1002530
:1014F0001AE04DE02B4DAB4201D1012514E02A4DFD
:10150000AB4201D102250FE0284DAB4201D10325AA
:101510000AE0274DAB4201D1042505E0254DAB4241
:1015200001D1052500E006259607360FB540284372
:10153000214D960845F82600204D2868A0434D68A7
:1015400005F4801505B120431C4D28602D1D286829
:10155000A0434D6805F4001505B12043174D2D1D1E
:101560002860164D2D1F2868A0434D6805F40035EE
:1015700005B12043114D2D1F28602D1F2868A04361
:101580004D6805F4803505B120430C4D083D2860B9
:10159000521C0D68D540002D7FF428AF78BD0000A7
:1015A000001002400004004800080048000C0048F9
:1015B00000100048001400480800014008040140E1
:1015C000024613690B400BB1012000E00020704778
:1015D00010B5426921EA020302EA010443EA044326
:1015E000836110BD0AB1816100E081627047000033
:1015F00001480068704700000000002003480068B0
:101600000349096808440149086070470000002048
:101610000800002010B50024032000F0ABF80F20D4
:1016200000F008F808B1012401E000F02FF820468E
:1016300010BD000070B50446002511480068D8B1FF
:101640000F4800684FF47A71B1FBF0F00D4909685A
:10165000B1FBF0F6304600F025FF58B9102C07D248
:1016600000222146501E00F047F80748046004E0BD
:10167000012502E0012500E00125284670BD00009B
:10168000080000200C0000200400002008B500BF66
:101690000E48006E40F001000C4908660846006ED6
:1016A00000F00100009000BF00BF00BF0846806D41
:1016B00040F0805088650846806D00F080500090B2
:1016C00000BF00BF00F0F6F808BD000000100240A7
:1016D0000146084600280DDB00BF00BF00F01F03D5
:1016E00001229A4043099B0003F1E023C3F8002143
:1016F00000BF00BF00BF70472DE9F05F80460D4678
:10170000164604F0B3F9074639462A46334601F037
:101710000700C0F1070ABAF1040F02D94FF0040A1A
:1017200001E0C0F1070AD14600F1040ABAF1070F3F
:1017300002D24FF0000A01E0A0F1030AD4464FF0B4
:10174000010A0AFA09FAAAF1010A0AEA020A0AFADD
:101750000CFA4FF0010B0BFA0CFBABF1010B0BEA8F
:10176000030B4AEA0B042146404604F087F9BDE822
:10177000F09F000000BF00F00702064B19684FF60B
:10178000FF031940044B0B4343EA0221014B19604C
:1017900000BF70470CED00E00000FA0502468ABB6E
:1017A0004148006800F4C060B0F5806F2BD13E481E
:1017B0008030006820F480703B4BC3F880001846EE
:1017C000006820F4C06040F400701860374800687A
:1017D00032235843364BB0FBF3F0411C00E0491E66
:1017E0003148406900F48060B0F5806F01D1002974
:1017F000F5D12D48406900F48060B0F5806F51D17B
:101800000320704708E028488030006820F480708A
:10181000254BC3F8800045E0B2F5007F3AD122485D
:10182000006800F4C060B0F5806F2AD11E48803097
:10183000006840F480701C4BC3F8800018460068B4
:1018400020F4C06040F4007018601848006832232B
:101850005843174BB0FBF3F0411C00E0491E1248FF
:10186000406900F48060B0F5806F01D10029F5D1A6
:101870000D48406900F48060B0F5806F12D10320FC
:10188000BFE709488030006840F48070064BC3F819
:10189000800007E00448006820F4C06040F48060E5
:1018A000014B18600020ACE7007000400C000020E5
:1018B00040420F000348806840F48040014988603E
:1018C00070470000007000402DE9F84304460027EF
:1018D000B846206800F40020B0F5002F73D1B94657
:1018E000D348806D00F0805078B900BFD048806D3B
:1018F00040F08050CE4988650846806D00F08050E9
:10190000009000BF00BF4FF00109CA48006840F4D2
:101910008070C8490860FFF76BFE064606E0FFF7D7
:1019200067FE801B022801D9032705E0C148006833
:1019300000F480700028F2D000BF002F46D1BC48D0
:101940009030006800F44075CDB1206CA84216D0EC
:10195000B7489030006820F44075B548D0F8900042
:1019600040F48030B249C1F890000846D0F89000A9
:1019700020F48030C1F890000846C0F8905005F07F
:101980000100A0B1FFF734FE064608E0FFF730FE85
:10199000801B41F28831884201D9032706E0A44820
:1019A0009030006800F002000028EFD000BF5FB95F
:1019B0009F489030006820F44070216C08439C4997
:1019C000C1F8900003E00CE0B84600E0B846B9F179
:1019D000010F05D19648806D20F0805094498865AC
:1019E00000BF207800F0010048B1914888300068BD
:1019F00020F00300616808438D49C1F88800207811
:101A000000F00200022809D189488830006820F0DF
:101A10000C00A16808438649C1F88800207800F0CE
:101A20000400042809D182488830006820F0300082
:101A3000E16808437E49C1F88800207800F008007A
:101A4000082809D17A488830006820F0C000216950
:101A500008437749C1F88800207800F0200020284A
:101A600009D173488830006820F4406061690843F8
:101A70006F49C1F88800207800F04000402809D163
:101A80006B488830006820F44050A16908436849D9
:101A9000C1F88800207800F08000802809D16448CF
:101AA0008830006820F44040E16908436049C1F88B
:101AB0008800208800F48070B0F5807F09D15C48F0
:101AC0008830006820F44030216A08435849C1F842
:101AD0008800208800F40070B0F5007F09D15448D8
:101AE0008830006820F44020616A08435049C1F8FA
:101AF0008800208800F48060B0F5806F13D14C48D6
:101B00008830006820F44010A16A084348498831B1
:101B10000860A06AB0F5801F05D14548C06840F450
:101B200080104349C860208800F40060B0F5006F61
:101B300013D13F488830006820F44000E16A084330
:101B40003B4988310860E06AB0F5800F05D138481C
:101B5000C06840F480103649C860208800F4805086
:101B6000B0F5805F13D132488830006820F04070B3
:101B7000216B08432E4988310860206BB0F1807FCB
:101B800005D12B48C06840F480102949C8602088DE
:101B900000F40050B0F5005F13D12548883000688C
:101BA00020F04060616B0843214988310860606B18
:101BB000B0F1006F05D11E48C06840F480101C4988
:101BC000C860208800F48040B0F5804F13D11848D9
:101BD0008830006820F04060A16B084314498831C8
:101BE0000860A06BB0F1006F05D11148C06840F4E7
:101BF00080100F49C860208800F40040B0F5004F05
:101C000013D10B488830006820F04050E16B084346
:101C1000074988310860E06BB0F1805F05D1044866
:101C2000C06840F480300249C8604046BDE8F8838F
:101C300000100240007000402DE9F04104460D46BE
:101C40004FF0000814B90120BDE8F0817D4800681C
:101C500000F00F00A8420ED27A48006820F00F0072
:101C60002843784908600846006800F00F00A84241
:101C700001D00120E8E7207800F00100002864D0BE
:101C80006068032823D17048006800F0007008B92C
:101C90000120D9E702F0D0F906466C48864237D9D0
:101CA0006948806800F0F00030B1207800F0020050
:101CB00002282DD1A06858BB6348806820F0F0004E
:101CC00040F08000604988604FF0800820E0606844
:101CD000022806D15C48006800F4003040B90120B9
:101CE000B2E75948006800F4806008B90120ABE70A
:101CF00000F0DEF806465548864209D95248806809
:101D000020F0F00040F080004F4988604FF08008DC
:101D10004D48806820F00300616808434A498860A4
:101D2000FFF766FC074608E0FFF762FCC01B41F2C4
:101D30008831884201D9032086E74348806800F053
:101D40000C006168B0EB810FEED1207800F002004A
:101D5000022820D1207800F00400042805D13A4858
:101D6000806840F4E06038498860207800F008001E
:101D7000082807D13448806820F4605040F4E060BF
:101D8000314988603048806820F0F000A16808433D
:101D90002D49886008E0B8F1800F05D12A48806895
:101DA00020F0F000284988602648006800F00F0005
:101DB000A84219D92348006820F00F002843214980
:101DC0000860FFF715FC074608E0FFF711FCC01B91
:101DD00041F28831884201D9032035E7194800686B
:101DE00000F00F00A842F0D1207800F00400042891
:101DF00007D11548806820F4E060E1680843124983
:101E00008860207800F00800082808D10E48806813
:101E100020F46050216940EAC1000B49886000F05D
:101E200047F809498968C1F30311094A515C01F077
:101E30001F01C8400749086007480068FFF7FAFB20
:101E400002E70000002002400010024000B4C40479
:101E50009C6900080C000020040000200148006874
:101E6000704700000C00002000B5FFF7F7FF0549A0
:101E70008968C1F30221044A515C01F01F01C84086
:101E800000BD000000100240AC69000800B5FFF77B
:101E9000E5FF05498968C1F3C221044A515C01F09C
:101EA0001F01C84000BD000000100240AC690008DE
:101EB00070B5224DAD6805F00C05042D01D1204808
:101EC0003AE01E4DAD6805F00C05082D01D11D4806
:101ED00032E01A4DAD6805F00C050C2D2BD1174DD5
:101EE000ED6805F00304154DED68C5F303156A1C94
:101EF000022C0CD0032C09D1124DB5FBF2F50F4E7C
:101F0000F668C6F3062605FB06F10AE000BF0C4D95
:101F1000B5FBF2F5094EF668C6F3062605FB06F199
:101F200000BF00BF054DED68C5F341656D1C6B003A
:101F3000B1FBF3F000E0002070BD00000010024093
:101F40000024F40000366E012DE9F843044614B96C
:101F50000120BDE8F883207800F00100002865D05A
:101F6000FC48806800F00C07FA48C06800F00306DF
:101F70000C2F01D1032E01D0082F0AD1F54800689B
:101F800000F40030002851D0606800284ED10120B4
:101F9000DFE700BF6068B0F5803F06D1ED4800681C
:101FA00040F48030EB4908601AE06068B0F5A02F7B
:101FB0000BD1E848006840F48020E64908600846F4
:101FC000006840F4803008600AE0E248006820F4CD
:101FD0008030E04908600846006820F480200860EE
:101FE00000BF606888B1FFF703FB054606E0FFF716
:101FF000FFFA401B642801D90320AAE7D5480068EE
:1020000000F400300028F2D010E0FFF7F1FA0546A6
:1020100006E0FFF7EDFA401B642801D9032098E79A
:10202000CC48006800F400300028F2D1207800F09D
:102030000200022860D1C748806800F00C07C5483C
:10204000C06800F003060C2F01D1022E01D0042F2E
:1020500018D1C048006800F4806018B1E06808B981
:10206000012076E7BB48406820F0FE40217C40EA32
:102070000160B8494860B8480068FFF7DBFA18B358
:10208000012066E7E06800B3B248006840F4807061
:10209000B0490860FFF7ACFA054606E0FFF7A8FA7A
:1020A000401B022801D9032053E7AA48006800F426
:1020B00080600028F2D0A748406820F0FE40217CD4
:1020C00040EA0160A349486016E0A248006820F495
:1020D0008070A0490860FFF78BFA054606E0FFF71D
:1020E00087FA401B022801D9032032E7994800688B
:1020F00000F480600028F2D1207800F00800082861
:1021000036D16069D0B193489430006840F0010046
:102110009049C1F89400FFF76BFA054606E0FFF717
:1021200067FA401B022801D9032012E7894894303E
:10213000006800F002000028F1D019E085489430D2
:10214000006820F001008349C1F89400FFF750FABD
:10215000054606E0FFF74CFA401B022801D9032090
:10216000F7E67C489430006800F002000028F1D1C6
:10217000207800F00400042872D14FF00008754860
:10218000806D012121EA107078B100BF7148806D27
:1021900040F080506F4988650846806D00F080509F
:1021A000009000BF00BF4FF001086C48006800F4C9
:1021B0008070B0B96948006840F480706749086071
:1021C000FFF716FA054606E0FFF712FA401B022851
:1021D00001D90320BDE66148006800F48070002842
:1021E000F2D000BFA068012808D15A48903000689A
:1021F00040F001005749C1F8900021E0A06805288F
:102200000FD154489030006840F004005149C1F8A3
:1022100090000846D0F8900040F00100C1F890000E
:102220000EE04C489030006820F001004949C1F8A8
:1022300090000846D0F8900020F00400C1F890000B
:1022400000BFA068A8B1FFF7D3F9054609E0FFF782
:10225000CFF9401B41F28831884202D9032078E649
:1022600025E03C489030006800F002000028EED0E5
:1022700013E0FFF7BDF9054608E0FFF7B9F9401B89
:1022800041F28831884201D9032062E6314890301A
:10229000006800F002000028EFD1B8F1010F05D16D
:1022A0002C48806D20F080502A49886500BF207836
:1022B00000F02000202836D1A069D0B12548983000
:1022C000006840F001002349C1F89800FFF790F939
:1022D000054606E0FFF78CF9401B022801D90320D0
:1022E00037E61C489830006800F002000028F1D062
:1022F00019E018489830006820F001001549C1F82D
:102300009800FFF775F9054606E0FFF771F9401BE5
:10231000022801D903201CE60E489830006800F01E
:1023200002000028F1D1E069002860D009488068E7
:1023300000F00C000C287AD0E069022858D105483A
:10234000006820F0807003490860FFF751F90546E6
:102350000DE000000010024004000020007000406A
:10236000FFF746F9401B022801D90320F1E54A484E
:10237000006800F000700028F2D1D4E90810401E77
:1023800041EA0011A06A41EA0021208E0122C2EB3D
:10239000500041EA40513420005DC2EB500041EA58
:1023A00040612C20005D41EAC0603B49C9683B4A5E
:1023B000114008433849C8600846006840F0807002
:1023C00008600846C06840F08070C860FFF710F9E8
:1023D000054606E0FFF70CF9401B022801D903204F
:1023E000B7E52D48006800F000700028F2D051E0F9
:1023F0002948006820F0807027490860FFF7F8F846
:10240000054606E0FFF7F4F8401B022801D9032037
:102410009FE52148006800F000700028F2D11E48B6
:10242000C0681F4908401C49C86033E0FFE7E06905
:10243000012800D18DE51848C66806F00301206A1E
:10244000814225D106F0F001606A401EB1EB001F09
:102450001ED106F4FE41A06AB1EB002F18D106F0A0
:1024600078412C20005DB1EBC06F11D106F4C001A2
:10247000208E0122C2EB5000B1EB405F08D106F084
:10248000C0613420005DC2EB5000B1EB406F01D061
:1024900001205EE500205CE5001002400C809F01F9
:1024A000FCFFEEFE70B504462546681EB0F1807F45
:1024B00001D301200FE0681E4FF0E02148610F2199
:1024C0004FF0FF3003F0DAFA00204FF0E02188618E
:1024D00007200861002070BD7047704770470000FA
:1024E00010B50346002200BF93F83C00012801D13B
:1024F000022010BD012083F83C0000BF22F0FF0045
:10250000CC6840EA040222F440708C6840EA04027D
:1025100022F480604C6840EA040222F400600C68F7
:1025200040EA040222F480500C6940EA040222F4DA
:1025300000504C6940EA040222F480400C6B40EAEF
:10254000040222F470200C8B40EA044222F08050F6
:10255000CC6940EA0402124C1868A04203D0114C26
:102560001868A04213D122F470000C8D40EA045286
:1025700022F080700C6A40EA040222F000704C6A7B
:1025800040EA040222F00050CC6A40EA04021868D3
:10259000426400BF002083F83C0000BF00BFA8E7F2
:1025A000002C014000340140704770477047000024
:1025B00030B502460B4600BF92F83C00012801D11D
:1025C000022030BD012082F83C0000BF022082F8CA
:1025D0003D0010684168106884681D4D1068A8426D
:1025E00003D01C4D1068A84203D121F47001586833
:1025F0000143194801401868014310684160144DB7
:102600001068A84213D01068B0F1804F0FD0134D5E
:102610001068A8420BD0124D1068A84207D00D4D8B
:102620001068A84203D00F4D1068A84205D124F0CD
:1026300080049868044310688460012082F83D009B
:1026400000BF002082F83C0000BF00BFB9E70000D7
:10265000002C0140003401408FFFFFFD00040040CA
:102660000008004000400140704710B504460CB916
:10267000012010BD94F83D0028B9002084F83C00EA
:10268000204600F029F8022084F83D00211D206832
:1026900001F0E2FE012084F8480000BF84F83E000B
:1026A00001213F2001554020015541200155422084
:1026B00001554320015500BF00BF012084F84400AC
:1026C00045200155462001554720015500BF0120F6
:1026D00084F83D000020CCE738B504462068B0F10E
:1026E000804F16D100BF1448806D40F001001249A0
:1026F00088650846806D00F00100009000BF00BFB3
:10270000002201211C20FEF7F7FF1C20FEF7E0FF4E
:1027100011E00A49206888420DD100BF0648006ECA
:1027200040F48020044908660846006E00F48020CA
:10273000009000BF00BF38BD0010024000480140BB
:10274000014691F83D00012801D001207047022088
:1027500081F83D000868C06840F001000B68D8604F
:10276000184B0868984213D00868B0F1804F0FD01A
:10277000154B086898420BD0144B0868984207D054
:10278000134B0868984203D0124B0868984210D146
:1027900008688068104B00EA0302062A0FD0B2F5E1
:1027A000803F0CD00868006840F001000B6818609A
:1027B00005E00868006840F001000B681860002020
:1027C000C4E70000002C0140000400400008004065
:1027D0000034014000400140070001002DE9F041B4
:1027E00004460D46002700BF94F83C00012802D1A2
:1027F0000220BDE8F081012084F83C0000BF0220E7
:1028000084F83D00206886683F48064026F47F46ED
:10281000206886602868702824D00CDC00F00F0146
:10282000002964D10011072861D2DFE800F0535479
:10283000555649353F00354A811A90424FD009DC40
:10284000B0F5805F0DD0B0F5005F18D0B0F1101F6B
:102850004DD143E0102943D0202942D0502946D100
:1028600040E046E0D5E902136A68206801F067FE9F
:102870002068866846F077062068866039E0D5E9EA
:1028800002136A68206801F05AFE2068806840F4EC
:102890008040216888602CE0EA686968206802F05E
:1028A00041F85021206801F055FE22E0EA6869688D
:1028B000206802F06DF86021206801F04BFE18E0FE
:1028C000EA686968206802F02DF84021206801F06C
:1028D00041FE0EE000BF00BF00BF00BF00BF00BF51
:1028E00000BF00BF2968206801F034FE01E0012725
:1028F00000BF00BF012084F83D0000BF002084F825
:102900003C0000BF384674E788FFCEFF200010006F
:10291000704770B504462068C6682068056905F0F0
:102920000200022819D106F00200022815D1401F2A
:1029300021680861012020772068806900F0030089
:1029400018B12046FFF7E4FF05E0204600F020F92B
:10295000204600F00EFA0020207705F0040004283D
:1029600019D106F00400042815D1C043216808617C
:10297000022020772068806900F4407018B120465A
:10298000FFF7C6FF05E0204600F002F9204600F000
:10299000F0F90020207705F00800082819D106F08A
:1029A0000800082815D1C043216808610420207759
:1029B0002068C06900F0030018B12046FFF7A8FFA7
:1029C00005E0204600F0E4F8204600F0D2F90020AF
:1029D000207705F01000102819D106F010001028FB
:1029E00015D1C04321680861082020772068C0699C
:1029F00000F4407018B12046FFF78AFF05E020463A
:102A000000F0C6F8204600F0B4F90020207705F069
:102A1000010048B106F0010030B16FF001002168FB
:102A20000861204600F04CFA05F08000802804D0B0
:102A300005F40050B0F5005F0AD106F08000802850
:102A400006D16FF40250216808612046FFF745FD6A
:102A500005F48070B0F5807F0AD106F080008028F0
:102A600006D16FF48070216808612046FFF734FDBD
:102A700005F04000402809D106F04000402805D16B
:102A8000C04321680861204600F02CFA05F02000C0
:102A9000202809D106F02000202805D1C043216854
:102AA00008612046FFF71AFD05F48010B0F5801F7D
:102AB0000BD106F48010B0F5801F06D16FF48010A2
:102AC000216808612046FFF770FD05F40010B0F59D
:102AD000001F0BD106F40010B0F5001F06D16FF4F3
:102AE0000010216808612046FFF75EFD05F48000B4
:102AF000B0F5800F0BD106F48000B0F5800F06D141
:102B00006FF48000216808612046FFF74FFD05F44F
:102B10000000B0F5000F0BD106F40000B0F5000F77
:102B200006D16FF40000216808612046FFF79CFD84
:102B300070BD000010B586B00446142101A8FDF751
:102B4000A1FB1149206888421BD100BF0F48C06C0F
:102B500040F001000D49C8640846C06C00F0010057
:102B6000009000BF00BF8020019002200290002052
:102B7000039004900120059001A94FF09040FEF7CA
:102B800031FC06B010BD00000048014000100240BA
:102B900070472DE9F04104460D461646002700BF58
:102BA00094F83C00012802D10220BDE8F081012008
:102BB00084F83C0000BF0C2E51D005DC4EB1042E31
:102BC0001ED0082E7AD133E0102E60D0142EF9D109
:102BD00075E02946206801F0C9FC2068806940F052
:102BE0000800216888612068806920F0040021685D
:102BF000886120688069296908432168886178E0D4
:102C00002946206801F00AFD2068806940F40060D0
:102C1000216888612068806920F48060216888616B
:102C200020688069296940EA01202168886160E0A4
:102C30002946206801F04EFD2068C06940F0080078
:102C40002168C8612068C06920F004002168C8615B
:102C50002068C069296908432168C86149E029469C
:102C6000206801F093FD2068C06940F4006021688D
:102C7000C8612068C06920F480602168C86120684C
:102C8000C069296940EA01202168C86131E029460C
:102C9000206801F0D7FD2068006D40F00800216831
:102CA00008652068006D20F0040021680865206830
:102CB000006D29690843216808651AE017E0294674
:102CC000206801F0F7FD2068006D40F40060216885
:102CD00008652068006D20F4806021680865206820
:102CE000006D296940EA01202168086501E001279B
:102CF00000BF00BF00BF002084F83C0000BF384682
:102D000053E710B504460CB9012010BD94F83D00FE
:102D100028B9002084F83C00204600F029F8022061
:102D200084F83D00211D206801F096FB012084F805
:102D3000480000BF84F83E0001213F20015540209B
:102D4000015541200155422001554320015500BF46
:102D500000BF012084F8440045200155462001555C
:102D60004720015500BF012084F83D000020CCE73A
:102D70007047704770B504460D4615B994F83E008B
:102D800015E0042D02D13F20005D10E0082D02D196
:102D90004020005D0BE00C2D02D14120005D06E0DB
:102DA000102D02D14220005D01E04320005D01288A
:102DB00001D0012070BD1DB9022084F83E001AE048
:102DC000042D03D102213F20015514E0082D03D129
:102DD0000221402001550EE00C2D03D1022141209B
:102DE000015508E0102D03D102214220015502E0D7
:102DF00002214320015501222946206801F08EFB63
:102E00002749206888420FD02649206888420BD085
:102E100025492068884207D024492068884203D089
:102E200023492068884201D1012000E0002028B118
:102E30002068406C40F400402168486418492068CC
:102E4000884213D02068B0F1804F0FD01949206814
:102E500088420BD018492068884207D01149206861
:102E6000884203D010492068884210D120688068C9
:102E7000124900EA0106062E0FD0B6F5803F0CD0AD
:102E80002068006840F001002168086005E02068C3
:102E9000006840F001002168086000208AE7000017
:102EA000002C01400034014000400140004401403A
:102EB00000480140000400400008004007000100F5
:102EC00010B504460648844209D103F045FA03F0E0
:102ED000CDFA03F01BFD03F053FC03F0A7FB10BD7C
:102EE000900000207047014600BF91F8840001283F
:102EF00001D102207047012081F8840000BF242006
:102F0000C1F88800086802680868006820F00100BD
:102F10000B68186022F000520020486608680260C2
:102F20002020C1F8880000BF002081F8840000BF85
:102F300000BFDFE77047704770B504460D4600BF1D
:102F400094F88400012801D1022070BD012084F88A
:102F5000840000BF2420C4F8880020680668206828
:102F6000006820F00100216808602068806820F077
:102F70006060284321688860204601F03FFD20689A
:102F800006602020C4F8880000BF002084F8840078
:102F900000BF00BFD9E770B504460D4600BF94F8E6
:102FA0008400012801D1022070BD012084F8840032
:102FB00000BF2420C4F888002068066820680068E4
:102FC00020F00100216808602068806820F06040DF
:102FD000284321688860204601F010FD20680660C3
:102FE0002020C4F8880000BF002084F8840000BFBF
:102FF00000BFD9E770477047704700002DE9F047E0
:1030000004462068C569206806682068876840F61D
:103010000F0005EA0009B9F1000F0FD105F02000FB
:1030200060B106F0200010B907F0805030B1606F39
:1030300010B12046616F8847BDE8F087B9F1000FF5
:103040007ED0DF48384018B9DE4830400028F7D03D
:1030500005F0010058B106F4807040B101202168EC
:103060000862D4F8900040F00100C4F8900005F028
:10307000020058B107F0010040B102202168086247
:10308000D4F8900040F00400C4F8900005F004006B
:1030900058B107F0010040B1042021680862D4F85B
:1030A000900040F00200C4F8900005F0080070B1F4
:1030B00006F0200010B9C248384040B1082021680D
:1030C0000862D4F8900040F00800C4F8900005F4BD
:1030D000006060B106F0806048B14FF40060216884
:1030E0000862D4F8900040F02000C4F89000D4F8B2
:1030F0009000002852D005F0200050B106F02000CA
:1031000010B907F0805020B1606F10B12046616F98
:103110008847D4F890A02068806800F040004028DC
:1031200002D00AF0280070B3204601F08BFD206821
:10313000806800F04000402826D100BF00BF00E0BA
:103140002DE02168083151E8001F21F0400021687E
:10315000083141E80002002AF1D100BFD4F8800014
:1031600068B19948D4F880108863D4F88000FEF7DD
:10317000DAF898B1D4F88000816B88470EE02046D9
:10318000FFF73AFF0AE003E02046FFF735FF05E0CE
:103190002046FFF731FF0020C4F890004CE7E06EB6
:1031A000012865D105F01000002861D006F010005C
:1031B0000028FAD01020216808622068806800F09A
:1031C000400040287AD1D4F88000006840681FFA97
:1031D00080F8B8F1000F5CD0B4F85C00404558DDD1
:1031E000A4F85E80D4F880000068006800F0200039
:1031F000E8BB00BF00BF216851E8001F21F48070C8
:10320000226842E800010029F5D100BF00BF00BFDD
:103210002168083151E8001F21F0010021680831C0
:1032200041E80002002AF3D100BF00BF00BF2168BF
:10323000083151E8001F21F040002168083141E8C1
:103240000002002AF3D100BF2020C4F88C00002027
:10325000E06600BF00BF216851E8001F21F01000A8
:10326000226842E800010029F5D100BF01E004E036
:1032700068E0D4F88000FEF717F802202067B4F861
:103280005C00B4F85E20801A81B22046FFF752FE3F
:1032900012E0B4F85C0040450ED1D4F8800000681C
:1032A000006800F02000202806D102202067B4F832
:1032B0005C102046FFF73EFEBEE6FFE734F85C0FE9
:1032C0006188401A1FFA80F860885C3CC8B3B8F186
:1032D000000F36D000BF00BF216851E8001F21F465
:1032E0009070226842E800010029F5D100BF00BFBC
:1032F00000BF2168083151E8001F314AD24301EA7A
:1033000002002168083141E80002002AF1D100BF23
:103310002020C4F88C000020E066606700BF00BF7A
:10332000216851E8001F21F01000226842E80001E6
:103330000029F5D100BF0220206741462046FFF753
:10334000F9FD79E605F4801050B107F4800038B13A
:103350004FF48010216808622046FFF74CFE6BE6B0
:1033600005F0800058B106F0800010B907F40000A5
:1033700028B1A06F10B12046A16F88475CE605F028
:10338000400030B106F0400018B1204601F090FC3A
:1033900052E605F4000030B106F0804018B1204636
:1033A000FFF728FE48E605F0807030B106F00040D7
:1033B00018B12046FFF7BFFD3EE600BF3CE6000027
:1033C0000100001020010004374C000810B504462D
:1033D0000CB9012010BDA06900B100E000BFD4F815
:1033E000880028B9002084F88400204600F02AF8DC
:1033F0002420C4F888002068006820F001002168BB
:103400000860A06A10B1204601F024FB204601F0BC
:1034100069FF012800D1DDE72068406820F4904072
:10342000216848602068806820F02A002168886050
:103430002068006840F0010021680860204601F023
:1034400085FBC7E710B598B00446142113A8FCF714
:1034500019FF442102A8FCF715FF21492068884282
:103460003BD1012002900020039002A8FEF72CFA25
:1034700008B1FDF789FA00BF1A48006E40F4804099
:10348000184908660846006E00F48040019000BFAD
:1034900000BF00BF0846C06C40F00100C864084689
:1034A000C06C00F00100019000BF00BF4FF4C0608D
:1034B000139002201490002015901690072017906A
:1034C00013A94FF09040FDF78DFF002211462520F3
:1034D000FEF712F92520FEF7FBF818B010BD00002A
:1034E000003801400010024070B504460D461646F3
:1034F000D4F88C00202821D105B10EB9012070BD6F
:103500000020E0660E492068884211D0206840689B
:1035100000F4000060B100BF00BF216851E8001F47
:1035200041F08060226842E800010029F5D100BF27
:1035300032462946204602F097F8E0E70220DEE70F
:103540000080004070B52DED028B04462748844270
:1035500049D1274800784D2804D0532827D0542833
:1035600035D10EE02348007828B9092222A11F484E
:1035700000F064F804E0092222A11C4800F05EF883
:103580002BE023480068FDF724F841EC180B53ECBE
:10359000182B20A1224802F055FA2148FCF77DFEA5
:1035A00085B22A461E49114800F048F815E01D482A
:1035B00002881DA11A4802F045FA1948FCF76DFE71
:1035C00085B22A461649094800F038F805E0052278
:1035D00018A1064800F032F800BF00BF01220449DC
:1035E0000248FFF781FFBDEC028B70BD280100206F
:1035F000230000201B0000204D6F64653A415554A4
:103600004F0000004D6F64653A4D414E550000007B
:103610001000002054656D703A252E3166000000C0
:10362000D00100201C00002053706565643A2564B9
:1036300072706D004552524F5200000030B5034683
:10364000D3F88800202845D101B10AB9012030BD46
:1036500043F8501F9A80DA80002098621864212075
:1036600098635869503BB0F1005F19D19868B0F584
:10367000805F04D1186910B91748986701E01748AE
:10368000986700BF00BF1C68083454E8004F44F43A
:1036900000001C68083444E80005002DF3D117E051
:1036A0009868B0F5805F04D1186910B90C48986724
:1036B00001E00C48986700BF00BF1C6854E8004F49
:1036C00044F080001D6845E80004002CF5D100BFDF
:1036D0000020BCE70220BAE7275800080559000877
:1036E000C5570008A9580008704700BFFEE7000052
:1036F00000B585B014216846FCF7C4FD4FF6FF7095
:103700000090002001900320039000200290694661
:103710000248FDF767FE05B000BD00000008004844
:1037200000B585B014216846FCF7ACFD4FF6FF707C
:103730000090012001900320039000200290694630
:103740000248FDF74FFE05B000BD0000000800482C
:1037500070B50546002204210E48FDF743FF0E48D0
:10376000006886B200240021084600F07BF900F0D2
:10377000C9F900BF03E0284600F088F9641CB4F5DD
:10378000963FF8D304480660012204210148FDF762
:1037900029FF70BD000C00481408004800B587B030
:1037A000142102A8FCF76EFD00BF2A48C06C40F04F
:1037B00004002849C8640846C06C00F00400019069
:1037C00000BF00BF00BF0846C06C40F00100C864E5
:1037D0000846C06C00F00100019000BF00BF00BFB0
:1037E0000846C06C40F00200C8640846C06C00F097
:1037F0000200019000BF00BF4FF44870029001200A
:10380000039000200590049002A91348FDF7EAFDFB
:103810004FF48070029001200390002005900490E6
:1038200002A94FF09040FDF7DDFDFFF779FF4FF063
:103830009040806940F480704FF090418861064864
:103840001830006840F4087003491831086007B068
:1038500000BD0000001002400004004870B505469D
:103860000E461446A4F12000C4B204EB44000449FF
:1038700001EB00123146284600F032F870BD00001E
:10388000B46900082DE9F04107460C4600220421E6
:103890001148FDF7A7FE114800681FFA80F80025BF
:1038A00040F23F1609E0227831463846FFF7D6FF4E
:1038B000A6F1100086B2641C6D1C207808B1142D8E
:1038C000F1D30648C0F80080012204210248FDF728
:1038D00089FEBDE8F0810000000C00481408004893
:1038E0002DE9F04306468946174600240025A046E8
:1038F000B0464946404600F0B5F800BF1EE000F073
:1039000001F900250FE037F814000121A940084013
:1039100020B90C48008800F0B9F803E00A48008894
:1039200000F0B4F86D1C102DEDD308F1010000F08B
:10393000FF084946404600F095F8641C182CDED379
:10394000BDE8F083160000201400002010B500220E
:1039500004211248FDF746FE1148006884B2FFF7C3
:103960001DFF002000F020F80E490880084600885E
:1039700048F23021884202D100F092FB01E000F0D1
:103980001FFC002000F010F806490880044804607D
:10399000012204210148FDF725FE10BD000C00485E
:1039A000140800481800002070B504462748006835
:1039B00040F40070254908600846006840F48070B3
:1039C000086022481038006840F020001F49103974
:1039D00008601F4804601D48006840F020001B4933
:1039E000086000BF00BF00BF18481038006840F0F2
:1039F00020001649103908600846006840F48070BD
:103A00000860FFF775FE4FF09040806A40F48070C8
:103A10004FF09041886200BF00BF00BF0C48001FFC
:103A2000006885B24FF09040806940F480704FF09C
:103A300090418861FFF774FE04481038006840F434
:103A40000070024910390860284670BD28040048FB
:103A50001408004801B5BDF800000149088008BD00
:103A60001600002030B504460D462146202000F007
:103A700085F82946212000F081F830BD01B5BDF858
:103A800000000149088008BD140000201B49096896
:103A900041F40071194A116018491039096841F45C
:103AA0008071164A103A11601146096841F02001F0
:103AB0001160134908601149096841F020010F4A5B
:103AC000116000BF00BF00BF0C491039096841F008
:103AD00020010A4A103A11601146096841F48071C8
:103AE000116000BF00BF00BF04491039096841F4EC
:103AF0000071024A103A1160704700002804004823
:103B0000140800481B48006840F400701949086018
:103B10000846006840F48070086016481038006855
:103B200040F0200013491039086022201249086033
:103B30001048006840F020000E49086000BF00BF38
:103B400000BF0C481038006840F0200009491039C7
:103B500008600846006840F48070086000BF00BF3D
:103B600000BF04481038006840F400700149103963
:103B7000086070472804004814080048214A126869
:103B800042F400721F4B1A601A46126842F48072A7
:103B90001A601C4A103A126842F02002194B103B7E
:103BA0001A60194A1060174A126842F02002154B39
:103BB0001A6000BF00BF00BF124A103A126842F0FC
:103BC0002002104B103B1A601A46126842F48072B1
:103BD0001A600D4A11600B4A126842F02002094B2C
:103BE0001A6000BF00BF00BF064A103A126842F0D8
:103BF0002002044B103B1A601A46126842F480728D
:103C00001A60704728040048140800488168024A76
:103C10001140491C81607047C0FFFF7F01468868E2
:103C200000F01F007047024602F1600000EB8103C4
:103C3000186800F0F840704701468868C0F3C0007B
:103C400070470146886800F00100704701468868A7
:103C5000C0F30070704701468868C0F38000704769
:103C60008168024A1140091D81607047C0FFFF7FD3
:103C700070B500F11404C1F3406504EB85031C68C2
:103C8000C1F304560725B540AC43C1F3045502FA0D
:103C900005F52C431C6070BD826822F0E0720A4377
:103CA0008260704710B500F1600404EB81031C686A
:103CB00024F0004414431C6010BD426922F000420D
:103CC0000A4342617047000000B589B0202101A875
:103CD000FCF7D8FA1A481B490860400248600021E6
:103CE00018488160C1600161416104218161002146
:103CF0000177417701210162002180F82410C1621F
:103D0000016380F83810C16380F84010FDF7C8F8EF
:103D100008B1FCF739FE0C48019006200290002003
:103D200003907F200490042005900020069001A9B4
:103D30000448FCF72DFE08B1FCF726FE09B000BDD3
:103D400000010050240000200080F03E00B587B044
:103D5000142102A8FCF796FA00BF5048C06C40F04E
:103D600004004E49C8640846C06C00F0040001908D
:103D700000BF00BF00BF0846C06C40F02000C86410
:103D80000846C06C00F02000019000BF00BF00BFDB
:103D90000846C06C40F00100C8640846C06C00F0E2
:103DA0000100019000BF00BF00BF0846C06C40F09A
:103DB0000200C8640846C06C00F00200019000BF19
:103DC00000BF00BF0846C06C40F00800C864084649
:103DD000C06C00F00800019000BF00BF00224FF649
:103DE000FF712F48FDF7FEFB00224FF480714FF06A
:103DF0009040FDF7F7FB002204212A48FDF7F2FB73
:103E000000224FF408712848FDF7ECFB4FF6FF70D5
:103E100002900120039000200490059002A9204800
:103E2000FDF7E0FA012002900020039001200490A9
:103E300002A94FF09040FDF7D5FA0720029000202C
:103E400003900120049002A91748FDF7CBFA4FF424
:103E5000807002900120039000200490059002A938
:103E60004FF09040FDF7BEFA04200290012003902D
:103E700000200490059002A90A48FDF7B3FA4FF418
:103E8000087002900120039000200490059002A980
:103E90000548FDF7A7FA07B000BD0000001002407A
:103EA00000080048000C00480004004800B595B028
:103EB0001C210EA8FCF7E6F9342101A8FCF7E2F971
:103EC0002148224908604F20486000211F48816036
:103ED00040F2E731C1600021016141618161FEF77B
:103EE000C4FB08B1FCF750FD1848FEF70AFF08B103
:103EF000FCF74AFD60200E90C8200F900020109023
:103F0000119012901390149000220EA90F48FEF702
:103F100040FE08B1FCF738FD0020019002900390AC
:103F2000049005904FF400500690002007900D90EB
:103F300001A90648FEF7D4FA08B1FCF725FD0348AD
:103F4000FEF7F8FD15B000BD00480140DC00002080
:103F500000B587B000200390049005900690009073
:103F6000019002904FF080401449086040F21F30E9
:103F7000486000211148816042F20F71C160002148
:103F800001618161FEF771FB08B1FCF7FDFC4FF4A4
:103F90008050039003A90948FEF720FC08B1FCF704
:103FA000F3FC00200090029069460448FEF700FBF5
:103FB00008B1FCF7E9FC07B000BD0000900000204C
:103FC00010B51848184908604FF416504860002191
:103FD00015488160C16001610C214161002181614E
:103FE000C1610162416200200F4988620846FFF703
:103FF000EDF908B1FCF7C8FC00210B48FEF7CBFF38
:1040000008B1FCF7C1FC00210748FEF795FF08B195
:10401000FCF7BAFC0448FEF766FF08B1FCF7B4FCF5
:1040200010BD0000003801402801002000BFFEE75D
:1040300000BFFEE77047000070B5164DED6805F053
:104040000304144DED68C5F303156B1C022C0CD052
:10405000032C09D1104DB5FBF3F50E4EF668C6F3EF
:10406000062605FB06F10AE000BF0C4DB5FBF3F593
:10407000084EF668C6F3062605FB06F100BF00BF32
:10408000044DED68C5F341656D1C6A00B1FBF2F0AB
:1040900070BD00000010024000366E010024F400E4
:1040A00000B501210020FFF769FD4FF47A70FCF79D
:1040B0005CFC00210120FFF761FD41F290711020AE
:1040C000FFF75CFD4FF41C516020FFF757FD012105
:1040D0006120FFF753FD02214620FFF74FFD48F214
:1040E00010011320FFF74AFD48F2FE011220FFF7EE
:1040F00045FD4FF4A0610220FFF740FD41F2300181
:104100000320FFF73BFD40F203313020FFF736FD7F
:1041100040F203313120FFF731FD40F2033132200C
:10412000FFF72CFD4FF440713320FFF727FD0321EB
:104130003420FFF723FD40F203313520FFF71EFD49
:1041400014213620FFF71AFD40F203313720FFF724
:1041500015FD40F203313820FFF710FD40F2033126
:104160003920FFF70BFD4FF440713A20FFF706FDB1
:1041700003213B20FFF702FD40F203313C20FFF713
:10418000FDFC4FF4A0513D20FFF7F8FC4FF4007107
:104190009220FFF7F3FC40F203319320FFF7EEFC8F
:1041A00040F60D019020FFF7E9FC41F218010320D1
:1041B000FFF7E4FC40F273110720FFF7DFFC00BDBE
:1041C00010B543F20801E320FFF7D8FC1221E720E5
:1041D000FFF7D4FC41F23121EF20FFF7CFFC0021A3
:1041E0000120FFF7CBFC4FF4E0610220FFF7C6FC93
:1041F00041F230010320FFF7C1FC00210420FFF74A
:10420000BDFC40F207210820FFF7B8FC002109207F
:10421000FFF7B4FC00210A20FFF7B0FC00210C20BE
:10422000FFF7ACFC00210D20FFF7A8FC00210F20B8
:10423000FFF7A4FC00211020FFF7A0FC07211120AC
:10424000FFF79CFC00211220FFF798FC00211320AF
:10425000FFF794FCC820FDF7B1F841F290611020FF
:10426000FFF78CFC40F227211120FFF787FC32205A
:10427000FDF7A4F81D211220FFF780FC3220FDF786
:104280009DF84FF400611320FFF778FC14212920DA
:10429000FFF774FC0B212B20FFF770FC3220FDF799
:1042A0008DF800212020FFF769FC00212120FFF775
:1042B00065FC07213020FFF761FC40F207713120D7
:1042C000FFF75CFC06213220FFF758FC40F2047136
:1042D0003520FFF753FC41F604713620FFF74EFC02
:1042E00004213720FFF74AFC00213820FFF746FC65
:1042F00040F206713920FFF741FC40F201713C2089
:10430000FFF73CFC0F213D20FFF738FC0021502037
:10431000FFF734FCEF215120FFF730FC0021522041
:10432000FFF72CFC40F23F115320FFF727FC4FF41E
:104330001C516020FFF722FC01216120FFF71EFCC9
:1043400000216A20FFF71AFC00218020FFF716FCED
:1043500000218120FFF712FC00218220FFF70EFCD4
:1043600000218320FFF70AFC00218420FFF706FCD0
:1043700000218520FFF702FC10219020FFF7FEFBB3
:1043800000219220FFF7FAFB03219320FFF7F6FBB1
:104390004FF488719520FFF7F1FB00219720FFF77C
:1043A000EDFB00219820FFF7E9FB41F21801032003
:1043B000FFF7E4FB40F273110720FFF7DFFB10BDAE
:1043C000704710B5FDF71AF910BD00B593B038214C
:1043D00005A8FBF757FF14216846FBF753FF4FF47E
:1043E0000070FDF7DBF90120059000040690022023
:1043F0000C9003210D910E9114210F910221109127
:104400001191129105A8FDF79FFD08B1FCF7BCFAC8
:104410000F20009003200190002002900390049050
:1044200002216846FDF708FC08B1FCF7ADFA13B0AD
:1044300000BD00000348006840F4700001490860B6
:104440007047000088ED00E010B50248FEF761FA01
:1044500010BD00009000002010B50268284B984263
:104460000BD0B0F1804F08D0264B984205D0264B98
:10447000984202D0254B984203D122F070024B683B
:104480001A431F4B984214D0B0F1804F11D01D4BEE
:1044900098420ED01C4B98420BD01C4B984208D02F
:1044A0001B4B984205D01B4B984202D01A4B9842A6
:1044B00003D122F44072CB681A4322F080034C6986
:1044C00043EA04028B68C3620B6883620C4B984218
:1044D0000BD00E4B984208D00D4B984205D00D4B97
:1044E000984202D00C4B984201D10B6903630368D8
:1044F00043F00403036001234361026010BD000028
:10450000002C01400004004000080040003401403D
:1045100000400140004401400048014030B501F036
:104520001F05012404FA05F3046A9C430462046A2B
:1045300001F01F0502FA05F52C43046230BD30B5C9
:104540000C46816821F47F4142EA03252543294333
:10455000816030BD0A468168034B194042F0070371
:1045600019438160704700008FFFCFFF30B5026AAA
:10457000056A25F00105056243688469214D2C40D8
:1045800024F003040D682C4322F002028D682A43B4
:104590001D4DA84200D10FE01C4DA84200D10BE0F8
:1045A0001B4DA84200D107E01A4DA84200D103E0FC
:1045B000194DA84208D100BF056A25F0040505621F
:1045C00022F00802CD682A430F4DA8420BD00F4DB0
:1045D000A84208D00E4DA84205D00E4DA84202D0E8
:1045E0000D4DA84207D123F4807323F400734D6965
:1045F0002B438D692B43436084614D6845630262A0
:1046000030BD00008FFFFEFF002C01400034014050
:1046100000400140004401400048014030B5026ABA
:10462000056A25F01005056243688469234D2C4016
:1046300024F440740D6844EA052422F020028D68B9
:1046400042EA05121E4DA84200D10FE01D4DA842BE
:1046500000D10BE01C4DA84200D100BF1B4DA84269
:1046600000D100BF1A4DA84209D108E0056A25F023
:104670004005056222F08002CD6842EA0512104D25
:10468000A8420BD00F4DA84208D00F4DA84205D02C
:104690000E4DA84202D00E4DA84209D123F48063EA
:1046A00023F400634D6943EA85038D6943EA85037A
:1046B000436084614D688563026230BDFF8FFFFEF9
:1046C000002C014000340140004001400044014002
:1046D0000048014030B5026A056A25F4807505621C
:1046E0004368C469234D2C4024F003040D682C4317
:1046F00022F400728D6842EA05221F4DA84200D1C3
:104700000FE01E4DA84200D10BE01D4DA84200D184
:1047100000BF1C4DA84200D100BF1B4DA84209D1CB
:1047200008E0056A25F48065056222F40062CD6820
:1047300042EA0522104DA8420BD0104DA84208D0E5
:104740000F4DA84205D00F4DA84202D00E4DA842F1
:1047500009D123F4805323F400534D6943EA051330
:104760008D6943EA05134360C4614D68C563026205
:1047700030BD00008FFFFEFF002C014000340140DF
:1047800000400140004401400048014030B5026A49
:10479000056A25F4805505624368C469234D2C40A1
:1047A00024F440740D6844EA052422F400528D6814
:1047B00042EA05321E4DA84200D10FE01D4DA8422D
:1047C00000D10BE01C4DA84200D100BF1B4DA842F8
:1047D00000D100BF1A4DA84209D108E0056A25F4AE
:1047E0008045056222F40042CD6842EA0532104D50
:1047F000A8420BD00F4DA84208D00F4DA84205D0BB
:104800000E4DA84202D00E4DA84209D123F4804398
:1048100023F400434D6943EA85138D6943EA851308
:104820004360C4614D680564026230BDFF8FFFFEC6
:10483000002C014000340140004001400044014090
:104840000048014030B5026A056A25F480350562EA
:104850004368046D114D2C400D682C4322F4003246
:104860000D8942EA05420E4DA8420BD00D4DA842DB
:1048700008D00D4DA84205D00C4DA84202D00C4DD9
:10488000A84204D123F480334D6943EA05234360F1
:1048900004654D688564026230BD00008FFFFEFF35
:1048A000002C014000340140004001400044014020
:1048B0000048014030B5026A056A25F4801505629A
:1048C0004368046D114D2C400D6844EA052422F420
:1048D00000120D8942EA05520D4DA8420BD00D4D34
:1048E000A84208D00C4DA84205D00C4DA84202D0D9
:1048F0000B4DA84204D123F480234D6943EA85235C
:10490000436004654D68C564026230BDFF8FFFFEE1
:10491000002C0140003401400040014000440140AF
:104920000048014030B50B461446026A056A25F07E
:1049300001050562114DA84200D10FE0104DA842BB
:1049400000D10BE00F4DA84200D107E00E4DA84268
:1049500000D103E00D4DA84204D100BF056A25F047
:1049600004050562816921F0F00141EA041122F099
:104970000A021A438161026230BD0000002C01402E
:104980000034014000400140004401400048014023
:1049900030B50B461446026A056A25F0100505621B
:1049A000114DA84200D10FE0104DA84200D10BE0FC
:1049B0000F4DA84200D100BF0E4DA84200D100BF4C
:1049C0000D4DA84204D103E0056A25F040050562BB
:1049D000816921F4704141EA043122F0A00242EAE7
:1049E00003128161026230BD002C0140003401409D
:1049F00000400140004401400048014070B5456E50
:104A00002DB90125A0F86A50A0F868501CE00823D1
:104A100008240568AD68C5F342610568AD686A0F92
:104A20000A4DAD5C15FB04F5094EB65C95FBF6F539
:104A3000A0F86A50054D6D5C15FB03F5044E765CDD
:104A400095FBF6F5A0F8685070BD00008C69000871
:104A50009469000890F8281001F00801082907D18E
:104A60000168496821F40041826B1143026851607A
:104A700090F8281001F0010139B10168496821F46A
:104A80000031C26A11430268516090F8281001F0A9
:104A90000201022907D10168496821F48031026BC3
:104AA00011430268516090F8281001F004010429B4
:104AB00007D10168496821F48021426B11430268E3
:104AC000516090F8281001F01001102907D10168F9
:104AD000896821F48051C26B11430268916090F89B
:104AE000281001F02001202907D10168896821F4EC
:104AF0000051026C11430268916090F8281001F097
:104B00004001402913D10168496821F48011426CA9
:104B1000114302685160416CB1F5801F07D10168F3
:104B2000496821F4C001826C11430268516090F819
:104B3000281001F08001802907D10168496821F41B
:104B40000021C26C114302685160704738B50446B9
:104B50000020C4F89000FCF74BFD05462068006873
:104B600000F00800082821D16FF07E402B4600227B
:104B70004FF400110090204600F003FFB0B100BFD9
:104B800000BF216851E8001F21F08000226842E840
:104B900000010029F5D100BF2020C4F8880000BF23
:104BA000002084F8840000BF032038BD206800681E
:104BB00000F00400042830D16FF07E402B46002224
:104BC0004FF480010090204600F0DBFE28B300BFC8
:104BD00000BF216851E8001F21F49070226842E86C
:104BE00000010029F5D100BF00BF00BF21680831D6
:104BF00051E8001F21F001002168083141E800025E
:104C0000002AF3D100BF2020C4F88C0000BF002090
:104C100084F8840000BF0320C7E72020C4F8880080
:104C2000C4F88C000020E066206700BF84F8840090
:104C300000BF00BFB9E770B50446A56A2846FEF775
:104C4000DBF970BD00BF00BF026852E8002F22F4FC
:104C50009071036843E80012002AF5D100BF00BF3D
:104C600000BF0268083252E8002F104B02EA03012D
:104C70000268083242E80013002BF2D100BFC16E77
:104C800001290CD100BF00BF026852E8002F22F0BA
:104C90001001036843E80012002AF5D100BF20216B
:104CA000C0F88C100021C16641677047FEFFFFEF1E
:104CB00010B5044600BF00BF216851E8001F21F075
:104CC0004000226842E800010029F5D100BF202001
:104CD000C4F888000020A0672046FEF705FD10BD3F
:104CE0002DE9F0410446B4F86070D4F88C00222815
:104CF0006ED12068406A86B2A56D06EA070028805A
:104D0000A06D801CA065B4F85E00401EA4F85E0093
:104D1000B4F85E00002861D100BF00BF216851E8EF
:104D2000001F21F49070226842E800010029F5D1AB
:104D300000BF00BF00BF2168083151E8001F21F00B
:104D400001002168083141E80002002AF3D100BFC8
:104D50002020C4F88C00002060672067204920686C
:104D6000884211D02068406800F4000060B100BFA4
:104D700000BF216851E8001F21F08060226842E8EE
:104D800000010029F5D100BFE06E01281CD10020F0
:104D9000E06600BF00BF216851E8001F21F010004D
:104DA000226842E800010029F5D100BF2068C069EF
:104DB000C0F3001010B1102021680862B4F85C1034
:104DC0002046FEF7B7F809E02046FEF7BBFB05E0FA
:104DD0002068806940F0080021688861BDE8F081A2
:104DE000008000402DE9F84F0446B4F860B0206818
:104DF000C5692068006800902068D0F808A0D4F841
:104E00008C0022287ED1B4F86890AEE02068406A19
:104E10001FFA80F8A76D08EA0B003880A06D801C8F
:104E2000A065B4F85E00401EA4F85E002068C56965
:104E300005F00700B0B305F0010060B1009800F480
:104E4000807040B1012021680862D4F8900040F0E1
:104E50000100C4F8900005F0020058B10AF001000A
:104E600040B1022021680862D4F8900040F00400AC
:104E7000C4F8900005F0040058B10AF0010040B1F8
:104E8000042021680862D4F8900040F00200C4F8C1
:104E90009000D4F8900028B12046FEF7ADF800202D
:104EA000C4F89000B4F85E0000285ED100BF00BFD7
:104EB000216851E8001F21F48070226842E8000157
:104EC0000029F5D100BF00BF00BF2168083151E8BB
:104ED000001F414A01EA02002168083141E800024E
:104EE000002AF2D100BF2020C4F88C0000206067A7
:104EF00020673A492068884213D02068406800F44F
:104F0000000000E05FE060B100BF00BF216851E831
:104F1000001F21F08060226842E800010029F5D1DD
:104F200000BFE06E01281CD10020E06600BF00BF7A
:104F3000216851E8001F21F01000226842E80001BA
:104F40000029F5D100BF2068C069C0F3001010B17E
:104F5000102021680862B4F85C102046FDF7EAFFD3
:104F600002E02046FEF7EEFA07E0B9F1000F04D0A8
:104F700005F0200000287FF449AF00BFB4F85E6060
:104F800006B3B4F86800B04223DD00BF00BF21685B
:104F9000083151E8001F21F080502168083141E8B4
:104FA0000002002AF3D100BF0D48606700BF00BFB8
:104FB000216851E8001F41F02000226842E800010A
:104FC0000029F5D105E02068806940F008002168DB
:104FD0008861BDE8F88F0000FEFFFFEF0080004011
:104FE000E14C000870B50446B4F86060D4F88C0059
:104FF00022286FD12068406A85B2F0B22840A16DA6
:105000000870A06D401CA065B4F85E00401EA4F8B6
:105010005E00B4F85E00002862D100BF00BF2168C6
:1050200051E8001F21F49070226842E80001002935
:10503000F5D100BF00BF00BF2168083151E8001F53
:1050400021F001002168083141E80002002AF3D173
:1050500000BF2020C4F88C00002060672067214931
:105060002068884211D02068406800F4000060B1D8
:1050700000BF00BF216851E8001F21F08060226856
:1050800042E800010029F5D100BFE06E01281CD1E3
:105090000020E06600BF00BF216851E8001F21F03A
:1050A0001000226842E800010029F5D100BF206805
:1050B000C069C0F3001010B1102021680862B4F874
:1050C0005C102046FDF736FF0AE02046FEF73AFA6C
:1050D00006E0FFE72068806940F0080021688861E9
:1050E00070BD0000008000402DE9F05F0446B4F878
:1050F00060A02068C5692068D0F800B02068D0F8AA
:105100000890D4F88C0022287ED1B4F86880ADE0F5
:105110002068406A87B20AF0FF003840A16D08702D
:10512000A06D401CA065B4F85E00401EA4F85E00AF
:105130002068C56905F00700A8B305F0010058B163
:105140000BF4807040B1012021680862D4F890000F
:1051500040F00100C4F8900005F0020058B109F0D9
:10516000010040B1022021680862D4F8900040F0AC
:105170000400C4F8900005F0040058B109F00100E3
:1051800040B1042021680862D4F8900040F0020089
:10519000C4F89000D4F8900028B12046FDF72CFF09
:1051A0000020C4F89000B4F85E0000285ED100BF73
:1051B00000BF216851E8001F21F48070226842E896
:1051C00000010029F5D100BF00BF00BF21680831F0
:1051D00051E8001F404A01EA02002168083141E815
:1051E0000002002AF2D100BF2020C4F88C00002069
:1051F0006067206739492068884213D0206840687A
:1052000000F4000070B100E05EE000BF00BF216864
:1052100051E8001F21F08060226842E80001002967
:10522000F5D100BFE06E01281CD10020E06600BF70
:1052300000BF216851E8001F21F01000226842E8F9
:1052400000010029F5D100BF2068C069C0F300103B
:1052500010B1102021680862B4F85C102046FDF7F8
:1052600069FE02E02046FEF76DF907E0B8F1000F95
:1052700004D005F0200000287FF44AAF00BFB4F846
:105280005E6006B3B4F86800B04223DD00BF00BF23
:105290002168083151E8001F21F080502168083151
:1052A00041E80002002AF3D100BF0D48606700BF4B
:1052B00000BF216851E8001F41F02000226842E849
:1052C00000010029F5D105E02068806940F0080060
:1052D00021688861BDE8F09FFEFFFFEF008000407D
:1052E000E54F00082DE9FE4F044600200290D44906
:1052F0002068884200D100E000BF2169A06808430F
:1053000061690843E16940EA010820680068CD4905
:10531000084040EA0800216808602068406820F4DE
:105320004050E168084321684860D4F81880C449B7
:105330002068884202D0206A40EA08082068806815
:10534000C149084040EA0800216888602068C06AB6
:1053500020F00F00616A08432168C86200BFBB49A2
:105360002068884216D1BA48006800F0030030B1C6
:10537000012808D0022804D0032808D105E001251F
:1053800007E0022505E0042503E0082501E01025DB
:1053900000BF6FE0AF492068884216D1AC48006872
:1053A00000F00C0030B1042808D0082804D00C28E4
:1053B00008D105E0002507E0022505E0042503E00B
:1053C000082501E0102500BF54E0A3492068884269
:1053D00016D19F48006800F0300030B1102808D086
:1053E000202804D0302808D105E0002507E0022558
:1053F00005E0042503E0082501E0102500BF39E0A1
:1054000096492068884216D19148006800F0C00093
:1054100030B1402808D0802804D0C02808D105E049
:10542000002507E0022505E0042503E0082501E04A
:10543000102500BF1EE082492068884219D18448A7
:10544000006800F4406048B1B0F5806F0AD0B0F554
:10545000006F05D0B0F5406F08D105E0002507E0EA
:10546000022505E0042503E0082501E0102500BF22
:1054700000E0102500BF72492068884259D135B13B
:10548000022D08D0042D08D0082D0DD109E0FCF71D
:10549000EBFC06460CE0724E0AE0FCF709FD0646FE
:1054A00006E04FF4004603E000260120029000BF12
:1054B00000BF002E10D06B49606A31F81000B6FBB7
:1054C000F0F9606800EB4000484503D860680003CD
:1054D000484502D201200290A6E06249606A31F894
:1054E00010C06246002330461946FAF793FE4FF487
:1054F000807C0022A0FB0C3B01FB0CB100FB0211E5
:105500006068400818185141CDE90001D4F804C082
:1055100062460023FAF77EFE0746B7F5407F05D3C3
:10552000B7F5801F02D22068C7607DE0012002909D
:105530007AE0E069B0F5004F3FD1092D17D2DFE8DE
:1055400005F005090D160F1616161300FCF78CFC56
:10555000064610E0FCF79AFC06460CE0404E0AE0D6
:10556000FCF7A6FC064606E04FF4004603E00026E2
:105570000120029000BF00BF86B33A49606A31F84B
:105580001000B6FBF0F04000616800EB5100B0FB8A
:10559000F1F7102F0ED3B7F5803F0BD24FF6F07016
:1055A00007EA000AC7F342004AEA000A2068C0F886
:1055B0000CA039E00120029036E0092D18D2DFE876
:1055C00005F005090E17101717171400FCF74CFC0F
:1055D000064611E0FCF75AFC06460DE024E0204E9A
:1055E0000AE0FCF765FC064606E04FF4004603E0DF
:1055F00000260120029000BF00BFAEB11949606AC9
:1056000031F81000B6FBF0F0616800EB5100B0FB20
:10561000F1F7102F06D3B7F5803F03D2B8B2216857
:10562000C86001E0012002900120A4F86A00A4F8FB
:10563000680000206067A0670298BDE8FE8F000048
:1056400000800040F369FFCFFFF4FF1100380140F4
:10565000881002400044004000480040004C0040D8
:105660000024F4007469000830B503469965A3F876
:105670005C20A3F85E200020586700BF9868B0F552
:10568000805F0AD1186920B940F2FF10A3F86000CA
:1056900020E0FF20A3F860001CE0986848B9186972
:1056A00018B9FF20A3F8600014E07F20A3F8600081
:1056B00010E09868B0F1805F09D1186918B97F20AF
:1056C000A3F8600006E03F20A3F8600002E000209D
:1056D000A3F8600000BF0020C3F890002220C3F8A8
:1056E0008C0000BF00BF1C68083454E8004F44F031
:1056F00001001C68083444E80005002DF3D100BF08
:10570000586EB0F1005F2CD1B3F86800904228DCED
:105710009868B0F5805F04D1186910B925485867BA
:1057200001E025485867186960B100BF00BF1C68D8
:1057300054E8004F44F480701D6845E80004002CD4
:10574000F5D100BF00BF00BF1C68083454E8004F0B
:1057500044F080501C68083444E80005002DF3D163
:1057600026E09868B0F5805F04D1186910B9134835
:10577000586701E012485867186960B100BF00BF60
:105780001C6854E8004F44F490701D6845E800041C
:10579000002CF5D10CE000BF00BF1C6854E8004F9E
:1057A00044F020001D6845E80004002CF5D100BF3E
:1057B000002030BDE54D0008E9500008E14C00082C
:1057C000E54F000810B5D0F88820212A2AD1B0F87A
:1057D0005620CAB900BF00BF036853E8003F23F05A
:1057E0008002046844E80023002BF5D100BF00BF0D
:1057F00000BF036853E8003F43F04002046844E8F8
:105800000023002BF5D10DE0016D0A88C2F30802D8
:1058100003689A62026D921C0265B0F85620521E0F
:10582000A0F8562010BD30B5D0F88830212B3AD1E1
:10583000B0F86A1034E0B0F85630E3B900BF00BFEA
:105840000468083454E8004F24F400030468083462
:1058500044E80035002DF3D100BF00BF00BF04684D
:1058600054E8004F44F04003056845E80034002C3C
:10587000F5D100BF16E00368DB6903F080036BB16C
:10588000026D1388C3F308030468A362036D9B1CB5
:105890000365B0F856305B1EA0F856304B1E99B227
:1058A0000029C8D100BF30BDD0F88810212928D1E7
:1058B000B0F85610C9B900BF00BF026852E8002F07
:1058C00022F08001036843E80012002AF5D100BFEE
:1058D00000BF00BF026852E8002F42F04001036899
:1058E00043E80012002AF5D10BE0016D0978026847
:1058F0009162016D491C0165B0F85610491EA0F86F
:105900005610704710B5D0F88820212A38D1B0F849
:105910006A1032E0B0F85620E2B900BF00BF036859
:10592000083353E8003F23F400020368083343E8D8
:105930000024002CF3D100BF00BF00BF036853E870
:10594000003F43F04002046844E80023002BF5D1F7
:1059500000BF14E00268D26902F080025AB1026D01
:10596000127803689A62026D521C0265B0F85620E4
:10597000521EA0F856204A1E91B20029CAD100BF7B
:1059800010BD2DE9F04104460D4617469846069E87
:1059900041E0701C00283ED0FBF72AFEA0EB080077
:1059A000B04200D816B90320BDE8F0812068006835
:1059B00000F0040070B3802D2DD0402D2BD0206836
:1059C000C069C0F3C00078B1082021680862204691
:1059D000FFF738F90820C4F8900000BF002084F8D1
:1059E000840000BF0120DFE72068C069C0F3C02049
:1059F00080B14FF40060216808622046FFF722F969
:105A00002020C4F8900000BF002084F8840000BF6C
:105A10000320C9E7FFE72068C0692840A84201D1F8
:105A2000012000E00020B842B3D00020BCE7000015
:105A300010B50248FDF7E2FA10BD00002801002071
:105A400000BFFEE70FB4084B10B504A902AA0398E3
:105A500000F0FAF8044602A9002000F078FC204685
:105A600010BC5DF814FB00004F630008024800689A
:105A7000C0F30220704700000CED00E010B50028D4
:105A800004DB0A07130E054A135406E00A07140E36
:105A9000034A00F00F031B1FD45410BD00E400E0C4
:105AA00018ED00E002E008C8121F08C1002AFAD170
:105AB00070477047002001E001C1121F002AFBD18E
:105AC000704700002DE9FF5F82B00021DDE904305E
:105AD000020DDDF840B0034318D044F61050A2F296
