:020000040800F2
:1000000078050020F10100080D2D00082F250008BB
:10001000092D0008290300086145000800000000C0
:100020000000000000000000000000009D300008FB
:100030002D03000800000000112D00089F3000086B
:100040000B0200080B0200080B0200080B0200085C
:100050000B0200080B0200080B0200080B0200084C
:100060000B0200080B0200080B0200080B0200083C
:100070000B0200080B0200080B0200080B0200082C
:100080000B020008000000000B0200080B02000831
:100090000B0200080B0200080B0200080B0200080C
:1000A0000B0200080B0200080B0200080B020008FC
:1000B0000B0200080B020008293100080B0200089F
:1000C0000B0200080B0200080B0200080B020008DC
:1000D0000B020008514500080B0200080B02000843
:1000E0000B0200080B0200080B0200080B020008BC
:1000F0000B0200080B0200080B02000800000000C1
:10010000000000000B020008000000000B020008C5
:100110000B020008000000000B0200080B020008A0
:100120000B0200080B0200080B0200080B0200087B
:100130000B02000800000000000000000B02000895
:100140000B0200080B020008000000000000000085
:10015000000000000000000000000000000000009F
:100160000000000000000000000000000B0200087A
:100170000B0200080000000000000000000000006A
:10018000000000000B02000800000000000000005A
:10019000000000000000000000000000000000005F
:1001A00000000000000000000B0200080B02000825
:1001B0000B0200080B0200080B0200080000000000
:1001C000000000000B02000800000000000000001A
:1001D0000B0200080B020008DFF810D000F092F8C4
:1001E00000480047D94B0008AFF300807805002095
:1001F0000648804706480047FEE7FEE7FEE7FEE7C1
:10020000FEE7FEE7FEE7FEE7FEE7FEE71531000842
:10021000D90100082DE9F05F0546002092469B4673
:1002200088460646814640241BE02846414647460C
:10023000224600F057F853465A46C01A914110D34F
:1002400011461846224600F03EF82D1A67EB0108C9
:100250004F4622460120002100F035F817EB000937
:100260004E41201EA4F10104DFDC484631462A46F7
:100270004346BDE8F09FD2B201E000F8012B491ED1
:10028000FBD270470022F6E710B513460A46044633
:100290001946FFF7F0FF204610BD30B50B4601466A
:1002A00000202022012409E021FA02F59D4205D315
:1002B00003FA02F5491B04FA02F52844151EA2F1BF
:1002C0000102F1DC30BD202A04DB203A00FA02F101
:1002D000002070479140C2F1200320FA03F3194334
:1002E00090407047202A04DB203A21FA02F00021D6
:1002F000704721FA02F3D040C2F120029140084336
:1003000019467047064C074D06E0E06840F00103CF
:1003100094E8070098471034AC42F6D3FFF760FF2B
:100320004C5F00086C5F000800BFFEE770470021CB
:1003300009E0002201E0531C9AB240F6B8339A4219
:10034000F9DB4B1C99B28142F3DB704772B600BFF8
:10035000FEE70146002209B90120704791F8250007
:10036000022803D00420C863012227E0086800683F
:1003700020F001000B6818600868006820F00E008B
:100380000B681860886C006820F480708B6C1860B3
:1003900091F8440000F01F03012098400B6C586056
:1003A000D1E913305860486D40B1486D006820F4C1
:1003B00080704B6D1860D1E916305860012081F8CB
:1003C000250000BF002081F8240000BF1046C4E7CC
:1003D00070B50446002594F8250002280BD00420AF
:1003E000E063012084F8250000BF002084F8240089
:1003F00000BF012534E02068006820F0010021687A
:1004000008602068006820F00E0021680860A06C79
:10041000006820F48070A16C086094F8440000F03B
:100420001F0101208840216C4860D4E91310486006
:10043000606D40B1606D006820F48070616D08608F
:10044000D4E916104860012084F8250000BF002080
:1004500084F8240000BFA06B10B12046A16B884730
:10046000284670BD70B5044600F016F906462546CC
:10047000681C10B104480068054400BF00F00CF986
:10048000801BA842FAD370BD0800002078B503464F
:100490000022D2E0012696400D6805EA0604002CF1
:1004A0007BD00D7905F00305012D04D00D7905F001
:1004B0000305022D13D1986856000325B540A843C3
:1004C0005600CD68B540284398605868012595408E
:1004D000A8430D79C5F300159540284358600D7960
:1004E00005F00305032D07D10D7905F00305032D54
:1004F0000CD18D68012D09D0D86856000325B54070
:10050000A84356008D68B5402843D8600D7905F0A2
:100510000305022D13D1D60803F1200555F8260056
:100520005507EE0E0F25B540A8435607F60E0D6988
:10053000B5402843D60803F1200545F82600186881
:1005400056000325B540A8430D7905F00305560074
:10055000B540284318604D6805F44035002D6BD038
:1005600000BF394D2D6E45F00105374E35663546D5
:100570002D6E05F00105009500BF00BF4FEAB635AE
:10058000960855F8260095072E0F0F25B540A8436D
:10059000B3F1904F02D100251AE04DE02B4DAB4254
:1005A00001D1012514E02A4DAB4201D102250FE013
:1005B000284DAB4201D103250AE0274DAB4201D1C2
:1005C000042505E0254DAB4201D1052500E00625B7
:1005D0009607360FB5402843214D960845F826006A
:1005E000204D2868A0434D6805F4801505B12043CF
:1005F0001C4D28602D1D2868A0434D6805F400158A
:1006000005B12043174D2D1D2860164D2D1F28685C
:10061000A0434D6805F4003505B12043114D2D1F51
:1006200028602D1F2868A0434D6805F4803505B16A
:1006300020430C4D083D2860521C0D68D540002D0C
:100640007FF428AF78BD000000100240000400488D
:1006500000080048000C0048001000480014004842
:100660000800014008040140024613690B400BB129
:10067000012000E00020704710B5426921EA020322
:1006800002EA010443EA0443836110BD0AB18161B7
:1006900000E0816270470000014800687047000078
:1006A0000000002003480068034909680844014924
:1006B00008607047000000200800002010B50024EA
:1006C000032000F0ABF80F2000F008F808B1012477
:1006D00001E000F02FF8204610BD000070B5044680
:1006E000002511480068D8B10F4800684FF47A71AE
:1006F000B1FBF0F00D490968B1FBF0F6304600F0AF
:1007000025FF58B9102C07D200222146501E00F0B8
:1007100047F80748046004E0012502E0012500E0F5
:100720000125284670BD0000080000200C000020B4
:100730000400002008B500BF0E48006E40F0010024
:100740000C4908660846006E00F00100009000BFEA
:1007500000BF00BF0846806D40F0805088650846A5
:10076000806D00F08050009000BF00BF00F0F6F8F0
:1007700008BD0000001002400146084600280DDBBD
:1007800000BF00BF00F01F0301229A4043099B00F5
:1007900003F1E023C3F8002100BF00BF00BF704792
:1007A0002DE9F05F80460D46164603F0EFFE074642
:1007B00039462A46334601F00700C0F1070ABAF16C
:1007C000040F02D94FF0040A01E0C0F1070AD14634
:1007D00000F1040ABAF1070F02D24FF0000A01E05B
:1007E000A0F1030AD4464FF0010A0AFA09FAAAF165
:1007F000010A0AEA020A0AFA0CFA4FF0010B0BFA94
:100800000CFBABF1010B0BEA030B4AEA0B0421468C
:10081000404603F0C3FEBDE8F09F000000BF00F0BB
:100820000702064B19684FF6FF031940044B0B43B0
:1008300043EA0221014B196000BF70470CED00E054
:100840000000FA0502468ABB4148006800F4C06017
:10085000B0F5806F2BD13E488030006820F4807066
:100860003B4BC3F880001846006820F4C06040F499
:10087000007018603748006832235843364BB0FB8D
:10088000F3F0411C00E0491E3148406900F48060EB
:10089000B0F5806F01D10029F5D12D48406900F4F1
:1008A0008060B0F5806F51D10320704708E0284880
:1008B0008030006820F48070254BC3F8800045E04C
:1008C000B2F5007F3AD12248006800F4C060B0F56C
:1008D000806F2AD11E488030006840F480701C4B25
:1008E000C3F880001846006820F4C06040F400702F
:1008F00018601848006832235843174BB0FBF3F0D8
:10090000411C00E0491E1248406900F48060B0F5C7
:10091000806F01D10029F5D10D48406900F4806055
:10092000B0F5806F12D10320BFE70948803000681E
:1009300040F48070064BC3F8800007E0044800686C
:1009400020F4C06040F48060014B18600020ACE7E8
:10095000007000400C00002040420F0003488068F7
:1009600040F48040014988607047000000700040FA
:100970002DE9F84304460027B846206800F400201B
:10098000B0F5002F73D1B946D348806D00F0805088
:1009900078B900BFD048806D40F08050CE4988655E
:1009A0000846806D00F08050009000BF00BF4FF0FF
:1009B0000109CA48006840F48070C8490860FFF720
:1009C0006BFE064606E0FFF767FE801B022801D992
:1009D000032705E0C148006800F480700028F2D0C9
:1009E00000BF002F46D1BC489030006800F440752D
:1009F000CDB1206CA84216D0B7489030006820F4E2
:100A00004075B548D0F8900040F48030B249C1F844
:100A100090000846D0F8900020F48030C1F8900093
:100A20000846C0F8905005F00100A0B1FFF734FE71
:100A3000064608E0FFF730FE801B41F2883188420D
:100A400001D9032706E0A4489030006800F00200B6
:100A50000028EFD000BF5FB99F489030006820F4B5
:100A60004070216C08439C49C1F8900003E00CE001
:100A7000B84600E0B846B9F1010F05D19648806D3F
:100A800020F080509449886500BF207800F0010074
:100A900048B191488830006820F00300616808433D
:100AA0008D49C1F88800207800F00200022809D1A1
:100AB00089488830006820F00C00A1680843864906
:100AC000C1F88800207800F00400042809D1824889
:100AD0008830006820F03000E16808437E49C1F8A2
:100AE0008800207800F00800082809D17A4888306A
:100AF000006820F0C000216908437749C1F88800E8
:100B0000207800F02000202809D173488830006840
:100B100020F44060616908436F49C1F8880020787B
:100B200000F04000402809D16B488830006820F46C
:100B30004050A16908436849C1F88800207800F056
:100B40008000802809D164488830006820F4404043
:100B5000E16908436049C1F88800208800F480708A
:100B6000B0F5807F09D15C488830006820F44030BF
:100B7000216A08435849C1F88800208800F40070B1
:100B8000B0F5007F09D154488830006820F4402037
:100B9000616A08435049C1F88800208800F48060E9
:100BA000B0F5806F13D14C488830006820F44010B5
:100BB000A16A0843484988310860A06AB0F5801FDF
:100BC00005D14548C06840F480104349C86020887A
:100BD00000F40060B0F5006F13D13F488830006822
:100BE00020F44000E16A08433B4988310860E06A2C
:100BF000B0F5800F05D13848C06840F48010364900
:100C0000C860208800F48050B0F5805F13D132486E
:100C10008830006820F04070216B08432E498831ED
:100C20000860206BB0F1807F05D12B48C06840F48C
:100C300080102949C860208800F40050B0F5005F9A
:100C400013D125488830006820F04060616B08436C
:100C5000214988310860606BB0F1006F05D11E48F2
:100C6000C06840F480101C49C860208800F48040AF
:100C7000B0F5804F13D118488830006820F04060EC
:100C8000A16B0843144988310860A06BB0F1006F74
:100C900005D11148C06840F480100F49C860208811
:100CA00000F40040B0F5004F13D10B4888300068C5
:100CB00020F04050E16B0843074988310860E06B41
:100CC000B0F1805F05D10448C06840F4803002492B
:100CD000C8604046BDE8F883001002400070004044
:100CE0002DE9F04104460D464FF0000814B90120EB
:100CF000BDE8F0817D48006800F00F00A8420ED2E8
:100D00007A48006820F00F002843784908600846B8
:100D1000006800F00F00A84201D00120E8E7207829
:100D200000F00100002864D06068032823D17048D7
:100D3000006800F0007008B90120D9E701F0EAFF6F
:100D400006466C48864237D96948806800F0F00052
:100D500030B1207800F0020002282DD1A06858BBE5
:100D60006348806820F0F00040F0800060498860AF
:100D70004FF0800820E06068022806D15C480068D7
:100D800000F4003040B90120B2E75948006800F48F
:100D9000806008B90120ABE700F0DEF80646554850
:100DA000864209D95248806820F0F00040F0800067
:100DB0004F4988604FF080084D48806820F003005C
:100DC000616808434A498860FFF766FC074608E007
:100DD000FFF762FCC01B41F28831884201D9032031
:100DE00086E74348806800F00C006168B0EB810F33
:100DF000EED1207800F00200022820D1207800F007
:100E00000400042805D13A48806840F4E06038497D
:100E10008860207800F00800082807D134488068EE
:100E200020F4605040F4E0603149886030488068C8
:100E300020F0F000A16808432D49886008E0B8F16F
:100E4000800F05D12A48806820F0F000284988608A
:100E50002648006800F00F00A84219D9234800680E
:100E600020F00F00284321490860FFF715FC0746D2
:100E700008E0FFF711FCC01B41F28831884201D91C
:100E8000032035E71948006800F00F00A842F0D1B0
:100E9000207800F00400042807D11548806820F469
:100EA000E060E168084312498860207800F008009B
:100EB000082808D10E48806820F46050216940EA73
:100EC000C1000B49886000F047F809498968C1F3FF
:100ED0000311094A515C01F01F01C840074908602D
:100EE00007480068FFF7FAFB02E700000020024015
:100EF0000010024000B4C404644D00080C0000203F
:100F00000400002001480068704700000C00002029
:100F100000B5FFF7F7FF05498968C1F30221044ACC
:100F2000515C01F01F01C84000BD000000100240EC
:100F3000744D000800B5FFF7E5FF05498968C1F366
:100F4000C221044A515C01F01F01C84000BD0000ED
:100F500000100240744D000870B5224DAD6805F0D8
:100F60000C05042D01D120483AE01E4DAD6805F076
:100F70000C05082D01D11D4832E01A4DAD6805F071
:100F80000C050C2D2BD1174DED6805F00304154D04
:100F9000ED68C5F303156A1C022C0CD0032C09D193
:100FA000124DB5FBF2F50F4EF668C6F3062605FBAB
:100FB00006F10AE000BF0C4DB5FBF2F5094EF668EC
:100FC000C6F3062605FB06F100BF00BF054DED6820
:100FD000C5F341656D1C6B00B1FBF3F000E0002030
:100FE00070BD0000001002400024F40000366E01C5
:100FF0002DE9F843044614B90120BDE8F8832078B0
:1010000000F00100002865D0FC48806800F00C0763
:10101000FA48C06800F003060C2F01D1032E01D05E
:10102000082F0AD1F548006800F40030002851D09C
:10103000606800284ED10120DFE700BF6068B0F58E
:10104000803F06D1ED48006840F48030EB490860ED
:101050001AE06068B0F5A02F0BD1E848006840F4B2
:101060008020E64908600846006840F48030086047
:101070000AE0E248006820F48030E0490860084651
:10108000006820F48020086000BF606888B1FFF726
:1010900003FB054606E0FFF7FFFA401B642801D971
:1010A0000320AAE7D548006800F400300028F2D0F9
:1010B00010E0FFF7F1FA054606E0FFF7EDFA401BF6
:1010C000642801D9032098E7CC48006800F4003078
:1010D0000028F2D1207800F00200022860D1C74831
:1010E000806800F00C07C548C06800F003060C2FAC
:1010F00001D1022E01D0042F18D1C048006800F49D
:10110000806018B1E06808B9012076E7BB48406804
:1011100020F0FE40217C40EA0160B8494860B848B0
:101120000068FFF7DBFA18B3012066E7E06800B358
:10113000B248006840F48070B0490860FFF7ACFA2C
:10114000054606E0FFF7A8FA401B022801D9032054
:1011500053E7AA48006800F480600028F2D0A7484E
:10116000406820F0FE40217C40EA0160A3494860CD
:1011700016E0A248006820F48070A0490860FFF7DC
:101180008BFA054606E0FFF787FA401B022801D9D3
:10119000032032E79948006800F480600028F2D10B
:1011A000207800F00800082836D16069D0B1934853
:1011B0009430006840F001009049C1F89400FFF7B6
:1011C0006BFA054606E0FFF767FA401B022801D9D3
:1011D000032012E789489430006800F002000028DC
:1011E000F1D019E085489430006820F0010083496F
:1011F000C1F89400FFF750FA054606E0FFF74CFAF5
:10120000401B022801D90320F7E67C48943000688F
:1012100000F002000028F1D1207800F0040004283A
:1012200072D14FF000087548806D012121EA1070DD
:1012300078B100BF7148806D40F080506F4988657B
:101240000846806D00F08050009000BF00BF4FF056
:1012500001086C48006800F48070B0B96948006803
:1012600040F4807067490860FFF716FA054606E00B
:10127000FFF712FA401B022801D90320BDE661489E
:10128000006800F480700028F2D000BFA068012838
:1012900008D15A489030006840F001005749C1F821
:1012A000900021E0A06805280FD1544890300068D4
:1012B00040F004005149C1F890000846D0F8900071
:1012C00040F00100C1F890000EE04C4890300068FA
:1012D00020F001004949C1F890000846D0F890007C
:1012E00020F00400C1F8900000BFA068A8B1FFF78B
:1012F000D3F9054609E0FFF7CFF9401B41F28831E9
:10130000884202D9032078E625E03C489030006806
:1013100000F002000028EED013E0FFF7BDF905460B
:1013200008E0FFF7B9F9401B41F28831884201D942
:10133000032062E631489030006800F00200002887
:10134000EFD1B8F1010F05D12C48806D20F080500D
:101350002A49886500BF207800F02000202836D177
:10136000A069D0B125489830006840F001002349B9
:10137000C1F89800FFF790F9054606E0FFF78CF9F1
:10138000401B022801D9032037E61C48983000682A
:1013900000F002000028F1D019E0184898300068E9
:1013A00020F001001549C1F89800FFF775F90546CE
:1013B00006E0FFF771F9401B022801D903201CE663
:1013C0000E489830006800F002000028F1D1E06972
:1013D000002860D00948806800F00C000C287AD002
:1013E000E069022858D10548006820F08070034960
:1013F0000860FFF751F905460DE0000000100240BB
:101400000400002000700040FFF746F9401B02284E
:1014100001D90320F1E54A48006800F00070002877
:10142000F2D1D4E90810401E41EA0011A06A41EA55
:101430000021208E0122C2EB500041EA40513420AD
:10144000005DC2EB500041EA40612C20005D41EAA2
:10145000C0603B49C9683B4A114008433849C860ED
:101460000846006840F0807008600846C06840F098
:101470008070C860FFF710F9054606E0FFF70CF929
:10148000401B022801D90320B7E52D48006800F071
:1014900000700028F2D051E02948006820F08070E8
:1014A00027490860FFF7F8F8054606E0FFF7F4F86B
:1014B000401B022801D903209FE52148006800F065
:1014C00000700028F2D11E48C0681F4908401C491E
:1014D000C86033E0FFE7E069012800D18DE51848D6
:1014E000C66806F00301206A814225D106F0F001AA
:1014F000606A401EB1EB001F1ED106F4FE41A06AD7
:10150000B1EB002F18D106F078412C20005DB1EB33
:10151000C06F11D106F4C001208E0122C2EB500031
:10152000B1EB405F08D106F0C0613420005DC2EB32
:101530005000B1EB406F01D001205EE500205CE57A
:10154000001002400C809F01FCFFEEFE70B50446C7
:101550002546681EB0F1807F01D301200FE0681E90
:101560004FF0E02148610F214FF0FF3003F016F8F3
:1015700000204FF0E021886107200861002070BD45
:1015800070477047704770477047704730B50246E4
:101590000B4600BF92F83C00012801D1022030BD6B
:1015A000012082F83C0000BF022082F83D00106854
:1015B0004168106884681D4D1068A84203D01C4D16
:1015C0001068A84203D121F47001586801431948FA
:1015D00001401868014310684160144D1068A8422A
:1015E00013D01068B0F1804F0FD0134D1068A8428F
:1015F0000BD0124D1068A84207D00D4D1068A842BC
:1016000003D00F4D1068A84205D124F080049868DB
:10161000044310688460012082F83D0000BF002070
:1016200082F83C0000BF00BFB9E70000002C014079
:10163000003401408FFFFFFD00040040000800401F
:1016400000400140704710B504460CB9012010BDA0
:1016500094F83D0028B9002084F83C00204600F0B2
:1016600029F8022084F83D00211D206801F064FD66
:10167000012084F8480000BF84F83E0001213F208B
:10168000015540200155412001554220015543207C
:10169000015500BF00BF012084F8440045200155DA
:1016A000462001554720015500BF012084F83D0028
:1016B0000020CCE738B504460D492068884215D192
:1016C00000BF0C48806D40F004000A498865084658
:1016D000806D00F00400009000BF00BF00220121D7
:1016E0001E20FFF75DF81E20FFF746F838BD00000A
:1016F0000008004000100240014691F83D0001281A
:1017000001D001207047022081F83D000868C068C0
:1017100040F001000B68D860184B0868984213D05D
:101720000868B0F1804F0FD0154B086898420BD075
:10173000144B0868984207D0134B0868984203D0AE
:10174000124B0868984210D108688068104B00EA74
:101750000302062A0FD0B2F5803F0CD0086800685B
:1017600040F001000B68186005E00868006840F070
:1017700001000B6818600020C4E70000002C014045
:1017800000040040000800400034014000400140D7
:10179000070001002DE9F04104460D46002700BF77
:1017A00094F83C00012802D10220BDE8F08101201C
:1017B00084F83C0000BF022084F83D002068866861
:1017C0003F48064026F47F462068866028687028D7
:1017D00024D00CDC00F00F01002964D1001107288F
:1017E00061D2DFE800F05354555649353F00354A81
:1017F000811A90424FD009DCB0F5805F0DD0B0F572
:10180000005F18D0B0F1101F4DD143E0102943D034
:10181000202942D0502946D140E046E0D5E90213C4
:101820006A68206801F0FBFC2068866846F077064D
:101830002068866039E0D5E902136A68206801F003
:10184000EEFC2068806840F48040216888602CE0CD
:10185000EA686968206801F0D5FE5021206801F02F
:10186000E9FC22E0EA686968206801F001FF602174
:10187000206801F0DFFC18E0EA686968206801F080
:10188000C1FE4021206801F0D5FC0EE000BF00BF82
:1018900000BF00BF00BF00BF00BF00BF29682068B5
:1018A00001F0C8FC01E0012700BF00BF012084F85F
:1018B0003D0000BF002084F83C0000BF384674E7BC
:1018C00088FFCEFF20001000704770B504462068E6
:1018D000C6682068056905F00200022819D106F0E3
:1018E0000200022815D1401F2168086101202077DD
:1018F0002068806900F0030018B12046FFF7E4FF7C
:1019000005E0204600F01CF9204600F01FFA0020F8
:10191000207705F00400042819D106F004000428FB
:1019200015D1C043216808610220207720688069B2
:1019300000F4407018B12046FFF7C6FF05E02046CE
:1019400000F0FEF8204600F001FA0020207705F0B4
:101950000800082819D106F00800082815D1C0434E
:1019600021680861042020772068C06900F0030026
:1019700018B12046FFF7A8FF05E0204600F0E0F888
:10198000204600F0E3F90020207705F01000102831
:1019900019D106F01000102815D1C0432168086144
:1019A000082020772068C06900F4407018B12046F4
:1019B000FFF78AFF05E0204600F0C2F8204600F05D
:1019C000C5F90020207705F0010048B106F00100BC
:1019D00030B16FF0010021680861204600F05EFA26
:1019E00005F08000802804D005F40050B0F5005FB9
:1019F0000AD106F08000802806D16FF402502168D9
:101A000008612046FFF7BDFD05F48070B0F5807FCA
:101A10000AD106F08000802806D16FF4807021681A
:101A200008612046FFF7ACFD05F04000402809D1D1
:101A300006F04000402805D1C043216808612046D7
:101A400000F03AFA05F02000202809D106F0200025
:101A5000202805D1C043216808612046FFF792FD88
:101A600005F48010B0F5801F0BD106F48010B0F59E
:101A7000801F06D16FF48010216808612046FFF7AF
:101A800083FD05F40010B0F5001F0BD106F4001023
:101A9000B0F5001F06D16FF40010216808612046E0
:101AA000FFF771FD05F48000B0F5800F0BD106F44F
:101AB0008000B0F5800F06D16FF4800021680861C6
:101AC0002046FFF762FD05F40000B0F5000F0BD1D2
:101AD00006F40000B0F5000F06D16FF40000216895
:101AE00008612046FFF7AEFD70BD000010B586B05E
:101AF0000446142101A8FEF7C5FB2068B0F1804F11
:101B00001AD100BF0D48C06C40F001000B49C864F9
:101B10000846C06C00F00100009000BF00BF02202A
:101B2000019002900020039004900120059001A9EB
:101B30004FF09040FEF7AAFC06B010BD0010024026
:101B400070472DE9F04104460D461646002700BFB8
:101B500094F83C00012802D10220BDE8F081012068
:101B600084F83C0000BF0C2E51D005DC4EB1042E91
:101B70001ED0082E7AD133E0102E60D0142EF9D169
:101B800075E02946206801F061FB2068806940F01B
:101B90000800216888612068806920F004002168BD
:101BA000886120688069296908432168886178E034
:101BB0002946206801F0A2FB2068806940F400609B
:101BC000216888612068806920F4806021688861CC
:101BD00020688069296940EA01202168886160E005
:101BE0002946206801F0E6FB2068C06940F0080043
:101BF0002168C8612068C06920F004002168C861BC
:101C00002068C069296908432168C86149E02946FC
:101C1000206801F02BFC2068C06940F40060216856
:101C2000C8612068C06920F480602168C8612068AC
:101C3000C069296940EA01202168C86131E029466C
:101C4000206801F06FFC2068006D40F008002168FA
:101C500008652068006D20F0040021680865206890
:101C6000006D29690843216808651AE017E02946D4
:101C7000206801F08FFC2068006D40F4006021684E
:101C800008652068006D20F4806021680865206880
:101C9000006D296940EA01202168086501E00127FB
:101CA00000BF00BF00BF002084F83C0000BF3846E2
:101CB00053E710B504460CB9012010BD94F83D005F
:101CC00028B9002084F83C00204600F029F80220C2
:101CD00084F83D00211D206801F02EFA012084F8CF
:101CE000480000BF84F83E0001213F2001554020FC
:101CF000015541200155422001554320015500BFA7
:101D000000BF012084F844004520015546200155BC
:101D10004720015500BF012084F83D000020CCE79A
:101D200008B50168B1F1804F0DD100BF0649896D3A
:101D300041F00101044A91651146896D01F00101EC
:101D4000009100BF00BF08BD0010024070470000B6
:101D500070B504460D4615B994F83E0015E0042D03
:101D600002D13F20005D10E0082D02D14020005D2F
:101D70000BE00C2D02D14120005D06E0102D02D1B8
:101D80004220005D01E04320005D012801D00120D8
:101D900070BD1DB9022084F83E001AE0042D03D165
:101DA00002213F20015514E0082D03D102214020DB
:101DB00001550EE00C2D03D102214120015508E010
:101DC000102D03D102214220015502E002214320BF
:101DD000015501222946206801F010FA27492068A0
:101DE00088420FD02649206888420BD025492068B8
:101DF000884207D024492068884203D023492068BC
:101E0000884201D1012000E0002028B12068406C08
:101E100040F400402168486418492068884213D083
:101E20002068B0F1804F0FD01949206888420BD04C
:101E300018492068884207D011492068884203D099
:101E400010492068884210D120688068124900EA51
:101E50000106062E0FD0B6F5803F0CD02068006832
:101E600040F001002168086005E02068006840F04B
:101E700001002168086000208AE70000002C014072
:101E8000003401400040014000440140004801404E
:101E900000040040000800400700010010B504469F
:101EA0000448844205D102F04DFC02F08BFD02F0A3
:101EB00053FE10BD800000207047014600BF91F81E
:101EC0008400012801D102207047012081F884009C
:101ED00000BF2420C1F8880008680268086800680C
:101EE00020F001000B68186022F0005200204866C4
:101EF000086802602020C1F8880000BF002081F837
:101F0000840000BF00BFDFE77047704770B504462C
:101F10000D4600BF94F88400012801D1022070BD55
:101F2000012084F8840000BF2420C4F888002068C1
:101F300006682068006820F00100216808602068B9
:101F4000806820F06060284321688860204601F0A6
:101F5000C5FB206806602020C4F8880000BF002070
:101F600084F8840000BF00BFD9E770B504460D4671
:101F700000BF94F88400012801D1022070BD012027
:101F800084F8840000BF2420C4F888002068066814
:101F90002068006820F001002168086020688068DF
:101FA00020F06040284321688860204601F096FBBD
:101FB000206806602020C4F8880000BF002084F854
:101FC000840000BF00BFD9E770477047704700002A
:101FD0002DE9F04704462068C56920680668206836
:101FE000876840F60F0005EA0009B9F1000F0FD12C
:101FF00005F0200060B106F0200010B907F0805015
:1020000030B1606F10B12046616F8847BDE8F0873E
:10201000B9F1000F7ED0DF48384018B9DE483040B3
:102020000028F7D005F0010058B106F4807040B1E7
:10203000012021680862D4F8900040F00100C4F843
:10204000900005F0020058B107F0010040B10220F5
:1020500021680862D4F8900040F00400C4F89000B1
:1020600005F0040058B107F0010040B104202168D8
:102070000862D4F8900040F00200C4F8900005F027
:10208000080070B106F0200010B9C248384040B1D5
:10209000082021680862D4F8900040F00800C4F8D5
:1020A000900005F4006060B106F0806048B14FF424
:1020B000006021680862D4F8900040F02000C4F865
:1020C0009000D4F89000002852D005F0200050B1C4
:1020D00006F0200010B907F0805020B1606F10B1F9
:1020E0002046616F8847D4F890A02068806800F08F
:1020F0004000402802D00AF0280070B3204601F0CA
:1021000011FC2068806800F04000402826D100BF04
:1021100000BF00E02DE02168083151E8001F21F0E8
:1021200040002168083141E80002002AF1D100BFD7
:10213000D4F8800068B19948D4F880108863D4F846
:102140008000FEF745F998B1D4F88000816B88478C
:102150000EE02046FFF73AFF0AE003E02046FFF7D3
:1021600035FF05E02046FFF731FF0020C4F890005E
:102170004CE7E06E012865D105F01000002861D021
:1021800006F010000028FAD01020216808622068AC
:10219000806800F0400040287AD1D4F880000068C0
:1021A00040681FFA80F8B8F1000F5CD0B4F85C000A
:1021B000404558DDA4F85E80D4F8800000680068CF
:1021C00000F02000E8BB00BF00BF216851E8001FFD
:1021D00021F48070226842E800010029F5D100BF97
:1021E00000BF00BF2168083151E8001F21F0010045
:1021F0002168083141E80002002AF3D100BF00BF86
:1022000000BF2168083151E8001F21F0400021681B
:10221000083141E80002002AF3D100BF2020C4F8B1
:102220008C000020E06600BF00BF216851E8001F5D
:1022300021F01000226842E800010029F5D100BF1A
:1022400001E004E068E0D4F88000FEF782F80220A4
:102250002067B4F85C00B4F85E20801A81B2204692
:10226000FFF752FE12E0B4F85C0040450ED1D4F8FE
:1022700080000068006800F02000202806D10220BD
:102280002067B4F85C102046FFF73EFEBEE6FFE78D
:1022900034F85C0F6188401A1FFA80F860885C3C53
:1022A000C8B3B8F1000F36D000BF00BF216851E8B5
:1022B000001F21F49070226842E800010029F5D146
:1022C00000BF00BF00BF2168083151E8001F314A3C
:1022D000D24301EA02002168083141E80002002AE5
:1022E000F1D100BF2020C4F88C000020E0666067B8
:1022F00000BF00BF216851E8001F21F010002268D4
:1023000042E800010029F5D100BF022020674146C4
:102310002046FFF7F9FD79E605F4801050B107F487
:10232000800038B14FF48010216808622046FFF722
:102330004CFE6BE605F0800058B106F0800010B945
:1023400007F4000028B1A06F10B12046A16F8847A4
:102350005CE605F0400030B106F0400018B12046C0
:1023600001F016FB52E605F4000030B106F08040A3
:1023700018B12046FFF728FE48E605F0807030B11E
:1023800006F0004018B12046FFF7BFFD3EE600BF53
:102390003CE600000100001020010004173900088D
:1023A00010B504460CB9012010BDA06900B100E0D1
:1023B00000BFD4F8880028B9002084F884002046A3
:1023C00000F02AF82420C4F888002068006820F073
:1023D000010021680860A06A10B1204601F0AAF946
:1023E000204601F0EFFD012800D1DDE720684068BC
:1023F00020F49040216848602068806820F02A001E
:10240000216888602068006840F001002168086049
:10241000204601F00BFAC7E710B598B00446142126
:1024200013A8FDF72FFF442102A8FDF72BFF214938
:10243000206888423BD1012002900020039002A82E
:10244000FEF796FA08B1FDF781FF00BF1A48006E4B
:1024500040F48040184908660846006E00F4804049
:10246000019000BF00BF00BF0846C06C40F00100F3
:10247000C8640846C06C00F00100019000BF00BFB6
:102480004FF4C06013900220149000201590169015
:102490000720179013A94FF09040FDF7F7FF002297
:1024A00011462520FEF77CF92520FEF765F918B0C6
:1024B00010BD0000003801400010024070B5044615
:1024C0000D461646D4F88C00202821D105B10EB94E
:1024D000012070BD0020E0660E492068884211D0BE
:1024E0002068406800F4000060B100BF00BF2168B0
:1024F00051E8001F41F08060226842E80001002995
:10250000F5D100BF32462946204601F01DFFE0E725
:102510000220DEE70080004010B5044602488442F5
:1025200001D102F0B9FB10BDCC000020704700BF04
:10253000FEE7000000B585B014216846FDF7A2FE55
:102540004FF6FF70009000200190032003900020C0
:10255000029069460248FDF799FF05B000BD0000F2
:102560000008004800B585B014216846FDF78AFED2
:102570004FF6FF700090012001900320039000208F
:10258000029069460248FDF781FF05B000BD0000DA
:102590000008004870B50546002204210E48FEF7E9
:1025A00075F80E48066800240021084600F07AF904
:1025B00000F0C8F900BF03E0284600F087F9641C6A
:1025C000B4F5963FF8D3054806600122042102487D
:1025D000FEF75CF870BD0000000C004814080048CD
:1025E00000B587B0142102A8FDF74CFE00BF2A48B1
:1025F000C06C40F004002849C8640846C06C00F074
:102600000400019000BF00BF00BF0846C06C40F04E
:102610000100C8640846C06C00F00100019000BFD2
:1026200000BF00BF0846C06C40F00200C864084606
:10263000C06C00F00200019000BF00BF4FF4487072
:1026400002900120039000200590049002A91348F5
:10265000FDF71CFF4FF480700290012003900020D2
:102660000590049002A94FF09040FDF70FFFFFF78F
:1026700079FF4FF09040806940F480704FF09041B6
:10268000886106481830006840F408700349183122
:10269000086007B000BD00000010024000040048C0
:1026A00070B505460E461446A4F12000C4B204EBF2
:1026B0004400044901EB00123146284600F030F88E
:1026C00070BD00007C4D00082DE9F04107460C4626
:1026D000002204211048FDF7D9FF1048D0F80080EF
:1026E000002540F23F1609E0227831463846FFF7D0
:1026F000D7FFA6F1100086B2641C6D1C207808B1CB
:10270000142DF1D30548C0F80080012204210248AD
:10271000FDF7BCFFBDE8F081000C0048140800483C
:102720002DE9F04306468946174600240025A046B9
:10273000B0464946404600F0B5F800BF1EE000F044
:1027400001F900250FE037F814000121A9400840E5
:1027500020B90C48008800F0B9F803E00A48008866
:1027600000F0B4F86D1C102DEDD308F1010000F05D
:10277000FF084946404600F095F8641C182CDED34B
:10278000BDE8F0832A0000202800002010B50022B8
:1027900004211248FDF77AFF11480468FFF720FF73
:1027A000002000F021F80F4908800846008848F210
:1027B0003021884202D100F0E1FA01E000F06EFB26
:1027C000002000F011F80749088005480460012244
:1027D00004210248FDF75AFF10BD0000000C00481C
:1027E000140800482C00002070B5044627480068F3
:1027F00040F40070254908600846006840F4807085
:10280000086022481038006840F020001F49103945
:1028100008601F4804601D48006840F020001B4904
:10282000086000BF00BF00BF18481038006840F0C3
:1028300020001649103908600846006840F480708E
:102840000860FFF777FE4FF09040806A40F4807098
:102850004FF09041886200BF00BF00BF0C48001FCE
:10286000006885B24FF09040806940F480704FF06E
:1028700090418861FFF776FE04481038006840F404
:102880000070024910390860284670BD28040048CD
:102890001408004801B5BDF800000149088008BDD2
:1028A0002A00002030B504460D462146202000F0C5
:1028B00085F82946212000F081F830BD01B5BDF82A
:1028C00000000149088008BD280000201B49096854
:1028D00041F40071194A116018491039096841F42E
:1028E0008071164A103A11601146096841F02001C2
:1028F0001160134908601149096841F020010F4A2D
:10290000116000BF00BF00BF0C491039096841F0D9
:1029100020010A4A103A11601146096841F4807199
:10292000116000BF00BF00BF04491039096841F4BD
:102930000071024A103A11607047000028040048F4
:10294000140800481B48006840F4007019490860EA
:102950000846006840F48070086016481038006827
:1029600040F0200013491039086022201249086005
:102970001048006840F020000E49086000BF00BF0A
:1029800000BF0C481038006840F020000949103999
:1029900008600846006840F48070086000BF00BF0F
:1029A00000BF04481038006840F400700149103935
:1029B000086070472804004814080048214A12683B
:1029C00042F400721F4B1A601A46126842F4807279
:1029D0001A601C4A103A126842F02002194B103B50
:1029E0001A60194A1060174A126842F02002154B0B
:1029F0001A6000BF00BF00BF124A103A126842F0CE
:102A00002002104B103B1A601A46126842F4807282
:102A10001A600D4A11600B4A126842F02002094BFD
:102A20001A6000BF00BF00BF064A103A126842F0A9
:102A30002002044B103B1A601A46126842F480725E
:102A40001A607047280400481408004800B587B091
:102A5000142102A8FDF716FC00BF5048C06C40F0DE
:102A600004004E49C8640846C06C00F004000190A0
:102A700000BF00BF00BF0846C06C40F02000C86423
:102A80000846C06C00F02000019000BF00BF00BFEE
:102A90000846C06C40F00100C8640846C06C00F0F5
:102AA0000100019000BF00BF00BF0846C06C40F0AD
:102AB0000200C8640846C06C00F00200019000BF2C
:102AC00000BF00BF0846C06C40F00800C86408465C
:102AD000C06C00F00800019000BF00BF00224FF65C
:102AE000FF712F48FDF7D2FD00224FF480714FF0A7
:102AF0009040FDF7CBFD002204212A48FDF7C6FDDA
:102B000000224FF408712848FDF7C0FD4FF6FF7012
:102B100002900120039000200490059002A9204813
:102B2000FDF7B4FC012002900020039001200490E6
:102B300002A94FF09040FDF7A9FC07200290002069
:102B400003900120049002A91748FDF79FFC4FF461
:102B5000807002900120039000200490059002A94B
:102B60004FF09040FDF792FC04200290012003906A
:102B700000200490059002A90A48FDF787FC4FF455
:102B8000087002900120039000200490059002A993
:102B90000548FDF77BFC07B000BD000000100240B7
:102BA00000080048000C00480004004800B58BB045
:102BB0000020089009900A901C2101A8FDF762FBF3
:102BC0004FF08040184908604F20486000211648A7
:102BD000816040F2E731C160002101618161FFF74E
:102BE00068F808B1FDF7B2FB002008900A9008A928
:102BF0000D48FEF7CBFC08B1FDF7A8FB6020019063
:102C00004FF4FA700290002003900590042201A96D
:102C10000548FEF796FF08B1FDF798FB0248FEF75E
:102C200065FF0BB000BD00003400002000B587B088
:102C3000002003900490059006900090019002906F
:102C400014481549086040F21F30486000211248BE
:102C5000816042F20F71C160002101618161FEF764
:102C6000F2FC08B1FDF772FB4FF48050039003A90A
:102C70000948FEF78FFD08B1FDF768FB00200090C2
:102C8000029069460448FEF781FC08B1FDF75EFB3F
:102C900007B000BD000800408000002010B51848B3
:102CA000184908604FF416504860002115488160AB
:102CB000C16001610C21416100218161C16101623A
:102CC000416200200F4988620846FFF769FB08B19E
:102CD000FDF73CFB00210B48FFF747F908B1FDF772
:102CE00035FB00210748FFF711F908B1FDF72EFB6E
:102CF0000448FFF7E2F808B1FDF728FB10BD00001B
:102D000000380140CC00002000BFFEE700BFFEE716
:102D10007047000070B5164DED6805F00304144DC2
:102D2000ED68C5F303156B1C022C0CD0032C09D1E4
:102D3000104DB5FBF3F50E4EF668C6F3062605FBFF
:102D400006F10AE000BF0C4DB5FBF3F5084EF6683E
:102D5000C6F3062605FB06F100BF00BF044DED6873
:102D6000C5F341656D1C6A00B1FBF2F070BD000057
:102D70000010024000366E010024F40000B501216D
:102D80000020FFF71BFE4FF47A70FDF7D0FA002108
:102D90000120FFF713FE41F290711020FFF70EFEA5
:102DA0004FF41C516020FFF709FE01216120FFF75D
:102DB00005FE02214620FFF701FE48F21001132014
:102DC000FFF7FCFD48F2FE011220FFF7F7FD4FF47C
:102DD000A0610220FFF7F2FD41F230010320FFF76E
:102DE000EDFD40F203313020FFF7E8FD40F2033102
:102DF0003120FFF7E3FD40F203313220FFF7DEFD23
:102E00004FF440713320FFF7D9FD03213420FFF741
:102E1000D5FD40F203313520FFF7D0FD14213620D7
:102E2000FFF7CCFD40F203313720FFF7C7FD40F23A
:102E300003313820FFF7C2FD40F203313920FFF79C
:102E4000BDFD4FF440713A20FFF7B8FD03213B2050
:102E5000FFF7B4FD40F203313C20FFF7AFFD4FF424
:102E6000A0513D20FFF7AAFD4FF400719220FFF71B
:102E7000A5FD40F203319320FFF7A0FD40F60D01C0
:102E80009020FFF79BFD41F218010320FFF796FD0C
:102E900040F273110720FFF791FD00BD10B543F21A
:102EA0000801E320FFF78AFD1221E720FFF786FDE6
:102EB00041F23121EF20FFF781FD00210120FFF7D2
:102EC0007DFD4FF4E0610220FFF778FD41F2300113
:102ED0000320FFF773FD00210420FFF76FFD40F290
:102EE00007210820FFF76AFD00210920FFF766FD92
:102EF00000210A20FFF762FD00210C20FFF75EFD94
:102F000000210D20FFF75AFD00210F20FFF756FD8D
:102F100000211020FFF752FD07211120FFF74EFD81
:102F200000211220FFF74AFD00211320FFF746FD84
:102F3000C820FDF797FA41F290611020FFF73EFD9F
:102F400040F227211120FFF739FD3220FDF78AFAE0
:102F50001D211220FFF732FD3220FDF783FA4FF4D6
:102F600000611320FFF72AFD14212920FFF726FD19
:102F70000B212B20FFF722FD3220FDF773FA0021F1
:102F80002020FFF71BFD00212120FFF717FD07215F
:102F90003020FFF713FD40F207713120FFF70EFDDF
:102FA00006213220FFF70AFD40F204713520FFF7B9
:102FB00005FD41F604713620FFF700FD042137209E
:102FC000FFF7FCFC00213820FFF7F8FC40F2067107
:102FD0003920FFF7F3FC40F201713C20FFF7EEFCD3
:102FE0000F213D20FFF7EAFC00215020FFF7E6FC0F
:102FF000EF215120FFF7E2FC00215220FFF7DEFC19
:1030000040F23F115320FFF7D9FC4FF41C516020D0
:10301000FFF7D4FC01216120FFF7D0FC00216A20DA
:10302000FFF7CCFC00218020FFF7C8FC00218120A5
:10303000FFF7C4FC00218220FFF7C0FC00218320A1
:10304000FFF7BCFC00218420FFF7B8FC002185209D
:10305000FFF7B4FC10219020FFF7B0FC0021922074
:10306000FFF7ACFC03219320FFF7A8FC4FF4887115
:103070009520FFF7A3FC00219720FFF79FFC00217C
:103080009820FFF79BFC41F218010320FFF796FC04
:1030900040F273110720FFF791FC10BD704710B587
:1030A000FDF700FB10BD00B593B0382105A8FDF772
:1030B000E9F814216846FDF7E5F84FF40070FDF7D4
:1030C000C1FB02200590C001089040200990022019
:1030D0000C9002210D9101210E910A210F910221E4
:1030E00010911191129105A8FDF782FF08B1FDF72B
:1030F0002DF90F20009003200190002002900390F2
:10310000049002216846FDF7EBFD08B1FDF71EF9BA
:1031100013B000BD0348006840F470000149086026
:103120007047000088ED00E010B50248FEF7CDFBC7
:1031300010BD00008000002010B50268284B9842A6
:103140000BD0B0F1804F08D0264B984205D0264BCB
:10315000984202D0254B984203D122F070024B686E
:103160001A431F4B984214D0B0F1804F11D01D4B21
:1031700098420ED01C4B98420BD01C4B984208D062
:103180001B4B984205D01B4B984202D01A4B9842D9
:1031900003D122F44072CB681A4322F080034C69B9
:1031A00043EA04028B68C3620B6883620C4B98424B
:1031B0000BD00E4B984208D00D4B984205D00D4BCA
:1031C000984202D00C4B984201D10B69036303680B
:1031D00043F00403036001234361026010BD00005B
:1031E000002C014000040040000800400034014071
:1031F00000400140004401400048014030B501F06A
:103200001F05012404FA05F3046A9C430462046A5E
:1032100001F01F0502FA05F52C43046230BD30B5FC
:103220000C46816821F47F4142EA03252543294366
:10323000816030BD0A468168034B194042F00703A4
:1032400019438160704700008FFFCFFF30B5026ADD
:10325000056A25F00105056243688469214D2C400B
:1032600024F003040D682C4322F002028D682A43E7
:103270001D4DA84200D10FE01C4DA84200D10BE02B
:103280001B4DA84200D107E01A4DA84200D103E02F
:10329000194DA84208D100BF056A25F00405056252
:1032A00022F00802CD682A430F4DA8420BD00F4DE3
:1032B000A84208D00E4DA84205D00E4DA84202D01B
:1032C0000D4DA84207D123F4807323F400734D6998
:1032D0002B438D692B43436084614D6845630262D3
:1032E00030BD00008FFFFEFF002C01400034014084
:1032F00000400140004401400048014030B5026AEE
:10330000056A25F01005056243688469234D2C4049
:1033100024F440740D6844EA052422F020028D68EC
:1033200042EA05121E4DA84200D10FE01D4DA842F1
:1033300000D10BE01C4DA84200D100BF1B4DA8429C
:1033400000D100BF1A4DA84209D108E0056A25F056
:103350004005056222F08002CD6842EA0512104D58
:10336000A8420BD00F4DA84208D00F4DA84205D05F
:103370000E4DA84202D00E4DA84209D123F480631D
:1033800023F400634D6943EA85038D6943EA8503AD
:10339000436084614D688563026230BDFF8FFFFE2C
:1033A000002C014000340140004001400044014035
:1033B0000048014030B5026A056A25F4807505624F
:1033C0004368C469234D2C4024F003040D682C434A
:1033D00022F400728D6842EA05221F4DA84200D1F6
:1033E0000FE01E4DA84200D10BE01D4DA84200D1B8
:1033F00000BF1C4DA84200D100BF1B4DA84209D1FF
:1034000008E0056A25F48065056222F40062CD6853
:1034100042EA0522104DA8420BD0104DA84208D018
:103420000F4DA84205D00F4DA84202D00E4DA84224
:1034300009D123F4805323F400534D6943EA051363
:103440008D6943EA05134360C4614D68C563026238
:1034500030BD00008FFFFEFF002C01400034014012
:1034600000400140004401400048014030B5026A7C
:10347000056A25F4805505624368C469234D2C40D4
:1034800024F440740D6844EA052422F400528D6847
:1034900042EA05321E4DA84200D10FE01D4DA84260
:1034A00000D10BE01C4DA84200D100BF1B4DA8422B
:1034B00000D100BF1A4DA84209D108E0056A25F4E1
:1034C0008045056222F40042CD6842EA0532104D83
:1034D000A8420BD00F4DA84208D00F4DA84205D0EE
:1034E0000E4DA84202D00E4DA84209D123F48043CC
:1034F00023F400434D6943EA85138D6943EA85133C
:103500004360C4614D680564026230BDFF8FFFFEF9
:10351000002C0140003401400040014000440140C3
:103520000048014030B5026A056A25F4803505621D
:103530004368046D114D2C400D682C4322F4003279
:103540000D8942EA05420E4DA8420BD00D4DA8420E
:1035500008D00D4DA84205D00C4DA84202D00C4D0C
:10356000A84204D123F480334D6943EA0523436024
:1035700004654D688564026230BD00008FFFFEFF68
:10358000002C014000340140004001400044014053
:103590000048014030B5026A056A25F480150562CD
:1035A0004368046D114D2C400D6844EA052422F453
:1035B00000120D8942EA05520D4DA8420BD00D4D67
:1035C000A84208D00C4DA84205D00C4DA84202D00C
:1035D0000B4DA84204D123F480234D6943EA85238F
:1035E000436004654D68C564026230BDFF8FFFFE15
:1035F000002C0140003401400040014000440140E3
:103600000048014030B50B461446026A056A25F0B1
:1036100001050562114DA84200D10FE0104DA842EE
:1036200000D10BE00F4DA84200D107E00E4DA8429B
:1036300000D103E00D4DA84204D100BF056A25F07A
:1036400004050562816921F0F00141EA041122F0CC
:103650000A021A438161026230BD0000002C014061
:103660000034014000400140004401400048014056
:1036700030B50B461446026A056A25F0100505624E
:10368000114DA84200D10FE0104DA84200D10BE02F
:103690000F4DA84200D100BF0E4DA84200D100BF7F
:1036A0000D4DA84204D103E0056A25F040050562EE
:1036B000816921F4704141EA043122F0A00242EA1A
:1036C00003128161026230BD002C014000340140D0
:1036D00000400140004401400048014070B5456E83
:1036E0002DB90125A0F86A50A0F868501CE0082305
:1036F00008240568AD68C5F342610568AD686A0FC6
:103700000A4DAD5C15FB04F5094EB65C95FBF6F56C
:10371000A0F86A50054D6D5C15FB03F5044E765C10
:1037200095FBF6F5A0F8685070BD0000544D0008F8
:103730005C4D000890F8281001F00801082907D115
:103740000168496821F40041826B114302685160AD
:1037500090F8281001F0010139B10168496821F49D
:103760000031C26A11430268516090F8281001F0DC
:103770000201022907D10168496821F48031026BF6
:1037800011430268516090F8281001F004010429E7
:1037900007D10168496821F48021426B1143026816
:1037A000516090F8281001F01001102907D101682C
:1037B000896821F48051C26B11430268916090F8CE
:1037C000281001F02001202907D10168896821F41F
:1037D0000051026C11430268916090F8281001F0CA
:1037E0004001402913D10168496821F48011426CDD
:1037F000114302685160416CB1F5801F07D1016827
:10380000496821F4C001826C11430268516090F84C
:10381000281001F08001802907D10168496821F44E
:103820000021C26C114302685160704738B50446EC
:103830000020C4F89000FCF72FFF054620680068C0
:1038400000F00800082821D16FF07E402B460022AE
:103850004FF400110090204600F024FEB0B100BFEC
:1038600000BF216851E8001F21F08000226842E873
:1038700000010029F5D100BF2020C4F8880000BF56
:10388000002084F8840000BF032038BD2068006851
:1038900000F00400042830D16FF07E402B46002257
:1038A0004FF480010090204600F0FCFD28B300BFDB
:1038B00000BF216851E8001F21F49070226842E89F
:1038C00000010029F5D100BF00BF00BF2168083109
:1038D00051E8001F21F001002168083141E8000291
:1038E000002AF3D100BF2020C4F88C0000BF0020C4
:1038F00084F8840000BF0320C7E72020C4F88800B4
:10390000C4F88C000020E066206700BF84F88400C3
:1039100000BF00BFB9E770B50446A56A2846FEF7A8
:1039200055FB70BD00BF00BF026852E8002F22F4B3
:103930009071036843E80012002AF5D100BF00BF70
:1039400000BF0268083252E8002F104B02EA030160
:103950000268083242E80013002BF2D100BFC16EAA
:1039600001290CD100BF00BF026852E8002F22F0ED
:103970001001036843E80012002AF5D100BF20219E
:10398000C0F88C100021C16641677047FEFFFFEF51
:1039900010B5044600BF00BF216851E8001F21F0A8
:1039A0004000226842E800010029F5D100BF202034
:1039B000C4F888000020A0672046FEF7B7FD10BDC0
:1039C0002DE9F0410446B4F86070D4F88C00222848
:1039D0006ED12068406A86B2A56D06EA070028808D
:1039E000A06D801CA065B4F85E00401EA4F85E00C7
:1039F000B4F85E00002861D100BF00BF216851E823
:103A0000001F21F49070226842E800010029F5D1DE
:103A100000BF00BF00BF2168083151E8001F21F03E
:103A200001002168083141E80002002AF3D100BFFB
:103A30002020C4F88C00002060672067204920689F
:103A4000884211D02068406800F4000060B100BFD7
:103A500000BF216851E8001F21F08060226842E821
:103A600000010029F5D100BFE06E01281CD1002023
:103A7000E06600BF00BF216851E8001F21F0100080
:103A8000226842E800010029F5D100BF2068C06922
:103A9000C0F3001010B1102021680862B4F85C1067
:103AA0002046FEF731FA09E02046FEF735FD05E035
:103AB0002068806940F0080021688861BDE8F081D5
:103AC000008000402DE9F84F0446B4F860B020684B
:103AD000C5692068006800902068D0F808A0D4F874
:103AE0008C0022287ED1B4F86890AEE02068406A4D
:103AF0001FFA80F8A76D08EA0B003880A06D801CC3
:103B0000A065B4F85E00401EA4F85E002068C56998
:103B100005F00700B0B305F0010060B1009800F4B3
:103B2000807040B1012021680862D4F8900040F014
:103B30000100C4F8900005F0020058B10AF001003D
:103B400040B1022021680862D4F8900040F00400DF
:103B5000C4F8900005F0040058B10AF0010040B12B
:103B6000042021680862D4F8900040F00200C4F8F4
:103B70009000D4F8900028B12046FEF727FA0020E4
:103B8000C4F89000B4F85E0000285ED100BF00BF0A
:103B9000216851E8001F21F48070226842E800018A
:103BA0000029F5D100BF00BF00BF2168083151E8EE
:103BB000001F414A01EA02002168083141E8000281
:103BC000002AF2D100BF2020C4F88C0000206067DA
:103BD00020673A492068884213D02068406800F482
:103BE000000000E05FE060B100BF00BF216851E865
:103BF000001F21F08060226842E800010029F5D111
:103C000000BFE06E01281CD10020E06600BF00BFAD
:103C1000216851E8001F21F01000226842E80001ED
:103C20000029F5D100BF2068C069C0F3001010B1B1
:103C3000102021680862B4F85C102046FEF764F991
:103C400002E02046FEF768FC07E0B9F1000F04D05F
:103C500005F0200000287FF449AF00BFB4F85E6093
:103C600006B3B4F86800B04223DD00BF00BF21688E
:103C7000083151E8001F21F080502168083141E8E7
:103C80000002002AF3D100BF0D48606700BF00BFEB
:103C9000216851E8001F41F02000226842E800013D
:103CA0000029F5D105E02068806940F0080021680E
:103CB0008861BDE8F88F0000FEFFFFEF0080004044
:103CC000C139000870B50446B4F86060D4F88C00BF
:103CD00022286FD12068406A85B2F0B22840A16DD9
:103CE0000870A06D401CA065B4F85E00401EA4F8EA
:103CF0005E00B4F85E00002862D100BF00BF2168FA
:103D000051E8001F21F49070226842E80001002968
:103D1000F5D100BF00BF00BF2168083151E8001F86
:103D200021F001002168083141E80002002AF3D1A6
:103D300000BF2020C4F88C00002060672067214964
:103D40002068884211D02068406800F4000060B10B
:103D500000BF00BF216851E8001F21F08060226889
:103D600042E800010029F5D100BFE06E01281CD116
:103D70000020E06600BF00BF216851E8001F21F06D
:103D80001000226842E800010029F5D100BF206838
:103D9000C069C0F3001010B1102021680862B4F8A7
:103DA0005C102046FEF7B0F80AE02046FEF7B4FBB0
:103DB00006E0FFE72068806940F00800216888611C
:103DC00070BD0000008000402DE9F05F0446B4F8AB
:103DD00060A02068C5692068D0F800B02068D0F8DD
:103DE0000890D4F88C0022287ED1B4F86880ADE029
:103DF0002068406A87B20AF0FF003840A16D087061
:103E0000A06D401CA065B4F85E00401EA4F85E00E2
:103E10002068C56905F00700A8B305F0010058B196
:103E20000BF4807040B1012021680862D4F8900042
:103E300040F00100C4F8900005F0020058B109F00C
:103E4000010040B1022021680862D4F8900040F0DF
:103E50000400C4F8900005F0040058B109F0010016
:103E600040B1042021680862D4F8900040F00200BC
:103E7000C4F89000D4F8900028B12046FEF7A6F8C8
:103E80000020C4F89000B4F85E0000285ED100BFA6
:103E900000BF216851E8001F21F48070226842E8C9
:103EA00000010029F5D100BF00BF00BF2168083123
:103EB00051E8001F404A01EA02002168083141E848
:103EC0000002002AF2D100BF2020C4F88C0000209C
:103ED0006067206739492068884213D020684068AD
:103EE00000F4000070B100E05EE000BF00BF216898
:103EF00051E8001F21F08060226842E8000100299B
:103F0000F5D100BFE06E01281CD10020E06600BFA3
:103F100000BF216851E8001F21F01000226842E82C
:103F200000010029F5D100BF2068C069C0F300106E
:103F300010B1102021680862B4F85C102046FDF72B
:103F4000E3FF02E02046FEF7E7FA07E0B8F1000FD2
:103F500004D005F0200000287FF44AAF00BFB4F879
:103F60005E6006B3B4F86800B04223DD00BF00BF56
:103F70002168083151E8001F21F080502168083184
:103F800041E80002002AF3D100BF0D48606700BF7E
:103F900000BF216851E8001F41F02000226842E87C
:103FA00000010029F5D105E02068806940F0080093
:103FB00021688861BDE8F09FFEFFFFEF00800040B0
:103FC000C53C00082DE9FE4F044600200290D4496C
:103FD0002068884200D100E000BF2169A068084342
:103FE00061690843E16940EA010820680068CD4939
:103FF000084040EA0800216808602068406820F412
:104000004050E168084321684860D4F81880C449EA
:104010002068884202D0206A40EA08082068806848
:10402000C149084040EA0800216888602068C06AE9
:1040300020F00F00616A08432168C86200BFBB49D5
:104040002068884216D1BA48006800F0030030B1F9
:10405000012808D0022804D0032808D105E0012552
:1040600007E0022505E0042503E0082501E010250E
:1040700000BF6FE0AF492068884216D1AC480068A5
:1040800000F00C0030B1042808D0082804D00C2817
:1040900008D105E0002507E0022505E0042503E03E
:1040A000082501E0102500BF54E0A349206888429C
:1040B00016D19F48006800F0300030B1102808D0B9
:1040C000202804D0302808D105E0002507E002258B
:1040D00005E0042503E0082501E0102500BF39E0D4
:1040E00096492068884216D19148006800F0C000C7
:1040F00030B1402808D0802804D0C02808D105E07D
:10410000002507E0022505E0042503E0082501E07D
:10411000102500BF1EE082492068884219D18448DA
:10412000006800F4406048B1B0F5806F0AD0B0F587
:10413000006F05D0B0F5406F08D105E0002507E01D
:10414000022505E0042503E0082501E0102500BF55
:1041500000E0102500BF72492068884259D135B16E
:10416000022D08D0042D08D0082D0DD109E0FCF750
:10417000CFFE06460CE0724E0AE0FCF7EDFE064666
:1041800006E04FF4004603E000260120029000BF45
:1041900000BF002E10D06B49606A31F81000B6FBEA
:1041A000F0F9606800EB4000484503D86068000300
:1041B000484502D201200290A6E06249606A31F8C7
:1041C00010C06246002330461946FCF723F84FF42E
:1041D000807C0022A0FB0C3B01FB0CB100FB021118
:1041E0006068400818185141CDE90001D4F804C0B6
:1041F00062460023FCF70EF80746B7F5407F05D36B
:10420000B7F5801F02D22068C7607DE001200290D0
:104210007AE0E069B0F5004F3FD1092D17D2DFE811
:1042200005F005090D160F1616161300FCF770FEA3
:10423000064610E0FCF77EFE06460CE0404E0AE023
:10424000FCF78AFE064606E04FF4004603E000262F
:104250000120029000BF00BF86B33A49606A31F87E
:104260001000B6FBF0F04000616800EB5100B0FBBD
:10427000F1F7102F0ED3B7F5803F0BD24FF6F07049
:1042800007EA000AC7F342004AEA000A2068C0F8B9
:104290000CA039E00120029036E0092D18D2DFE8A9
:1042A00005F005090E17101717171400FCF730FE5C
:1042B000064611E0FCF73EFE06460DE024E0204EE7
:1042C0000AE0FCF749FE064606E04FF4004603E02C
:1042D00000260120029000BF00BFAEB11949606AFC
:1042E00031F81000B6FBF0F0616800EB5100B0FB54
:1042F000F1F7102F06D3B7F5803F03D2B8B221688B
:10430000C86001E0012002900120A4F86A00A4F82E
:10431000680000206067A0670298BDE8FE8F00007B
:1043200000800040F369FFCFFFF4FF110038014027
:10433000881002400044004000480040004C00400B
:104340000024F4003C4D000830B503469965A3F8FD
:104350005C20A3F85E200020586700BF9868B0F585
:10436000805F0AD1186920B940F2FF10A3F86000FD
:1043700020E0FF20A3F860001CE0986848B91869A5
:1043800018B9FF20A3F8600014E07F20A3F86000B4
:1043900010E09868B0F1805F09D1186918B97F20E2
:1043A000A3F8600006E03F20A3F8600002E00020D0
:1043B000A3F8600000BF0020C3F890002220C3F8DB
:1043C0008C0000BF00BF1C68083454E8004F44F064
:1043D00001001C68083444E80005002DF3D100BF3B
:1043E000586EB0F1005F2CD1B3F86800904228DC21
:1043F0009868B0F5805F04D1186910B925485867EE
:1044000001E025485867186960B100BF00BF1C680B
:1044100054E8004F44F480701D6845E80004002C07
:10442000F5D100BF00BF00BF1C68083454E8004F3E
:1044300044F080501C68083444E80005002DF3D196
:1044400026E09868B0F5805F04D1186910B9134868
:10445000586701E012485867186960B100BF00BF93
:104460001C6854E8004F44F490701D6845E800044F
:10447000002CF5D10CE000BF00BF1C6854E8004FD1
:1044800044F020001D6845E80004002CF5D100BF71
:10449000002030BDC53A0008C93D0008C1390008F8
:1044A000C53C00082DE9F04104460D4617469846E4
:1044B000069E41E0701C00283ED0FCF7EDF8A0EB12
:1044C0000800B04200D816B90320BDE8F08120688A
:1044D000006800F0040070B3802D2DD0402D2BD04B
:1044E0002068C069C0F3C00078B108202168086264
:1044F0002046FFF717FA0820C4F8900000BF0020FC
:1045000084F8840000BF0120DFE72068C069C0F3A1
:10451000C02080B14FF40060216808622046FFF798
:1045200001FA2020C4F8900000BF002084F8840025
:1045300000BF0320C9E7FFE72068C0692840A84200
:1045400001D1012000E00020B842B3D00020BCE738
:1045500010B50248FDF73CFD10BD0000CC00002066
:1045600000BFFEE70FB4084B10B504A902AA0398D8
:1045700000F038F8044602A9002000F0DDF82046DB
:1045800010BC5DF814FB00003947000802480068C1
:10459000C0F30220704700000CED00E010B50028C9
:1045A00004DB0A07130E054A135406E00A07140E2B
:1045B000034A00F00F031B1FD45410BD00E400E0B9
:1045C00018ED00E002E008C8121F08C1002AFAD165
:1045D00070477047002001E001C1121F002AFBD183
:1045E000704700002DE9FF4F89B09B460446002527
:1045F00006E025280BD05A460B999047641C6D1C89
:1046000020780028F5D10DB02846BDE8F08F0027AE
:10461000B8460122474900E0074314F8013F203B18
:1046200002FA03F00842F7D120782E2819D114F8A5
:10463000010F47F004072A280ED06FF02F022078D0
:10464000A0F1300109290CD808EB880102EB4101E7
:1046500000EB0108641CF2E70A98641C50F8048B14
:104660000A9020780028CED0642808D0692806D087
:1046700075281ED05A460B9990476D1C58E00A9930
:104680004FF00A0901C90A91002802DA40422D219F
:1046900002E0390504D52B218DF82010012103E01B
:1046A000F90704D02021F7E78A4608AE0DE0002183
:1046B000FAE70A994FF00A0901C90A91F7E7494652
:1046C000FBF7EBFD303106F8011D0028F7D1ADEB0B
:1046D000060000F12009780701D44FF00108C84511
:1046E00002DDA8EB090000E000208046002706E07C
:1046F00008A85A46C05D0B9990476D1C7F1C574512
:10470000F6DB04E030205A460B9990476D1CB8F157
:104710000001A8F10108F5DC05E016F8010B5A4686
:104720000B9990476D1CB9F10001A9F10109F4DC66
:10473000641C65E7092801000A68531C0B601070AF
:10474000704700002DE9F04101218F48FBF78CFFF5
:1047500007468E48007820B1012807D0022825D1CD
:1047600009E017B90120894908701FE017B9022034
:10477000864908701AE086480078B0B9012F14D134
:10478000002082490870834800780B2803D100205C
:104790008049087009E07F480078401C0A2190FB9E
:1047A000F1F201FB12007B49087000BF00BF02213B
:1047B0007548FBF759FF04467748007820B1012877
:1047C00007D0022825D109E014B9012072490870E8
:1047D0001FE014B90220704908701AE06C48007894
:1047E000B0B9012C14D100206B4908706B480078D7
:1047F0000B2803D100206949087009E06748007858
:10480000401C0A2190FBF1F201FB12006349087081
:1048100000BF00BF04215C48FBF726FF0546604847
:10482000007820B1012807D0022825D109E015B968
:1048300001205B4908701FE015B902205849087033
:104840001AE053480078B0B9012D14D10020544922
:104850000870544800780B2803D100205149087093
:1048600009E050480078401C0A2190FBF1F201FB5E
:1048700012004C49087000BF00BF01214FF090406A
:10488000FBF7F2FE06464848007820B1012807D021
:1048900002283FD109E016B901204349087039E0E8
:1048A00016B902204049087034E03948007880BBCE
:1048B000012E2ED100203C490870364800783B4933
:1048C0000978884212D135480078394909788842F8
:1048D0000CD13448007837490978884206D1012044
:1048E0002B4908700020344908600BE0324800680A
:1048F000401C3149086008460068032802D30120A3
:104900002E4908700B202749087024490870214956
:10491000087000BF00BF29480078012809D1284845
:104920000078322805DA26480078401C24490870AF
:104930000CE022480078012808D12148007832286C
:1049400004D100201E4908701C49087010480078E6
:10495000012809D11A480078322805DA1848007869
:10496000401C174908700CE009480078012808D15C
:1049700013480078322804D10020114908700449F6
:104980000870BDE8F0810000000400481A00002013
:1049900010000020110000201B0000201200002049
:1049A0001C000020130000201D0000201E0000201D
:1049B0001F0000202000002014000020190000200B
:1049C0001800002010B54FF6FF70FDF7E3FD2F48EB
:1049D000007810B1012857D13DE02DA11820FDF736
:1049E00073FE304800780B2804D12FA14820FDF732
:1049F0006BFE09E02B4802782FA13348FFF7B2FD88
:104A000031494820FDF760FE304800780B2804D17A
:104A10002FA16020FDF758FE09E02C48027830A154
:104A20002948FFF79FFD28496020FDF74DFE3048DB
:104A300000780B2804D12FA17820FDF745FE09E06E
:104A40002B4802782FA12048FFF78CFD1E497820C3
:104A5000FDF73AFE18E02FA11820FDF735FE324889
:104A6000028832A11848FFF77DFD17494820FDF75D
:104A70002BFE3348027833A11348FFF773FD124928
:104A80006020FDF721FE00BF00BF10BD1000002018
:104A9000202020202020205053442020202020208F
:104AA00000000000110000202020202042313A4068
:104AB00020202020202000002020202042313A25E4
:104AC000642020202020200060010020120000200F
:104AD0002020202042323A402020202020200000A8
:104AE0002020202042323A2564202020202020004F
:104AF000130000202020202042333A402020202094
:104B0000202000002020202042333A25642020204D
:104B1000202020002020202020202053544120202D
:104B200020202020000000002E0000202020202037
:104B3000463A2564487A20202020202000000000EA
:104B40003000002020202020443A25642525202004
:104B5000202020200000000010B5012204211A4866
:104B6000FBF794FD022409E04FF48070A04081B26D
:104B700001221648FBF78AFD601CC4B2082CF3DB47
:104B800013480078012805D1002201020F48FBF7E5
:104B90007DFD04E0012211020C48FBF777FD0D4872
:104BA0000078012804D141020848FBF765FD04E0C4
:104BB000012251020548FBF769FD00220421024849
:104BC000FBF764FD10BD0000000C00480008004821
:104BD0001000002019000020FBF770FDFEF763FABB
:104BE000FDF734FFFDF7E2FFFEF758F8FEF71EF879
:104BF000012204211948FBF749FD002409E04FF484
:104C00008070A04081B201221548FBF73FFD601C77
:104C1000C4B2082CF3DB002204211048FBF736FD58
:104C2000FDF7B4FD4FF6FF70FDF7B4FC0020FDF773
:104C300031FE4FF6FF70FDF741FE0A48FCF75CFDC0
:104C400004210948FDF784F8072208490848FDF7C0
:104C500035FC01E000F00EF8FCE70000000C004815
:104C600000080048800000203400002021000020BF
:104C7000CC00002006480078012807D127200549EC
:104C800009688862642003490968886370470000E6
:104C9000100000203400002010B5072222492348CC
:104CA000FDF70CFC2048007830382149097888420B
:104CB00038D11D48407830381E490978884231D1B2
:104CC0001948807830381C49097888422AD116481A
:104CD000C0782D2826D114480079302822DB1248CC
:104CE000007939281EDC1048407930281ADB0E483C
:104CF0004079392816DC0C488079302812DB0A48C4
:104D0000807939280EDC0848007930380849087065
:104D100005484079303807490870034880793038B1
:104D20000549087010BD000021000020CC000020C3
:104D30001E0000201F0000202000002001000200B3
:104D40000400060008000A000C00100020004000CB
:104D500080000001010101030701000008040204B2
:104D6000080101010000000000000000010203042E
:104D7000060708090000000001020304000000000B
:104D80000000000000000000000000000000000023
:104D90000000000000000000000000000000000013
:104DA0000000000000000000000000000000800182
:104DB00080018001800180018001800180018001EB
:104DC00080018001800180010000000080018001DD
:104DD00000000000000000000000000000000000D3
:104DE000CC00CC00CC00CC00CC00CC0000000000FB
:104DF00000000000000000000000000000000000B3
:104E000000000000000000000000000000000000A2
:104E10000000000000000000600C600C600C300618
:104E20003006FE1FFE1F300638071803FE1FFE1F48
:104E3000180318038C018C018C0100000000800015
:104E4000E003F80F9C0E8C1C8C188C009800F80165
:104E5000E007800E801C8C188C189C18B80CF00F82
:104E6000E00380008000000000000000000000005F
:104E700000000E181B0C110C110611061103110372
:104E80009B018E01C038C06C6044604430443044A3
:104E90001844186C0C380000000000000000E0010D
:104EA000F0033807180618063003F001F000F80088
:104EB0009C310E33061E061C061C063FFC73F021B7
:104EC00000000000000000000000000000000000E2
:104ED0000C000C000C000C000C000C00000000008A
:104EE00000000000000000000000000000000000C2
:104EF00000000000000000000000000000000002B0
:104F000000038001C000C00060006000300030007D
:104F100030003000300030003000300060006000B1
:104F2000C000C0008001000300020000000020005B
:104F30006000C0008001800100030003000600063D
:104F40000006000600060006000600060003000337
:104F500080018001C000600020000000000000000F
:104F60000000000000000000C000C000D806F807E4
:104F7000E0013003380700000000000000000000DE
:104F80000000000000000000000000000000000021
:104F9000000000000000000080018001800180010D
:104FA0008001FC3FFC3F8001800180018001800185
:104FB00000000000000000000000000000000000F1
:104FC00000000000000000000000000000000000E1
:104FD0000000000000000000000000000000800150
:104FE00080010001000180000000000000000000BE
:104FF00000000000000000000000000000000000B1
:1050000000000000E007E0070000000000000000D2
:105010000000000000000000000000000000000090
:105020000000000000000000000000000000000080
:105030000000000000000000000000000000C000B0
:10504000C000000000000000000000000000000C94
:10505000000C0006000600060003000300038003A6
:10506000800180018001C000C000C00060006000BD
:105070000000000000000000000000000000E0034D
:10508000F007380E180C0C180C180C180C180C180B
:105090000C180C180C180C18180C380EF007E0033C
:1050A00000000000000000000000000000000001FF
:1050B0008001C001F0019801880180018001800118
:1050C00080018001800180018001800180018001D8
:1050D0000000000000000000000000000000E003ED
:1050E000F80F180C0C180C1800180018000C00060B
:1050F00000038001C000600030001800FC1FFC1F8E
:105100000000000000000000000000000000E001BE
:10511000F807180E0C0C0C0C000C0006C003C0079E
:10512000000C001800180C180C18180CF807E003F5
:105130000000000000000000000000000000000C63
:10514000000E000F000F800DC00C600C600C300CC6
:10515000180C0C0CFC3FFC3F000C000C000C000C6D
:105160000000000000000000000000000000F80F38
:10517000F80F180018000C00EC03FC071C0E001CB4
:105180000018001800180C181C0C180EF807E00383
:105190000000000000000000000000000000C00748
:1051A000F00F381C181818000C00CC03EC0F3C0E44
:1051B0001C1C0C180C180C18181C380EF007E003F7
:1051C0000000000000000000000000000000FC1FC4
:1051D000FC1F000C00060006000380038001C001D4
:1051E000C000E0006000600070003000300030005F
:1051F0000000000000000000000000000000E003CC
:10520000F007380E180C180C180C3806F007F007C9
:10521000180C0C180C180C180C18380CF80FE003AC
:105220000000000000000000000000000000E0039B
:10523000F007380E1C0C0C180C180C181C1C381E0F
:10524000F81BE0190018000C000C1C0EF807F00108
:10525000000000000000000000000000000000004E
:10526000000000000000000080018001000000003C
:10527000000000000000000000000000800180012C
:10528000000000000000000000000000000000001E
:10529000000000000000000080018001000000000C
:1052A00000000000000000000000000080018001FC
:1052B000000100018000000000000000000000006C
:1052C0000000000000000000000000000010001CB2
:1052D000800FE003F8001800F800E003800F001CC6
:1052E00000100000000000000000000000000000AE
:1052F000000000000000000000000000F81F000097
:1053000000000000F81F0000000000000000000086
:10531000000000000000000000000000000000008D
:10532000000000000000000000000000080038003D
:10533000F001C007001F0018001FC007F00138006F
:105340000800000000000000000000000000E00372
:10535000F80F180C0C180C180018000C00060003AD
:105360008001C000C000C00000000000C000C000FC
:10537000000000000000000000000000000000002D
:10538000E00718180420C229224A1144094409449C
:10539000094409221113E20C024004201818E00706
:1053A000000000000000000000000000000080037A
:1053B0008003C006C006C006600C600C30183018B0
:1053C0003018F83FF83F1C700C600C6006C006C037
:1053D0000000000000000000000000000000FC03CE
:1053E000FC0F0C0C0C180C180C180C0CFC07FC0F08
:1053F0000C180C300C300C300C300C18FC1FFC0757
:105400000000000000000000000000000000C007D5
:10541000F01F38381C300C700660060006000600CD
:1054200006000600060006600C701C30F01FE00746
:105430000000000000000000000000000000FE036B
:10544000FE0F060E06180618063006300630063027
:1054500006300630063006180618060EFE0FFE034C
:105460000000000000000000000000000000FC3F01
:10547000FC3F0C000C000C000C000C00FC1FFC1F7F
:105480000C000C000C000C000C000C00FC3FFC3F5E
:105490000000000000000000000000000000F83FD5
:1054A000F83F18001800180018001800F81FF81F1F
:1054B000180018001800180018001800180018002C
:1054C0000000000000000000000000000000E00FED
:1054D000F83F3C780E6006E007C00300030003FEBF
:1054E00003FE03C007C006C00EC03CF0F83FE00F4B
:1054F00000000000000000000000000000000C3070
:105500000C300C300C300C300C300C30FC3FFC3FBD
:105510000C300C300C300C300C300C300C300C30AB
:1055200000000000000000000000000000008001FA
:105530008001800180018001800180018001800163
:105540008001800180018001800180018001800153
:105550000000000000000000000000000000000645
:10556000000600060006000600060006000600060B
:10557000000600060006180618063807F003E001CA
:1055800000000000000000000000000000000630E5
:105590000618060C060606038601C600660076009D
:1055A000DE008E0106030606060C061806300660AD
:1055B00000000000000000000000000000001800D3
:1055C000180018001800180018001800180018001B
:1055D000180018001800180018001800F81FF81F0D
:1055E00000000000000000000000000000000EE0CD
:1055F0001EF01EF01EF036D836D836D836D866CC17
:1056000066CC66CCC6C6C6C6C6C6C6C686C386C374
:1056100000000000000000000000000000000C304E
:105620001C303C303C306C306C30CC30CC308C3169
:105630000C330C330C360C360C3C0C3C0C380C3058
:105640000000000000000000000000000000E00773
:10565000F81F1C380E70066003C003C003C003C0EF
:1056600003C003C003C006600E701C38F81FE007BB
:105670000000000000000000000000000000FC0F1F
:10568000FC1F0C380C300C300C300C300C18FC1F8C
:10569000FC070C000C000C000C000C000C000C00B3
:1056A0000000000000000000000000000000E00713
:1056B000F81F1C380E70066003E003C003C003C06F
:1056C00003C003C007E006630E3F1C3CF83FE0F751
:1056D00000C0000000000000000000000000FE0FFD
:1056E000FE1F06380630063006300638FE1FFE075D
:1056F00006030606060C0618061806300630066075
:105700000000000000000000000000000000E003B6
:10571000F80F1C0C0C180C180C001C00F803E00F00
:10572000001E0038063006300E301C1CF80FE00753
:105730000000000000000000000000000000FE7FEC
:10574000FE7F800180018001800180018001800155
:105750008001800180018001800180018001800141
:1057600000000000000000000000000000000C30FD
:105770000C300C300C300C300C300C300C300C3049
:105780000C300C300C300C300C301818F81FE007BF
:1057900000000000000000000000000000000360A6
:1057A0000630063006300C180C180C18180C180CA3
:1057B000380E30063006700760036003C001C00178
:1057C0000000000000000000000000000000036076
:1057D000C361C361C3616633663366336633663360
:1057E00066336C1B6C1B6C1B2C1A3C1E380E380E5F
:1057F00000000000000000000000000000000FE0BA
:105800000C7018303018700C600EC00780038003D5
:10581000C003E006700C301C18180C300E6007E056
:10582000000000000000000000000000000003C0B5
:1058300006600C301C383818300C6006E007C003D6
:105840008001800180018001800180018001800150
:105850000000000000000000000000000000FC7FCD
:10586000FC7F006000300018000C0006000380017F
:10587000C0006000300018000C000600FE7FFE7FB4
:105880000000000000000000000000000000E00335
:10589000E003600060006000600060006000600085
:1058A00060006000600060006000600060006000F8
:1058B000600060006000E003E003000000003000D2
:1058C0003000600060006000C000C000C000C00187
:1058D0008001800180010003000300030006000630
:1058E0000000000000000000000000000000E003D5
:1058F000E0030003000300030003000300030003B0
:10590000000300030003000300030003000300037F
:10591000000300030003E003E003000000000000B8
:10592000C001C00160036003600330063006180C3C
:10593000180C000000000000000000000000000043
:105940000000000000000000000000000000000057
:105950000000000000000000000000000000000047
:105960000000000000000000000000000000FFFF39
:10597000FFFF0000000000000000000000000C001D
:105980000C000C000C000C000C00000000000000DB
:105990000000000000000000000000000000000007
:1059A00000000000000000000000000000000000F7
:1059B0000000000000000000F003F8071C0C0C0CB5
:1059C000000FF00FF80C0C0C0C0C1C0FF80FF0185B
:1059D00000000000000000000000000000001800AF
:1059E0001800180018001800D803F80F380C181801
:1059F00018181818181818181818380CF80FD80391
:105A00000000000000000000000000000000000096
:105A10000000000000000000C003F007300E180C6A
:105A20001800180018001800180C300EF007C003FA
:105A3000000000000000000000000000000000184E
:105A40000018001800180018C01BF01F301C181890
:105A500018181818181818181818301CF01FC01B20
:105A60000000000000000000000000000000000036
:105A70000000000000000000C003F00F300C1818F8
:105A8000F81FF81F180018003818301CF00FC00756
:105A90000000000000000000000000000000800F77
:105AA000C00FC000C000C000F007F007C000C00079
:105AB000C000C000C000C000C000C000C000C000E6
:105AC00000000000000000000000000000000000D6
:105AD0000000000000000000E00DF80F180E0C0C94
