:020000040800F2
:100000003009002081020008893600081B2E0008F4
:1000100085360008DF070008454900080000000099
:10002000000000000000000000000000193A000875
:10003000BD080008000000008D3600081B3A0008CB
:100040009B0200089B0200089B0200089B0200081C
:100050009B0200089B0200089B0200089B0200080C
:100060009B0200089B0200089B020008E5070008AD
:10007000F50700089B0200089B0200089B0200088D
:100080009B020008000000009B0200089B02000881
:100090009B0200089B0200089B0200089B020008CC
:1000A0009B0200089B0200089B0200089B020008BC
:1000B000A53A0008B53A00089B0200089B02000818
:1000C0009B0200089B0200089B0200089B0200089C
:1000D0009B020008354900089B0200089B020008AB
:1000E0009B0200089B0200089B0200089B0200087C
:1000F0009B0200089B0200089B0200080000000011
:10010000000000009B020008000000009B020008A5
:100110009B02000800000000C53A00089B0200088E
:100120009B0200089B0200089B0200089B0200083B
:100130009B02000800000000000000009B02000875
:100140009B0200089B020008000000000000000065
:10015000000000000000000000000000000000009F
:100160000000000000000000000000009B020008EA
:100170009B020008000000000000000000000000DA
:10018000000000009B0200080000000000000000CA
:10019000000000000000000000000000000000005F
:1001A00000000000000000009B0200089B02000805
:1001B0009B0200089B0200089B0200080000000050
:1001C000000000009B02000800000000000000008A
:1001D0009B0200089B02000800F002F800F041F8C2
:1001E0000AA090E8000C82448344AAF10107DA4592
:1001F00001D100F036F8AFF2090EBAE80F0013F0A3
:10020000010F18BFFB1A43F001031847A067000055
:10021000C0670000103A24BF78C878C1FAD85207E6
:1002200024BF30C830C144BF04680C607047000070
:100230000023002400250026103A28BF78C1FBD8EF
:10024000520728BF30C148BF0B607047642900F0D7
:10025000F780002070471FB505F095FA1FBD10B557
:1002600010BD00F082FA1146FFF7F5FF04F014FE0E
:1002700000F0A0FA03B4FFF7F2FF03BC00F0A8FA05
:100280000948804709480047FEE7FEE7FEE7FEE72A
:10029000FEE7FEE7FEE7FEE7FEE7FEE70448054966
:1002A000054A064B70470000913A0008D901000842
:1002B00030030020300900203005002030050020E8
:1002C00053EA020C00F069802DE9F04B4FF0000674
:1002D000002B1FBFB3FA83F503FA05F424FA05F6E1
:1002E0005E4012BF1643B2FA82F502FA05F4C5F178
:1002F00020051EBF22FA05FC44EA0C04203556EA0C
:10030000044C4FEA144418BF641C4FF000084FF02F
:100310000009904271EB030C39D3002919BFB1FADF
:1003200081F701FA07F6B0FA80F700FA07F6C7F18D
:1003300020071EBF20FA07FC46EA0C062037B6FB52
:10034000F4FCA7EB0507103F07F01F0BCBF12006CD
:100350000CFA0BFB2CFA06F644BFB3460026202FFE
:10036000A4BF5E464FF0000B5BEA060C08BF4FF0DF
:10037000010B19EB0B09ABFB027C48EB0608C01B19
:1003800006FB02CC0BFB03CC71EB0C01C1E70B4667
:10039000024641464846BDE8F08B13B54FF00000D9
:1003A0004FF00001AFF30080BDE81C407047000033
:1003B0000FB41CB5074B06AA7B446946009005980C
:1003C00000F089F90020694600F098F91CBC5DF83E
:1003D00014FB0000410300002DE9F0410E460446E5
:1003E000002020622046E168884730B3252805D0E8
:1003F000D4E901219047206A401CF2E7E1682046D9
:1004000000278847050018D0A5F14100192802D817
:1004100020354FF400673246294620462760FFF713
:1004200015FF40B1012804D0F61D26F00706083656
:10043000D8E7361DD6E72846DAE7206ABDE8F0811E
:100440002DE9F0410646002410687529314616A5AD
:1004500010D0AFF30080002802DA404213A507E075
:1004600031688A0701D512A502E0490704D511A514
:10047000012401E0AFF3008000210A2206F12407E5
:1004800009E0B0FBF2FCB0FBF2F302FB1C003030E1
:1004900078541846491C0028F3D123462A46304692
:1004A000BDE8F04100F0B8B8000000002D000000E9
:1004B0002B0000002000000010B5431C02E010F8E3
:1004C000011B71B18107FAD14FF0013202C88C1AB9
:1004D0008C4314EAC211F9D0C01A0A0603D0C01E18
:1004E00010BDC01A10BD0A0401D0801E10BD090243
:1004F000FCD0401E10BD032A40F2308010F0030CE7
:1005000000F0158011F8013BBCF1020F624498BF66
:1005100011F801CB00F8013B38BF11F8013BA2F103
:10052000040298BF00F801CB38BF00F8013B11F07E
:10053000030300F0E880083AC0F0088051F8043B5B
:10054000083A51F804CBA0E80810F5E7121D5CBF8B
:1005500051F8043B40F8043BAFF30080D20724BFBE
:1005600011F8013B11F801CB48BF11F8012B24BF52
:1005700000F8013B00F801CB48BF00F8012B7047A1
:100580004FF000020429C0F0128010F0030C00F0BC
:100590001B80CCF1040CBCF1020F18BF00F8012B3A
:1005A000A8BF20F8022BA1EB0C0100F00DB85FEA08
:1005B000C17C24BF00F8012B00F8012B48BF00F8D4
:1005C000012B70474FF0000200B513469446964643
:1005D000203922BFA0E80C50A0E80C50B1F1200156
:1005E000BFF4F7AF090728BFA0E80C5048BF0CC004
:1005F0005DF804EB890028BF40F8042B08BF704762
:1006000048BF20F8022B11F0804F18BF00F8012BD3
:1006100070477047704770472DE9F0470D4699467F
:100620009246044600F124080168880604D5E06972
:1006300021F01001216000E00120A84201DD471BEC
:1006400000E00027A1697A1902EB0900081AA061ED
:100650002078C00602D42046AFF30080002608E0D0
:10066000D4E901211AF806009047206A401C761C44
:1006700020624E45F4DB2078C0060AD52046AFF351
:10068000008006E0D4E9012130209047206A401C18
:100690002062381EA7F10107F4DC07E0D4E901214C
:1006A00018F805009047206A401C2062281EA5F11A
:1006B0000105F3DC2046AFF300802078000602D568
:1006C0000220BDE8F0870120FBE7000001694A1C19
:1006D00002610878704700B58FB0CDE90131002183
:1006E000059105497944CDE9031011466846FFF7A5
:1006F00073FE0FB000BD0000E5FFFFFF0A6802F8BF
:10070000010B0A60704710B5203AC0F00B80B1E8C9
:100710001850203AA0E81850B1E81850A0E8185036
:10072000BFF4F5AF5FEA027C24BFB1E81850A0E83F
:10073000185044BF18C918C0BDE810405FEA827C59
:1007400024BF51F8043B40F8043B08BF7047D20770
:1007500028BF31F8023B48BF11F8012B28BF20F811
:10076000023B48BF00F8012B7047754600F02CF89B
:10077000AE4605006946534620F00700854618B08E
:1007800020B5FFF78BFDBDE820404FF000064FF08D
:1007900000074FF000084FF0000B21F00701AC46B6
:1007A000ACE8C009ACE8C009ACE8C009ACE8C009D5
:1007B0008D46704710B50446AFF300802046BDE873
:1007C0001040FFF757BD000000487047D0020020DE
:1007D00001491820ABBEFEE726000200704700BFAB
:1007E000FEE7000010B5024800F004F910BD00005B
:1007F000A801002010B5024800F0FCF810BD000070
:100800000802002030B5114D0468AC4206D21049F0
:100810000478083C1425B4FBF5F207E00C492031BC
:100820000478083C1425B4FBF5F4A21D0B46446C77
:10083000A40803EB84048464054C8034C46402F08F
:100840001F050124AC40046530BD000008040240CF
:1008500000080240027902F07F014A1E064B03EBBA
:1008600082024265044A403282654A1E02F01F033A
:1008700001229A40C26570470009024030B5D0E9B4
:1008800013546C60446D14B1D0E916546C6090F848
:10089000444004F01F050124AC40056C6C60046802
:1008A00063608468102C04D10468A2600468E1606D
:1008B00003E00468A1600468E26030BD7047002175
:1008C00009E0002201E0531C9AB240F6B8339A4284
:1008D000F9DB4B1C99B28142F3DB704772B600BF63
:1008E000FEE70146002209B90120704791F8250072
:1008F000022803D00420C863012227E008680068AA
:1009000020F001000B6818600868006820F00E00F5
:100910000B681860886C006820F480708B6C18601D
:1009200091F8440000F01F03012098400B6C5860C0
:10093000D1E913305860486D40B1486D006820F42B
:1009400080704B6D1860D1E916305860012081F835
:10095000250000BF002081F8240000BF1046C4E736
:1009600070B50446002594F8250002280BD0042019
:10097000E063012084F8250000BF002084F82400F3
:1009800000BF012534E02068006820F001002168E4
:1009900008602068006820F00E0021680860A06CE4
:1009A000006820F48070A16C086094F8440000F0A6
:1009B0001F0101208840216C4860D4E91310486071
:1009C000606D40B1606D006820F48070616D0860FA
:1009D000D4E916104860012084F8250000BF0020EB
:1009E00084F8240000BFA06B10B12046A16B88479B
:1009F000284670BD70B50446206C056820680668FE
:100A000094F8440000F01F01042088402840E0B121
:100A100006F00400C8B12068006800F0200028B982
:100A20002068006820F004002168086094F8440001
:100A300000F01F0104208840216C4860206B0028D2
:100A400056D02046216B884752E094F8440000F0CD
:100A50001F0102208840284018B306F0020000B3AE
:100A60002068006800F0200040B92068006820F08D
:100A70000A0021680860012084F8250094F84400E9
:100A800000F01F0102208840216C486000BF002058
:100A900084F8240000BFE06A50B32046E16A88472A
:100AA00026E094F8440000F01F0108208840284008
:100AB000F0B106F00800D8B12068006820F00E0000
:100AC0002168086094F8440000F01F01012088406C
:100AD000216C48600120E06384F8250000BF0020FD
:100AE00084F8240000BF606B10B12046616B88471A
:100AF00070BD000070B504460CB9012070BD3049CE
:100B0000206888420BD22F492068401A1421B0FB7C
:100B1000F1F0800060642B48083820640AE028491E
:100B20002068401A1421B0FBF1F080006064244872
:100B300008382064022084F825002068056847F6FC
:100B4000F0708543D4E902010843216908436169D3
:100B50000843A1690843E1690843216A0843054342
:100B6000206805602046FFF74DFEA068B0F5804F75
:100B700001D100206060207900F07F00A16C086046
:100B8000D4E913104860606860B16068042809D82F
:100B90002046FFF75FFE0020616D0860D4E9161063
:100BA000486003E000206065A065E0650020E06328
:100BB000012084F82500002084F8240000BF9DE770
:100BC00008040240080002402DE9F04104460D46A9
:100BD00016461F464FF0000800BF94F82400012875
:100BE00002D10220BDE8F081012084F8240000BF7A
:100BF00094F8250001283FD1022084F82500002028
:100C0000E0632068006820F00100216808603B462E
:100C1000324629462046FFF731FE206B30B120686E
:100C2000006840F00E00216808600BE02068006852
:100C300020F00400216808602068006840F00A0085
:100C400021680860A06C006800F4803028B1A06CB6
:100C5000006840F48070A16C0860606D28B1606D20
:100C6000006840F48070616D08602068006840F0A2
:100C700001002168086006E000BF002084F824001D
:100C800000BF4FF002084046ACE7000070B50446D4
:100C900000F016F906462546681C10B104480068A5
:100CA000054400BF00F00CF9801BA842FAD370BDC8
:100CB0000800002078B503460022D2E001269640C5
:100CC0000D6805EA0604002C7BD00D7905F00305BC
:100CD000012D04D00D7905F00305022D13D198687C
:100CE00056000325B540A8435600CD68B5402843BB
:100CF0009860586801259540A8430D79C5F3001503
:100D00009540284358600D7905F00305032D07D160
:100D10000D7905F00305032D0CD18D68012D09D047
:100D2000D86856000325B540A84356008D68B540E5
:100D30002843D8600D7905F00305022D13D1D6089C
:100D400003F1200555F826005507EE0E0F25B54096
:100D5000A8435607F60E0D69B5402843D60803F19F
:100D6000200545F82600186856000325B540A8431D
:100D70000D7905F003055600B540284318604D680D
:100D800005F44035002D6BD000BF394D2D6E45F078
:100D90000105374E356635462D6E05F00105009587
:100DA00000BF00BF4FEAB635960855F826009507F4
:100DB0002E0F0F25B540A843B3F1904F02D1002567
:100DC0001AE04DE02B4DAB4201D1012514E02A4D34
:100DD000AB4201D102250FE0284DAB4201D10325E2
:100DE0000AE0274DAB4201D1042505E0254DAB4279
:100DF00001D1052500E006259607360FB5402843AA
:100E0000214D960845F82600204D2868A0434D68DE
:100E100005F4801505B120431C4D28602D1D286860
:100E2000A0434D6805F4001505B12043174D2D1D55
:100E30002860164D2D1F2868A0434D6805F4003525
:100E400005B12043114D2D1F28602D1F2868A04398
:100E50004D6805F4803505B120430C4D083D2860F0
:100E6000521C0D68D540002D7FF428AF78BD0000DE
:100E7000001002400004004800080048000C004830
:100E80000010004800140048080001400804014018
:100E9000024613690B400BB1012000E000207047AF
:100EA00010B5426921EA020302EA010443EA04435D
:100EB000836110BD0AB1816100E08162704700006A
:100EC00001480068704700000000002003480068E7
:100ED0000349096808440149086070470000002080
:100EE0000800002010B50024032000F0ABF80F200C
:100EF00000F008F808B1012401E000F02FF82046C6
:100F000010BD000070B50446002511480068D8B136
:100F10000F4800684FF47A71B1FBF0F00D49096891
:100F2000B1FBF0F6304600F025FF58B9102C07D27F
:100F300000222146501E00F047F80748046004E0F4
:100F4000012502E0012500E00125284670BD0000D2
:100F5000080000200C0000200400002008B500BF9D
:100F60000E48006E40F001000C4908660846006E0D
:100F700000F00100009000BF00BF00BF0846806D78
:100F800040F0805088650846806D00F080500090E9
:100F900000BF00BF00F0F6F808BD000000100240DE
:100FA0000146084600280DDB00BF00BF00F01F030C
:100FB00001229A4043099B0003F1E023C3F800217A
:100FC00000BF00BF00BF70472DE9F05F80460D46AF
:100FD000164603F0B9FC074639462A46334601F067
:100FE0000700C0F1070ABAF1040F02D94FF0040A52
:100FF00001E0C0F1070AD14600F1040ABAF1070F77
:1010000002D24FF0000A01E0A0F1030AD4464FF0EB
:10101000010A0AFA09FAAAF1010A0AEA020A0AFA14
:101020000CFA4FF0010B0BFA0CFBABF1010B0BEAC6
:10103000030B4AEA0B042146404603F08DFCBDE851
:10104000F09F000000BF00F00702064B19684FF642
:10105000FF031940044B0B4343EA0221014B196083
:1010600000BF70470CED00E00000FA0502468ABBA5
:101070004148006800F4C060B0F5806F2BD13E4855
:101080008030006820F480703B4BC3F88000184625
:10109000006820F4C06040F40070186037480068B1
:1010A00032235843364BB0FBF3F0411C00E0491E9D
:1010B0003148406900F48060B0F5806F01D10029AB
:1010C000F5D12D48406900F48060B0F5806F51D1B2
:1010D0000320704708E028488030006820F48070C2
:1010E000254BC3F8800045E0B2F5007F3AD1224895
:1010F000006800F4C060B0F5806F2AD11E488030CF
:10110000006840F480701C4BC3F8800018460068EB
:1011100020F4C06040F40070186018480068322362
:101120005843174BB0FBF3F0411C00E0491E124836
:10113000406900F48060B0F5806F01D10029F5D1DD
:101140000D48406900F48060B0F5806F12D1032033
:10115000BFE709488030006840F48070064BC3F850
:10116000800007E00448006820F4C06040F480601C
:10117000014B18600020ACE7007000400C0000201C
:1011800040420F000348806840F480400149886075
:1011900070470000007000402DE9F8430446002726
:1011A000B846206800F40020B0F5002F73D1B9468E
:1011B000D348806D00F0805078B900BFD048806D72
:1011C00040F08050CE4988650846806D00F0805020
:1011D000009000BF00BF4FF00109CA48006840F40A
:1011E0008070C8490860FFF76BFE064606E0FFF70F
:1011F00067FE801B022801D9032705E0C14800686B
:1012000000F480700028F2D000BF002F46D1BC4807
:101210009030006800F44075CDB1206CA84216D023
:10122000B7489030006820F44075B548D0F8900079
:1012300040F48030B249C1F890000846D0F89000E0
:1012400020F48030C1F890000846C0F8905005F0B6
:101250000100A0B1FFF734FE064608E0FFF730FEBC
:10126000801B41F28831884201D9032706E0A44857
:101270009030006800F002000028EFD000BF5FB996
:101280009F489030006820F44070216C08439C49CE
:10129000C1F8900003E00CE0B84600E0B846B9F1B0
:1012A000010F05D19648806D20F0805094498865E3
:1012B00000BF207800F0010048B1914888300068F4
:1012C00020F00300616808438D49C1F88800207848
:1012D00000F00200022809D189488830006820F017
:1012E0000C00A16808438649C1F88800207800F006
:1012F0000400042809D182488830006820F03000BA
:10130000E16808437E49C1F88800207800F00800B1
:10131000082809D17A488830006820F0C000216987
:1013200008437749C1F88800207800F02000202881
:1013300009D173488830006820F44060616908432F
:101340006F49C1F88800207800F04000402809D19A
:101350006B488830006820F44050A1690843684910
:10136000C1F88800207800F08000802809D1644806
:101370008830006820F44040E16908436049C1F8C2
:101380008800208800F48070B0F5807F09D15C4827
:101390008830006820F44030216A08435849C1F879
:1013A0008800208800F40070B0F5007F09D154480F
:1013B0008830006820F44020616A08435049C1F831
:1013C0008800208800F48060B0F5806F13D14C480D
:1013D0008830006820F44010A16A084348498831E9
:1013E0000860A06AB0F5801F05D14548C06840F488
:1013F00080104349C860208800F40060B0F5006F99
:1014000013D13F488830006820F44000E16A084367
:101410003B4988310860E06AB0F5800F05D1384853
:10142000C06840F480103649C860208800F48050BD
:10143000B0F5805F13D132488830006820F04070EA
:10144000216B08432E4988310860206BB0F1807F02
:1014500005D12B48C06840F480102949C860208815
:1014600000F40050B0F5005F13D1254888300068C3
:1014700020F04060616B0843214988310860606B4F
:10148000B0F1006F05D11E48C06840F480101C49BF
:10149000C860208800F48040B0F5804F13D1184810
:1014A0008830006820F04060A16B084314498831FF
:1014B0000860A06BB0F1006F05D11148C06840F41E
:1014C00080100F49C860208800F40040B0F5004F3C
:1014D00013D10B488830006820F04050E16B08437E
:1014E000074988310860E06BB0F1805F05D104489E
:1014F000C06840F480300249C8604046BDE8F883C7
:1015000000100240007000402DE9F04104460D46F5
:101510004FF0000814B90120BDE8F0817D48006853
:1015200000F00F00A8420ED27A48006820F00F00A9
:101530002843784908600846006800F00F00A84278
:1015400001D00120E8E7207800F00100002864D0F5
:101550006068032823D17048006800F0007008B963
:101560000120D9E702F094F806466C48864237D944
:101570006948806800F0F00030B1207800F0020087
:1015800002282DD1A06858BB6348806820F0F00085
:1015900040F08000604988604FF0800820E060687B
:1015A000022806D15C48006800F4003040B90120F0
:1015B000B2E75948006800F4806008B90120ABE741
:1015C00000F0DEF806465548864209D95248806840
:1015D00020F0F00040F080004F4988604FF0800814
:1015E0004D48806820F00300616808434A498860DC
:1015F000FFF766FC074608E0FFF762FCC01B41F2FC
:101600008831884201D9032086E74348806800F08A
:101610000C006168B0EB810FEED1207800F0020081
:10162000022820D1207800F00400042805D13A488F
:10163000806840F4E06038498860207800F0080055
:10164000082807D13448806820F4605040F4E060F6
:10165000314988603048806820F0F000A168084374
:101660002D49886008E0B8F1800F05D12A488068CC
:1016700020F0F000284988602648006800F00F003C
:10168000A84219D92348006820F00F0028432149B7
:101690000860FFF715FC074608E0FFF711FCC01BC8
:1016A00041F28831884201D9032035E719480068A2
:1016B00000F00F00A842F0D1207800F004000428C8
:1016C00007D11548806820F4E060E16808431249BA
:1016D0008860207800F00800082808D10E4880684B
:1016E00020F46050216940EAC1000B49886000F095
:1016F00047F809498968C1F30311094A515C01F0AF
:101700001F01C8400749086007480068FFF7FAFB57
:1017100002E70000002002400010024000B4C404B0
:10172000C25700080C000020040000200148006897
:10173000704700000C00002000B5FFF7F7FF0549D7
:101740008968C1F30221044A515C01F01F01C840BD
:1017500000BD000000100240D257000800B5FFF79E
:10176000E5FF05498968C1F3C221044A515C01F0D3
:101770001F01C84000BD000000100240D257000801
:1017800070B5224DAD6805F00C05042D01D120483F
:101790003AE01E4DAD6805F00C05082D01D11D483D
:1017A00032E01A4DAD6805F00C050C2D2BD1174D0C
:1017B000ED6805F00304154DED68C5F303156A1CCB
:1017C000022C0CD0032C09D1124DB5FBF2F50F4EB3
:1017D000F668C6F3062605FB06F10AE000BF0C4DCD
:1017E000B5FBF2F5094EF668C6F3062605FB06F1D1
:1017F00000BF00BF054DED68C5F341656D1C6B0072
:10180000B1FBF3F000E0002070BD000000100240CA
:101810000024F40000127A002DE9F843044614B9BC
:101820000120BDE8F883207800F00100002865D091
:10183000FC48806800F00C07FA48C06800F0030616
:101840000C2F01D1032E01D0082F0AD1F5480068D2
:1018500000F40030002851D0606800284ED10120EB
:10186000DFE700BF6068B0F5803F06D1ED48006853
:1018700040F48030EB4908601AE06068B0F5A02FB2
:101880000BD1E848006840F48020E649086008462B
:10189000006840F4803008600AE0E248006820F404
:1018A0008030E04908600846006820F48020086025
:1018B00000BF606888B1FFF703FB054606E0FFF74D
:1018C000FFFA401B642801D90320AAE7D548006825
:1018D00000F400300028F2D010E0FFF7F1FA0546DE
:1018E00006E0FFF7EDFA401B642801D9032098E7D2
:1018F000CC48006800F400300028F2D1207800F0D5
:101900000200022860D1C748806800F00C07C54873
:10191000C06800F003060C2F01D1022E01D0042F65
:1019200018D1C048006800F4806018B1E06808B9B8
:10193000012076E7BB48406820F0FE40217C40EA69
:101940000160B8494860B8480068FFF7DBFA18B38F
:10195000012066E7E06800B3B248006840F4807098
:10196000B0490860FFF7ACFA054606E0FFF7A8FAB1
:10197000401B022801D9032053E7AA48006800F45D
:1019800080600028F2D0A748406820F0FE40217C0B
:1019900040EA0160A349486016E0A248006820F4CC
:1019A0008070A0490860FFF78BFA054606E0FFF754
:1019B00087FA401B022801D9032032E799480068C2
:1019C00000F480600028F2D1207800F00800082898
:1019D00036D16069D0B193489430006840F001007E
:1019E0009049C1F89400FFF76BFA054606E0FFF74F
:1019F00067FA401B022801D9032012E78948943076
:101A0000006800F002000028F1D019E08548943009
:101A1000006820F001008349C1F89400FFF750FAF4
:101A2000054606E0FFF74CFA401B022801D90320C7
:101A3000F7E67C489430006800F002000028F1D1FD
:101A4000207800F00400042872D14FF00008754897
:101A5000806D012121EA107078B100BF7148806D5E
:101A600040F080506F4988650846806D00F08050D6
:101A7000009000BF00BF4FF001086C48006800F400
:101A80008070B0B96948006840F4807067490860A8
:101A9000FFF716FA054606E0FFF712FA401B022888
:101AA00001D90320BDE66148006800F48070002879
:101AB000F2D000BFA068012808D15A4890300068D1
:101AC00040F001005749C1F8900021E0A0680528C6
:101AD0000FD154489030006840F004005149C1F8DB
:101AE00090000846D0F8900040F00100C1F8900046
:101AF0000EE04C489030006820F001004949C1F8E0
:101B000090000846D0F8900020F00400C1F8900042
:101B100000BFA068A8B1FFF7D3F9054609E0FFF7B9
:101B2000CFF9401B41F28831884202D9032078E680
:101B300025E03C489030006800F002000028EED01C
:101B400013E0FFF7BDF9054608E0FFF7B9F9401BC0
:101B500041F28831884201D9032062E63148903051
:101B6000006800F002000028EFD1B8F1010F05D1A4
:101B70002C48806D20F080502A49886500BF20786D
:101B800000F02000202836D1A069D0B12548983037
:101B9000006840F001002349C1F89800FFF790F970
:101BA000054606E0FFF78CF9401B022801D9032007
:101BB00037E61C489830006800F002000028F1D099
:101BC00019E018489830006820F001001549C1F864
:101BD0009800FFF775F9054606E0FFF771F9401B1D
:101BE000022801D903201CE60E489830006800F056
:101BF00002000028F1D1E069002860D0094880681F
:101C000000F00C000C287AD0E069022858D1054871
:101C1000006820F0807003490860FFF751F905461D
:101C20000DE00000001002400400002000700040A1
:101C3000FFF746F9401B022801D90320F1E54A4885
:101C4000006800F000700028F2D1D4E90810401EAE
:101C500041EA0011A06A41EA0021208E0122C2EB74
:101C6000500041EA40513420005DC2EB500041EA8F
:101C700040612C20005D41EAC0603B49C9683B4A95
:101C8000114008433849C8600846006840F0807039
:101C900008600846C06840F08070C860FFF710F91F
:101CA000054606E0FFF70CF9401B022801D9032086
:101CB000B7E52D48006800F000700028F2D051E030
:101CC0002948006820F0807027490860FFF7F8F87D
:101CD000054606E0FFF7F4F8401B022801D903206F
:101CE0009FE52148006800F000700028F2D11E48EE
:101CF000C0681F4908401C49C86033E0FFE7E0693D
:101D0000012800D18DE51848C66806F00301206A55
:101D1000814225D106F0F001606A401EB1EB001F40
:101D20001ED106F4FE41A06AB1EB002F18D106F0D7
:101D300078412C20005DB1EBC06F11D106F4C001D9
:101D4000208E0122C2EB5000B1EB405F08D106F0BB
:101D5000C0613420005DC2EB5000B1EB406F01D098
:101D600001205EE500205CE5001002400C809F0130
:101D7000FCFFEEFE70B504462546681EB0F1807F7C
:101D800001D301200FE0681E4FF0E02148610F21D0
:101D90004FF0FF3002F0E0FD00204FF0E0218861BD
:101DA00007200861002070BD70477047704770477A
:101DB0007047704730B502460B4600BF92F83C00B2
:101DC000012801D1022030BD012082F83C0000BF73
:101DD000022082F83D0010684168106884681D4D3B
:101DE0001068A84203D01C4D1068A84203D121F40A
:101DF0007001586801431948014018680143106890
:101E00004160144D1068A84213D01068B0F1804FA3
:101E10000FD0134D1068A8420BD0124D1068A84285
:101E200007D00D4D1068A84203D00F4D1068A8428E
:101E300005D124F080049868044310688460012070
:101E400082F83D0000BF002082F83C0000BF00BFC8
:101E5000B9E70000002C0140003401408FFFFFFD76
:101E6000000400400008004000400140704710B5E9
:101E700004460CB9012010BD94F83D0028B900209B
:101E800084F83C00204600F029F8022084F83D0048
:101E9000211D206801F01EFE012084F8480000BFCB
:101EA00084F83E0001213F2001554020015541208A
:101EB0000155422001554320015500BF00BF0120BC
:101EC00084F844004520015546200155472001551E
:101ED00000BF012084F83D000020CCE738B504465F
:101EE0000D492068884215D100BF0C48806D40F034
:101EF00010000A4988650846806D00F010000090C7
:101F000000BF00BF002202213620FFF75DF8362017
:101F1000FFF746F838BD00000010004000100240F6
:101F2000014691F83D00012801D0012070470220B0
:101F300081F83D000868C06840F001000B68D86077
:101F4000184B0868984213D00868B0F1804F0FD042
:101F5000154B086898420BD0144B0868984207D07C
:101F6000134B0868984203D0124B0868984210D16E
:101F700008688068104B00EA0302062A0FD0B2F509
:101F8000803F0CD00868006840F001000B681860C2
:101F900005E00868006840F001000B681860002048
:101FA000C4E70000002C014000040040000800408D
:101FB00000340140004001400700010010B5044614
:101FC0000548844202D102F0BDFF04E00348844288
:101FD00001D102F0FBFF10BD7C000020300000208A
:101FE0002DE9F04104460D461646002700BF94F83F
:101FF0003C00012802D10220BDE8F081012084F8D4
:102000003C0000BF96B9EB68D5E90012206801F0EA
:10201000D5FD2068806920F00C0021688861206867
:102020008069A96808432168886141E0042E13D1C2
:10203000EB68D5E90012206801F01AFE206880697B
:1020400020F440602168886120688069A96840EABE
:102050000120216888612BE0082E12D1EB68D5E9B8
:102060000012206801F044FE2068C06920F00C00D6
:102070002168C8612068C069A96808432168C861EF
:1020800016E00C2E13D1EB68D5E90012206801F0A0
:102090006DFE2068C06920F440602168C861206836
:1020A000C069A96840EA01202168C86100E00127F1
:1020B00000BF002084F83C0000BF38469CE710B504
:1020C00004460CB9012010BD94F83D0028B9002049
:1020D00084F83C00204600F029F8022084F83D00F6
:1020E000211D206801F0F6FC012084F8480000BFA3
:1020F00084F83E0001213F20015540200155412038
:102100000155422001554320015500BF00BF012069
:1021100084F84400452001554620015547200155CB
:1021200000BF012084F83D000020CCE710B586B048
:102130000446142101A8FEF745FA2068B0F1804F4B
:1021400032D100BF3348806D40F0010031498865CD
:102150000846806D00F00100009000BF00BF00BF86
:102160000846C06C40F00100C8640846C06C00F02E
:102170000100009000BF00BF4FF40040019002201A
:1021800002900020039004900120059001A94FF0D7
:102190009040FEF78FFD002201211C20FEF714FF66
:1021A0001C20FEF7FDFE33E01B49206888422FD13A
:1021B00000BF1848806D40F0020016498865084647
:1021C000806D00F00200009000BF00BF00BF084615
:1021D000C06C40F00200C8640846C06C00F0020009
:1021E000009000BF00BF102001900220029000204C
:1021F000039004900220059001A90848FEF75AFDBB
:10220000002201211D20FEF7DFFE1D20FEF7C8FE83
:1022100006B010BD00100240000400400004004859
:102220002DE9F04304460D46002715B994F83E0009
:1022300015E0042D02D13F20005D10E0082D02D1F1
:102240004020005D0BE00C2D02D14120005D06E036
:10225000102D02D14220005D01E04320005D804648
:1022600015B994F844000BE0042D02D14520005D1F
:1022700006E0082D02D14620005D01E04720005D08
:102280008146B8F1010F02D1B9F1010F02D001204E
:10229000BDE8F0831DB9022084F83E001AE0042D49
:1022A00003D102213F20015514E0082D03D1022162
:1022B000402001550EE00C2D03D102214120015593
:1022C00008E0102D03D102214220015502E0022135
:1022D000432001551DB9022084F844000EE0042D6E
:1022E00003D102214520015508E0082D03D1022128
:1022F0004620015502E002214720015535B1042D49
:102300000BD0082D10D00C2D1CD114E02068C06813
:1023100040F002002168C86016E02068C06840F004
:1023200004002168C8600FE02068C06840F0080021
:102330002168C86008E02068C06840F0100021688B
:10234000C86001E0012700BF00BF67BB012229462A
:10235000206801F021FC18492068884213D02068C9
:10236000B0F1804F0FD01549206888420BD0144936
:102370002068884207D013492068884203D0124958
:102380002068884210D120688068104900EA010660
:10239000062E0FD0B6F5803F0CD02068006840F0C4
:1023A00001002168086005E02068006840F0010035
:1023B0002168086038466BE7002C014000040040AB
:1023C00000080040003401400040014007000100C7
:1023D00070B504462068C6682068056905F00200EB
:1023E000022819D106F00200022815D1401F2168E9
:1023F0000861012020772068806900F0030018B18F
:102400002046FFF7DBFD05E0204600F0F1F820460E
:1024100000F0EFF80020207705F00400042819D11F
:1024200006F00400042815D1C04321680861022089
:1024300020772068806900F4407018B12046FFF7CB
:10244000BDFD05E0204600F0D3F8204600F0D1F8AD
:102450000020207705F00800082819D106F00800B0
:10246000082815D1C043216808610420207720681E
:10247000C06900F0030018B12046FFF79FFD05E09A
:10248000204600F0B5F8204600F0B3F80020207791
:1024900005F01000102819D106F01000102815D1F1
:1024A000C04321680861082020772068C06900F4D3
:1024B000407018B12046FFF781FD05E0204600F08E
:1024C00097F8204600F095F80020207705F00100ED
:1024D00048B106F0010030B16FF0010021680861D9
:1024E000204600F087F805F08000802804D005F42D
:1024F0000050B0F5005F0AD106F08000802806D1B8
:102500006FF40250216808612046FFF74EFC05F485
:102510008070B0F5807F0AD106F08000802806D157
:102520006FF48070216808612046FFF73DFC05F0DC
:102530004000402809D106F04000402805D1C043A2
:1025400021680861204600F07EF805F02000202870
:1025500009D106F02000202805D1C0432168086178
:102560002046FFF723FC05F48010B0F5801F0BD147
:1025700006F48010B0F5801F06D16FF4801021683A
:1025800008612046FFF714FC05F40010B0F5001FA9
:102590000BD106F40010B0F5001F06D16FF4001047
:1025A000216808612046FFF702FC05F48000B0F5C1
:1025B000800F0BD106F48000B0F5800F06D16FF4C8
:1025C0008000216808612046FFF7F3FB05F4000056
:1025D000B0F5000F0BD106F40000B0F5000F06D1E6
:1025E0006FF40000216808612046FFF73FFC70BDD2
:1025F0007047704710B504460548844207D102F081
:10260000C9F902F01DFB02F0D1FB02F021FD10BD63
:10261000C80000200246002031B1042907D0082953
:1026200008D00C290CD108E01368586B09E0136836
:10263000986B06E01368D86B03E01368186C00E031
:1026400000BF00BF70477047014600BF91F884008B
:10265000012801D102207047012081F8840000BFC9
:102660002420C1F88800086802680868006820F023
:1026700001000B68186022F00052002048660868CC
:1026800002602020C1F8880000BF002081F884008B
:1026900000BF00BFDFE72DE9F04104460E461746B4
:1026A000D4F88C00202825D106B117B90120BDE847
:1026B000F0810120E066002020673A46314620463E
:1026C00001F09EFF05469DB9E06E01280FD1102054
:1026D0002168086200BF00BF216851E8001F41F077
:1026E0001000226842E800010029F5D100E0012530
:1026F0002846DCE70220DAE770B504460E460C48AF
:10270000844214D101200B4908700B48FDF7D4FE18
:1027100005462A4608490948FDF7EDFE1E210648F0
:10272000FDF72EFF1E2204492046FFF7B4FF70BDBF
:1027300014010020240000207D0200209B020020C4
:10274000704770B504460D4600BF94F88400012818
:1027500001D1022070BD012084F8840000BF242034
:10276000C4F88800206806682068006820F001002E
:10277000216808602068806820F060602843216834
:102780008860204601F032FB206806602020C4F8F3
:10279000880000BF002084F8840000BF00BFD9E794
:1027A00070B504460D4600BF94F88400012801D19D
:1027B000022070BD012084F8840000BF2420C4F8EA
:1027C0008800206806682068006820F00100216801
:1027D00008602068806820F0604028432168886095
:1027E000204601F003FB206806602020C4F8880022
:1027F00000BF002084F8840000BF00BFD9E7704705
:10280000704770472DE9F04704462068C569206885
:1028100006682068876840F60F0005EA0009B9F1EC
:10282000000F0FD105F0200060B106F0200010B9B4
:1028300007F0805030B1606F10B12046616F88475B
:10284000BDE8F087B9F1000F7ED0DF48384018B9F5
:10285000DE4830400028F7D005F0010058B106F4FA
:10286000807040B1012021680862D4F8900040F0E7
:102870000100C4F8900005F0020058B107F0010013
:1028800040B1022021680862D4F8900040F00400B2
:10289000C4F8900005F0040058B107F0010040B101
:1028A000042021680862D4F8900040F00200C4F8C7
:1028B000900005F0080070B106F0200010B9C24881
:1028C000384040B1082021680862D4F8900040F0F8
:1028D0000800C4F8900005F4006060B106F0806064
:1028E00048B14FF4006021680862D4F8900040F0CD
:1028F0002000C4F89000D4F89000002852D005F0D1
:10290000200050B106F0200010B907F0805020B12F
:10291000606F10B12046616F8847D4F890A020689E
:10292000806800F04000402802D00AF0280070B310
:10293000204601F035FC2068806800F04000402807
:1029400026D100BF00BF00E02DE02168083151E82A
:10295000001F21F040002168083141E80002002AF0
:10296000F1D100BFD4F8800068B19948D4F8801044
:102970008863D4F88000FDF7F3FF98B1D4F88000A5
:10298000816B88470EE02046FFF73BFF0AE003E03B
:102990002046FFF736FF05E02046FFF732FF002014
:1029A000C4F890004CE7E06E012865D105F01000F6
:1029B000002861D006F010000028FAD0102021680D
:1029C00008622068806800F0400040287AD1D4F87E
:1029D0008000006840681FFA80F8B8F1000F5CD0F2
:1029E000B4F85C00404558DDA4F85E80D4F880005F
:1029F0000068006800F02000E8BB00BF00BF21684D
:102A000051E8001F21F48070226842E8000100298B
:102A1000F5D100BF00BF00BF2168083151E8001F99
:102A200021F001002168083141E80002002AF3D1B9
:102A300000BF00BF00BF2168083151E8001F21F02E
:102A400040002168083141E80002002AF3D100BFAC
:102A50002020C4F88C000020E06600BF00BF216881
:102A600051E8001F21F01000226842E8000100290F
:102A7000F5D100BF01E004E068E0D4F88000FDF784
:102A800030FF02202067B4F85C00B4F85E20801AA2
:102A900081B22046FFF730FE12E0B4F85C004045FA
:102AA0000ED1D4F880000068006800F020002028D3
:102AB00006D102202067B4F85C102046FFF71CFE08
:102AC000BEE6FFE734F85C0F6188401A1FFA80F811
:102AD00060885C3CC8B3B8F1000F36D000BF00BFBF
:102AE000216851E8001F21F49070226842E800013B
:102AF0000029F5D100BF00BF00BF2168083151E8AF
:102B0000001F314AD24301EA02002168083141E83E
:102B10000002002AF1D100BF2020C4F88C00002060
:102B2000E066606700BF00BF216851E8001F21F028
:102B30001000226842E800010029F5D100BF022000
:102B4000206741462046FFF7D7FD79E605F480105F
:102B500050B107F4800038B14FF48010216808624A
:102B60002046FFF74DFE6BE605F0800058B106F0F9
:102B7000800010B907F4000028B1A06F10B1204602
:102B8000A16F88475CE605F0400030B106F04000D8
:102B900018B1204601F03AFB52E605F4000030B1CE
:102BA00006F0804018B12046FFF729FE48E605F000
:102BB000807030B106F0004018B12046FFF7C0FD2C
:102BC0003EE600BF3CE600000100001020010004CA
:102BD0002740000810B504460CB9012010BDA069BB
:102BE00000B100E000BFD4F8880028B9002084F8C4
:102BF0008400204600F02AF82420C4F888002068C9
:102C0000006820F0010021680860A06A10B1204629
:102C100001F018F9204601F031FB012800D1DDE771
:102C20002068406820F490402168486020688068EF
:102C300020F02A00216888602068006840F00100C8
:102C400021680860204601F079F9C7E710B598B00F
:102C50000446142113A8FDF7B5FC442102A8FDF792
:102C6000B1FC3C492068884272D1012002900020CA
:102C7000039002A8FEF790FA08B1FDF72FFE00BFFF
:102C80003548006E40F48040334908660846006EBF
:102C900000F48040019000BF00BF00BF0846C06C38
:102CA00040F00100C8640846C06C00F001000190CB
:102CB00000BF00BF4FF4C0601390022014900020AA
:102CC000159016900720179013A94FF09040FDF72C
:102CD000F1FF22482249086018204860002120485E
:102CE0008160C16080210161002141618161C16118
:102CF0000162FDF7FFFE08B1FDF7F0FD00BF1848C7
:102D0000C4F88000846200BF14481430154908607C
:102D1000192048601021134881600021C160802182
:102D20000161002141618161C1610162FDF7E2FE43
:102D300008B1FDF7D3FD00BF0A48E067846200BF19
:102D4000002211462520FEF73FF92520FEF728F93D
:102D500018B010BD003801400010024008000240C9
:102D6000A8010020080200207047704730B50346D4
:102D7000D3F88800202845D101B10AB9012030BD1F
:102D800043F8501F9A80DA8000209862186421204E
:102D900098635869503BB0F1005F19D19868B0F55D
:102DA000805F04D1186910B91748986701E0174887
:102DB000986700BF00BF1C68083454E8004F44F413
:102DC00000001C68083444E80005002DF3D117E02A
:102DD0009868B0F5805F04D1186910B90C489867FD
:102DE00001E00C48986700BF00BF1C6854E8004F22
:102DF00044F080001D6845E80004002CF5D100BFB8
:102E00000020BCE70220BAE72B4700080948000869
:102E1000C9460008AD470008704700BFFEE7000044
:102E200000B585B014216846FDF7CCFB4FF6FF7066
:102E3000009000200190032003900020029069463A
:102E40000248FDF737FF05B000BD0000000800484C
:102E500000B585B014216846FDF7B4FB4FF6FF704E
:102E60000090012001900320039000200290694609
:102E70000248FDF71FFF05B000BD00000008004834
:102E800070B50546002204210E48FEF713F80E48DF
:102E9000066800240021084600F07AF900F0C8F91D
:102EA00000BF03E0284600F087F9641CB4F5963FA4
:102EB000F8D305480660012204210248FDF7FAFF15
:102EC00070BD0000000C00481408004800B587B031
:102ED000142102A8FDF776FB00BF2A48C06C40F021
:102EE00004002849C8640846C06C00F00400019042
:102EF00000BF00BF00BF0846C06C40F00100C864BE
:102F00000846C06C00F00100019000BF00BF00BF88
:102F10000846C06C40F00200C8640846C06C00F06F
:102F20000200019000BF00BF4FF4487002900120E2
:102F3000039000200590049002A91348FDF7BAFE03
:102F40004FF48070029001200390002005900490BF
:102F500002A94FF09040FDF7ADFEFFF779FF4FF06B
:102F60009040806940F480704FF09041886106483D
:102F70001830006840F4087003491831086007B041
:102F800000BD0000001002400004004870B5054676
:102F90000E461446A4F12000C4B204EB44000449D8
:102FA00001EB00123146284600F030F870BD0000F9
:102FB000DA5700082DE9F04107460C4600220421AB
:102FC0001048FDF777FF1048D0F80080002540F248
:102FD0003F1609E0227831463846FFF7D7FFA6F1C1
:102FE000100086B2641C6D1C207808B1142DF1D33A
:102FF0000548C0F80080012204210248FDF75AFF6D
:10300000BDE8F081000C0048140800482DE9F043A9
:1030100006468946174600240025A046B046494684
:10302000404600F0B5F800BF1EE000F001F90025B1
:103030000FE037F814000121A940084020B90C48DE
:10304000008800F0B9F803E00A48008800F0B4F8FE
:103050006D1C102DEDD308F1010000F0FF0849466A
:10306000404600F095F8641C182CDED3BDE8F083D0
:103070002A0000202800002010B500220421124858
:10308000FDF718FF11480468FFF720FF002000F04B
:1030900021F80F4908800846008848F2302188420C
:1030A00002D100F029FB01E000F0B6FB002000F0A7
:1030B00011F80749088005480460012204210248EC
:1030C000FDF7F8FE10BD0000000C00481408004891
:1030D0002C00002070B504462748006840F40070BA
:1030E000254908600846006840F48070086022485E
:1030F0001038006840F020001F49103908601F4850
:1031000004601D48006840F020001B49086000BFB3
:1031100000BF00BF18481038006840F02000164972
:10312000103908600846006840F480700860FFF7B6
:1031300077FE4FF09040806A40F480704FF09041ED
:10314000886200BF00BF00BF0C48001F006885B246
:103150004FF09040806940F480704FF0904188615A
:10316000FFF776FE04481038006840F4007002490A
:1031700010390860284670BD28040048140800482B
:1031800001B5BDF800000149088008BD2A000020F3
:1031900030B504460D462146202000F085F829462A
:1031A000212000F081F830BD01B5BDF800000149D3
:1031B000088008BD280000201B49096841F40071FF
:1031C000194A116018491039096841F48071164A8A
:1031D000103A11601146096841F02001116013494D
:1031E00008601149096841F020010F4A116000BFD1
:1031F00000BF00BF0C491039096841F020010A4A9C
:10320000103A11601146096841F48071116000BFE5
:1032100000BF00BF04491039096841F40071024A37
:10322000103A116070470000280400481408004854
:103230001B48006840F4007019490860084600689F
:1032400040F48070086016481038006840F0200094
:10325000134910390860222012490860104800689C
:1032600040F020000E49086000BF00BF00BF0C48BE
:103270001038006840F020000949103908600846FD
:10328000006840F48070086000BF00BF00BF0448C1
:103290001038006840F40070014910390860704728
:1032A0002804004814080048214A126842F40072B9
:1032B0001F4B1A601A46126842F480721A601C4A48
:1032C000103A126842F02002194B103B1A60194A5A
:1032D0001060174A126842F02002154B1A6000BFB6
:1032E00000BF00BF124A103A126842F02002104B91
:1032F000103B1A601A46126842F480721A600D4A36
:1033000011600B4A126842F02002094B1A6000BF9C
:1033100000BF00BF064A103A126842F02002044B78
:10332000103B1A601A46126842F480721A607047A5
:10333000280400481408004808B500BF1548806CF0
:1033400040F00400134988640846806C00F00400D3
:10335000009000BF00BF00BF0846806C40F0010035
:1033600088640846806C00F00100009000BF00BF38
:10337000002211460B20FDF727FE0B20FDF710FE63
:10338000002211460C20FDF71FFE0C20FDF708FE61
:1033900008BD00000010024000B587B0142102A84B
:1033A000FDF710F900BF4948C06C40F004004749E0
:1033B000C8640846C06C00F00400019000BF00BF64
:1033C00000BF0846C06C40F00100C8640846C06CED
:1033D00000F00100019000BF00BF00BF0846C06CB4
:1033E00040F00200C8640846C06C00F00200019082
:1033F00000BF00BF00BF0846C06C40F00800C864B2
:103400000846C06C00F00800019000BF00BF002219
:103410004FF6FF712E48FDF74DFD00224FF48071ED
:103420004FF09040FDF746FD002204212948FDF7AA
:1034300041FD00224FF408712748FDF73BFD4FF690
:10344000FF7002900120039000200490059002A9D3
:103450001F48FDF72FFC012002900020039001205F
:10346000049002A94FF09040FDF724FC0720029041
:10347000002003900120049002A91748FDF71AFCD0
:103480004FF480700290012003900020049005907A
:1034900002A94FF09040FDF70DFC0420029001209E
:1034A000039000200490059002A90A48FDF702FC51
:1034B0004FF40870029001200390002004900590C2
:1034C00002A90548FDF7F6FB07B000BD0010024059
:1034D00000080048000C00480004004800B587B010
:1034E00000200490059006900090019002900390B7
:1034F0004FF08040154908604F2048600021134874
:103500008160491EC160002101618161FEF7D7FD24
:1035100008B1FDF7E3F900200490069004A90B48D8
:10352000FEF748FC08B1FDF7D9F900200090012012
:103530000190002002900390002269460348FEF7A4
:103540004FFD08B1FDF7CAF907B000BD30000020FB
:1035500000B587B00020049005900690009001907F
:10356000029003901648174908604F2048600021D8
:10357000144881604FF6FF71C160002101618161D3
:10358000FEF79DFD08B1FDF7A9F900200490069013
:1035900004A90C48FEF70EFC08B1FDF79FF90020C6
:1035A00000900120019000200290039000226946C3
:1035B0000448FEF715FD08B1FDF790F907B000BD0E
:1035C000000400407C0000200EB500200090019017
:1035D00002900F480F49086040F21F3048600021F8
:1035E0000C48816042F20F71C16000218161FEF7D9
:1035F0003EFC08B1FDF772F9002000900290694688
:103600000448FEF7D7FB08B1FDF768F90EBD0000CE
:1036100000100040C800002010B518481849086084
:103620004FF416504860002115488160C160016167
:103630000C21416100218161C16101624162002070
:103640000F4988620846FFF7C5FA08B1FDF746F949
:1036500000210B48FFF7A4F808B1FDF73FF900215E
:103660000748FFF76EF808B1FDF738F90448FEF790
:10367000EBFF08B1FDF732F910BD00000038014042
:103680001401002000BFFEE700BFFEE77047000006
:1036900070B5164DED6805F00304144DED68C5F3E3
:1036A00003156B1C022C0CD0032C09D1104DB5FB5B
:1036B000F3F50E4EF668C6F3062605FB06F10AE0A2
:1036C00000BF0C4DB5FBF3F5084EF668C6F30626B1
:1036D00005FB06F100BF00BF044DED68C5F3416571
:1036E0006D1C6A00B1FBF2F070BD000000100240DA
:1036F00000127A000024F40000B501210020FFF739
:10370000D3FD4FF47A70FDF7DAF800210120FFF7BE
:10371000CBFD41F290711020FFF7C6FD4FF41C5114
:103720006020FFF7C1FD01216120FFF7BDFD0221EF
:103730004620FFF7B9FD48F210011320FFF7B4FD52
:1037400048F2FE011220FFF7AFFD4FF4A061022006
:10375000FFF7AAFD41F230010320FFF7A5FD40F27B
:1037600003313020FFF7A0FD40F203313120FFF795
:103770009BFD40F203313220FFF796FD4FF440717C
:103780003320FFF791FD03213420FFF78DFD40F238
:1037900003313520FFF788FD14213620FFF784FD23
:1037A00040F203313720FFF77FFD40F2033138202C
:1037B000FFF77AFD40F203313920FFF775FD4FF432
:1037C00040713A20FFF770FD03213B20FFF76CFDAD
:1037D00040F203313C20FFF767FD4FF4A0513D203C
:1037E000FFF762FD4FF400719220FFF75DFD40F29C
:1037F00003319320FFF758FD40F60D019020FFF7AD
:1038000053FD41F218010320FFF74EFD40F2731102
:103810000720FFF749FD00BD10B543F20801E32082
:10382000FFF742FD1221E720FFF73EFD41F2312173
:10383000EF20FFF739FD00210120FFF735FD4FF4A0
:10384000E0610220FFF730FD41F230010320FFF775
:103850002BFD00210420FFF727FD40F2072108205F
:10386000FFF722FD00210920FFF71EFD00210A209D
:10387000FFF71AFD00210C20FFF716FD00210D2097
:10388000FFF712FD00210F20FFF70EFD0021102091
:10389000FFF70AFD07211120FFF706FD0021122086
:1038A000FFF702FD00211320FFF7FEFCC820FDF703
:1038B000EDF941F290611020FFF7F6FC40F227216C
:1038C0001120FFF7F1FC3220FDF7E0F91D21122055
:1038D000FFF7EAFC3220FDF7D9F94FF4006113201D
:1038E000FFF7E2FC14212920FFF7DEFC0B212B203F
:1038F000FFF7DAFC3220FDF7C9F900212020FFF79D
:10390000D3FC00212120FFF7CFFC07213020FFF757
:10391000CBFC40F207713120FFF7C6FC06213220B4
:10392000FFF7C2FC40F204713520FFF7BDFC41F601
:1039300004713620FFF7B8FC04213720FFF7B4FCF0
:1039400000213820FFF7B0FC40F206713920FFF764
:10395000ABFC40F201713C20FFF7A6FC0F213D209B
:10396000FFF7A2FC00215020FFF79EFCEF21512021
:10397000FFF79AFC00215220FFF796FC40F23F111E
:103980005320FFF791FC4FF41C516020FFF78CFC93
:1039900001216120FFF788FC00216A20FFF784FCE9
:1039A00000218020FFF780FC00218120FFF77CFCB4
:1039B00000218220FFF778FC00218320FFF774FCB0
:1039C00000218420FFF770FC00218520FFF76CFCAC
:1039D00010219020FFF768FC00219220FFF764FC83
:1039E00003219320FFF760FC4FF488719520FFF7C7
:1039F0005BFC00219720FFF757FC00219820FFF780
:103A000053FC41F218010320FFF74EFC40F2731102
:103A10000720FFF749FC10BD704710B5FDF756FAB7
:103A200010BD00B593B0382105A8FCF7CBFD1421DB
:103A30006846FCF7C7FD4FF40070FDF717FB022046
:103A40000590C00108904020099002200C900221AE
:103A50000D9101210E910A210F91022110911191D6
:103A6000129105A8FDF7D8FE08B1FCF737FF0F202B
:103A70000090032001900020029003900490022106
:103A80006846FDF741FD08B1FCF728FF13B000BD03
:103A90000348006840F47000014908607047000066
:103AA00088ED00E010B50248FEF792FC10BD000062
:103AB0003000002010B50248FEF78AFC10BD00005F
:103AC0007C00002010B50248FEF782FC10BD00000B
:103AD000C800002010B50268284B98420BD0B0F106
:103AE000804F08D0264B984205D0264B984202D0F2
:103AF000254B984203D122F070024B681A431F4BAA
:103B0000984214D0B0F1804F11D01D4B98420ED086
:103B10001C4B98420BD01C4B984208D01B4B984230
:103B200005D01B4B984202D01A4B984203D122F485
:103B30004072CB681A4322F080034C6943EA0402C6
:103B40008B68C3620B6883620C4B98420BD00E4BA0
:103B5000984208D00D4B984205D00D4B984202D0A8
:103B60000C4B984201D10B690363036843F00403D3
:103B7000036001234361026010BD0000002C01407E
:103B800000040040000800400034014000400140B3
:103B9000004401400048014030B501F01F050124F8
:103BA00004FA05F3046A9C430462046A01F01F05E9
:103BB00002FA05F52C43046230BD000070B50C46D6
:103BC0001546026A066A26F001060662214EB042D8
:103BD00000D10FE0204EB04200D10BE01F4EB042AA
:103BE00000D107E01E4EB04200D103E01D4EB042AE
:103BF00004D100BF066A26F0040606628169154EEC
:103C0000B0420ED0B0F1804F0BD0174EB04208D06A
:103C1000164EB04205D0104EB04202D00F4EB04208
:103C200001D1012600E000261EB121F00301294345
:103C300001E041F0010121F0F001F02606EA03164F
:103C4000314322F00A0204F00A0632438161026223
:103C500070BD0000002C01400034014000400140D4
:103C600000440140004801400004004000080040BA
:103C700070B50C461546026A066A26F01006066202
:103C8000164EB04200D10FE0154EB04200D10BE00D
:103C9000144EB04200D100BF134EB04200D100BF5D
:103CA000124EB04204D103E0066A26F040060662D6
:103CB000816921F4407141EA052121F470414FF4FA
:103CC000704606EA0336314322F0A002A02606EA37
:103CD000041632438161026270BD0000002C014075
:103CE00000340140004001400044014000480140D0
:103CF00070B50C461546026A066A26F4807606629E
:103D0000154EB04200D10FE0144EB04200D10BE08E
:103D1000134EB04200D100BF124EB04200D100BFDE
:103D2000114EB04204D103E0066A26F480660662B2
:103D3000C16921F00301294321F0F001F02606EAD0
:103D40000316314322F420624FF4206606EA04266B
:103D50003243C161026270BD002C01400034014059
:103D600000400140004401400048014070B50C464D
:103D70001546026A066A26F480560662164EB0425E
:103D800000D10FE0154EB04200D10BE0144EB0420E
:103D900000D100BF134EB04200D100BF124EB0425E
:103DA00004D103E0066A26F480460662C16921F464
:103DB000407141EA052121F470414FF4704606EA52
:103DC0000336314322F420424FF4204606EA0436FB
:103DD0003243C161026270BD002C014000340140D9
:103DE00000400140004401400048014070B5456E6C
:103DF0002DB90125A0F86A50A0F868501CE00823EE
:103E000008240568AD68C5F342610568AD686A0FAE
:103E10000A4DAD5C15FB04F5094EB65C95FBF6F555
:103E2000A0F86A50054D6D5C15FB03F5044E765CF9
:103E300095FBF6F5A0F8685070BD0000B257000879
:103E4000BA57000890F8281001F00801082907D196
:103E50000168496821F40041826B11430268516096
:103E600090F8281001F0010139B10168496821F486
:103E70000031C26A11430268516090F8281001F0C5
:103E80000201022907D10168496821F48031026BDF
:103E900011430268516090F8281001F004010429D0
:103EA00007D10168496821F48021426B11430268FF
:103EB000516090F8281001F01001102907D1016815
:103EC000896821F48051C26B11430268916090F8B7
:103ED000281001F02001202907D10168896821F408
:103EE0000051026C11430268916090F8281001F0B3
:103EF0004001402913D10168496821F48011426CC6
:103F0000114302685160416CB1F5801F07D101680F
:103F1000496821F4C001826C11430268516090F835
:103F2000281001F08001802907D10168496821F437
:103F30000021C26C114302685160704738B50446D5
:103F40000020C4F89000FCF7BBFF0546206800681D
:103F500000F00800082821D16FF07E402B46002297
:103F60004FF400110090204600F08DFCB0B100BF6E
:103F700000BF216851E8001F21F08000226842E85C
:103F800000010029F5D100BF2020C4F8880000BF3F
:103F9000002084F8840000BF032038BD206800683A
:103FA00000F00400042830D16FF07E402B46002240
:103FB0004FF480010090204600F065FC28B300BF5C
:103FC00000BF216851E8001F21F49070226842E888
:103FD00000010029F5D100BF00BF00BF21680831F2
:103FE00051E8001F21F001002168083141E800027A
:103FF000002AF3D100BF2020C4F88C0000BF0020AD
:1040000084F8840000BF0320C7E72020C4F888009C
:10401000C4F88C000020E066206700BF84F88400AC
:1040200000BF00BFB9E770B50446A56A2846FEF791
:10403000E8FB70BD2DE9F0410546AC6AD4F8886014
:10404000D4F88C702068806800F08000802804D14B
:10405000212E02D1204600F0F1F82068806800F09F
:104060004000402804D1222F02D1204600F098F8C9
:10407000D4F8900040F01000C4F890002046FEF7FD
:10408000C0FBBDE8F08170B50546AC6A28680068E1
:1040900000F02000E0BB0020A4F85E0000BF00BFDD
:1040A000216851E8001F21F48070226842E8000175
:1040B0000029F5D100BF00BF00BF2168083151E8D9
:1040C000001F21F001002168083141E80002002AA8
:1040D000F3D100BF00BF00BF2168083151E8001FC5
:1040E00021F040002168083141E80002002AF3D1A4
:1040F00000BF2020C4F88C00E06E01280ED100BF64
:1041000000BF216851E8001F21F01000226800E084
:1041100004E042E800010029F3D100BF002020673D
:10412000E06E012815D10020A4F85E0028684068E0
:1041300086B2B4F85C00B04201DDA4F85E60B4F869
:104140005C00B4F85E20801A81B22046FEF7D4FAF3
:1041500002E02046FEF708FE70BD70B50546AC6A69
:1041600001202067E06E012816D134F85C0F40086A
:1041700060802868406886B234F85C09B04201DB90
:10418000A4F85E60B4F85C00B4F85E20801A81B2D6
:104190002046FEF7B1FA02E02046FEF7E6FD70BDCC
:1041A00000BF00BF026852E8002F22F4907103683C
:1041B00043E80012002AF5D100BF00BF00BF02682B
:1041C000083252E8002F104B02EA0301026808325D
:1041D00042E80013002BF2D100BFC16E01290CD1BF
:1041E00000BF00BF026852E8002F22F010010368F0
:1041F00043E80012002AF5D100BF2021C0F88C103E
:104200000021C16641677047FEFFFFEF10B504460D
:1042100000BF00BF216851E8001F21F04000226864
:1042200042E800010029F5D100BF2020C4F8880031
:104230000020A0672046FEF7EFFD10BD00BF00BFC5
:10424000026852E8002F22F0C001036843E8001220
:10425000002AF5D100BF00BF00BF0268083252E853
:10426000002F22F400010268083242E80013002BFC
:10427000F3D100BF2021C0F8881070472DE9FE4F10
:10428000044600200290D4492068884200D100E012
:1042900000BF2169A068084361690843E16940EAF9
:1042A000010820680068CD49084040EA08002168FC
:1042B00008602068406820F44050E16808432168A5
:1042C0004860D4F81880C4492068884202D0206A27
:1042D00040EA080820688068C149084040EA0800B0
:1042E000216888602068C06A20F00F00616A084376
:1042F0002168C86200BFBB492068884216D1BA480D
:10430000006800F0030030B1012808D0022804D072
:10431000032808D105E0012507E0022505E0042572
:1043200003E0082501E0102500BF6FE0AF492068D9
:10433000884216D1AC48006800F00C0030B1042867
:1043400008D0082804D00C2808D105E0002507E093
:10435000022505E0042503E0082501E0102500BF43
:1043600054E0A3492068884216D19F48006800F0B5
:10437000300030B1102808D0202804D0302808D1CF
:1043800005E0002507E0022505E0042503E00825F7
:1043900001E0102500BF39E096492068884216D117
:1043A0009148006800F0C00030B1402808D0802853
:1043B00004D0C02808D105E0002507E0022505E06B
:1043C000042503E0082501E0102500BF1EE0824916
:1043D0002068884219D18448006800F4406048B1E0
:1043E000B0F5806F0AD0B0F5006F05D0B0F5406F22
:1043F00008D105E0002507E0022505E0042503E0DB
:10440000082501E0102500BF00E0102500BF72491B
:104410002068884259D135B1022D08D0042D08D02A
:10442000082D0DD109E0FDF787F906460CE0724E24
:104430000AE0FDF7A5F9064606E04FF4004603E062
:1044400000260120029000BF00BF002E10D06B4953
:10445000606A31F81000B6FBF0F9606800EB4000CC
:10446000484503D860680003484502D20120029005
:10447000A6E06249606A31F810C062460023304607
:104480001946FBF71DFF4FF4807C0022A0FB0C3B7C
:1044900001FB0CB100FB0211606840081818514183
:1044A000CDE90001D4F804C062460023FBF708FF01
:1044B0000746B7F5407F05D3B7F5801F02D22068C5
:1044C000C7607DE0012002907AE0E069B0F5004F1E
:1044D0003FD1092D17D2DFE805F005090D160F169B
:1044E00016161300FDF728F9064610E0FDF736F919
:1044F00006460CE0404E0AE0FDF742F9064606E0AB
:104500004FF4004603E000260120029000BF00BFE8
:1045100086B33A49606A31F81000B6FBF0F040000B
:10452000616800EB5100B0FBF1F7102F0ED3B7F527
:10453000803F0BD24FF6F07007EA000AC7F3420043
:104540004AEA000A2068C0F80CA039E00120029075
:1045500036E0092D18D2DFE805F005090E1710170F
:1045600017171400FDF7E8F8064611E0FDF7F6F816
:1045700006460DE024E0204E0AE0FDF701F906466C
:1045800006E04FF4004603E000260120029000BF41
:1045900000BFAEB11949606A31F81000B6FBF0F007
:1045A000616800EB5100B0FBF1F7102F06D3B7F5AF
:1045B000803F03D2B8B22168C86001E001200290B8
:1045C0000120A4F86A00A4F8680000206067A067D2
:1045D0000298BDE8FE8F000000800040F369FFCF25
:1045E000FFF4FF11003801408810024000440040F1
:1045F00000480040004C00400024F4009A57000896
:1046000070B504460E46154644F8586FA580002044
:10461000A06322206063A06A583CF8B12748241D9B
:10462000E16FC8622648E16F08632648E16F48637E
:104630000020E16F886354F8043C03F12401626DAB
:10464000E06F241F2B46FCF7BFFA38B11020C4F8E6
:1046500090002020C4F88C00012070BD206960B15A
:1046600000BF00BF216851E8001F41F4807022683C
:1046700042E800010029F5D100BF00BF00BF21685A
:10468000083151E8001F41F001002168083141E87C
:104690000002002AF3D100BF00BF00BF216808312B
:1046A00051E8001F41F040002168083141E8000254
:1046B000002AF3D100BF0020CFE7000087400008A8
:1046C0005B4100083540000810B5D0F88820212A49
:1046D0002AD1B0F85620CAB900BF00BF036853E81A
:1046E000003F23F08002046844E80023002BF5D14A
:1046F00000BF00BF00BF036853E8003F43F0400223
:10470000046844E80023002BF5D10DE0016D0A8810
:10471000C2F3080203689A62026D921C0265B0F847
:104720005620521EA0F8562010BD30B5D0F8883063
:10473000212B3AD1B0F86A1034E0B0F85630E3B922
:1047400000BF00BF0468083454E8004F24F400039D
:104750000468083444E80035002DF3D100BF00BFE1
:1047600000BF046854E8004F44F04003056845E882
:104770000034002CF5D100BF16E00368DB6903F0BC
:1047800080036BB1026D1388C3F308030468A3624E
:10479000036D9B1C0365B0F856305B1EA0F85630C5
:1047A0004B1E99B20029C8D100BF30BDD0F8881087
:1047B000212928D1B0F85610C9B900BF00BF02683E
:1047C00052E8002F22F08001036843E80012002A1B
:1047D000F5D100BF00BF00BF026852E8002F42F0D1
:1047E0004001036843E80012002AF5D10BE0016D97
:1047F000097802689162016D491C0165B0F8561094
:10480000491EA0F85610704710B5D0F88820212A0C
:1048100038D1B0F86A1032E0B0F85620E2B900BFE3
:1048200000BF0368083353E8003F23F40002036825
:10483000083343E80024002CF3D100BF00BF00BFC1
:10484000036853E8003F43F04002046844E8002353
:10485000002BF5D100BF14E00268D26902F080029B
:104860005AB1026D127803689A62026D521C026599
:10487000B0F85620521EA0F856204A1E91B20029C8
:10488000CAD100BF10BD2DE9F04104460D461746C0
:104890009846069E41E0701C00283ED0FCF710FBB5
:1048A000A0EB0800B04200D816B90320BDE8F081A3
:1048B0002068006800F0040070B3802D2DD0402DDA
:1048C0002BD02068C069C0F3C00078B108202168EF
:1048D00008622046FFF764FC0820C4F8900000BF7F
:1048E000002084F8840000BF0120DFE72068C06951
:1048F000C0F3C02080B14FF40060216808622046F8
:10490000FFF74EFC2020C4F8900000BF002084F880
:10491000840000BF0320C9E7FFE72068C069284082
:10492000A84201D1012000E00020B842B3D000200D
:10493000BCE7000010B50248FDF764FF10BD0000A1
:104940001401002000BFFEE702480068C0F3022007
:10495000704700000CED00E010B5002804DB0A07EA
:10496000130E054A135406E00A07140E034A00F01A
:104970000F031B1FD45410BD00E400E018ED00E04D
:104980002DED020B019820F0004001909DED000BF1
:1049900002B070472DE9F0412DED068B01219648BC
:1049A000FCF776FA07469548007820B1012807D031
:1049B00002281AD109E017B901209049087014E0C3
:1049C00017B902208D4908700FE0012F0CD18C49D6
:1049D0000978481C00EBD0714910A0EB4101884ACE
:1049E000117000208549087000BF00BF0221824875
:1049F000FCF74EFA04468348007820B1012807D01E
:104A000002281AD109E014B901207E49087014E087
:104A100014B902207B4908700FE0012C0CD17A49AF
:104A20000978481C00EBD0714910A0EB4101764A8F
:104A3000117000207349087000BF00BF04216E4848
:104A4000FCF726FA05467148007820B1012807D006
:104A500002285ED109E015B901206C49087058E0C0
:104A600015B902206949087053E0012D50D16448FE
:104A7000007868B96448007850B965490978481CDD
:104A800000EBD0714910A0EB4101614A11703CE08C
:104A90005B480078012838D15E48006800F002FECB
:104AA00041EC1A0B9FED5C0B53EC102B00F010FD4A
:104AB00041EC190BB0EE490AF0EE690AFFF760FF0E
:104AC000B0EE408AF0EE608A9FED550B53EC102B50
:104AD00051EC180B00F06CFC05D29FED530A4D48C9
:104AE00080ED000A11E04B48006800F0DBFD41EC6E
:104AF000190B9FED4E0B53EC102B00F0A5FB41EC76
:104B0000180B00F06FFB4349086000203F49087014
:104B100000BF00BF01214FF09040FCF7B9F90646F5
:104B20004448007820B1012807D002285ED109E06E
:104B300016B901203F49087058E016B902203D49D6
:104B4000087053E0012E50D12D48007868B92E48E6
:104B5000007850B938490978481C00EBD0714910E9
:104B6000A0EB4101344A11703CE02548007801284F
:104B700038D12848006800F095FD41EC1A0B9FEDF4
:104B80002B0B53EC102B00F0A3FC41EC190BB0EEF7
:104B9000490AF0EE690AFFF7F3FEB0EE408AF0EE44
:104BA000608A9FED1F0B53EC102B51EC180B00F09B
:104BB000FFFB05D29FED210A164880ED000A11E0A7
:104BC0001448006800F06EFD41EC190B9FED170BC7
:104BD00053EC102B00F07CFC41EC180B00F002FBB6
:104BE0000C49086000201349087000BF00BFBDECED
:104BF000068BBDE8F0810000000400482000002082
:104C000018000020210000201900002022000020B0
:104C10001A0000201C000020000000000088C34093
:104C20007B14AE47E17A843F00007A440000000024
:104C300000408F40230000201B00002000401C4645
:104C400010B52948007810B101284BD12EE027A1DA
:104C50001820FEF7AFF92B4890ED000ABDEEC00A10
:104C600010EE102A28A12D48FBF7A2FB2B49482063
:104C7000FEF7A0F92A4890ED000ABDEEC00A10EE3A
:104C8000102A28A12548FBF793FB24496020FEF752
:104C900091F92948007820B928A17820FEF78AF9EF
:104CA00003E02CA17820FEF785F91BE02EA1182047
:104CB000FEF780F9324890ED000ABDEEC00A10EE12
:104CC000102A30A11548FBF773FB14494820FEF762
:104CD00071F931A16020FEF76DF92FA17820FEF760
:104CE00069F900BF00BF10BD18000020202020205F
:104CF000202020204441544120202020202020201A
:104D00000000000010000020202020202046313D1F
:104D10002564487A202020202020000068020020FE
:104D200014000020202020202046323D2564487AAF
:104D300020202020202000001900002020202020FA
:104D4000204D4F44453D4B45592020202020202018
:104D50000000000020202020204D4F44453D5553A9
:104D600041525420202000002020202020202020FC
:104D700050415241202020202020202020000000EF
:104D80001C00002020202020202050463D25644883
:104D90007A20202020000000202020202020202019
:104DA00020202020202020202020200010B50122BB
:104DB00004213248FCF77EF8032409E04FF48070A8
:104DC000A04081B201222E48FCF774F8601CC4B2E6
:104DD000072CF3DB2B48007830B900224FF48071A8
:104DE0002748FCF767F804E0012211022448FCF789
:104DF00061F824480078012805D1002241022048AA
:104E0000FCF758F804E0012251021D48FCF752F863
:104E10001D4890ED000A1D48D0ED000AB4EEE00AEE
:104E2000F1EE10FA10D21A4890ED000A1748D0EDB2
:104E3000000AB4EEE00AF1EE10FA05D24FF48061F8
:104E40000F48FCF72DF804E0012291020C48FCF712
:104E500031F810480078012805D10022C103084824
:104E6000FCF728F804E00122D1030548FCF722F8FA
:104E7000002204210148FCF71DF810BD000C004879
:104E80000008004818000020100000201C0000202E
:104E90001400002019000020FCF724F8FEF7C1FDE3
:104EA000FEF77AFAFEF748FAFEF718FBFEF750FB1A
:104EB000FEF7B2FBFEF788FB012204211A48FBF73C
:104EC000F9FF002409E04FF48070A04081B2012274
:104ED0001648FBF7EFFF601CC4B2082CF3DB00227E
:104EE00004211148FBF7E6FFFEF7C6F84FF6FF7006
:104EF000FDF7C6FF0020FEF743F94FF6FF70FEF7FF
:104F000053F900210A48FDF78BF900210948FDF704
:104F100087F90948FDF704F81E2208490848FDF7FB
:104F2000BAFB00BFFEE70000000C00480008004884
:104F3000300000207C000020C80000207D020020FE
:104F40001401002010B500211948FDF763FB044649
:104F50001848007898B91848007880B904EB8400A4
:104F600000011649B1FBF0F000EE100AB8EE400A5D
:104F7000134880ED000A00201249086016E00D4831
:104F80000078012812D11048007878B904EB840029
:104F900000010A49B1FBF0F000EE100AB8EE400A39
:104FA000074880ED000A00200649086010BD000097
:104FB0007C000020190000201A00002000B4C40466
:104FC00010000020240400402500002010B500211E
:104FD0001948FDF71FFB04461848007898B918488F
:104FE000007880B904EB840000011649B1FBF0F0B1
:104FF00000EE100AB8EE400A134880ED000A0020C7
:105000000905486216E00D480078012812D10F48C2
:10501000007878B904EB840000010A49B1FBF0F094
:1050200000EE100AB8EE400A074880ED000A0020A2
:105030000905486210BD0000300000201900002062
:105040001B00002000B4C40414000020260000202F
:1050500010B555480078012875D15448007828B912
:10506000042253A15448FDF781FE95E05348FBF715
:1050700023FA032845D15148007854280BD14F48D2
:105080004078462807D14D488078312803D1002048
:105090004B49087080E04948007854280BD14748B4
:1050A0004078462807D145488078322803D100202F
:1050B0004449087070E04148007850280BD13F48BF
:1050C0004078462807D13D488078312803D1012017
:1050D0003B49087060E03948007850280BD13748C8
:1050E0004078462807D135488078322803D10120FE
:1050F0003449087050E004222DA12F48FDF736FEF8
:105100004AE02E48FBF7D8F9022840D12B48007816
:10511000462819D129484078312815D12A4890EDE0
:10512000000ABDEEC00A10EE102A28A12948FBF79C
:105130003FF92848FBF7C0F984B2224625491E48AA
:10514000FDF714FE28E02EE01C480078462818D110
:105150001A484078322814D11F4890ED000ABDEE5D
:10516000C00A10EE102A1DA11A48FBF721F91948B0
:10517000FBF7A2F984B2224616490F48FDF7F6FD67
:105180000AE004220AA10C48FDF7F0FD04E0042225
:1051900007A10948FDF7EAFD1E210848FBF7F0F9D1
:1051A00000200149087010BD2400002019000020D3
:1051B0004E554C4C00000000140100209B020020C2
:1051C00025000020260000201000002046313A254E
:1051D00064487A00B90200201400002046323A25C3
:1051E00064487A0021F00042A2F16052B2F5801FBB
:1051F00001F0004328BFD2F17F6C0BD95FEA001C9D
:1052000043EAC20242EB507018BF704728BF20F03B
:1052100001007047B2F5801FBCBF184670474FEAC7
:10522000410C1CF5001F02D2084600F0B1BA70B55F
:1052300000F0FAF800000089FFF7F6BF4FF00040D9
:10524000A0F580007047000010B591EA030F48BF39
:1052500083F0004300F14481841A71EB030C05D202
:10526000121943EB0C03001B61EB0C01DFF824E186
:105270004FEA1154A4EB135C1EEA430F18BF9EEAD9
:10528000445F73D023EA0E03DCF1200E21EA0451BF
:1052900043F4801332D322FA0CFE10EB0E0023FAF3
:1052A0000CFE41EB0E01CCF1200E03FA0EFE10EBCA
:1052B0000E0051F10001B1F5801FCCF1200E32D269
:1052C00001EB045112FA0EF2BDE8104058BF7047CE
:1052D000401C38BF5FEA420218BF7047002814BF65
:1052E00020F0010041F100014FEA410313F5001FD6
:1052F00038BF7047A1F1C04100F0E4B8012A43EB88
:105300000302ACF1200CDCF11F0E32BF4FF0000E97
:1053100023FA0CF310EB030041EB0451B4EB115FE3
:10532000D0D0A1EB045101F5801149085FEA3000AB
:1053300001EB04510ED350F1000038BF12FA0EFEFB
:1053400008D1BDE81040C9E7401C38BF5FEA4202FF
:10535000CAD1C3E7BDE810404FEA410313F5001F6F
:1053600038BF7047A1F1C04100F0ACB89EEA445F7D
:1053700008D011EA5E0FBDE8104004BF01F0004103
:1053800000207047BDE8104070B500F04DF800BF38
:1053900064FBBE3E0000E0FF491058BFC1F1404130
:1053A0005B1058BFC3F140438B42EFF3008070475E
:1053B00051EA030C17D41CF5801F58BFBCF5801FA1
:1053C00000F10680994218BF704708BF90427047AD
:1053D00007D711F5801F58BF13F5801F19D49942C4
:1053E0007047894270471CF5801F08D5BCF5801FA7
:1053F000F7D58B4218BF704708BF824270474FF401
:10540000001C1CEB410F38BF1CEB430F01D28B4239
:10541000704770B500F008F8922449004FF0005131
:105420004FF08053FFF7B8BF0EF1020E2EF0030EBF
:105430005EF8046B364205D4012A43EB030515F5EB
:10544000001F12D8012841EB010C1CF5001F0CD8DD
:105450000ED14FEAD17C15F5001F0CEB4C0C0CF172
:10546000020C08BF4CEBD37C04E04FF0080C01E0C9
:105470004FEAD37C0CEB4C0526FA05F606F007063E
:10548000B6F1040C06D20EEB860CBDE870404CF071
:10549000010C6047DFE80CF0090B02024FF00041FD
:1054A0004FF00000A1F5002170BD194610460128FB
:1054B00051EB010418BFD4F5001484BF002001F0A3
:1054C000004170BD0808A0F500114FEA3101704796
:1054D00010B591EA030F48BF83F000433FF5BCAE1F
:1054E000841A71EB030C07D212198CF0004C43EBB9
:1054F0000C03001B61EB0C01DFF8A4E14FEA11542F
:10550000A4EB135C1EEA430F18BF9EEA445F00F051
:10551000B08023EA6E03524221EA0451C3EB6E03CA
:1055200038BF5B1EDCF1200E25D322FA0CFE10EBF7
:105530000E0043FA0CFE41EB0E01CCF1200E03FAF3
:105540000EFE10EB0E0051F10001CCF1200E29D41B
:1055500012FA0EF201EB0451BDE8104058BF70473B
:10556000401C1CBFB2F1004F704700280CBF491C03
:1055700020F00100704712EB020E43EB030218BF4C
:105580004FF0010E4EEA4202ACF1200CDCF11E0E8F
:1055900054D943FA0CFE10EB0E0051F1FF31CCF15F
:1055A0001E0ED5D50EF1010E12FA0EFE404141EB52
:1055B000010101EB445C5FEA5C5C10D910EBDE702A
:1055C00001EB045138BFBEF1004FBDE8104018BFD9
:1055D000704700280CBF491C20F00100704730D2F2
:1055E0004FEAD42C11F5001124F400641BD0B1FA59
:1055F00081F20B3AA41AA41ED2F12003914030FA92
:1056000003F31943904001EBCC71002C01EB0451E2
:10561000BDE81040A8BF704701F1C0414FF0000045
:1056200001F000417047B0FA80F310FA03F100D1A5
:1056300010BDE41A173C4805C90AE4E701EB045120
:1056400010BD491001EB0451BDE810404FEA300095
:1056500002E04FF0000170474A0008BF0042F8D056
:10566000B2F5001F28BF704701F000414FF0000065
:1056700070479EEA445F07D011EA5E0FBDE8104014
:1056800004BF002100207047BDE8104070B5FFF74F
:10569000CBFE00BF40DFF63E83F00041104670476E
:1056A0000000E0FF43004FEAD30C4FEA3C0C4340BC
:1056B0001FBF40070CF1605113F0FE4F70471CF004
:1056C000006F03D100200CF0004170470CF0004344
:1056D00043EA507010B540EACC0000F00EF800BF6D
:1056E000000000924FEA0001FFF7ECBE4FF00041CE
:1056F0004FF00000A1F5002170470EF1020E2EF0D0
:10570000030E5EF8044B244204D44FEA4102B2F186
:105710007F4F11D84FEA4003B3F17F4F0CD80ED121
:105720004FEAD07CB2F17F4F0CEB4C0C0CF1020C29
:1057300008BF4CEBD17C04E04FF0080C01E04FEACD
:10574000D17C0CEB4C0324FA03F404F00704B4F10D
:10575000040C06D20EEB840CBDE810404CF0010C9A
:105760006047DFE80CF0070802024FF00040A0F5A8
:10577000800010BD0846420018BFD2F1807288BF79
:1057800000F0004010BD4FF04070E1EE100A70478D
:10579000FF2141EAD050C00570470100020004001B
:1057A000060008000A000C001000200040008000E5
:1057B00000010101010307010000080402040801BF
:1057C00001010000000000000000010203040607C0
:1057D00008090000000001020304000000000000AE
:1057E00000000000000000000000000000000000B9
:1057F00000000000000000000000000000000000A9
:105800000000000000000000000000008001800196
:105810008001800180018001800180018001800180
:1058200080018001800100000000800180010000F3
:105830000000000000000000000000000000CC009C
:10584000CC00CC00CC00CC00CC000000000000005C
:105850000000000000000000000000000000000048
:105860000000000000000000000000000000000038
:10587000000000000000600C600C600C3006300678
:10588000FE1FFE1F300638071803FE1FFE1F1803F9
:1058900018038C018C018C01000000008000E003E3
:1058A000F80F9C0E8C1C8C188C009800F801E007F7
:1058B000800E801C8C188C189C18B80CF00FE0031C
:1058C00080008000000000000000000000000000D8
:1058D0000E181B0C110C11061106110311039B016C
:1058E0008E01C038C06C6044604430443044184479
:1058F000186C0C380000000000000000E001F0030C
:105900003807180618063003F001F000F8009C3143
:105910000E33061E061C061C063FFC73F021000019
:1059200000000000000000000000000000000C006B
:105930000C000C000C000C000C000000000000002B
:105940000000000000000000000000000000000057
:105950000000000000000000000000000002000342
:105960008001C000C00060006000300030003000E6
:105970003000300030003000300060006000C000B7
:10598000C000800100030002000000002000600051
:10599000C00080018001000300030006000600062D
:1059A0000006000600060006000600030003800152
:1059B0008001C00060002000000000000000000026
:1059C000000000000000C000C000D806F807E00199
:1059D0003003380700000000000000000000000055
:1059E00000000000000000000000000000000000B7
:1059F0000000000000008001800180018001800122
:105A0000FC3FFC3F8001800180018001800100009B
:105A10000000000000000000000000000000000086
:105A20000000000000000000000000000000000076
:105A30000000000000000000000000008001800164
:105A400000010001800000000000000000000000D4
:105A50000000000000000000000000000000000046
:105A60000000E007E0070000000000000000000068
:105A70000000000000000000000000000000000026
:105A80000000000000000000000000000000000016
:105A9000000000000000000000000000C000C00086
:105AA000000000000000000000000000000C000CDE
:105AB00000060006000600030003000380038001C7
:105AC00080018001C000C000C000600060000000D4
:105AD000000000000000000000000000E003F007EC
