:020000040800F2
:10000000B0050020F1010008313B0008FD31000877
:100010002D3B00083D0A00083D4700080000000095
:10002000000000000000000000000000C13E0008C9
:10003000410A000800000000353B0008C33E0008EC
:100040000B0200080B0200080B0200080B0200085C
:100050000B0200080B0200080B0200080B0200084C
:100060000B0200080B0200080B0200080B0200083C
:100070000B0200080B0200080B0200080B0200082C
:100080000B020008000000000B0200080B02000831
:100090000B0200080B0200080B0200080B0200080C
:1000A0000B0200080B020008493F00080B02000881
:1000B0000B0200080B020008593F00080B02000861
:1000C0000B0200080B0200080B0200080B020008DC
:1000D0000B0200080B0200080B0200080B020008CC
:1000E0000B0200080B0200080B0200080B020008BC
:1000F0000B0200080B0200080B02000800000000C1
:10010000000000000B020008000000000B020008C5
:100110000B020008000000000B0200080B020008A0
:100120000B0200080B0200080B0200080B0200087B
:100130000B02000800000000000000000B02000895
:100140000B0200080B020008000000000000000085
:10015000000000000000000000000000000000009F
:100160000000000000000000000000000B0200087A
:100170000B0200080000000000000000000000006A
:10018000000000000B02000800000000000000005A
:10019000000000000000000000000000000000005F
:1001A00000000000000000000B0200080B02000825
:1001B0000B0200080B0200080B0200080000000000
:1001C000000000000B02000800000000000000001A
:1001D0000B0200080B020008DFF810D000F06EFBE5
:1001E00000480047ED560008AFF30080B00500203E
:1001F0000648804706480047FEE7FEE7FEE7FEE7C1
:10020000FEE7FEE7FEE7FEE7FEE7FEE7353F000814
:10021000D9010008D2B201E000F8012B491EFBD23F
:1002200070470022F6E710B513460A460446194601
:10023000FFF7F0FF204610BD2DE9FE4F804681EA12
:100240000300C00F0C46009021F0004123F0004550
:10025000B8EB0200A94105D24046214690461C4613
:100260000B46024623F00040104347D0270DC7F34A
:100270000A00C3F30A510290401A019040286BDA39
:10028000C3F3130040F4801B0098924620B1002372
:10029000D2EB030A63EB0B0B01985946C0F1400205
:1002A000504600F016FA06460D4650465946019A49
:1002B00000F02EFA10EB08006141002487EA115289
:1002C00084EAE7731A4340D0009A62B3019A012A84
:1002D0004FEA075215DC001B61EB02014FF00042B0
:1002E00002EA0752CDE90042001C41F58011324676
:1002F0002B4600F065FA03B0BDE8F08F404621467A
:10030000F9E7001B61EB0201001C41F580130018A6
:100310005B412018A2F5001747EB030140EAD570B6
:10032000B6196D4111E06D084FEA360645EAC07511
:100330004FEA0752001B61EB0201001C41F58011DE
:1003400049084FEA30000019514132462B4603B0AC
:10035000BDE8F04F00F025BA0098012240000023CC
:10036000D0EB020263EBE073009821464FEAE074A1
:10037000B8EB000061EB0401E9E783F000435BE7C1
:1003800081F0004158E72DE9FE4F81EA030404F0B3
:10039000004421F0004100944FF0000B23F0004393
:1003A00050EA01045ED052EA03045BD0C3F30A545E
:1003B000C1F30A552C44A4F2F3340194A0FB025477
:1003C000C1F3130141F48011C3F3130343F4801309
:1003D00001FB024400FB034E840A970A44EA81545D
:1003E00047EA8357A4FB076802958D0A05FB07853A
:1003F0004FEA932C04FB0C542705029D4FEA065844
:1004000047EA1637B5EB08056EEB070C870E920E20
:1004100047EA811742EA8312A7FB0201B6EB0B0100
:1004200064EB00042B0D43EA0C335E1844EB1C50C4
:10043000DA465146E7FB0201C5F313044FEA0B33DA
:1004400043EA14534FEA0432019C43EA0603A4F141
:100450000C040294009CCDE900B400F0B1F903B0A3
:10046000BDE8F08F00200146F9E72DE9F04D81EA63
:10047000030404F0004B21F0004514464FF0000A3D
:1004800023F0004150EA050220D054EA01021DD0B9
:10049000C5F30A570246C5F31303C1F31300C1F3B2
:1004A0000A5640F4801543F48013A7EB0608101B8E
:1004B000D64608F2FD3873EB050002D308F10108B7
:1004C00001E092185B41B8F1000F03DA0020014609
:1004D000BDE8F08D00204FF48011064684460EE002
:1004E000171B73EB050705D3121B63EB05030643CC
:1004F0004CEA010C49084FEA300092185B4150EA7F
:100500000107EDD152EA030012D082EA040083EA27
:100510000501084305D0101BAB4106D20122002380
:1005200006E000224FF0004302E06FF0010253109A
:100530001AEB06004CEB085110EB0A0041EB0B01E3
:10054000BDE8F04D00F02DB90EB5C10F80EAE070A6
:100550000844CA07002140F233438DE80E000A46E2
:100560000B4600F02DF903B000BD0EB540F233414B
:1005700002910021CDE900110A460B4600F020F956
:1005800003B000BDC1F30A5210B5C1F3130140F22C
:10059000FF3341F480119A4201DA002010BD40F28D
:1005A00033439A42A2F2334203DC524200F0A0F8F5
:1005B00010BD904010BD00F0004230F000400AD065
:1005C000C10D01F56071C0F3160042EA0151C20885
:1005D00040071143704700200146704730B5041EA4
:1005E00071F1000404DB4FF00044404264EB010170
:1005F000141E73F1000405DB1C464FF00043524209
:1006000063EB04038B4208BF824230BD01F000431C
:1006100030B421F0004150EA010206D00A0DA2F5E3
:100620006072C1F31301002A02DC30BC0020704765
:10063000440F44EAC104C100E01830BC00EBC250D2
:1006400000F078B830B50B46014600202022012486
:1006500009E021FA02F59D4205D303FA02F5491B90
:1006600004FA02F52844151EA2F10102F1DC30BDA6
:100670002DE9F05F0546002092469B4688460646D7
:10068000814640241BE0284641464746224600F06A
:100690002FF853465A46C01A914110D311461846B6
:1006A000224600F016F82D1A67EB01084F46224645
:1006B0000120002100F00DF817EB00094E41201E2B
:1006C000A4F10104DFDC484631462A464346BDE832
:1006D000F09F202A04DB203A00FA02F10020704744
:1006E0009140C2F1200320FA03F319439040704770
:1006F000202A04DB203A21FA02F00021704721FA77
:1007000002F3D040C2F120029140084319467047DD
:10071000202A06DBCB17203A41FA02F043EAE073C5
:1007200006E041FA02F3D040C2F1200291400843B2
:10073000194670470029A8BF7047401C490008BFF0
:1007400020F00100704710B4B0FA80FC00FA0CF001
:1007500050EA010404BF10BC704749B1CCF1200439
:1007600021FA04F411FA0CF118BF012121430843C6
:10077000A3EB0C01CB1D4FEA00614FEA102042BFF2
:10078000002010BC704700EBC35010440029A4BFE8
:1007900010BC7047401C490008BF20F0010010BC8D
:1007A000704710B5141E73F1000408DA401C41F1C3
:1007B000000192185B411A4301D120F0010010BDE5
:1007C0002DE9F04D92469B4611B1B1FA81F202E05B
:1007D000B0FA80F220329046FFF77BFF04460F46C6
:1007E00040EA0A0041EA0B0153465A46084313D037
:1007F000114653EA010019D0C8F140025046FFF7F4
:1008000077FF05460E46504659464246FFF761FFC0
:10081000084305D0012004E020463946BDE8F08DAC
:100820000020054346EAE0762C4337430A986305E7
:10083000E40AA0EB08000022FD0A44EA47540A300B
:1008400002D500200146E9E7010510196941DDE9FB
:10085000084500196941BDE8F04DA2E7C1F30A520D
:10086000C1F3130140F2FF3341F480119A4202DADE
:1008700000200146704740F233439A42A2F23342CD
:1008800002DC5242FFF734BFFFF723BF30B5041E2E
:1008900071F1000404DB4FF00044404264EB0101BD
:1008A000141E73F1000405DB1C464FF00043524256
:1008B00063EB0403994208BF904230BD064C074DDC
:1008C00006E0E06840F0010394E807009847103420
:1008D000AC42F6D3FFF784FC306B0008506B000885
:1008E00070B50446206802F032FF0646206802F028
:1008F00033FF98B396BB2068806800F00D00012894
:100900000AD1206881681A4A1140891C816000BFA1
:1009100003202168086009E0E06D40F01000E06508
:10092000206E40F001002066012070BD00F09AFEAC
:10093000054614E000F096FE401B02280FD92068FF
:10094000806800F0010050B1E06D40F01000E065FB
:10095000206E40F0010020660120E6E705E02068F7
:10096000806800F001000028E4D10020DDE70000ED
:10097000C0FFFF7F38B5044600200090206802F0D9
:10098000EBFE00284FD1206880682849084048B114
:10099000E06D40F01000E065206E40F00100206640
:1009A000012038BD206802F0B7FE00BF20488068F3
:1009B00000F0E07000F4000080B11E4800681E499D
:1009C000B0FBF1F0401C00EB40008000009002E022
:1009D0000098401E009000980028F9D100F042FED7
:1009E00005461AE0206802F0B7FE10B9206802F050
:1009F00093FE00F037FE401B02280ED920680068E5
:100A000000F0010048B9E06D40F01000E065206E94
:100A100040F0010020660120C3E72068006800F074
:100A200001000028DED00020BBE700003F0000806E
:100A3000000300500C000020400D030000BFFEE743
:100A40007047002109E0002201E0531C9AB240F6F1
:100A5000B8339A42F9DB4B1C99B28142F3DB704701
:100A600072B600BFFEE70000F8B504460D46002050
:100A7000009000BF94F85800012801D10220F8BD71
:100A8000012084F8580000BF2046FFF729FF0646E2
:100A90008EBBE06D20F4885040F00200E0652068D5
:100AA00081681B4A114005F0804242F00042114328
:100AB000816000BF13E00098401C00901549009829
:100AC00088420CD3E06D20F0020040F01000E06599
:100AD00000BF002084F8580000BF0120CFE7206845
:100AE0008168C90F0029E6D1E06D20F0020040F0D6
:100AF0000100E06504E0FFE7E06D40F01000E06514
:100B000000BF002084F8580000BF3046B7E700005F
:100B1000C0FFFF3F02DE04002DE9F84F05460C46FA
:100B20004FF0000A00200090FE49E068884200D0A3
:100B300000E000BF00BF95F85800012802D1022054
:100B4000BDE8F88F012085F8580000BF286802F042
:100B50000DFE00287DD12968D4E9002001F1300C78
:100B6000C0F3012B0CEB8B03D3F800C000F01F0E79
:100B70004FF01F0B0BFA0EFB2CEA0B0C00F01F0BB7
:100B8000C2F3846E0EFA0BFE4CEA0E0CC3F800C0E2
:100B900000BF286802F0EAFD8146286802F0D2FD15
:100BA0008046B9F1000F64D1B8F1000FFBD1A06805
:100BB000B0F1004F0AD121680022286802F0E4FD5C
:100BC0004FF00041286802F004FE08E0A2682168A6
:100BD000286802F0D9FD0021286802F0FAFD60695A
:100BE0002968C968C1F3C101490000FA01F7206909
:100BF00004283FD028682268216900F1600C0CEBC2
:100C00008103D3F800C0DFF820B30CEA0B0C02F02C
:100C1000F84B4BF0004B4BEA070B4CEA0B0CC3F8BC
:100C200000C000BF2868A269216900F1600C0CEBCC
:100C30008103D3F800C02CF0807C4CEA020CC3F88E
:100C400000C000BF2868227F2169012A02D1520614
:100C500001E0C6E10022134600F1600C0CEB8102BA
:100C6000D2F800C02CF0007C4CEA030CC2F800C0A3
:100C700000BFA7E00021286802F05BFDC0F312006E
:100C800030B90021286802F054FDC0F3846007E009
:100C90000021286802F04DFD90FAA0F0B0FA80F033
:100CA0002168C1F3120119B92168C1F3846104E01C
:100CB000216891FAA1F1B1FA81F1884204D10022B0
:100CC0001146286802F07AFD0121286802F031FD02
:100CD000C0F3120030B90121286802F02AFDC0F3E8
:100CE000846007E00121286802F023FD90FAA0F05B
:100CF000B0FA80F02168C1F3120119B92168C1F37B
:100D0000846104E0216891FAA1F1B1FA81F188428D
:100D100004D100220121286802F050FD0221286838
:100D200002F007FDC0F3120030B90221286802F07A
:100D300000FDC0F3846007E00221286802F0F9FC9E
:100D400090FAA0F0B0FA80F02168C1F3120119B94D
:100D50002168C1F3846104E0216891FAA1F1B1FA3C
:100D600081F1884204D100220221286802F026FD88
:100D70000321286802F0DDFCC0F3120030B9032122
:100D8000286802F0D6FCC0F3846007E003212868DD
:100D900002F0CFFC90FAA0F0B0FA80F02168C1F325
:100DA000120119B92168C1F3846104E0216891FA44
:100DB000A1F1B1FA81F1884204D10022032128680F
:100DC00002F0FCFC286802F0C7FC002872D12868F9
:100DD000E2682168D0F8B030C1F3120C23EA0C03AA
:100DE00002F0180BDFF844C12CFA0BFC0CEA010CE2
:100DF00043EA0C03C0F8B03000BF4A49E0688842BB
:100E000058D12368C3F312031BB92368C3F3846367
:100E100004E0236893FAA3F3B3FA83F35B1C03F0B3
:100E20001F03092B3ED82368C3F312031BB92368A1
:100E3000C3F3846304E0236893FAA3F3B3FA83F360
:100E40005B1C03F01F034FF0010C0CFA03FC23683A
:100E5000C3F312031BB92368C3F3846304E023685C
:100E600093FAA3F3B3FA83F35B1C03F01F034CEA7A
:100E7000836C2368C3F312031BB92368C3F3846331
:100E800004E0236893FAA3F3B3FA83F35B1C03F043
:100E90001F0303EB43034FF0000B4BEA03534CEAF1
:100EA000030347E02368C3F3120323B92368C3F3A2
:100EB000846305E043E0236893FAA3F3B3FA83F372
:100EC0005B1C03F01F034FF0010C0CFA03FC2368BA
:100ED000C3F312031BB92368C3F3846304E02368DC
:100EE00093FAA3F3B3FA83F35B1C03F01F034CEAFA
:100EF000836C2368C3F312031BB92368C3F38463B1
:100F000004E0236893FAA3F3B3FA83F35B1C03F0C2
:100F10001F030A3B03EB43034FF0007B4BEA0353F1
:100F200006E0000000007F4000F0FF03FFFF070025
:100F30004CEA03031946A268286802F025FC2F49F1
:100F40002068084050B300BF2D48806800F0E0766C
:100F500000BF2C492068884203D02B492068884272
:100F60001DD106F40000D0B92868B0F1A04F3ED1E1
:100F700046F40001224802F01BFC24480068244982
:100F8000B0FBF1F0401C00EB40008000009002E05C
:100F90000098401E009000980028F9D127E01D49D4
:100FA000206888420CD106F0807048B91A49286838
:100FB00088421CD046F08071114802F0F9FB16E01F
:100FC00016492068884212D106F4800078B9124987
:100FD000286888420BD046F48001094802F0E8FBFB
:100FE00005E0E86D40F02000E8654FF0010A00BF21
:100FF000002085F8580000BF5046A1E50000088099
:1010000000030050000021C31000C0900C0000201D
:10101000400D0300000052C700010050000084CBC7
:1010200001460868006C70472DE9F84304464FF00C
:1010300000080020009014B90120BDE8F883606921
:1010400020B194F82400012800D100BFE06D30B930
:10105000204600F017F90020206684F85800206828
:101060008168C1F3407131B1206881687E4A1140C6
:10107000816000BF00BF206802F073FBB0B9206838
:1010800081687A4A114041F08051816000BF784800
:1010900000687849B0FBF1F0401C4000009002E08D
:1010A0000098401E009000980028F9D1206802F0B6
:1010B00058FB48B9E06D40F01000E065206E40F04C
:1010C000010020664FF00108206802F04FFB064641
:1010D000E06D00F01000002877D1002EFCD1E06D0B
:1010E00020F4807040F00200E065206802F034FBDC
:1010F000B0B94FF0A04002F02FFB81465E4802F0ED
:101100002BFB49EA0009B9F1000F09D160685B497E
:10111000896821F47C110143584A916000BF00BFE7
:10112000607FE16B41EA4030E1680843A168084311
:1011300094F8241040EA014594F82400012803D1D2
:10114000208D401E45EA4045E06A28B1A08D00F49C
:101150007870216B084305432068C06848490840FF
:1011600028432168C8602068006920F04060616BF6
:10117000084321680861206802F0E4FA0746002E5F
:1011800050D1EFBB207F002141EA803194F8380034
:1011900041EA40052068C06844F2020188432843C0
:1011A0002168C860206988B12068006940F48030F7
:1011B000216808612068D0F8C0006FF30D00216934
:1011C00008432168C1F8C0000EE045E020680069CE
:1011D00020F48030216808612068D0F8C0006FF3E7
:1011E0000D002168C1F8C00094F84000012813D117
:1011F000606C40F00101A06C0843E16C084300E022
:1012000010E0216D08432168096940F2FC729143A6
:1012100008432168086105E02068006920F00100AA
:10122000216808616069012809D12068006B20F0FD
:101230000F00216A491E08432168086305E0206801
:10124000006B20F00F0021680863E06D20F00200C1
:1012500040F00100E06505E0E06D40F01000E06561
:101260004FF001084046E8E6C0FFFF5FC0FFFF7F88
:101270000C000020400D030000010050000300504E
:101280000740F0FF10B598B00446142113A8FEF7EC
:10129000C8FF442102A8FEF7C4FF1B49206888420A
:1012A0002FD1C00102908003119002A800F046FBEC
:1012B00008B1FFF7D5FB00BF1448C06C40F40050E4
:1012C0001249C8640846C06C00F40050019000BF89
:1012D00000BF00BF0846C06C40F00200C86408466A
:1012E000C06C00F00200019000BF00BF4FF400404E
:1012F0001390032014900020159013A9044800F0C7
:10130000ABF818B010BD0000000100500010024002
:10131000000400482DE9F0410446434802F004FA75
:101320000646206802F022FA00287AD100BF94F81D
:101330005800012802D10220BDE8F081012084F884
:10134000580000BF2046FFF715FB0546002D63D16E
:10135000E06D40F60161884340F48070E0653349F8
:101360002068884202D14FF0A04000E02068216848
:10137000884200D01EB9E06D20F48010E065E06D79
:1013800000F48050B0F5805F04D1206E20F006009C
:10139000206601E0002020661C202168086000BF54
:1013A000002084F8580000BF20492068884202D1FC
:1013B0004FF0A04000E020682168884204D01EB1B0
:1013C000052E01D0092E0ED12068C06800F00070F3
:1013D00028B1E06D20F4005040F48050E0652068B2
:1013E00002F0CAF91EE0E06D40F48010E0650F499C
:1013F0002068884202D14FF0A04000E020680746F4
:10140000F86800F0007068B1E06D20F4005040F41E
:101410008050E06506E004E000BF002084F858003A
:1014200000E00225284687E7000300500001005035
:1014300070B5044600F016F906462546681C10B142
:1014400004480068054400BF00F00CF9801BA84266
:10145000FAD370BD0800002078B503460022D2E020
:10146000012696400D6805EA0604002C7BD00D7914
:1014700005F00305012D04D00D7905F00305022DBB
:1014800013D1986856000325B540A8435600CD688F
:10149000B54028439860586801259540A8430D79C8
:1014A000C5F300159540284358600D7905F00305F4
:1014B000032D07D10D7905F00305032D0CD18D689F
:1014C000012D09D0D86856000325B540A843560021
:1014D0008D68B5402843D8600D7905F00305022DCD
:1014E00013D1D60803F1200555F826005507EE0E56
:1014F0000F25B540A8435607F60E0D69B5402843A1
:10150000D60803F1200545F8260018685600032583
:10151000B540A8430D7905F003055600B5402843B2
:1015200018604D6805F44035002D6BD000BF394D73
:101530002D6E45F00105374E356635462D6E05F0AA
:101540000105009500BF00BF4FEAB635960855F873
:10155000260095072E0F0F25B540A843B3F1904FF5
:1015600002D100251AE04DE02B4DAB4201D10125FF
:1015700014E02A4DAB4201D102250FE0284DAB42C9
:1015800001D103250AE0274DAB4201D1042505E036
:10159000254DAB4201D1052500E006259607360F03
:1015A000B5402843214D960845F82600204D28686F
:1015B000A0434D6805F4801505B120431C4D2860FB
:1015C0002D1D2868A0434D6805F4001505B1204382
:1015D000174D2D1D2860164D2D1F2868A0434D68FE
:1015E00005F4003505B12043114D2D1F28602D1F36
:1015F0002868A0434D6805F4803505B120430C4DA3
:10160000083D2860521C0D68D540002D7FF428AF9E
:1016100078BD0000001002400004004800080048A7
:10162000000C004800100048001400480800014069
:1016300008040140024613690B400BB1012000E091
:101640000020704710B5426921EA020302EA010452
:1016500043EA0443836110BD0AB1816100E0816205
:10166000704700000148006870470000000000203B
:101670000348006803490968084401490860704745
:10168000000000200800002010B50024032000F016
:10169000ABF8002000F008F808B1012401E000F0E8
:1016A0002FF8204610BD000070B5044600251148F3
:1016B0000068D8B10F4800684FF47A71B1FBF0F0C0
:1016C0000D490968B1FBF0F6304600F0FBFE58B951
:1016D000102C07D200222146501E00F047F8074880
:1016E000046004E0012502E0012500E00125284610
:1016F00070BD0000080000200C0000200400002045
:1017000008B500BF0E48006E40F001000C490866A5
:101710000846006E00F00100009000BF00BF00BF4F
:101720000846806D40F0805088650846806D00F066
:101730008050009000BF00BF00F0F6F808BD000028
:10174000001002400146084600280DDB00BF00BF24
:1017500000F01F0301229A4043099B0003F1E0239C
:10176000C3F8002100BF00BF00BF70472DE9F05F44
:1017700080460D46164602F0F7FF074639462A46D0
:10178000334601F00700C0F1070ABAF1040F02D98D
:101790004FF0040A01E0C0F1070AD14600F1040A43
:1017A000BAF1070F02D24FF0000A01E0A0F1030ADC
:1017B000D4464FF0010A0AFA09FAAAF1010A0AEA24
:1017C000020A0AFA0CFA4FF0010B0BFA0CFBABF110
:1017D000010B0BEA030B4AEA0B042146404602F0D8
:1017E000CBFFBDE8F09F000000BF00F00702064BF2
:1017F00019684FF6FF031940044B0B4343EA0221DB
:10180000014B196000BF70470CED00E00000FA05C5
:1018100002468ABB4148006800F4C060B0F5806FA2
:101820002BD13E488030006820F480703B4BC3F8D9
:1018300080001846006820F4C06040F40070186012
:101840003748006832235843364BB0FBF3F0411C55
:1018500000E0491E3148406900F48060B0F5806FB7
:1018600001D10029F5D12D48406900F48060B0F520
:10187000806F51D10320704708E02848803000680D
:1018800020F48070254BC3F8800045E0B2F5007F5E
:101890003AD12248006800F4C060B0F5806F2AD1C8
:1018A0001E488030006840F480701C4BC3F88000F4
:1018B0001846006820F4C06040F4007018601848B2
:1018C000006832235843174BB0FBF3F0411C00E093
:1018D000491E1248406900F48060B0F5806F01D164
:1018E0000029F5D10D48406900F48060B0F5806FA3
:1018F00012D10320BFE709488030006840F48070AF
:10190000064BC3F8800007E00448006820F4C0607C
:1019100040F48060014B18600020ACE7007000408C
:101920000C00002040420F000348806840F48040D3
:101930000149886070470000007000402DE9F843BD
:1019400004460027B846206800F40020B0F5002FB8
:1019500073D1B946D348806D00F0805078B900BF8C
:10196000D048806D40F08050CE4988650846806D33
:1019700000F08050009000BF00BF4FF00109CA483E
:10198000006840F48070C8490860FFF76BFE0646A7
:1019900006E0FFF767FE801B022801D9032705E058
:1019A000C148006800F480700028F2D000BF002F0A
:1019B00046D1BC489030006800F44075CDB1206C31
:1019C000A84216D0B7489030006820F44075B5485A
:1019D000D0F8900040F48030B249C1F89000084639
:1019E000D0F8900020F48030C1F890000846C0F88C
:1019F000905005F00100A0B1FFF734FE064608E064
:101A0000FFF730FE801B41F28831884201D903275D
:101A100006E0A4489030006800F002000028EFD0F3
:101A200000BF5FB99F489030006820F44070216C7F
:101A300008439C49C1F8900003E00CE0B84600E080
:101A4000B846B9F1010F05D19648806D20F080505D
:101A50009449886500BF207800F0010048B19148A2
:101A60008830006820F00300616808438D49C1F8A0
:101A70008800207800F00200022809D189488830C7
:101A8000006820F00C00A16808438649C1F888006E
:101A9000207800F00400042809D1824888300068CA
:101AA00020F03000E16808437E49C1F888002078C2
:101AB00000F00800082809D17A488830006820F032
:101AC000C000216908437749C1F88800207800F0F8
:101AD0002000202809D173488830006820F4406035
:101AE000616908436F49C1F88800207800F0400020
:101AF000402809D16B488830006820F44050A16923
:101B000008436849C1F88800207800F080008028E8
:101B100009D164488830006820F44040E1690843F6
:101B20006049C1F88800208800F48070B0F5807F9B
:101B300009D15C488830006820F44030216A0843AD
:101B40005849C1F88800208800F40070B0F5007F83
:101B500009D154488830006820F44020616A084365
:101B60005049C1F88800208800F48060B0F5806F8B
:101B700013D14C488830006820F44010A16A084313
:101B8000484988310860A06AB0F5801F05D14548F2
:101B9000C06840F480104349C860208800F40060A9
:101BA000B0F5006F13D13F488830006820F4400042
:101BB000E16A08433B4988310860E06AB0F5800F6C
:101BC00005D13848C06840F480103649C860208884
:101BD00000F48050B0F5805F13D13248883000683F
:101BE00020F04070216B08432E4988310860206B3B
:101BF000B0F1807F05D12B48C06840F4801029499E
:101C0000C860208800F40050B0F5005F13D125486B
:101C10008830006820F04060616B084321498831BA
:101C20000860606BB0F1006F05D11E48C06840F4D9
:101C300080101C49C860208800F48040B0F5804FB7
:101C400013D118488830006820F04060A16B084329
:101C5000144988310860A06BB0F1006F05D11148BC
:101C6000C06840F480100F49C860208800F400402C
:101C7000B0F5004F13D10B488830006820F0405079
:101C8000E16B0843074988310860E06BB0F1805F81
:101C900005D10448C06840F480300249C86040461D
:101CA000BDE8F88300100240007000402DE9F041CB
:101CB00004460D464FF0000814B90120BDE8F0813C
:101CC0007D48006800F00F00A8420ED27A480068F4
:101CD00020F00F002843784908600846006800F0AB
:101CE0000F00A84201D00120E8E7207800F00100B1
:101CF000002864D06068032823D17048006800F091
:101D0000007008B90120D9E701F016FF06466C48BB
:101D1000864237D96948806800F0F00030B12078F9
:101D200000F0020002282DD1A06858BB63488068EB
:101D300020F0F00040F08000604988604FF080089B
:101D400020E06068022806D15C48006800F400309A
:101D500040B90120B2E75948006800F4806008B932
:101D60000120ABE700F0B4F806465548864209D991
:101D70005248806820F0F00040F080004F498860B1
:101D80004FF080084D48806820F0030061680843E8
:101D90004A498860FFF766FC074608E0FFF762FCE7
:101DA000C01B41F28831884201D9032086E74348AD
:101DB000806800F00C006168B0EB810FEED12078F4
:101DC00000F00200022820D1207800F0040004284E
:101DD00005D13A48806840F4E0603849886020784E
:101DE00000F00800082807D13448806820F46050CB
:101DF00040F4E060314988603048806820F0F000AD
:101E0000A16808432D49886008E0B8F1800F05D12A
:101E10002A48806820F0F000284988602648006839
:101E200000F00F00A84219D92348006820F00F00E5
:101E3000284321490860FFF715FC074608E0FFF733
:101E400011FCC01B41F28831884201D9032035E7DB
:101E50001948006800F00F00A842F0D1207800F087
:101E60000400042807D11548806820F4E060E16888
:101E7000084312498860207800F00800082808D13B
:101E80000E48806820F46050216940EAC1000B4987
:101E9000886000F01DF809498968C1F30311094AF7
:101EA000515C01F01F01C8400749086007480068FD
:101EB000FFF7FAFB02E7000000200240001002409A
:101EC00000B4C404485900080C000020040000209D
:101ED00070B5224DAD6805F00C05042D01D12048E8
:101EE0003AE01E4DAD6805F00C05082D01D11D48E6
:101EF00032E01A4DAD6805F00C050C2D2BD1174DB5
:101F0000ED6805F00304154DED68C5F303156A1C73
:101F1000022C0CD0032C09D1124DB5FBF2F50F4E5B
:101F2000F668C6F3062605FB06F10AE000BF0C4D75
:101F3000B5FBF2F5094EF668C6F3062605FB06F179
:101F400000BF00BF054DED68C5F341656D1C6B001A
:101F5000B1FBF3F000E0002070BD00000010024073
:101F60000024F40000366E012DE9F843044614B94C
:101F70000120BDE8F883207800F00100002865D03A
:101F8000FC48806800F00C07FA48C06800F00306BF
:101F90000C2F01D1032E01D0082F0AD1F54800687B
:101FA00000F40030002851D0606800284ED1012094
:101FB000DFE700BF6068B0F5803F06D1ED480068FC
:101FC00040F48030EB4908601AE06068B0F5A02F5B
:101FD0000BD1E848006840F48020E64908600846D4
:101FE000006840F4803008600AE0E248006820F4AD
:101FF0008030E04908600846006820F480200860CE
:1020000000BF606888B1FFF72DFB054606E0FFF7CB
:1020100029FB401B642801D90320AAE7D5480068A2
:1020200000F400300028F2D010E0FFF71BFB05465B
:1020300006E0FFF717FB401B642801D9032098E74F
:10204000CC48006800F400300028F2D1207800F07D
:102050000200022860D1C748806800F00C07C5481C
:10206000C06800F003060C2F01D1022E01D0042F0E
:1020700018D1C048006800F4806018B1E06808B961
:10208000012076E7BB48406820F0FE40217C40EA12
:102090000160B8494860B8480068FFF705FB18B30D
:1020A000012066E7E06800B3B248006840F4807041
:1020B000B0490860FFF7D6FA054606E0FFF7D2FA06
:1020C000401B022801D9032053E7AA48006800F406
:1020D00080600028F2D0A748406820F0FE40217CB4
:1020E00040EA0160A349486016E0A248006820F475
:1020F0008070A0490860FFF7B5FA054606E0FFF7D3
:10210000B1FA401B022801D9032032E79948006840
:1021100000F480600028F2D1207800F00800082840
:1021200036D16069D0B193489430006840F0010026
:102130009049C1F89400FFF795FA054606E0FFF7CD
:1021400091FA401B022801D9032012E789489430F4
:10215000006800F002000028F1D019E085489430B2
:10216000006820F001008349C1F89400FFF77AFA73
:10217000054606E0FFF776FA401B022801D9032046
:10218000F7E67C489430006800F002000028F1D1A6
:10219000207800F00400042872D14FF00008754840
:1021A000806D012121EA107078B100BF7148806D07
:1021B00040F080506F4988650846806D00F080507F
:1021C000009000BF00BF4FF001086C48006800F4A9
:1021D0008070B0B96948006840F480706749086051
:1021E000FFF740FA054606E0FFF73CFA401B0228DD
:1021F00001D90320BDE66148006800F48070002822
:10220000F2D000BFA068012808D15A489030006879
:1022100040F001005749C1F8900021E0A06805286E
:102220000FD154489030006840F004005149C1F883
:1022300090000846D0F8900040F00100C1F89000EE
:102240000EE04C489030006820F001004949C1F888
:1022500090000846D0F8900020F00400C1F89000EB
:1022600000BFA068A8B1FFF7FDF9054609E0FFF738
:10227000F9F9401B41F28831884202D9032078E6FF
:1022800025E03C489030006800F002000028EED0C5
:1022900013E0FFF7E7F9054608E0FFF7E3F9401B15
:1022A00041F28831884201D9032062E631489030FA
:1022B000006800F002000028EFD1B8F1010F05D14D
:1022C0002C48806D20F080502A49886500BF207816
:1022D00000F02000202836D1A069D0B125489830E0
:1022E000006840F001002349C1F89800FFF7BAF9EF
:1022F000054606E0FFF7B6F9401B022801D9032086
:1023000037E61C489830006800F002000028F1D041
:1023100019E018489830006820F001001549C1F80C
:102320009800FFF79FF9054606E0FFF79BF9401B71
:10233000022801D903201CE60E489830006800F0FE
:1023400002000028F1D1E069002860D009488068C7
:1023500000F00C000C287AD0E069022858D105481A
:10236000006820F0807003490860FFF77BF905469C
:102370000DE000000010024004000020007000404A
:10238000FFF770F9401B022801D90320F1E54A4804
:10239000006800F000700028F2D1D4E90810401E57
:1023A00041EA0011A06A41EA0021208E0122C2EB1D
:1023B000500041EA40513420005DC2EB500041EA38
:1023C00040612C20005D41EAC0603B49C9683B4A3E
:1023D000114008433849C8600846006840F08070E2
:1023E00008600846C06840F08070C860FFF73AF99E
:1023F000054606E0FFF736F9401B022801D9032005
:10240000B7E52D48006800F000700028F2D051E0D8
:102410002948006820F0807027490860FFF722F9FA
:10242000054606E0FFF71EF9401B022801D90320EC
:102430009FE52148006800F000700028F2D11E4896
:10244000C0681F4908401C49C86033E0FFE7E069E5
:10245000012800D18DE51848C66806F00301206AFE
:10246000814225D106F0F001606A401EB1EB001FE9
:102470001ED106F4FE41A06AB1EB002F18D106F080
:1024800078412C20005DB1EBC06F11D106F4C00182
:10249000208E0122C2EB5000B1EB405F08D106F064
:1024A000C0613420005DC2EB5000B1EB406F01D041
:1024B00001205EE500205CE5001002400C809F01D9
:1024C000FCFFEEFE70B504462546681EB0F1807F25
:1024D00001D301200FE0681E4FF0E02148610F2179
:1024E0004FF0FF3002F048F900204FF0E021886102
:1024F00007200861002070BD704770477047704723
:102500007047704730B502460B4600BF92F83C005A
:10251000012801D1022030BD012082F83C0000BF1B
:10252000022082F83D0010684168106884681D4DE3
:102530001068A84203D01C4D1068A84203D121F4B2
:102540007001586801431948014018680143106838
:102550004160144D1068A84213D01068B0F1804F4C
:102560000FD0134D1068A8420BD0124D1068A8422E
:1025700007D00D4D1068A84203D00F4D1068A84237
:1025800005D124F080049868044310688460012019
:1025900082F83D0000BF002082F83C0000BF00BF71
:1025A000B9E70000002C0140003401408FFFFFFD1F
:1025B000000400400008004000400140704710B592
:1025C00004460CB9012010BD94F83D0028B9002044
:1025D00084F83C00204600F029F8022084F83D00F1
:1025E000211D206801F0C0FC012084F8480000BFD4
:1025F00084F83E0001213F20015540200155412033
:102600000155422001554320015500BF00BF012064
:1026100084F84400452001554620015547200155C6
:1026200000BF012084F83D000020CCE710B586B043
:102630000446142101A8FDF7F4FD294920688842C9
:1026400016D100BF2748806D40F0040025498865F9
:102650000846806D00F00400009000BF00BF00221B
:1026600001211E20FFF782F81E20FFF76BF834E0EF
:102670001D492068884230D100BF1A48006E40F4DE
:102680008020184908660846006E00F480200090FB
:1026900000BF00BF00BF0846C06C40F00100C86426
:1026A0000846C06C00F00100009000BF00BF802011
:1026B00001900220029000200390049001200590D8
:1026C00001A94FF09040FEF7C7FE002211461A20E4
:1026D000FFF74CF81A20FFF735F806B010BD0000E0
:1026E000000800400010024000480140014691F8F7
:1026F0003D00012801D001207047022081F83D00F3
:102700000868C06840F001000B68D860184B086882
:10271000984213D00868B0F1804F0FD0154B08686D
:1027200098420BD0144B0868984207D0134B0868A6
:10273000984203D0124B0868984210D1086880680C
:10274000104B00EA0302062A0FD0B2F5803F0CD0EE
:102750000868006840F001000B68186005E0086830
:10276000006840F001000B6818600020C4E700001A
:10277000002C0140000400400008004000340140EB
:1027800000400140070001002DE9F04104460D46DC
:10279000002700BF94F83C00012802D10220BDE8C8
:1027A000F081012084F83C0000BF022084F83D0045
:1027B000206886683F48064026F47F462068866089
:1027C0002868702824D00CDC00F00F01002964D1A7
:1027D0000011072861D2DFE800F0535455564935FF
:1027E0003F00354A811A90424FD009DCB0F5805F36
:1027F0000DD0B0F5005F18D0B0F1101F4DD143E0FF
:10280000102943D0202942D0502946D140E046E04B
:10281000D5E902136A68206801F019FC206886680F
:1028200046F077062068866039E0D5E902136A68C9
:10283000206801F00CFC2068806840F4804021682A
:1028400088602CE0EA686968206801F0F3FD502197
:10285000206801F007FC22E0EA686968206801F05E
:1028600079FE6021206801F0FDFB18E0EA686968E4
:10287000206801F0DFFD4021206801F0F3FB0EE04D
:1028800000BF00BF00BF00BF00BF00BF00BF00BF50
:102890002968206801F0E6FB01E0012700BF00BFC6
:1028A000012084F83D0000BF002084F83C0000BFF8
:1028B000384674E788FFCEFF2000100010B50446AC
:1028C0000348844203D103F02DF802F059FF10BDF4
:1028D000500100202DE9F04104460D461646002720
:1028E00000BF94F83C00012802D10220BDE8F0812D
:1028F000012084F83C0000BF96B9EB68D5E90012CE
:10290000206801F0CDFD2068806920F00C0021686E
:10291000886120688069A96808432168886141E06E
:10292000042E13D1EB68D5E90012206801F048FEAF
:102930002068806920F4406021688861206880698F
:10294000A96840EA0120216888612BE0082E12D195
:10295000EB68D5E90012206801F072FE2068C069BA
:1029600020F00C002168C8612068C069A96808438C
:102970002168C86116E00C2E13D1EB68D5E900126E
:10298000206801F09BFE2068C06920F44060216847
:10299000C8612068C069A96840EA01202168C8614F
:1029A00000E0012700BF002084F83C0000BF38464B
:1029B0009CE710B504460CB9012010BD94F83D0009
:1029C00028B9002084F83C00204600F029F80220B5
:1029D00084F83D00211D206801F0C6FA012084F82A
:1029E000480000BF84F83E0001213F2001554020EF
:1029F000015541200155422001554320015500BF9A
:102A000000BF012084F844004520015546200155AF
:102A10004720015500BF012084F83D000020CCE78D
:102A2000704700002DE9F04304460D46002715B914
:102A300094F83E0015E0042D02D13F20005D10E027
:102A4000082D02D14020005D0BE00C2D02D1412069
:102A5000005D06E0102D02D14220005D01E0432020
:102A6000005D804615B994F844000BE0042D02D1B6
:102A70004520005D06E0082D02D14620005D01E002
:102A80004720005D8146B8F1010F02D1B9F1010F75
:102A900002D00120BDE8F0831DB9022084F83E0079
:102AA0001AE0042D03D102213F20015514E0082D26
:102AB00003D10221402001550EE00C2D03D102214B
:102AC0004120015508E0102D03D10221422001557B
:102AD00002E00221432001551DB9022084F8440080
:102AE0000EE0042D03D102214520015508E0082DF8
:102AF00003D102214620015502E002214720015561
:102B000035B1042D0BD0082D10D00C2D1CD114E0A4
:102B10002068C06840F002002168C86016E02068A4
:102B2000C06840F004002168C8600FE02068C068F9
:102B300040F008002168C86008E02068C06840F0E4
:102B400010002168C86001E0012700BF00BF67BB1B
:102B500001222946206801F069FA18492068884254
:102B600013D02068B0F1804F0FD0154920688842FB
:102B70000BD014492068884207D013492068884246
:102B800003D012492068884210D12068806810491B
:102B900000EA0106062E0FD0B6F5803F0CD0206863
:102BA000006840F001002168086005E020680068C6
:102BB00040F001002168086038466BE7002C0140B6
:102BC0000004004000080040003401400040014083
:102BD0000700010070B504462068C66820680569D2
:102BE00005F00200022819D106F00200022815D1D2
:102BF000401F21680861012020772068806900F06B
:102C0000030018B12046FFF759FE05E0204600F00A
:102C10001BF9204600F01EFA0020207705F0040082
:102C2000042819D106F00400042815D1C0432168F6
:102C30000861022020772068806900F4407018B194
:102C40002046FFF73BFE05E0204600F0FDF8204659
:102C500000F000FA0020207705F00800082819D1BC
:102C600006F00800082815D1C04321680861042037
:102C700020772068C06900F0030018B12046FFF7F4
:102C80001DFE05E0204600F0DFF8204600F0E2F9E6
:102C90000020207705F01000102819D106F0100050
:102CA000102815D1C04321680861082020772068CA
:102CB000C06900F4407018B12046FFF7FFFD05E041
:102CC000204600F0C1F8204600F0C4F9002020772B
:102CD00005F0010048B106F0010030B16FF00100CD
:102CE00021680861204600F05DFA05F08000802828
:102CF00004D005F40050B0F5005F0AD106F0800062
:102D0000802806D16FF40250216808612046FFF741
:102D1000F4FB05F48070B0F5807F0AD106F08000E6
:102D2000802806D16FF48070216808612046FFF783
:102D3000E3FB05F04000402809D106F040004028A0
:102D400005D1C04321680861204600F056FA05F01D
:102D50002000202809D106F02000202805D1C043FA
:102D6000216808612046FFF7C9FB05F48010B0F523
:102D7000801F0BD106F48010B0F5801F06D16FF4D0
:102D80008010216808612046FFF7BAFB05F40010A7
:102D9000B0F5001F0BD106F40010B0F5001F06D1EE
:102DA0006FF40010216808612046FFF7A8FB05F4C6
:102DB0008000B0F5800F0BD106F48000B0F5800FD5
:102DC00006D16FF48000216808612046FFF799FB67
:102DD00005F40000B0F5000F0BD106F40000B0F5CB
:102DE000000F06D16FF40000216808612046FFF74C
:102DF000E5FB70BD10B586B00446142101A8FDF7AF
:102E000010FA2068B0F1804F1AD100BF0D48C06C95
:102E100040F001000B49C8640846C06C00F0010096
:102E2000009000BF00BF022001900290002003909C
:102E300004900120059001A94FF09040FEF70CFB93
:102E400006B010BD0010024070472DE9F041044665
:102E50000D461646002700BF94F83C00012802D119
:102E60000220BDE8F081012084F83C0000BF0C2E58
:102E700051D005DC4EB1042E1ED0082E7AD133E09D
:102E8000102E60D0142EF9D175E02946206801F08B
:102E9000F5F82068806940F00800216888612068A2
:102EA000806920F0040021688861206880692969B0
:102EB00008432168886178E02946206801F036F9E6
:102EC0002068806940F4006021688861206880691A
:102ED00020F480602168886120688069296940EA5F
:102EE00001202168886160E02946206801F07AF9B4
:102EF0002068C06940F008002168C8612068C06986
:102F000020F004002168C8612068C069296908436D
:102F10002168C86149E02946206801F0BFF92068AE
:102F2000C06940F400602168C8612068C06920F46D
:102F300080602168C8612068C069296940EA012071
:102F40002168C86131E02946206801F003FA206851
:102F5000006D40F00800216808652068006D20F0D1
:102F60000400216808652068006D2969084321680C
:102F700008651AE017E02946206801F023FA206866
:102F8000006D40F40060216808652068006D20F441
:102F90008060216808652068006D296940EA012089
:102FA0002168086501E0012700BF00BF00BF0020C5
:102FB00084F83C0000BF384653E710B504460CB90E
:102FC000012010BD94F83D0028B9002084F83C0091
:102FD000204600F029F8022084F83D00211D2068D9
:102FE00000F0C2FF012084F8480000BF84F83E00D2
:102FF00001213F200155402001554120015542202B
:1030000001554320015500BF00BF012084F8440052
:1030100045200155462001554720015500BF01209C
:1030200084F83D000020CCE708B50168B1F1804F7D
:103030000DD100BF0649896D41F00101044A916537
:103040001146896D01F00101009100BF00BF08BD6C
:10305000001002407047000070B504460D4615B9D7
:1030600094F83E0015E0042D02D13F20005D10E0F1
:10307000082D02D14020005D0BE00C2D02D1412033
:10308000005D06E0102D02D14220005D01E04320EA
:10309000005D012801D0012070BD1DB9022084F817
:1030A0003E001AE0042D03D102213F20015514E017
:1030B000082D03D10221402001550EE00C2D03D133
:1030C00002214120015508E0102D03D102214220A8
:1030D000015502E0022143200155012229462068C2
:1030E00000F0A4FF2749206888420FD026492068B5
:1030F00088420BD025492068884207D0244920689F
:10310000884203D023492068884201D1012000E091
:10311000002028B12068406C40F4004021684864D9
:1031200018492068884213D02068B0F1804F0FD032
:103130001949206888420BD018492068884207D076
:1031400011492068884203D010492068884210D174
:1031500020688068124900EA0106062E0FD0B6F5F5
:10316000803F0CD02068006840F0010021680860B2
:1031700005E02068006840F0010021680860002038
:103180008AE70000002C014000340140004001406B
:103190000044014000480140000400400008004095
:1031A0000700010010B504460648844209D102F028
:1031B0004DFA02F03FF901F04DFF02F05BFB01F028
:1031C000C3FF10BD040100200246002031B10429D4
:1031D00007D0082908D00C290CD108E01368586BD7
:1031E00009E01368986B06E01368D86B03E0136876
:1031F000186C00E000BF00BF7047704700BFFEE7DB
:1032000000B585B014216846FDF70BF84FF6FF7046
:103210000090002001900320039000200290694656
:103220000248FEF719F905B000BD0000000800488B
:1032300000B585B014216846FCF7F3FF4FF6FF7028
:103240000090012001900320039000200290694625
:103250000248FEF701F905B000BD00000008004873
:1032600070B50546002204210E48FEF7F5F90E4818
:10327000066800240021084600F07AF900F0C8F939
:1032800000BF03E0284600F087F9641CB4F5963FC0
:10329000F8D305480660012204210248FEF7DCF954
:1032A00070BD0000000C00481408004800B587B04D
:1032B000142102A8FCF7B5FF00BF2A48C06C40F0FB
:1032C00004002849C8640846C06C00F0040001905E
:1032D00000BF00BF00BF0846C06C40F00100C864DA
:1032E0000846C06C00F00100019000BF00BF00BFA5
:1032F0000846C06C40F00200C8640846C06C00F08C
:103300000200019000BF00BF4FF4487002900120FE
:10331000039000200590049002A91348FEF79CF842
:103320004FF48070029001200390002005900490DB
:1033300002A94FF09040FEF78FF8FFF779FF4FF0AA
:103340009040806940F480704FF090418861064859
:103350001830006840F4087003491831086007B05D
:1033600000BD0000001002400004004870B5054692
:103370000E461446A4F12000C4B204EB44000449F4
:1033800001EB00123146284600F030F870BD000015
:10339000605900082DE9F04107460C46002204213F
:1033A0001048FEF759F91048D0F80080002540F287
:1033B0003F1609E0227831463846FFF7D7FFA6F1DD
:1033C000100086B2641C6D1C207808B1142DF1D356
:1033D0000548C0F80080012204210248FEF73CF9AC
:1033E000BDE8F081000C0048140800482DE9F043C6
:1033F00006468946174600240025A046B0464946A1
:10340000404600F0B5F800BF1EE000F001F90025CD
:103410000FE037F814000121A940084020B90C48FA
:10342000008800F0B9F803E00A48008800F0B4F81A
:103430006D1C102DEDD308F1010000F0FF08494686
:10344000404600F095F8641C182CDED3BDE8F083EC
:10345000480000204600002010B500220421124838
:10346000FEF7FAF811480468FFF720FF002000F08B
:1034700021F80F4908800846008848F23021884228
:1034800002D100F08DFB01E000F01AFC002000F0FA
:1034900011F8074908800548046001220421024808
:1034A000FEF7DAF810BD0000000C004814080048D0
:1034B0004A00002070B504462748006840F40070B8
:1034C000254908600846006840F48070086022487A
:1034D0001038006840F020001F49103908601F486C
:1034E00004601D48006840F020001B49086000BFD0
:1034F00000BF00BF18481038006840F0200016498F
:10350000103908600846006840F480700860FFF7D2
:1035100077FE4FF09040806A40F480704FF0904109
:10352000886200BF00BF00BF0C48001F006885B262
:103530004FF09040806940F480704FF09041886176
:10354000FFF776FE04481038006840F40070024926
:1035500010390860284670BD280400481408004847
:1035600001B5BDF800000149088008BD48000020F1
:1035700030B504460D462146202000F085F8294646
:10358000212000F081F830BD01B5BDF800000149EF
:10359000088008BD460000201B49096841F40071FD
:1035A000194A116018491039096841F48071164AA6
:1035B000103A11601146096841F020011160134969
:1035C00008601149096841F020010F4A116000BFED
:1035D00000BF00BF0C491039096841F020010A4AB8
:1035E000103A11601146096841F48071116000BF02
:1035F00000BF00BF04491039096841F40071024A54
:10360000103A116070470000280400481408004870
:103610001B48006840F400701949086008460068BB
:1036200040F48070086016481038006840F02000B0
:1036300013491039086022201249086010480068B8
:1036400040F020000E49086000BF00BF00BF0C48DA
:103650001038006840F02000094910390860084619
:10366000006840F48070086000BF00BF00BF0448DD
:103670001038006840F40070014910390860704744
:103680002804004814080048214A126842F40072D5
:103690001F4B1A601A46126842F480721A601C4A64
:1036A000103A126842F02002194B103B1A60194A76
:1036B0001060174A126842F02002154B1A6000BFD2
:1036C00000BF00BF124A103A126842F02002104BAD
:1036D000103B1A601A46126842F480721A600D4A52
:1036E00011600B4A126842F02002094B1A6000BFB9
:1036F00000BF00BF064A103A126842F02002044B95
:10370000103B1A601A46126842F480721A607047C1
:1037100028040048140800488168024A1140491CE6
:1037200081607047C0FFFF7F0146886800F01F007E
:103730007047024602F1600000EB8103186800F058
:10374000F840704701468868C0F3C00070470146E2
:103750008868C0F3400070470146886800F00100A7
:10376000704701468868C0F300707047014688685A
:10377000C0F38000704700008168024A1140091DB3
:1037800081607047C0FFFF7F70B500F11404C1F382
:10379000406504EB85031C68C1F304560725B5405A
:1037A000AC43C1F3045502FA05F52C431C6070BD0F
:1037B000826822F0E0720A438260704710B500F11F
:1037C000600404EB81031C6824F0004414431C6073
:1037D00010BD426922F000420A4342617047000076
:1037E00000B589B0202101A8FCF71BFD1A481B4930
:1037F000086040024860002118488160C160016192
:103800004161042181610021017741770121016239
:10381000002180F82410C162016380F83810C16370
:1038200080F84010FDF700FC08B1FDF719F90C48CD
:10383000019006200290002003907F200490042035
:1038400005900020069001A90448FDF765F908B12C
:10385000FDF706F909B000BD000100504C00002042
:103860000080F03E00B587B0142102A8FCF7D9FC17
:1038700000BF5648C06C40F004005449C864084674
:10388000C06C00F00400019000BF00BF00BF0846FC
:10389000C06C40F02000C8640846C06C00F02000F6
:1038A000019000BF00BF00BF0846C06C40F001009F
:1038B000C8640846C06C00F00100019000BF00BF62
:1038C00000BF0846C06C40F00200C8640846C06CE7
:1038D00000F00200019000BF00BF00BF0846C06CAE
:1038E00040F00800C8640846C06C00F00800019071
:1038F00000BF00BF00224FF6FF313548FDF7ACFE98
:1039000000224FF480714FF09040FDF7A5FE002299
:1039100004213048FDF7A0FE00224FF408712E4824
:10392000FDF79AFE4FF6FF30029001200390002031
:103930000490059002A92648FDF78EFD0120029013
:10394000002003900120049002A94FF09040FDF761
:1039500083FD07200290002003900120049002A91B
:103960001D48FDF779FD4FF480700290012003900F
:1039700000200490059002A94FF09040FDF76CFDE7
:103980004FF4806002904FF4881003900020049060
:1039900002A90F48FDF760FD04200290012003906A
:1039A00000200490059002A90A48FDF755FD4FF448
:1039B000087002900120039000200490059002A955
:1039C0000548FDF749FD07B000BD000000100240AA
:1039D00000080048000C0048000400481FB5002003
:1039E00000900190029003901448154908604F2000
:1039F00048600021124881604FF6FF71C1600021CC
:103A0000016141618161FEF7DAFD08B1FDF728F837
:103A10000B48FEF7CEFF08B1FDF722F8002000901A
:103A20000120019000200290039000226946044882
:103A3000FEF750FF08B1FDF713F81FBD0048014025
:103A40005001002000B58BB00020089009900A902A
:103A50001C2101A8FCF7E5FB4FF0804016490860E7
:103A60004F204860002114488160F921C160002185
:103A700001618161FFF7A1FA08B1FCF7F1FF0020B5
:103A800008900A9008A90C48FEF73CFD08B1FCF725
:103A9000E7FF60200190002002900390059004222F
:103AA00001A90548FFF7D1F908B1FCF7D9FF024891
:103AB000FFF7A0F90BB000BDB800002000B587B03B
:103AC00000200390049005900690009001900290D1
:103AD00014481549086040F21F3048600021124820
:103AE000816042F20F71C160002101618161FEF7C6
:103AF00066FD08B1FCF7B4FF4FF48050039003A9B2
:103B00000948FEF741FE08B1FCF7AAFF002000902B
:103B1000029069460448FEF7F5FC08B1FCF7A0FFE7
:103B200007B000BD000800400401002000BFFEE710
:103B300000BFFEE77047000070B5164DED6805F058
:103B40000304144DED68C5F303156B1C022C0CD057
:103B5000032C09D1104DB5FBF3F50E4EF668C6F3F4
:103B6000062605FB06F10AE000BF0C4DB5FBF3F598
:103B7000084EF668C6F3062605FB06F100BF00BF37
:103B8000044DED68C5F341656D1C6A00B1FBF2F0B0
:103B900070BD00000010024000366E010024F400E9
:103BA00000B501210020FFF76FFD4FF47A70FCF79C
:103BB00048FF00210120FFF767FD41F290711020BE
:103BC000FFF762FD4FF41C516020FFF75DFD0121FE
:103BD0006120FFF759FD02214620FFF755FD48F20D
:103BE00010011320FFF750FD48F2FE011220FFF7ED
:103BF0004BFD4FF4A0610220FFF746FD41F230017A
:103C00000320FFF741FD40F203313020FFF73CFD78
:103C100040F203313120FFF737FD40F2033132200B
:103C2000FFF732FD4FF440713320FFF72DFD0321E4
:103C30003420FFF729FD40F203313520FFF724FD42
:103C400014213620FFF720FD40F203313720FFF723
:103C50001BFD40F203313820FFF716FD40F203311F
:103C60003920FFF711FD4FF440713A20FFF70CFDAA
:103C700003213B20FFF708FD40F203313C20FFF712
:103C800003FD4FF4A0513D20FFF7FEFC4FF40071FF
:103C90009220FFF7F9FC40F203319320FFF7F4FC88
:103CA00040F60D019020FFF7EFFC41F218010320D0
:103CB000FFF7EAFC40F273110720FFF7E5FC00BDB7
:103CC00010B543F20801E320FFF7DEFC1221E720E4
:103CD000FFF7DAFC41F23121EF20FFF7D5FC00219C
:103CE0000120FFF7D1FC4FF4E0610220FFF7CCFC8C
:103CF00041F230010320FFF7C7FC00210420FFF749
:103D0000C3FC40F207210820FFF7BEFC0021092078
:103D1000FFF7BAFC00210A20FFF7B6FC00210C20B7
:103D2000FFF7B2FC00210D20FFF7AEFC00210F20B1
:103D3000FFF7AAFC00211020FFF7A6FC07211120A5
:103D4000FFF7A2FC00211220FFF79EFC00211320A8
:103D5000FFF79AFCC820FDF76BFB41F29061102041
:103D6000FFF792FC40F227211120FFF78DFC322053
:103D7000FDF75EFB1D211220FFF786FC3220FDF7C8
:103D800057FB4FF400611320FFF77EFC142129201C
:103D9000FFF77AFC0B212B20FFF776FC3220FDF792
:103DA00047FB00212020FFF76FFC00212120FFF7B7
:103DB0006BFC07213020FFF767FC40F207713120D0
:103DC000FFF762FC06213220FFF75EFC40F204712F
:103DD0003520FFF759FC41F604713620FFF754FCFB
:103DE00004213720FFF750FC00213820FFF74CFC5E
:103DF00040F206713920FFF747FC40F201713C2088
:103E0000FFF742FC0F213D20FFF73EFC0021502030
:103E1000FFF73AFCEF215120FFF736FC002152203A
:103E2000FFF732FC40F23F115320FFF72DFC4FF417
:103E30001C516020FFF728FC01216120FFF724FCC2
:103E400000216A20FFF720FC00218020FFF71CFCE6
:103E500000218120FFF718FC00218220FFF714FCCD
:103E600000218320FFF710FC00218420FFF70CFCC9
:103E700000218520FFF708FC10219020FFF704FCAB
:103E800000219220FFF700FC03219320FFF7FCFBA9
:103E90004FF488719520FFF7F7FB00219720FFF77B
:103EA000F3FB00219820FFF7EFFB41F218010320FC
:103EB000FFF7EAFB40F273110720FFF7E5FB10BDA7
:103EC000704710B5FDF7D4FB10BD00B593B0382195
:103ED00005A8FCF7A6F914216846FCF7A2F94FF4EF
:103EE0000070FDF795FC012005900004069002206B
:103EF0000C9003210D910E9114210F91022110912C
:103F00001191129105A8FEF72FF808B1FCF7A8FD52
:103F10000F20009003200190002002900390049055
:103F200002216846FDF7C2FE08B1FCF799FD13B007
:103F300000BD00000348006840F4700001490860BB
:103F40007047000088ED00E010B50248FEF742FE21
:103F500010BD00005001002010B50248FEF73AFEE7
:103F600010BD00000401002010B50268284B9842E3
:103F70000BD0B0F1804F08D0264B984205D0264B8D
:103F8000984202D0254B984203D122F070024B6830
:103F90001A431F4B984214D0B0F1804F11D01D4BE3
:103FA00098420ED01C4B98420BD01C4B984208D024
:103FB0001B4B984205D01B4B984202D01A4B98429B
:103FC00003D122F44072CB681A4322F080034C697B
:103FD00043EA04028B68C3620B6883620C4B98420D
:103FE0000BD00E4B984208D00D4B984205D00D4B8C
:103FF000984202D00C4B984201D10B6903630368CD
:1040000043F00403036001234361026010BD00001C
:10401000002C014000040040000800400034014032
:1040200000400140004401400048014030B501F02B
:104030001F05012404FA05F3046A9C430462046A20
:1040400001F01F0502FA05F52C43046230BD30B5BE
:104050000C46816821F47F4142EA03252543294328
:10406000816030BD0A468168034B194042F0070366
:1040700019438160704700008FFFCFFF30B5026A9F
:10408000056A25F00105056243688469214D2C40CD
:1040900024F003040D682C4322F002028D682A43A9
:1040A0001D4DA84200D10FE01C4DA84200D10BE0ED
:1040B0001B4DA84200D107E01A4DA84200D103E0F1
:1040C000194DA84208D100BF056A25F00405056214
:1040D00022F00802CD682A430F4DA8420BD00F4DA5
:1040E000A84208D00E4DA84205D00E4DA84202D0DD
:1040F0000D4DA84207D123F4807323F400734D695A
:104100002B438D692B43436084614D684563026294
:1041100030BD00008FFFFEFF002C01400034014045
:1041200000400140004401400048014030B5026AAF
:10413000056A25F01005056243688469234D2C400B
:1041400024F440740D6844EA052422F020028D68AE
:1041500042EA05121E4DA84200D10FE01D4DA842B3
:1041600000D10BE01C4DA84200D100BF1B4DA8425E
:1041700000D100BF1A4DA84209D108E0056A25F018
:104180004005056222F08002CD6842EA0512104D1A
:10419000A8420BD00F4DA84208D00F4DA84205D021
:1041A0000E4DA84202D00E4DA84209D123F48063DF
:1041B00023F400634D6943EA85038D6943EA85036F
:1041C000436084614D688563026230BDFF8FFFFEEE
:1041D000002C0140003401400040014000440140F7
:1041E0000048014030B5026A056A25F48075056211
:1041F0004368C469234D2C4024F003040D682C430C
:1042000022F400728D6842EA05221F4DA84200D1B7
:104210000FE01E4DA84200D10BE01D4DA84200D179
:1042200000BF1C4DA84200D100BF1B4DA84209D1C0
:1042300008E0056A25F48065056222F40062CD6815
:1042400042EA0522104DA8420BD0104DA84208D0DA
:104250000F4DA84205D00F4DA84202D00E4DA842E6
:1042600009D123F4805323F400534D6943EA051325
:104270008D6943EA05134360C4614D68C5630262FA
:1042800030BD00008FFFFEFF002C014000340140D4
:1042900000400140004401400048014030B5026A3E
:1042A000056A25F4805505624368C469234D2C4096
:1042B00024F440740D6844EA052422F400528D6809
:1042C00042EA05321E4DA84200D10FE01D4DA84222
:1042D00000D10BE01C4DA84200D100BF1B4DA842ED
:1042E00000D100BF1A4DA84209D108E0056A25F4A3
:1042F0008045056222F40042CD6842EA0532104D45
:10430000A8420BD00F4DA84208D00F4DA84205D0AF
:104310000E4DA84202D00E4DA84209D123F480438D
:1043200023F400434D6943EA85138D6943EA8513FD
:104330004360C4614D680564026230BDFF8FFFFEBB
:10434000002C014000340140004001400044014085
:104350000048014030B5026A056A25F480350562DF
:104360004368046D114D2C400D682C4322F400323B
:104370000D8942EA05420E4DA8420BD00D4DA842D0
:1043800008D00D4DA84205D00C4DA84202D00C4DCE
:10439000A84204D123F480334D6943EA05234360E6
:1043A00004654D688564026230BD00008FFFFEFF2A
:1043B000002C014000340140004001400044014015
:1043C0000048014030B5026A056A25F4801505628F
:1043D0004368046D114D2C400D6844EA052422F415
:1043E00000120D8942EA05520D4DA8420BD00D4D29
:1043F000A84208D00C4DA84205D00C4DA84202D0CE
:104400000B4DA84204D123F480234D6943EA852350
:10441000436004654D68C564026230BDFF8FFFFED6
:10442000002C0140003401400040014000440140A4
:104430000048014030B50B461446026A056A25F073
:1044400001050562114DA84200D10FE0104DA842B0
:1044500000D10BE00F4DA84200D107E00E4DA8425D
:1044600000D103E00D4DA84204D100BF056A25F03C
:1044700004050562816921F0F00141EA041122F08E
:104480000A021A438161026230BD0000002C014023
:104490000034014000400140004401400048014018
:1044A00070B50C461546026A066A26F001060662D9
:1044B000214EB04200D10FE0204EB04200D10BE0BF
:1044C0001F4EB04200D107E01E4EB04200D103E0C3
:1044D0001D4EB04204D100BF066A26F004060662F3
:1044E0008169154EB0420ED0B0F1804F0BD0174EFF
:1044F000B04208D0164EB04205D0104EB04202D0A5
:104500000F4EB04201D1012600E000261EB121F07D
:104510000301294301E041F0010121F0F001F026FF
:1045200006EA0316314322F00A0204F00A06324377
:104530008161026270BD0000002C01400034014026
:104540000040014000440140004801400004004098
:104550000008004030B50B461446026A056A25F093
:1045600010050562114DA84200D10FE0104DA84280
:1045700000D10BE00F4DA84200D100BF0E4DA84264
:1045800000D100BF0D4DA84204D103E0056A25F01B
:1045900040050562816921F4704141EA043122F04D
:1045A000A00242EA03128161026230BD002C014088
:1045B00000340140004001400044014000480140F7
:1045C00070B50C461546026A066A26F010060662A9
:1045D000164EB04200D10FE0154EB04200D10BE0B4
:1045E000144EB04200D100BF134EB04200D100BF04
:1045F000124EB04204D103E0066A26F0400606627D
:10460000816921F4407141EA052121F470414FF4A0
:10461000704606EA0336314322F0A002A02606EADD
:10462000041632438161026270BD0000002C01401B
:104630000034014000400140004401400048014076
:1046400070B50C461546026A066A26F48076066244
:10465000154EB04200D10FE0144EB04200D10BE035
:10466000134EB04200D100BF124EB04200D100BF85
:10467000114EB04204D103E0066A26F48066066259
:10468000C16921F00301294321F0F001F02606EA77
:104690000316314322F420624FF4206606EA042612
:1046A0003243C161026270BD002C01400034014000
:1046B00000400140004401400048014070B50C46F4
:1046C0001546026A066A26F480560662164EB04205
:1046D00000D10FE0154EB04200D10BE0144EB042B5
:1046E00000D100BF134EB04200D100BF124EB04205
:1046F00004D103E0066A26F480460662C16921F40B
:10470000407141EA052121F470414FF4704606EAF8
:104710000336314322F420424FF4204606EA0436A1
:104720003243C161026270BD002C0140003401407F
:1047300000400140004401400048014000BFFEE746
:104740000FB4084B10B504A902AA039800F0FAF8B8
:10475000044602A9002000F078FC204610BC5DF859
:1047600014FB00004B50000802480068C0F3022010
:10477000704700000CED00E010B5002804DB0A07CC
:10478000130E054A135406E00A07140E034A00F0FC
:104790000F031B1FD45410BD00E400E018ED00E02F
:1047A00002E008C8121F08C1002AFAD170477047FA
:1047B000002001E001C1121F002AFBD17047000058
:1047C0002DE9FF5F82B00021DDE90430020DDDF844
:1047D00040B0034318D044F61050A2F2FF324243D7
:1047E0001514119801281FD0A5EB0B00401C5FEA9F
:1047F000000A4FF000064E4FDFF83891B0465046A1
:1048000015D5CAF1000413E0119801244AA3012828
:1048100001D16FEA0B010298119AC0E90031C0E999
:10482000024206B0BDE8F09FCBF10000DFE704468E
:104830000021404A491842EB0450CDE9001012E033
:10484000E00707D032463B4640464946FBF79BFD12
:104850008046894632463B4610461946FBF793FD93
:1048600006460F466410002CEAD1DDE90401DDE9BB
:104870000023BAF1000F06DAFBF785FD42464B46EE
:10488000FBF781FD05E0FBF7F0FD42464B46FBF7E9
:10489000ECFD04460E460022284BFBF7F7FF03D839
:1048A0004FF0FF30014607E00022254B20463146FD
:1048B000FBF7C2FCFBF7D2FF102409E0002C0ADB57
:1048C0000A220023FBF7D4FE039B30321A55641EE4
:1048D00050EA0102F2D1641C039AC4F1110314449A
:1048E000119A012A03D0012208430DD10AE008439E
:1048F00004D000204FF0110B119072E7A3EB0B05D1
:104900006D1E0DE05B4504DD4FF0000205F1010571
:1049100004E003DA4FF00002A5F10105002AECD013
:1049200002981199C0E90231C0E9004579E7000019
:10493000000014400000F03F300000000000F04391
:104940000000E03F2DE9FF4F95B09A4688460646A5
:104950000025EEE1252877D100242746F94A0121D8
:10496000039400E0044316F8013F203B01FA03F0F2
:104970001042F7D130782A2811D06FF02F03307809
:10498000A0F13002092A16D8039A44F0020402EB7F
:10499000820203EB42021044761C0390EFE758F8C2
:1049A000042B0392002A03DA504244F4005403908B
:1049B00044F00204761C30782E2816D116F8010F28
:1049C00044F004042A280DD06FF02F023078A0F1B3
:1049D0003003092B09D807EB870302EB4303C71801
:1049E000761CF3E758F8047B761C30786C280FD0DF
:1049F00006DC4C2817D068280DD06A2814D104E0B2
:104A0000742810D07A280FD10DE044F400140AE085
:104A100044F4801401E044F440147278824202D1DC
:104A200004F58014761C761C307866280BD013DCD5
:104A3000582877D009DC002875D04528F6D04628BC
:104A4000F4D047281AD193E118E0632835D06428C0
:104A500079D0652812D18BE1702873D008DC6728E3
:104A6000F1D069286FD06E280DD06F2806D1ACE048
:104A700073282CD0752874D0782853D052461799B3
:104A800090476D1C54E1C4F30250022809D003285A
:104A90000DD0D8F8001004280DD00D6008F10408DE
:104AA00046E1D8F80010EA17C1E90052F6E7D8F855
:104AB00000100D80F2E70D70F0E718F8041B8DF878
:104AC000001000208DF80100EB46012003E058F8AB
:104AD00004BB4FF0FF3061074FF0000102D40DE03E
:104AE00009F101018946B9420FDA8145F8DB1BF86B
:104AF00009100029F4D108E009F101018946814239
:104B0000FADB1BF809100029F6D103985346A0EBF5
:104B1000090721463846179A00F080FA284400EB2E
:104B2000090507E044E008E10DE01BF8010B5246DF
:104B300017999047B9F10109F7D2534621463846F3
:104B4000179AF2E039E00A21C4F302524FF0000B49
:104B50000091022A06D058F8040BC117032A09D085
:104B60000AE023E008F1070020F00702F2E8020162
:104B7000904605E000B2C117042A01D140B2C11726
:104B8000002906DA0A460021404261EB02012D228B
:104B900002E0220504D52B228DF80420012203E037
:104BA000E20701D02022F7E7914657E00A2100E012
:104BB00010214FF0000B00910BE010214FF0000B83
:104BC00044F004040827009103E008204FF0000B94
:104BD0000090C4F30252022A05D058F8040B0021B9
:104BE000032A08D008E008F1070020F00702F2E8E5
:104BF0000201904603E080B2042A00D1C0B24FF017
:104C0000000922072AD53278702A07D0DDF800C0C3
:104C10008CF0100C5CEA0B0C05D00EE040228DF8F5
:104C20000420012208E050EA010306D030238DF869
:104C300004308DF8052002229146009B83F0080382
:104C400053EA0B030AD150EA010201D1620705D5EC
:104C500030228DF804204FF001097F1E3278582A47
:104C600004D039A20C920CAA02920BE03BA2F9E705
:104C70005B46009AFBF7FCFC0C9B9B5C029A521E65
:104C80000292137050EA0102F2D1029804A9081AA4
:104C900000F1200B600702D524F4803400E00127E6
:104CA0005F4502DDA7EB0B0000E0002000EB0B01ED
:104CB000009003984944401A0390E00306D45346F9
:104CC0002146179A039800F0A9F90544002706E049
:104CD00001A85246C05D179990476D1C7F1C4F4537
:104CE000F6DBE0030CD553462146179A039800F0F3
:104CF00095F9054404E030205246179990476D1C01
:104D00000099481E00900029F5DC08E002980299FD
:104D100052460078491C0291179990476D1CBBF1CF
:104D20000001ABF1010BF1DC5BE100F065F905443A
:104D3000761C307800287FF40DAE19B02846BDE807
:104D4000F08F000009280100303132333435363716
:104D500038396162636465660000000030313233C7
:104D60003435363738394142434445460000000067
:104D7000600700D4062708F1070020F00700F0E8DC
:104D80000223804603F0004C5FEA0C0001D097A09C
:104D900009E0200501D596A005E0E00701D095A027
:104DA00001E0AFF24C001390307823F00043652807
:104DB0000CD006DC452809D046281DD047287FD1D5
:104DC0003BE0662818D067287AD136E00021112F01
:104DD00001DB112000E0781CCDE9000104A90CA83A
:104DE000FFF7EEFCDDE90D010C9A4FF0000B07F127
:104DF0000109109200914EE04FF000400097CDE97C
:104E0000011004A90CA8FFF7DBFCDDE90D020C9BE7
:104E10000F994FF0000B91461093009211B9791C35
:104E200000EB0109B7EB090003D4C0F1FF3B07F128
:104E30000109A9EB0700019042E0012F00DA0127E8
:104E40000021112F01DD112000E03846CDE90001DD
:104E500004A90CA8FFF7B4FCDDE90D010C9A009140
:104E60004FF0000BB946109221070FD4009A4A4523
:104E700003DA914601E0A9F10109B9F1010F05DD5D
:104E8000109AA9F10101515C3029F4D0B84202DA3C
:104E900010F1040F03DA0121CDE9011010E0002820
:104EA00003DC8344A9EB000102E0411C494500DD1D
:104EB0008946A0EB0B00401C01904FF0004002908F
:104EC000200705D40198484502DB4FF0FF300190E0
:104ED00000208DF84B0002980DF14B07B0F1004F08
:104EE00025D002200C902B200D90029800280CDA7F
:104EF000404202902D200D9007E00A210298FBF716
:104F0000A1FB3031029007F8011D0C99481E0C904E
:104F10000029F2DC02980028EFD1791E0D98087064
:104F2000307800F0200040F0450007F8020D11A88D
:104F3000C01BC01D02901398007800B1012000EB47
:104F40000901019801EBE071029801440398401AAD
:104F5000401E0390E00306D453462146179A039857
:104F600000F05CF805441398007818B15246179980
:104F700090476D1CE00323D553462146179A0398AA
:104F800000F04CF805441BE0BBF1000F07DB009874
:104F9000584504DD1098179910F80B0001E0179997
:104FA00030205246904701980BF1010B401E05F14D
:104FB0000105019004D12E205246179990476D1C8F
:104FC000B9F10001A9F10109DEDC05E017F8010BD8
:104FD0005246179990476D1C0299481E029000296D
:104FE000F4DC53462146179A03989EE62D000000F4
:104FF0002B000000200000002DE9F04104460025B0
:105000001E461746880404D405E039462020B047E0
:105010006D1C641EF9D52846BDE8F0812DE9F041EC
:10502000044600251E469046C80301D5302700E0FF
:105030002027880404D505E041463846B0476D1C5A
:10504000641EF9D52846BDE8F0810A68531C0B6040
:105050001070704710B52DED088B7F212F48FBF79E
:1050600003FD2E48FCF756F92C48FBF7D9FF044600
:105070002046FBF77AFA41EC1B0B9FED290B53EC12
:10508000102BFBF7F2F941EC1A0B9FED270B53ECB9
:10509000102BFBF778F941EC190BFBF7B7FA08EE88
:1050A000100A2348007890BBB7EE000AB4EEC08A1D
:1050B000F1EE10FA03D80A201E4908702BE0B7EE73
:1050C000000AB4EEC08AF1EE10FA21DBB0EE080A55
:1050D000B4EEC08AF1EE10FA1AD818EE100AFBF7F7
:1050E0006AFA41EC1B0B9FED140B53EC102BFBF7F2
:1050F0004AF941EC1A0B9FED120B53EC102BFBF706
:105100003CF941EC190BFBF73DFA0A49087002E043
:10511000552008490870BDEC088B10BD4C000020DC
:105120000000000000FEAF406666666666660A40E4
:1051300039000020100000200000000000C04240A4
:105140000000000000803B402DE9F0412DED028B76
:105150000121A448FCF76EFA0746A348007820B165
:10516000012807D002281AD109E017B901209E4969
:10517000087014E017B902209B4908700FE0012F56
:105180000CD19A480078401C032190FBF1F201FBFE
:1051900012009649087000209349087000BF00BFB4
:1051A000934800789349087002218E48FCF742FA30
:1051B00004468E480078012802D000208E490870ED
:1051C0008E48007820B1012807D0022843D109E099
:1051D00014B90120894908703DE014B902208749BB
:1051E000087038E0012C35D18048007808BB84482D
:1051F0000068F0B983480068401C82490860804814
:105200000068401C7E4908607F480068FBF7D3F9BE
:1052100041EC180B9FED7D0B53EC102BFBF7DEF9E7
:1052200003D201207B49087011E000207949087001
:105230000DE06E480078012809D16F490978481CB3
:1052400000EBD0714910A0EB41016B4A11700020B6
:105250006A49087000BF00BF6948006860B16848CB
:105260000068322808D266480068401C644908601B
:1052700001206949087012E06148006832280ED1A7
:1052800000205F4908606449087059490978481C42
:1052900000EBD0714910A0EB4101554A1170042177
:1052A0005048FCF7C7F905465C48007820B1012852
:1052B00007D0022832D109E015B9012057490870FA
:1052C0002CE015B902205549087027E0012D24D1A2
:1052D0004648007801281DD14748007868B95048F1
:1052E00000780A2803D101204D49087012E04C488B
:1052F0000078401C4A4908700CE04A4800780A28A7
:1053000003D101204749087004E046480078401C5A
:105310004449087000204149087000BF00BF0121C6
:105320004FF09040FCF786F906463F48007820B1E0
:10533000012807D0022850D10DE016B901203A49C2
:1053400008704AE036B9FCF78DF938490860022048
:105350003549087041E0012E3ED1244800780128EB
:105360001ED12548007868B92D480078012803D15E
:105370000A202B4908702CE029480078401E284953
:10538000087026E027480078012803D10A20254923
:1053900008701EE023480078401E2249087018E07B
:1053A00012480078A8B9FCF75DF920490968401A4D
:1053B000B0F5FA6F06D31E48007818B901201C49D1
:1053C000087006E01A480078012802D10020184928
:1053D000087000201449087000BF00BFBDEC028BAC
:1053E000BDE8F081000400484100002028000020B2
:1053F000340000203500002036000020420000204C
:105400002C0000203C0000201800002000000000BC
:105410000058BB404000002029000020430000202D
:105420003700002038000020440000203000002019
:105430003900002010B52DED028B4148007820B1D5
:1054400001282DD0022877D147E03EA11820FDF792
:10545000A1FF4148007820B940A14820FDF79AFFFC
:1054600003E041A14820FDF795FF4348027843A19E
:105470004748FFF765F946496020FDF78BFF45482F
:105480000068FBF798F841EC180B53EC182B42A17D
:105490003F48FFF755F93E497820FDF77BFF4BE089
:1054A00042A11820FDF776FF4448027844A138480D
:1054B000FFF746F936494820FDF76CFF444802786B
:1054C00044A13348FFF73CF931496020FDF762FF02
:1054D00044A17820FDF75EFF2EE047A11820FDF7DC
:1054E00059FF494849A102682948FFF729F9284985
:1054F0004820FDF74FFF49480068FBF75CF841EC96
:10550000180B53EC182B46A12148FFF719F9204935
:105510006020FDF73FFF47480068FBF74CF841EC7F
:10552000180B53EC182B44A11948FFF709F9184937
:105530007820FDF72FFF00BF00BFBDEC028B10BD30
:1055400028000020202020202020202044415441F9
:1055500020202020200000003400002020202020D7
:10556000204D3D4C2020000020202020204D3D4893
:1055700020202020200000001000002020202020DB
:1055800020503D25642525202020202000000000FB
:105590009C010020140000202020202020563D25C2
:1055A0002E31662020202020000000002020202016
:1055B0002020202050415241202020003700002090
:1055C0002020202020523D25642020202020200063
:1055D0003800002020202020204B3D256420202062
:1055E00020202000202020202020202020202020DB
:1055F00020202020202020002020202020202020CB
:1056000052454344202020003C0000202020202040
:10561000204E3D2564202020202020001C0000205A
:1056200020202020204D483D252E3166202020209E
:10563000202000002000002020202020204D4C3D74
:10564000252E3166202020202020000010B50122C8
:1056500004212148FCF700F8032409E04FF480708E
:10566000A04081B201221D48FBF7F6FF601CC4B2C6
:10567000082CF3DB1A48007830B900224FF480710F
:105680001648FBF7E9FF04E0012211021348FBF77B
:10569000E3FF14480078012804D141020F48FBF7CA
:1056A000D1FF04E0012251020C48FBF7D5FF0E4860
:1056B0000078012805D1002281020848FBF7CCFFC1
:1056C00004E0012291020548FBF7C6FF00220421F5
:1056D0000148FBF7C1FF10BD000C0048000800485E
:1056E000280000202900002039000020FBF7CCFF13
:1056F000FEF7EBFBFEF7B6F8FEF772F8FEF7A2F93D
:10570000FEF7DCF9FEF76AF9012204211748FBF7DE
:10571000A3FF002409E04FF48070A04081B2012271
:105720001348FBF799FF601CC4B2082CF3DB00227E
:1057300004210E48FBF790FFFDF78EFE4FF6FF7039
:10574000FDF78EFD0020FDF70BFF4FF6FF70FDF714
:105750001BFF00210748FDF765F904210648FDF706
:105760007BFC0648FCF7C2FF00BFFEE7000C0048C8
:105770000008004850010020B8000020040100206B
:1057800010B52DED0C8B3048006800EB8000000157
:105790002E49B1FBF0F000EE100AB8EE400A2C489A
:1057A00080ED000A2B490978642211FB02F0FAF718
:1057B000CBFE41EC190B28480078FAF7D6FE41ECF5
:1057C0001B0B23480068FAF7F6FE9FED240B53EC01
:1057D000102BFAF7D8FD53EC1B2BFAF7D4FD53EC42
:1057E000192BFAF742FEFAF711FF1E4908601E480E
:1057F000007888B9084690ED000A1C48D0ED000AF0
:10580000B4EEE00AF1EE10FA1BDD084690ED000A56
:10581000164880ED000A14E013480078012810D1E2
:10582000104890ED000A1248D0ED000AB4EEE00AEC
:10583000F1EE10FA05DD0B4890ED000A0C4880ED02
:10584000000ABDEC0C8B10BD2400002000B4C40481
:105850001800002038000020370000201F85EB5181
:10586000B81E194014000020340000202000002041
:105870001C0000202548007870B925480078FA21DE
:1058800010FB01F0642190FBF1F022490968886364
:1058900000202149087037E01C480078012818D101
:1058A0001E480078012814D11B48007800EB8000C6
:1058B000000100F57A60FA214843194991FBF0F0A4
:1058C00014490968886214480078401C124908701D
:1058D0001AE00E480078012816D11048007898B9CF
:1058E0000D48007800EB80000001C0F5FA50FA2165
:1058F00048430B4991FBF0F0064909688862064865
:105900000078401C044908707047000029000020FE
:1059100010000020B80000201100002040000020EE
:1059200000B4C40410B500210448FDF74DFC04493F
:10593000086000200349086010BD000050010020ED
:105940002400002024480140000000000000000066
:105950000102030406070809000000000102030415
:105960000000000000000000000000000000000037
:105970000000000000000000000000000000000027
:105980000000000000000000000000000000000017
:105990000000800180018001800180018001800180
:1059A00080018001800180018001800100000000F1
:1059B00080018001000000000000000000000000E5
:1059C00000000000CC00CC00CC00CC00CC00CC000F
:1059D00000000000000000000000000000000000C7
:1059E00000000000000000000000000000000000B7
:1059F000000000000000000000000000600C600CCF
:105A0000600C30063006FE1FFE1F300638071803F4
:105A1000FE1FFE1F180318038C018C018C0100006F
:105A200000008000E003F80F9C0E8C1C8C188C008A
:105A30009800F801E007800E801C8C188C189C18C8
:105A4000B80CF00FE00380008000000000000000B0
:105A50000000000000000E181B0C110C11061106AE
:105A6000110311039B018E01C038C06C6044604477
:105A7000304430441844186C0C380000000000001A
:105A80000000E001F0033807180618063003F001A3
:105A9000F000F8009C310E33061E061C061C063F63
:105AA000FC73F02100000000000000000000000076
:105AB000000000000C000C000C000C000C000C009E
:105AC00000000000000000000000000000000000D6
:105AD00000000000000000000000000000000000C6
