:020000040800F2
:100000004008002099020008014B00080F42000838
:10001000FD4A0008B11600080D6400080000000049
:10002000000000000000000000000000914E0008E9
:10003000B516000800000000054B0008934E0008AC
:10004000B3020008B3020008B3020008B3020008BC
:10005000B3020008B3020008B3020008B3020008AC
:10006000B3020008B3020008B3020008B30200089C
:10007000B3020008B3020008B3020008B30200088C
:10008000B302000800000000B3020008B302000839
:10009000B3020008B3020008B3020008B30200086C
:1000A000B3020008B3020008B3020008B30200085C
:1000B000B3020008B3020008B3020008B30200084C
:1000C000B3020008B3020008B3020008B30200083C
:1000D000B3020008FD630008B3020008B302000881
:1000E000B3020008B3020008B3020008B30200081C
:1000F000B3020008B3020008B302000800000000C9
:1001000000000000B302000800000000B302000875
:10011000B302000800000000194F0008B3020008F5
:10012000B3020008B3020008B3020008B3020008DB
:10013000B30200080000000000000000B302000845
:10014000B3020008B3020008000000000000000035
:10015000000000000000000000000000000000009F
:10016000000000000000000000000000B3020008D2
:10017000B3020008000000000000000000000000C2
:1001800000000000B30200080000000000000000B2
:10019000000000000000000000000000000000005F
:1001A0000000000000000000B3020008B3020008D5
:1001B000B3020008B3020008B30200080000000008
:1001C00000000000B3020008000000000000000072
:1001D000B3020008B302000800F002F800F04CF887
:1001E0000AA090E8000C82448344AAF10107DA4592
:1001F00001D100F041F8AFF2090EBAE80F0013F098
:10020000010F18BFFB1A43F0010318477884000060
:1002100098840000103A24BF78C878C1FAD85207F1
:1002200024BF30C830C144BF04680C607047000070
:100230000023002400250026103A28BF78C1FBD8EF
:10024000520728BF30C148BF0B607047662907F0CE
:10025000C480642900F0CC80002070471FB507F0EF
:10026000B2F800F039FC04000020002106F0AEFBDB
:10027000E0601FBD10B510BD00F02EFD1146FFF768
:10028000EDFF06F0EDFA00F04CFD03B4FFF7F2FFCE
:1002900003BC00F08FFD0000094880470948004773
:1002A000FEE7FEE7FEE7FEE7FEE7FEE7FEE7FEE726
:1002B000FEE7FEE704480549054A064B7047000083
:1002C000054F0008D9010008400200204008002026
:1002D000400400204004002053EA020C00F0698032
:1002E0002DE9F04B4FF00006002B1FBFB3FA83F54A
:1002F00003FA05F424FA05F65E4012BF1643B2FA7B
:1003000082F502FA05F4C5F120051EBF22FA05FCAC
:1003100044EA0C04203556EA044C4FEA144418BF52
:10032000641C4FF000084FF00009904271EB030C81
:1003300039D3002919BFB1FA81F701FA07F6B0FAEB
:1003400080F700FA07F6C7F120071EBF20FA07FC66
:1003500046EA0C062037B6FBF4FCA7EB0507103F76
:1003600007F01F0BCBF120060CFA0BFB2CFA06F65C
:1003700044BFB3460026202FA4BF5E464FF0000BBB
:100380005BEA060C08BF4FF0010B19EB0B09ABFB46
:10039000027C48EB0608C01B06FB02CC0BFB03CC1F
:1003A00071EB0C01C1E70B46024641464846BDE8E9
:1003B000F08B13B54FF000004FF00001AFF3008059
:1003C000BDE81C40704700000FB41CB5074B06AADF
:1003D0007B4469460090059800F065FB0020694663
:1003E00000F074FB1CBC5DF814FB0000F906000073
:1003F0002DE9F0410646002410687529314616A5FE
:1004000010D0AFF30080002802DA404213A507E0C5
:1004100031688A0701D512A502E0490704D511A564
:10042000012401E0AFF3008000210A2206F1240735
:1004300009E0B0FBF2FCB0FBF2F302FB1C00303031
:1004400078541846491C0028F3D123462A463046E2
:10045000BDE8F04100F0B9B8000000002D00000038
:100460002B000000200000002DE9F0474FF0000AAB
:1004700089460446C0F820A02046E1688847002845
:1004800076D0252806D0D4E901219047206A401C67
:100490002062F1E7E168204600258847C4F81CA0E7
:1004A00006460027C4F818A02A2E09D0304605F0C9
:1004B000EDFF38B304EB8708303EC8F8186019E048
:1004C00059F8041B204604EB87029161E1688847D4
:1004D000012F064618D1E069002820DA25F0200512
:1004E0001DE0D8F8180000EB800006EB4000303823
:1004F000C8F818002046E1688847064605F0C6FFA0
:100500000028EED1012F0AD02E2E08D12046E16816
:1005100088477F1C0646022F45F02005C4DBA069F2
:10052000002803DA404245F00105A061E80701D048
:1005300025F01005B6B1A6F14100192802D82036E1
:1005400045F400654A463146204625604D46FFF792
:100550007DFE58B1012806D0ED1D25F0070000F101
:10056000080989E704E005F1040985E730468AE7D0
:10057000206ABDE8F0874FF0000200B513469446AC
:100580009646203922BFA0E80C50A0E80C50B1F1EB
:100590002001BFF4F7AF090728BFA0E80C5048BFFF
:1005A0000CC05DF804EB890028BF40F8042B08BF9D
:1005B000704748BF20F8022B11F0804F18BF00F899
:1005C000012B70477047704770472DE9F0470D4683
:1005D00099469246044600F124080168880604D52D
:1005E000E06921F01001216000E00120A84201DD56
:1005F000471B00E00027A1697A1902EB0900081ADD
:10060000A0612078C00602D42046AFF30080002607
:1006100008E0D4E901211AF806009047206A401C3E
:10062000761C20624E45F4DB2078C0060AD52046B1
:10063000AFF3008006E0D4E9012130209047206A22
:10064000401C2062381EA7F10107F4DC07E0D4E962
:10065000012118F805009047206A401C2062281EDE
:10066000A5F10105F3DC2046AFF3008020780006F9
:1006700002D50220BDE8F0870120FBE770472DE995
:10068000FF4F0C461E464FF0FF378BB0D2E90001FA
:10069000DDF860800A908A46C1F30A5505B93D46E7
:1006A000002108464FF00000BAF1000F00F44000AE
:1006B00005DA00EB80004FF4400101EA50004FEAF8
:1006C0009059B9F1010F00DDB9460A9850EA4A0085
:1006D0000ED044F61050A5F2FF3545432F14B8F163
:1006E000000F1ED07542291E1EDDC9F100021CE05C
:1006F000B8F1010F4FF0000001D0302103E0F243C8
:1007000005E02154401CB042FBDB304600220021B2
:1007100021540B99C1F80880C1E900200FB0BDE851
:10072000F08FBD1B6D1CDEE74A4600DA694206A861
:1007300000F05CFA06AB93E8070003AB83E8070020
:1007400050460A9900F03DFB8DE80700A0F50050E7
:100750001F3800900398002D0ADD42F21F014A461F
:100760000844002303A90390684600F0A6FD09E0B1
:10077000A0F500504A461F38002303A9039068469D
:1007800000F0B0FD8DE807000004000C03D04FF02E
:10079000FF30410800E01046B8F1000F03D00022FE
:1007A000009215461EE0751E05D400F099F930320E
:1007B00062556D1EF9D5B3460122084302D00022CE
:1007C0007F1C04E02078302801D100227F1E002AFF
:1007D000099784D01DE0112D07DA00F081F930323D
:1007E00062556D1C50EA0102F5D1084302D0009811
:1007F000C8B10EE00021681E05E0235C625C635412
:100800002254401E491C8142F7DBAB46A81B401E08
:100810000990002004F80B000B98099AC0F8088092
:10082000C0E9002B7AE711264FF0000857E72DE9C1
:10083000F04F88460446D21D22F0070191B0D1E95D
:100840000001CDE90A0105F0E3FD02460B98C00F57
:1008500001D02D2007E02068810701D52B2002E080
:10086000202101EAC000032A099001D0072A05DBF4
:1008700003464146204600F079F90BE120788006D6
:1008800001D5E06900E00620B8F1650F814606D089
:10089000B8F1660F18D0B8F1670F70D131E00020C1
:1008A000B9F1110F009001DB112301E009F10103FF
:1008B0000AAA01A90CA8FFF7E2FEDDE90C700026E8
:1008C00009F10105834647E001204B4600904FF0B7
:1008D00000470AAA01A90CA8FFF7D1FEDDE90DB077
:1008E0000C995D46002610B909F101000D18B9EB0D
:1008F000050003D4C0F1FF3609F10105A5EB09009D
:100900002BE0B9F1010F01DA4FF001090020B9F134
:10091000110F0090484601DD112300E003460AAAAA
:1009200001A90CA8FFF7ABFEDDE90C704D460026CF
:100930008346207800070AD4AB4500DA5D4601A85B
:10094000012D04DD411911F8011C302907D04F4554
:1009500002DA17F1040F04DA012082460FE06D1E5F
:10096000EEE7002F02DCED1B3E4403E0781CA842BA
:1009700000DD7D1CB81B00F1010A4FF00047207814
:10098000000703D4AA4501DB4FF0FF3A0021B7F17D
:10099000004F0DF143088DF8431024D002202B2383
:1009A000002F01DA7F422D230A21021EA0F101004F
:1009B00000DC5FB197FBF1FC97FBF1F201FB1C7CC3
:1009C00017460CF1300C08F801CDEEE7A8F1010054
:1009D00003702188090501D5452100E06521A0F1BA
:1009E000010800F8011C09980FA9A1EB0807FF1DD9
:1009F00000B10120411901EBEA70A1693844081ADD
:100A0000401EA0612078C00602D42046AFF30080CB
:100A1000099828B1D4E901219047206A401C20623E
:100A20002078C00622D52046AFF300801EE0002EBD
:100A300004DBB34502DD01A8805D00E03020D4E98D
:100A400001219047206A401C2062761CAAF1010017
:100A50005FEA000A0AD100F03FF8C0680168405C14
:100A6000D4E901219047206A401C2062281EA5F18C
:100A70000105DCDC07E0D4E9012118F8010B9047FF
:100A8000206A401C2062381EA7F10107F3DC2046D3
:100A9000AFF30080032011B041E6000001694A1C59
:100AA00002610878704700B58FB0CDE901310021AF
:100AB000059105497944CDE9031011466846FFF7D1
:100AC000D3FC0FB000BD0000E5FFFFFF0A6802F88D
:100AD000010B0A60704700000048704700020020C8
:100AE00030B5B0F10A024FEA900E71F100034EEA00
:100AF000817EB0EB0E0061EB91014FEA101E4EEAD1
:100B0000017E10EB0E0041EB11114FEA102E4EEA60
:100B1000016E10EB0E0041EB11214FEA104E4EEA30
:100B2000014E10EB0E0041EB1141401841F1000164
:100B30004FEAD00040EA41704FEAD10110EB800546
:100B40004FEA810444EA907444EB01046D1944EBCC
:100B50000404521BA3414FF0000348BF0A3200D5E2
:100B600030BD401C41F1000130BD00002DE9F041D5
:100B70001F46044603260168072A01F4006004DBCF
:100B800008B116A505E016A503E008B115A500E01B
:100B900015A521F010002060A069C01EA0610FB152
:100BA000401EA0612046AFF300804FB1D4E901217F
:100BB00038469047206A401C2062C01C206206E034
:100BC000206AFAE7D4E9012115F8010B9047761E57
:100BD000F8D22046AFF30080BDE8F0814E414E00D0
:100BE0006E616E00494E4600696E66002DE9F04761
:100BF000814616468AB0354878440DC88DE80D0008
:100C000032487844801C03AC0DC884E80D0041F6DE
:100C10009B300844372190FBF1F290FBF1F5A5F1F0
:100C2000800501FB12041B3C02D56442012000E058
:100C30000020DFF898A080460027FA44AAF1BE0AF7
:100C40000EE0E0070AD03246684607EB4701012371
:100C50000AEB810100F046FB8DE8070064107F1C61
:100C6000002CEED1194F7F44AE3F19E0E80715D0B4
:100C700007EB04100DF1180A90E80E008AE80E0048
:100C8000C068F04201D1981908903246012306A9A4
:100C900003A800F027FB03AB83E807006D10641C7A
:100CA000002DE3D14FF0010332466946B8F1000F41
:100CB00003A802D000F001FB01E000F013FBC9E93A
:100CC0000001C9F808200AB0BDE8F087707A00007A
:100CD00000487047E00100207546FFF7F9FFAE4677
:100CE00005006946534620F00700854618B020B538
:100CF000FFF7E0FABDE820404FF000064FF0000794
:100D00004FF000084FF0000B21F00701AC46ACE8B3
:100D1000C009ACE8C009ACE8C009ACE8C0098D4620
:100D2000704710B50446AFF300802046BDE8104080
:100D3000FFF7ABBA4FF0013C50F8042B51F8043BDD
:100D40009A4221D1A2EB0C03934313EACC1317D19F
:100D500050F8042B51F8043B9A4215D1A2EB0C0336
:100D6000934313EACC130BD150F8042B51F8043BF6
:100D70009A4209D1A2EB0C03934313EACC13DBD0C4
:100D80004FF00000704700BFD01A01BAB1FA81F1EC
:100D900001F0180122FA01F0CB40C1F12001DBB2D1
:100DA000C0B2C01A2CFA01F3D11A914311EAC3114F
:100DB000E6D1704701491820ABBEFEE726000200CD
:100DC00070475FEA400C08BF91F0000F4FEA8C2398
:100DD0004FEAC12243EA51514FEA1C5018BF00F5B7
:100DE000F0404FEA300018BF41F000415FEA6C5C10
:100DF00000F02980BCF1FF3F08BF40F08040704701
:100E0000130C06BF12044FF0100C4FF0000C130E21
:100E100004BF12020CF1080C130F04BF12010CF1F5
:100E2000040C930F04BF92000CF1020CD30F04BF0B
:100E300052000CF1010C11464FF00002A0F11F000E
:100E4000A0EB0C00704711F0004F08BF704731F065
:100E500000413FF4D5AF0B0C06BF09044FF0100C56
:100E60004FF0000C0B0E04BF09020CF1080C0B0F25
:100E700004BF09010CF1040C8B0F04BF89000CF1B5
:100E8000020CCB0F04BF49000CF1010CCCF1200384
:100E9000A0EB0C0022FA03F302FA0CF241EA030180
:100EA00000F10100704720F07F4C80EA030023F03E
:100EB0007F47ACEB070303F57C5300F0004003F1E0
:100EC000FF032DE980494FEA154B09B44FEA14435B
:100ED00025EA0B4E24EA03480FF2042606EB1327FB
:100EE00049083E785FEA320203FB0667C7F5000750
:100EF00007FB06F64FEA54374FEAD64606F10206DC
:100F000007FB066CCCF1005C4FEA1C472CEA074C4F
:100F100007FB06F40CFB06F504EB15464FEA9616A4
:100F200034BF00204FF000404FEAD13706FB07FCEA
:100F30004FEA1C4C0CFB0BF7D21B03FB0CF761EBCD
:100F400007010CFB0EF7B0EB074072EB17420CFBEE
:100F500008F734BFA2EB0742B2EB074261EB17413F
:100F60004FEA0C444FEA910706FB07FC4FEA1C4C82
:100F70000CFB0BF7B0EBC74072EB573203FB0CF7DF
:100F800034BFA2EBC742B2EBC74261EB57310CFB57
:100F90000EF7B0EBC70072EB57720CFB08F734BFCB
:100FA000A2EBC702B2EBC70261EB5771039F4FEA96
:100FB000816141EA921104EBCC044FEAD1374FEA48
:100FC000826206FB07FC42EA90124FEA80604FEA19
:100FD0001C4C0CFB0BF7D21B03FB0CF761EB07015E
:100FE0000CFB0EF7B0EB074072EB17420CFB08F757
:100FF00034BFA2EB0742B2EB074261EB17414FEA65
:101000008C554FEA910704EB9C2406FB07FC4FEA42
:101010001C4C0CFB0BF7B0EBC74072EB573203FBD9
:101020000CF734BFA2EBC742B2EBC74261EB5731BA
:101030000CFB0EF7B0EBC70072EB57720CFB08F716
:1010400034BFA2EBC702B2EBC70261EB577115EBDD
:101050004C254FEA816141EA92114FEA82624FEAE0
:10106000D13742EA901206FB07FC44F100044FEA34
:1010700080604FEA1C4C0CFB0BF7D21B03FB0CF7F8
:1010800061EB07010CFB0EF7B0EB074072EB174268
:101090000CFB08F734BFA2EB0742B2EB074261EB4F
:1010A000174115EB1C154FEA813141EA92414FEA95
:1010B000823242EA90424FEA80304FEA0C7644F1A5
:1010C000000448EA03434EEA0B484FF0000EB2EB2F
:1010D000080C71EB030724BF624639464EEB0E0E37
:1010E0004FF0000B0018524149414BEB0B0BB2EB98
:1010F000080C71EB03077BF1000B24BF62463946F5
:101100004EEB0E0E4FF0000B0018524149414BEBD5
:101110000B0BB2EB080C71EB03077BF1000B24BF48
:10112000624639464EEB0E0E51EA020718BF46F0F2
:10113000010616EB0E7655F1000254F1000103D5BD
:10114000BDE88901BDE80088BDE88901BDE8004827
:10115000B619524141EB0101A3F1010370478080B0
:101160007F7E7D7C7B7A7978777676757473727101
:1011700071706F6E6E6D6C6C6B6A6A6968686766B9
:1011800066656464636362616160605F5F5E5E5D4B
:101190005D5C5C5B5B5A5A595958585757565655BF
:1011A00055555454535352525251515050504F4F21
:1011B0004F4E4E4D4D4D4C4C4C4B4B4B4A4A4A4971
:1011C00049494848484747474746464645454544B4
:1011D0004444444343434342424242414141002B41
:1011E0009C4630D477002BD01CB54FEA370703B4A8
:1011F0004FF010004FF01001BAF1000F06D0BCF113
:10120000000FDCBF40F0080040F008014FF0000084
:101210000FBCBDE810400BF1010BBBF1010F08BF83
:101220005FEA170722BF12F1010211F101014FF02D
:10123000004143F1000300F0004043EA0000704722
:10124000F9D35708D0E746EA064613F1400F4FEAB4
:1012500016461FDD13F1200FDFBF16430A4600219B
:1012600020335B42BED0C3F1200746EA064602FAAD
:1012700007F74FEA164646EA0706C3F1200722FAA7
:1012800003F201FA07F721FA03F14FF0000342EAF3
:101290000702A7E746EA020646EA06464FEA16466E
:1012A00046EA0106BCBF46EA0646360C4FF000038C
:1012B0004FF000024FF0000194E72DE9804C9A4670
:1012C000934670B491E8380007C831EA400C48BF33
:1012D00034EA430C03D5FFF7E6FDFFF780FFF0BCCF
:1012E000BDE8008C2DE9804C9A46934670B491E895
:1012F000380007C810F0804F08BF13F0804F03D1AB
:1013000000F005F8FFF76BFFF0BCBDE8008C20F0A3
:101310007F4780EA030023F07F4C07EB0C03A3F523
:101320007C5300F00040A3F1FE0392F0000F00F0A8
:10133000B38095F0000F00F077802DE901494FEA66
:1013400011404FEA144621EA004800FB06FC24EA5B
:10135000064708FB06F607FB08F800FB07F718EB43
:1013600006484CEB164C4FEA124B18EB07484FEA75
:1013700015464CEB174022EA0B4E0BFB06FC25EA08
:1013800006470EFB06F607FB0EFE0BFB07F71EEBF0
:10139000064E4CEB164C4FF000061EEB074E4CEB86
:1013A000174B18EB0B0840F1000018EB0E0B58EB35
:1013B000000840F100008F1A4FF000013CBFC94304
:1013C000661B14BFB5EB040C00213CBFC943F61BE0
:1013D0004FEA17444EEA8E0E27EA04454FEA1C47AF
:1013E00004FB07622CEA074C05FB07F70CFB05F62C
:1013F00004FB0CFC16EB074642EB174216EB0C46BF
:1014000042EB1C421BEB060658EB0202414146EA46
:101410009E0601D5BDE80189B619524141EB010193
:10142000A3F10103BDE801894FEA14454FEA1147D2
:1014300024EA054621EA074C05FB07F406FB07F7FB
:101440000CFB06F105FB0CFC11EB074144EB1744C8
:101450004FEA124711EB0C4144EB1C4422EA074CC3
:1014600005FB07F206FB07F70CFB06F605FB0CFC79
:1014700016EB074642EB174216EB0C4642EB1C45B7
:101480006A1854F1000148BF7047B619524141EB48
:101490000101A3F10103704795F0000F37D04FEA27
:1014A00011424FEA144721EA024624EA074C02FBA4
:1014B00007F106FB07F70CFB06F402FB0CFC14EB30
:1014C000074441EB17414FEA154714EB0C4441EB3D
:1014D0001C4125EA074C02FB07F506FB07F70CFB4E
:1014E00006F602FB0CFC16EB074645EB174516EB20
:1014F0000C4645EB1C42121951F1000148BF7047E0
:10150000B619524141EB0101A3F1010370474FEAC3
:1015100014454FEA114724EA054621EA074C05FB2A
:1015200007F106FB07F70CFB06F24FF0000605FB80
:101530000CFC12EB074241EB174112EB0C4251EB52
:101540001C4148BF7047921841EB0101A3F1010310
:101550007047000070B50446206803F002F90646A3
:10156000206803F003F998B396BB2068806800F008
:101570000D0001280AD1206881681A4A1140891C8F
:10158000816000BF03202168086009E0E06D40F041
:101590001000E065206E40F001002066012070BD63
:1015A00000F024FF054614E000F020FF401B022855
:1015B0000FD92068806800F0010050B1E06D40F064
:1015C0001000E065206E40F0010020660120E6E793
:1015D00005E02068806800F001000028E4D10020C8
:1015E000DDE70000C0FFFF7F38B504460020009013
:1015F000206803F0BBF800284FD120688068284994
:10160000084048B1E06D40F01000E065206E40F009
:1016100001002066012038BD206803F087F800BF74
:101620002048806800F0E07000F4000080B11E489F
:1016300000681E49B0FBF1F0401C00EB4000800048
:10164000009002E00098401E009000980028F9D118
:1016500000F0CCFE05461AE0206803F087F810B9C8
:10166000206803F063F800F0C1FE401B02280ED989
:101670002068006800F0010048B9E06D40F01000FB
:10168000E065206E40F0010020660120C3E720687D
:10169000006800F001000028DED00020BBE7000059
:1016A0003F000080000300500C000020400D0300AC
:1016B00000BFFEE77047002109E0002201E0531C53
:1016C0009AB240F6B8339A42F9DB4B1C99B2814288
:1016D000F3DB704772B600BFFEE70000F8B50446C2
:1016E0000D460020009000BF94F85800012801D159
:1016F0000220F8BD012084F8580000BF2046FFF703
:1017000029FF06468EBBE06D20F4885040F00200B1
:10171000E065206881681B4A114005F0804242F074
:1017200000421143816000BF13E00098401C00900C
:101730001549009888420CD3E06D20F0020040F07B
:101740001000E06500BF002084F8580000BF0120B1
:10175000CFE720688168C90F0029E6D1E06D20F04D
:10176000020040F00100E06504E0FFE7E06D40F0BA
:101770001000E06500BF002084F8580000BF30462C
:10178000B7E70000C0FFFF3F02DE04002DE9F84F7D
:1017900005460C464FF0000A00200090FE49E06824
:1017A000884200D000E000BF00BF95F85800012833
:1017B00002D10220BDE8F88F012085F8580000BF53
:1017C000286802F0DDFF00287DD12968D4E90020D7
:1017D00001F1300CC0F3012B0CEB8B03D3F800C0EC
:1017E00000F01F0E4FF01F0B0BFA0EFB2CEA0B0C38
:1017F00000F01F0BC2F3846E0EFA0BFE4CEA0E0CC7
:10180000C3F800C000BF286802F0BAFF814628680C
:1018100002F0A2FF8046B9F1000F64D1B8F1000FC9
:10182000FBD1A068B0F1004F0AD1216800222868DE
:1018300002F0B4FF4FF00041286802F0D4FF08E046
:10184000A2682168286802F0A9FF0021286802F038
:10185000CAFF60692968C968C1F3C101490000FA7B
:1018600001F7206904283FD028682268216900F127
:10187000600C0CEB8103D3F800C0DFF820B30CEA56
:101880000B0C02F0F84B4BF0004B4BEA070B4CEA09
:101890000B0CC3F800C000BF2868A269216900F1E1
:1018A000600C0CEB8103D3F800C02CF0807C4CEA78
:1018B000020CC3F800C000BF2868227F2169012AFA
:1018C00002D1520601E0C6E10022134600F1600C8D
:1018D0000CEB8102D2F800C02CF0007C4CEA030C27
:1018E000C2F800C000BFA7E00021286802F02BFF6B
:1018F000C0F3120030B90021286802F024FFC0F3C1
:10190000846007E00021286802F01DFF90FAA0F033
:10191000B0FA80F02168C1F3120119B92168C1F34E
:10192000846104E0216891FAA1F1B1FA81F1884261
:1019300004D100221146286802F04AFF01212868DC
:1019400002F001FFC0F3120030B90121286802F053
:10195000FAFEC0F3846007E00121286802F0F3FE7C
:1019600090FAA0F0B0FA80F02168C1F3120119B921
:101970002168C1F3846104E0216891FAA1F1B1FA10
:1019800081F1884204D100220121286802F020FF61
:101990000221286802F0D7FEC0F3120030B90221FC
:1019A000286802F0D0FEC0F3846007E002212868B6
:1019B00002F0C9FE90FAA0F0B0FA80F02168C1F3FD
:1019C000120119B92168C1F3846104E0216891FA18
:1019D000A1F1B1FA81F1884204D1002202212868E4
:1019E00002F0F6FE0321286802F0ADFEC0F31200FB
:1019F00030B90321286802F0A6FEC0F3846007E036
:101A00000321286802F09FFE90FAA0F0B0FA80F05F
:101A10002168C1F3120119B92168C1F3846104E09E
:101A2000216891FAA1F1B1FA81F1884204D1002232
:101A30000321286802F0CCFE286802F097FE0028F7
:101A400072D12868E2682168D0F8B030C1F3120C76
:101A500023EA0C0302F0180BDFF844C12CFA0BFC4C
:101A60000CEA010C43EA0C03C0F8B03000BF4A494D
:101A7000E068884258D12368C3F312031BB9236876
:101A8000C3F3846304E0236893FAA3F3B3FA83F304
:101A90005B1C03F01F03092B3ED82368C3F312031A
:101AA0001BB92368C3F3846304E0236893FAA3F3A8
:101AB000B3FA83F35B1C03F01F034FF0010C0CFA25
:101AC00003FC2368C3F312031BB92368C3F38463C5
:101AD00004E0236893FAA3F3B3FA83F35B1C03F0E7
:101AE0001F034CEA836C2368C3F312031BB92368FA
:101AF000C3F3846304E0236893FAA3F3B3FA83F394
:101B00005B1C03F01F0303EB43034FF0000B4BEA96
:101B100003534CEA030347E02368C3F3120323B9DA
:101B20002368C3F3846305E043E0236893FAA3F3D7
:101B3000B3FA83F35B1C03F01F034FF0010C0CFAA4
:101B400003FC2368C3F312031BB92368C3F3846344
:101B500004E0236893FAA3F3B3FA83F35B1C03F066
:101B60001F034CEA836C2368C3F312031BB9236879
:101B7000C3F3846304E0236893FAA3F3B3FA83F313
:101B80005B1C03F01F030A3B03EB43034FF0007B96
:101B90004BEA035306E0000000007F4000F0FF0323
:101BA000FFFF07004CEA03031946A268286802F009
:101BB000F5FD2F492068084050B300BF2D488068CC
:101BC00000F0E07600BF2C492068884203D02B4902
:101BD000206888421DD106F40000D0B92868B0F111
:101BE000A04F3ED146F40001224802F0EBFD24480C
:101BF00000682449B0FBF1F0401C00EB400080007D
:101C0000009002E00098401E009000980028F9D152
:101C100027E01D49206888420CD106F0807048B941
:101C20001A49286888421CD046F08071114802F099
:101C3000C9FD16E016492068884212D106F48000DA
:101C400078B91249286888420BD046F480010948C7
:101C500002F0B8FD05E0E86D40F02000E8654FF0C7
:101C6000010A00BF002085F8580000BF5046A1E5DA
:101C70000000088000030050000021C31000C09045
:101C80000C000020400D0300000052C7000100506E
:101C9000000084CB01460868006C70472DE9F843CA
:101CA00004464FF000080020009014B90120BDE860
:101CB000F883606920B194F82400012800D100BFA6
:101CC000E06D30B9204600F017F90020206684F856
:101CD000580020688168C1F3407131B12068816883
:101CE0007E4A1140816000BF00BF206802F043FDC2
:101CF000B0B9206881687A4A114041F08051816012
:101D000000BF784800687849B0FBF1F0401C400003
:101D1000009002E00098401E009000980028F9D141
:101D2000206802F028FD48B9E06D40F01000E06541
:101D3000206E40F0010020664FF00108206802F09C
:101D40001FFD0646E06D00F01000002877D1002E40
:101D5000FCD1E06D20F4807040F00200E065206866
:101D600002F004FDB0B94FF0A04002F0FFFC814644
:101D70005E4802F0FBFC49EA0009B9F1000F09D105
:101D800060685B49896821F47C110143584A91607D
:101D900000BF00BF607FE16B41EA4030E16808436B
:101DA000A168084394F8241040EA014594F82400FF
:101DB000012803D1208D401E45EA4045E06A28B144
:101DC000A08D00F47870216B084305432068C0683B
:101DD0004849084028432168C8602068006920F00D
:101DE0004060616B084321680861206802F0B4FC20
:101DF0000746002E50D1EFBB207F002141EA803101
:101E000094F8380041EA40052068C06844F20201B5
:101E1000884328432168C860206988B12068006928
:101E200040F48030216808612068D0F8C0006FF36A
:101E30000D00216908432168C1F8C0000EE045E0AB
:101E40002068006920F48030216808612068D0F89B
:101E5000C0006FF30D002168C1F8C00094F8400085
:101E6000012813D1606C40F00101A06C0843E16CC3
:101E7000084300E010E0216D08432168096940F241
:101E8000FC72914308432168086105E020680069FD
:101E900020F00100216808616069012809D12068EB
:101EA000006B20F00F00216A491E08432168086377
:101EB00005E02068006B20F00F0021680863E06DEA
:101EC00020F0020040F00100E06505E0E06D40F028
:101ED0001000E0654FF001084046E8E6C0FFFF5FF4
:101EE000C0FFFF7F0C000020400D030000010050E8
:101EF000000300500740F0FF10B598B004461421CD
:101F000013A8FEF738FB442102A8FEF734FB1B4957
:101F1000206888422FD1C00102908003119002A84E
:101F200000F0D0FB08B1FFF7D5FB00BF1448C06C30
:101F300040F400501249C8640846C06C00F40050D8
:101F4000019000BF00BF00BF0846C06C40F0020017
:101F5000C8640846C06C00F00200019000BF00BFDA
:101F60004FF400401390032014900020159013A903
:101F7000044800F035F918B010BD00000001005011
:101F800000100240000400482DE9F0410446434897
:101F900002F0D4FB0646206802F0F2FB00287AD15A
:101FA00000BF94F85800012802D10220BDE8F0815A
:101FB000012084F8580000BF2046FFF715FB0546B6
:101FC000002D63D1E06D40F60161884340F48070DC
:101FD000E06533492068884202D14FF0A04000E01C
:101FE00020682168884200D01EB9E06D20F480107E
:101FF000E065E06D00F48050B0F5805F04D1206EA4
:1020000020F00600206601E0002020661C202168E8
:10201000086000BF002084F8580000BF20492068F5
:10202000884202D14FF0A04000E020682168884239
:1020300004D01EB1052E01D0092E0ED12068C06833
:1020400000F0007028B1E06D20F4005040F48050A2
:10205000E065206802F09AFB1EE0E06D40F480101D
:10206000E0650F492068884202D14FF0A04000E0AF
:1020700020680746F86800F0007068B1E06D20F451
:10208000005040F48050E06506E004E000BF00200E
:1020900084F8580000E00225284687E70003005036
:1020A000000100500146002209B90120704791F853
:1020B0002500022803D00420C863012227E0086815
:1020C000006820F001000B6818600868006820F0C4
:1020D0000E000B681860886C006820F480708B6CB0
:1020E000186091F8440000F01F03012098400B6C29
:1020F0005860D1E913305860486D40B1486D0068B0
:1021000020F480704B6D1860D1E9163058600120C2
:1021100081F8250000BF002081F8240000BF104690
:10212000C4E770B50446002594F8250002280BD0BA
:102130000420E063012084F8250000BF002084F81B
:10214000240000BF012534E02068006820F0010071
:10215000216808602068006820F00E00216808608F
:10216000A06C006820F48070A16C086094F84400B2
:1021700000F01F0101208840216C4860D4E9131051
:102180004860606D40B1606D006820F48070616DE2
:102190000860D4E916104860012084F8250000BFCB
:1021A000002084F8240000BFA06B10B12046A16B72
:1021B0008847284670BD000070B5044600F016F947
:1021C00006462546681C10B104480068054400BF57
:1021D00000F00CF9801BA842FAD370BD0800002063
:1021E00078B503460022D2E0012696400D6805EA44
:1021F0000604002C7BD00D7905F00305012D04D0D9
:102200000D7905F00305022D13D1986856000325BA
:10221000B540A8435600CD68B5402843986058683B
:1022200001259540A8430D79C5F300159540284335
:1022300058600D7905F00305032D07D10D7905F0E0
:102240000305032D0CD18D68012D09D0D8685600E7
:102250000325B540A84356008D68B5402843D86093
:102260000D7905F00305022D13D1D60803F12005E1
:1022700055F826005507EE0E0F25B540A843560722
:10228000F60E0D69B5402843D60803F1200545F840
:102290002600186856000325B540A8430D7905F0BF
:1022A00003055600B540284318604D6805F44035D5
:1022B000002D6BD000BF394D2D6E45F00105374E16
:1022C000356635462D6E05F00105009500BF00BF4F
:1022D0004FEAB635960855F8260095072E0F0F25BC
:1022E000B540A843B3F1904F02D100251AE04DE06C
:1022F0002B4DAB4201D1012514E02A4DAB4201D157
:1023000002250FE0284DAB4201D103250AE0274DFD
:10231000AB4201D1042505E0254DAB4201D1052595
:1023200000E006259607360FB5402843214D960854
:1023300045F82600204D2868A0434D6805F4801517
:1023400005B120431C4D28602D1D2868A0434D6811
:1023500005F4001505B12043174D2D1D2860164DBD
:102360002D1F2868A0434D6805F4003505B12043B2
:10237000114D2D1F28602D1F2868A0434D6805F4BE
:10238000803505B120430C4D083D2860521C0D6876
:10239000D540002D7FF428AF78BD0000001002402A
:1023A0000004004800080048000C004800100048E5
:1023B0000014004808000140080401400246136967
:1023C0000B400BB1012000E00020704710B54269BE
:1023D00021EA020302EA010443EA0443836110BDD7
:1023E0000AB1816100E08162704700000148006825
:1023F0007047000000000020034800680349096896
:1024000008440149086070470000002008000020CF
:1024100010B50024032000F0ABF80F2000F008F8FE
:1024200008B1012401E000F02FF8204610BD0000A3
:1024300070B50446002511480068D8B10F480068FF
:102440004FF47A71B1FBF0F00D490968B1FBF0F679
:10245000304600F025FF58B9102C07D20022214643
:10246000501E00F047F80748046004E0012502E030
:10247000012500E00125284670BD0000080000206D
:102480000C0000200400002008B500BF0E48006EBC
:1024900040F001000C4908660846006E00F001009B
:1024A000009000BF00BF00BF0846806D40F0805024
:1024B00088650846806D00F08050009000BF00BF26
:1024C00000F0F6F808BD0000001002400146084682
:1024D00000280DDB00BF00BF00F01F0301229A405F
:1024E00043099B0003F1E023C3F8002100BF00BFB4
:1024F00000BF70472DE9F05F80460D46164603F099
:102500009FFF074639462A46334601F00700C0F1CF
:10251000070ABAF1040F02D94FF0040A01E0C0F132
:10252000070AD14600F1040ABAF1070F02D24FF0B0
:10253000000A01E0A0F1030AD4464FF0010A0AFAAA
:1025400009FAAAF1010A0AEA020A0AFA0CFA4FF099
:10255000010B0BFA0CFBABF1010B0BEA030B4AEA84
:102560000B042146404603F073FFBDE8F09F0000D6
:1025700000BF00F00702064B19684FF6FF03194031
:10258000044B0B4343EA0221014B196000BF704723
:102590000CED00E00000FA0502468ABB41480068E5
:1025A00000F4C060B0F5806F2BD13E4880300068E9
:1025B00020F480703B4BC3F880001846006820F47C
:1025C000C06040F4007018603748006832235843F8
:1025D000364BB0FBF3F0411C00E0491E3148406926
:1025E00000F48060B0F5806F01D10029F5D12D484D
:1025F000406900F48060B0F5806F51D103207047CE
:1026000008E028488030006820F48070254BC3F82B
:10261000800045E0B2F5007F3AD12248006800F41E
:10262000C060B0F5806F2AD11E488030006840F449
:1026300080701C4BC3F880001846006820F4C0600E
:1026400040F4007018601848006832235843174B54
:10265000B0FBF3F0411C00E0491E1248406900F451
:102660008060B0F5806F01D10029F5D10D48406937
:1026700000F48060B0F5806F12D10320BFE70948F5
:102680008030006840F48070064BC3F8800007E09B
:102690000448006820F4C06040F48060014B18607A
:1026A0000020ACE7007000400C00002040420F000A
:1026B0000348806840F4804001498860704700000A
:1026C000007000402DE9F84304460027B846206812
:1026D00000F40020B0F5002F73D1B946D348806DC7
:1026E00000F0805078B900BFD048806D40F0805035
:1026F000CE4988650846806D00F08050009000BF8C
:1027000000BF4FF00109CA48006840F48070C84912
:102710000860FFF76BFE064606E0FFF767FE801BCA
:10272000022801D9032705E0C148006800F4807041
:102730000028F2D000BF002F46D1BC48903000687E
:1027400000F44075CDB1206CA84216D0B748903047
:10275000006820F44075B548D0F8900040F480300F
:10276000B249C1F890000846D0F8900020F48030BB
:10277000C1F890000846C0F8905005F00100A0B1E3
:10278000FFF734FE064608E0FFF730FE801B41F2FB
:102790008831884201D9032706E0A44890300068B8
:1027A00000F002000028EFD000BF5FB99F489030D2
:1027B000006820F44070216C08439C49C1F89000E7
:1027C00003E00CE0B84600E0B846B9F1010F05D1CE
:1027D0009648806D20F080509449886500BF20782D
:1027E00000F0010048B191488830006820F00300F3
:1027F000616808438D49C1F88800207800F0020024
:10280000022809D189488830006820F00C00A168AE
:1028100008438649C1F88800207800F004000428A5
:1028200009D182488830006820F03000E168084310
:102830007E49C1F88800207800F00800082809D1F6
:102840007A488830006820F0C00021690843774941
:10285000C1F88800207800F02000202809D17348B2
:102860008830006820F44060616908436F49C1F80E
:102870008800207800F04000402809D16B4888305B
:10288000006820F44050A16908436849C1F88800F5
:10289000207800F08000802809D1644888300068E2
:1028A00020F44040E16908436049C1F8880020886D
:1028B00000F48070B0F5807F09D15C4888300068F2
:1028C00020F44030216A08435849C1F88800208824
:1028D00000F40070B0F5007F09D1544888300068DA
:1028E00020F44020616A08435049C1F888002088DC
:1028F00000F48060B0F5806F13D14C4888300068D8
:1029000020F44010A16A0843484988310860A06A51
:10291000B0F5801F05D14548C06840F48010434998
:10292000C860208800F40060B0F5006F13D13F4804
:102930008830006820F44000E16A08433B49883150
:102940000860E06AB0F5800F05D13848C06840F4EF
:1029500080103649C860208800F48050B0F5805F50
:1029600013D132488830006820F04070216B084352
:102970002E4988310860206BB0F1807F05D12B484B
:10298000C06840F480102949C860208800F40050D5
:10299000B0F5005F13D125488830006820F0406012
:1029A000616B0843214988310860606BB0F1006FAA
:1029B00005D11E48C06840F480101C49C8602088BA
:1029C00000F48040B0F5804F13D11848883000687B
:1029D00020F04060A16B0843144988310860A06B67
:1029E000B0F1006F05D11148C06840F480100F4964
:1029F000C860208800F40040B0F5004F13D10B48A8
:102A00008830006820F04050E16B08430749883166
:102A10000860E06BB0F1805F05D10448C06840F405
:102A200080300249C8604046BDE8F883001002408B
:102A3000007000402DE9F04104460D464FF00008BB
:102A400014B90120BDE8F0817D48006800F00F0056
:102A5000A8420ED27A48006820F00F002843784937
:102A600008600846006800F00F00A84201D001206D
:102A7000E8E7207800F00100002864D060680328AF
:102A800023D17048006800F0007008B90120D9E730
:102A900002F03AF806466C48864237D969488068A1
:102AA00000F0F00030B1207800F0020002282DD1B3
:102AB000A06858BB6348806820F0F00040F08000B8
:102AC000604988604FF0800820E06068022806D1E5
:102AD0005C48006800F4003040B90120B2E7594872
:102AE000006800F4806008B90120ABE700F0DEF870
:102AF00006465548864209D95248806820F0F000C1
:102B000040F080004F4988604FF080084D48806851
:102B100020F00300616808434A498860FFF766FCBB
:102B2000074608E0FFF762FCC01B41F2883188428B
:102B300001D9032086E74348806800F00C006168F3
:102B4000B0EB810FEED1207800F00200022820D1F6
:102B5000207800F00400042805D13A48806840F449
:102B6000E06038498860207800F00800082807D124
:102B70003448806820F4605040F4E0603149886057
:102B80003048806820F0F000A16808432D49886033
:102B900008E0B8F1800F05D12A48806820F0F000E5
:102BA000284988602648006800F00F00A84219D91B
:102BB0002348006820F00F00284321490860FFF7F0
:102BC00015FC074608E0FFF711FCC01B41F28831F5
:102BD000884201D9032035E71948006800F00F004A
:102BE000A842F0D1207800F00400042807D115484D
:102BF000806820F4E060E16808431249886020782A
:102C000000F00800082808D10E48806820F46050C1
:102C1000216940EAC1000B49886000F047F8094982
:102C20008968C1F30311094A515C01F01F01C840D2
:102C30000749086007480068FFF7FAFB02E7000051
:102C4000002002400010024000B4C40406740008D2
:102C50000C000020040000200148006870470000BC
:102C60000C00002000B5FFF7F7FF05498968C1F3A4
:102C70000221044A515C01F01F01C84000BD000060
:102C8000001002401674000800B5FFF7E5FF054983
:102C90008968C1F3C221044A515C01F01F01C84098
:102CA00000BD0000001002401674000870B5224DEF
:102CB000AD6805F00C05042D01D120483AE01E4D09
:102CC000AD6805F00C05082D01D11D4832E01A4D04
:102CD000AD6805F00C050C2D2BD1174DED6805F0F6
:102CE0000304154DED68C5F303156A1C022C0CD0C6
:102CF000032C09D1124DB5FBF2F50F4EF668C6F361
:102D0000062605FB06F10AE000BF0C4DB5FBF2F507
:102D1000094EF668C6F3062605FB06F100BF00BFA4
:102D2000054DED68C5F341656D1C6B00B1FBF3F01B
:102D300000E0002070BD0000001002400024F400FC
:102D400000366E012DE9F843044614B90120BDE8B0
:102D5000F883207800F00100002865D0FC488068E6
:102D600000F00C07FA48C06800F003060C2F01D1F0
:102D7000032E01D0082F0AD1F548006800F4003076
:102D8000002851D0606800284ED10120DFE700BF45
:102D90006068B0F5803F06D1ED48006840F48030AF
:102DA000EB4908601AE06068B0F5A02F0BD1E84845
:102DB000006840F48020E64908600846006840F456
:102DC000803008600AE0E248006820F48030E04982
:102DD00008600846006820F48020086000BF606832
:102DE00088B1FFF703FB054606E0FFF7FFFA401B3B
:102DF000642801D90320AAE7D548006800F4003010
:102E00000028F2D010E0FFF7F1FA054606E0FFF7E0
:102E1000EDFA401B642801D9032098E7CC480068EC
:102E200000F400300028F2D1207800F002000228DF
:102E300060D1C748806800F00C07C548C06800F042
:102E400003060C2F01D1022E01D0042F18D1C04847
:102E5000006800F4806018B1E06808B9012076E7E6
:102E6000BB48406820F0FE40217C40EA0160B84940
:102E70004860B8480068FFF7DBFA18B3012066E73E
:102E8000E06800B3B248006840F48070B049086060
:102E9000FFF7ACFA054606E0FFF7A8FA401B022848
:102EA00001D9032053E7AA48006800F48060002895
:102EB000F2D0A748406820F0FE40217C40EA016043
:102EC000A349486016E0A248006820F48070A04939
:102ED0000860FFF78BFA054606E0FFF787FA401B0C
:102EE000022801D9032032E79948006800F4806085
:102EF0000028F2D1207800F00800082836D1606957
:102F0000D0B193489430006840F001009049C1F876
:102F10009400FFF76BFA054606E0FFF767FA401BDF
:102F2000022801D9032012E789489430006800F094
:102F300002000028F1D019E085489430006820F0A4
:102F400001008349C1F89400FFF750FA054606E0F6
:102F5000FFF74CFA401B022801D90320F7E67C4812
:102F60009430006800F002000028F1D1207800F0D1
:102F70000400042872D14FF000087548806D0121CB
:102F800021EA107078B100BF7148806D40F0805028
:102F90006F4988650846806D00F08050009000BF42
:102FA00000BF4FF001086C48006800F48070B0B9B1
:102FB0006948006840F4807067490860FFF716FAB6
:102FC000054606E0FFF712FA401B022801D903204C
:102FD000BDE66148006800F480700028F2D000BFB0
:102FE000A068012808D15A489030006840F00100DC
:102FF0005749C1F8900021E0A06805280FD1544836
:103000009030006840F004005149C1F89000084633
:10301000D0F8900040F00100C1F890000EE04C485C
:103020009030006820F001004949C1F8900008463E
:10303000D0F8900020F00400C1F8900000BFA06814
:10304000A8B1FFF7D3F9054609E0FFF7CFF9401B18
:1030500041F28831884202D9032078E625E03C48D5
:103060009030006800F002000028EED013E0FFF777
:10307000BDF9054608E0FFF7B9F9401B41F2883178
:10308000884201D9032062E631489030006800F0A0
:1030900002000028EFD1B8F1010F05D12C48806D56
:1030A00020F080502A49886500BF207800F0200079
:1030B000202836D1A069D0B125489830006840F06A
:1030C00001002349C1F89800FFF790F9054606E092
:1030D000FFF78CF9401B022801D9032037E61C4872
:1030E0009830006800F002000028F1D019E018487C
:1030F0009830006820F001001549C1F89800FFF7EA
:1031000075F9054606E0FFF771F9401B022801D961
:1031100003201CE60E489830006800F002000028EA
:10312000F1D1E069002860D00948806800F00C0007
:103130000C287AD0E069022858D10548006820F0B0
:10314000807003490860FFF751F905460DE0000063
:10315000001002400400002000700040FFF746F914
:10316000401B022801D90320F1E54A48006800F01D
:1031700000700028F2D1D4E90810401E41EA001185
:10318000A06A41EA0021208E0122C2EB500041EAF0
:1031900040513420005DC2EB500041EA40612C20D8
:1031A000005D41EAC0603B49C9683B4A11400843A1
:1031B0003849C8600846006840F0807008600846DA
:1031C000C06840F08070C860FFF710F9054606E05F
:1031D000FFF70CF9401B022801D90320B7E52D4861
:1031E000006800F000700028F2D051E02948006823
:1031F00020F0807027490860FFF7F8F8054606E0E0
:10320000FFF7F4F8401B022801D903209FE521486D
:10321000006800F000700028F2D11E48C0681F4905
:1032200008401C49C86033E0FFE7E069012800D18D
:103230008DE51848C66806F00301206A814225D151
:1032400006F0F001606A401EB1EB001F1ED106F4CB
:10325000FE41A06AB1EB002F18D106F078412C2076
:10326000005DB1EBC06F11D106F4C001208E0122C8
:10327000C2EB5000B1EB405F08D106F0C0613420D2
:10328000005DC2EB5000B1EB406F01D001205EE564
:1032900000205CE5001002400C809F01FCFFEEFE68
:1032A00070B504462546681EB0F1807F01D3012029
:1032B0000FE0681E4FF0E02148610F214FF0FF3012
:1032C00003F0C6F800204FF0E02188610720086174
:1032D000002070BD70477047704770477047704757
:1032E00030B502460B4600BF92F83C00012801D1E0
:1032F000022030BD012082F83C0000BF022082F88D
:103300003D0010684168106884681D4D1068A8422F
:1033100003D01C4D1068A84203D121F470015868F5
:103320000143194801401868014310684160144D79
:103330001068A84213D01068B0F1804F0FD0134D21
:103340001068A8420BD0124D1068A84207D00D4D4E
:103350001068A84203D00F4D1068A84205D124F090
:1033600080049868044310688460012082F83D005E
:1033700000BF002082F83C0000BF00BFB9E700009A
:10338000002C0140003401408FFFFFFD000400408D
:103390000008004000400140704710B504460CB9D9
:1033A000012010BD94F83D0028B9002084F83C00AD
:1033B000204600F029F8022084F83D00211D2068F5
:1033C00001F0B2FD012084F8480000BF84F83E00FF
:1033D00001213F2001554020015541200155422047
:1033E00001554320015500BF00BF012084F844006F
:1033F00045200155462001554720015500BF0120B9
:1034000084F83D000020CCE738B504460D4920681B
:10341000884215D100BF0C48806D40F010000A4969
:1034200088650846806D00F01000009000BF00BF66
:10343000002201213620FFF75DF83620FFF746F81D
:1034400038BD00000010004000100240014691F815
:103450003D00012801D001207047022081F83D0085
:103460000868C06840F001000B68D860184B086815
:10347000984213D00868B0F1804F0FD0154B086800
:1034800098420BD0144B0868984207D0134B086839
:10349000984203D0124B0868984210D1086880689F
:1034A000104B00EA0302062A0FD0B2F5803F0CD081
:1034B0000868006840F001000B68186005E00868C3
:1034C000006840F001000B6818600020C4E70000AD
:1034D000002C01400004004000080040003401407E
:1034E0000040014007000100704770B504462068A5
:1034F000C6682068056905F00200022819D106F0A7
:103500000200022815D1401F2168086101202077A0
:103510002068806900F0030018B12046FFF7E4FF3F
:1035200005E0204600F020F9204600F025FA0020B2
:10353000207705F00400042819D106F004000428BF
:1035400015D1C04321680861022020772068806976
:1035500000F4407018B12046FFF7C6FF05E0204692
:1035600000F002F9204600F007FA0020207705F06D
:103570000800082819D106F00800082815D1C04312
:1035800021680861042020772068C06900F00300EA
:1035900018B12046FFF7A8FF05E0204600F0E4F848
:1035A000204600F0E9F90020207705F010001028EF
:1035B00019D106F01000102815D1C0432168086108
:1035C000082020772068C06900F4407018B12046B8
:1035D000FFF78AFF05E0204600F0C6F8204600F01D
:1035E000CBF90020207705F0010048B106F001007A
:1035F00030B16FF0010021680861204600F064FAE4
:1036000005F08000802804D005F40050B0F5005F7C
:103610000AD106F08000802806D16FF4025021689C
:1036200008612046FFF757FE05F48070B0F5807FF3
:103630000AD106F08000802806D16FF480702168DE
:1036400008612046FFF746FE05F04000402809D1FA
:1036500006F04000402805D1C0432168086120469B
:1036600000F044FA05F02000202809D106F02000DF
:10367000202805D1C043216808612046FFF72CFEB1
:1036800005F48010B0F5801F0BD106F48010B0F562
:10369000801F06D16FF48010216808612046FFF773
:1036A0001DFE05F40010B0F5001F0BD106F400104C
:1036B000B0F5001F06D16FF40010216808612046A4
:1036C000FFF70BFE05F48000B0F5800F0BD106F478
:1036D0008000B0F5800F06D16FF48000216808618A
:1036E0002046FFF7FCFD05F40000B0F5000F0BD1FC
:1036F00006F40000B0F5000F06D16FF40000216859
:1037000008612046FFF748FE70BD000010B586B086
:103710000446142101A8FCF72EFF114920688842B5
:103720001BD100BF0F48C06C40F001000D49C864B8
:103730000846C06C00F00100009000BF00BF802070
:103740000190022002900020039004900220059036
:1037500001A94FF09040FEF743FD06B010BD0000F8
:10376000000400400010024070472DE9F04104467B
:103770000D461646002700BF94F83C00012802D1F0
:103780000220BDE8F081012084F83C0000BF0C2E2F
:1037900051D005DC4EB1042E1ED0082E7AD133E074
:1037A000102E60D0142EF9D175E02946206801F062
:1037B0002FFC2068806940F008002168886120683B
:1037C000806920F004002168886120688069296987
:1037D00008432168886178E02946206801F070FC80
:1037E0002068806940F400602168886120688069F1
:1037F00020F480602168886120688069296940EA36
:1038000001202168886160E02946206801F0B4FC4D
:103810002068C06940F008002168C8612068C0695C
:1038200020F004002168C8612068C0692969084344
:103830002168C86149E02946206801F0F9FC206848
:10384000C06940F400602168C8612068C06920F444
:1038500080602168C8612068C069296940EA012048
:103860002168C86131E02946206801F03DFD2068EB
:10387000006D40F00800216808652068006D20F0A8
:103880000400216808652068006D296908432168E3
:1038900008651AE017E02946206801F05DFD206800
:1038A000006D40F40060216808652068006D20F418
:1038B0008060216808652068006D296940EA012060
:1038C0002168086501E0012700BF00BF00BF00209C
:1038D00084F83C0000BF384653E710B504460CB9E5
:1038E000012010BD94F83D0028B9002084F83C0068
:1038F000204600F029F8022084F83D00211D2068B0
:1039000001F012FB012084F8480000BF84F83E005B
:1039100001213F2001554020015541200155422001
:1039200001554320015500BF00BF012084F8440029
:1039300045200155462001554720015500BF012073
:1039400084F83D000020CCE708B5094A016891429F
:103950000DD100BF0749896D41F00201054A91650B
:103960001146896D01F00201009100BF00BF08BD42
:1039700000040040001002407047000070B504468B
:103980000D4615B994F83E0015E0042D02D13F20F4
:10399000005D10E0082D02D14020005D0BE00C2DF1
:1039A00002D14120005D06E0102D02D14220005DD1
:1039B00001E04320005D012801D0012070BD1DB948
:1039C000022084F83E001AE0042D03D102213F209A
:1039D000015514E0082D03D10221402001550EE0CD
:1039E0000C2D03D102214120015508E0102D03D1F7
:1039F00002214220015502E002214320015501220B
:103A00002946206801F0F2FA2749206888420FD041
:103A10002649206888420BD025492068884207D073
:103A200024492068884203D023492068884201D174
:103A3000012000E0002028B12068406C40F40040E4
:103A40002168486418492068884213D02068B0F182
:103A5000804F0FD01949206888420BD01849206840
:103A6000884207D011492068884203D01049206855
:103A7000884210D120688068124900EA0106062EAB
:103A80000FD0B6F5803F0CD02068006840F00100F0
:103A90002168086005E02068006840F001002168A6
:103AA000086000208AE70000002C0140003401403B
:103AB0000040014000440140004801400004004033
:103AC000000800400700010010B504460648844283
:103AD00009D102F0F1FD02F06BFE02F015FD02F0DB
:103AE000DDFC02F00BFF10BDE8000020704701462E
:103AF00000BF91F88400012801D102207047012005
:103B000081F8840000BF2420C1F88800086802689A
:103B10000868006820F001000B68186022F000526D
:103B200000204866086802602020C1F8880000BFB5
:103B3000002081F8840000BF00BFDFE770477047B6
:103B400070B504460D4600BF94F88400012801D1E9
:103B5000022070BD012084F8840000BF2420C4F836
:103B60008800206806682068006820F0010021684D
:103B700008602068806820F06060284321688860C1
:103B8000204601F021FC206806602020C4F888004F
:103B900000BF002084F8840000BF00BFD9E770B5E3
:103BA00004460D4600BF94F88400012801D102208C
:103BB00070BD012084F8840000BF2420C4F8880070
:103BC000206806682068006820F00100216808600D
:103BD0002068806820F06040284321688860204683
:103BE00001F0F2FB206806602020C4F8880000BFC6
:103BF000002084F8840000BF00BFD9E770477047F9
:103C0000704700002DE9F04704462068C569206828
:103C100006682068876840F60F0005EA0009B9F1D8
:103C2000000F0FD105F0200060B106F0200010B9A0
:103C300007F0805030B1606F10B12046616F884747
:103C4000BDE8F087B9F1000F7ED0DF48384018B9E1
:103C5000DE4830400028F7D005F0010058B106F4E6
:103C6000807040B1012021680862D4F8900040F0D3
:103C70000100C4F8900005F0020058B107F00100FF
:103C800040B1022021680862D4F8900040F004009E
:103C9000C4F8900005F0040058B107F0010040B1ED
:103CA000042021680862D4F8900040F00200C4F8B3
:103CB000900005F0080070B106F0200010B9C2486D
:103CC000384040B1082021680862D4F8900040F0E4
:103CD0000800C4F8900005F4006060B106F0806050
:103CE00048B14FF4006021680862D4F8900040F0B9
:103CF0002000C4F89000D4F89000002852D005F0BD
:103D0000200050B106F0200010B907F0805020B11B
:103D1000606F10B12046616F8847D4F890A020688A
:103D2000806800F04000402802D00AF0280070B3FC
:103D3000204601F06DFC2068806800F040004028BB
:103D400026D100BF00BF00E02DE02168083151E816
:103D5000001F21F040002168083141E80002002ADC
:103D6000F1D100BFD4F8800068B19948D4F8801030
:103D70008863D4F88000FEF7D4F998B1D4F88000B5
:103D8000816B88470EE02046FFF73AFF0AE003E028
:103D90002046FFF735FF05E02046FFF731FF002002
:103DA000C4F890004CE7E06E012865D105F01000E2
:103DB000002861D006F010000028FAD010202168F9
:103DC00008622068806800F0400040287AD1D4F86A
:103DD0008000006840681FFA80F8B8F1000F5CD0DE
:103DE000B4F85C00404558DDA4F85E80D4F880004B
:103DF0000068006800F02000E8BB00BF00BF216839
:103E000051E8001F21F48070226842E80001002977
:103E1000F5D100BF00BF00BF2168083151E8001F85
:103E200021F001002168083141E80002002AF3D1A5
:103E300000BF00BF00BF2168083151E8001F21F01A
:103E400040002168083141E80002002AF3D100BF98
:103E50002020C4F88C000020E06600BF00BF21686D
:103E600051E8001F21F01000226842E800010029FB
:103E7000F5D100BF01E004E068E0D4F88000FEF76F
:103E800011F902202067B4F85C00B4F85E20801AB3
:103E900081B22046FFF752FE12E0B4F85C004045C4
:103EA0000ED1D4F880000068006800F020002028BF
:103EB00006D102202067B4F85C102046FFF73EFED2
:103EC000BEE6FFE734F85C0F6188401A1FFA80F8FD
:103ED00060885C3CC8B3B8F1000F36D000BF00BFAB
:103EE000216851E8001F21F49070226842E8000127
:103EF0000029F5D100BF00BF00BF2168083151E89B
:103F0000001F314AD24301EA02002168083141E82A
:103F10000002002AF1D100BF2020C4F88C0000204C
:103F2000E066606700BF00BF216851E8001F21F014
:103F30001000226842E800010029F5D100BF0220EC
:103F4000206741462046FFF7F9FD79E605F4801029
:103F500050B107F4800038B14FF480102168086236
:103F60002046FFF74CFE6BE605F0800058B106F0E6
:103F7000800010B907F4000028B1A06F10B12046EE
:103F8000A16F88475CE605F0400030B106F04000C4
:103F900018B1204601F072FB52E605F4000030B182
:103FA00006F0804018B12046FFF728FE48E605F0ED
:103FB000807030B106F0004018B12046FFF7BFFD19
:103FC0003EE600BF3CE600000100001020010004B6
:103FD0000356000810B504460CB9012010BDA069B5
:103FE00000B100E000BFD4F8880028B9002084F8B0
:103FF0008400204600F02AF82420C4F888002068B5
:10400000006820F0010021680860A06A10B1204615
:1040100001F006FA204601F04BFE012800D1DDE751
:104020002068406820F490402168486020688068DB
:1040300020F02A00216888602068006840F00100B4
:1040400021680860204601F067FAC7E710B598B00C
:104050000446142113A8FCF78EFA442102A8FCF7A9
:104060008AFA2149206888423BD101200290002031
:10407000039002A8FEF726FB08B1FDF72BFB00BF5B
:104080001A48006E40F48040184908660846006EE1
:1040900000F48040019000BF00BF00BF0846C06C24
:1040A00040F00100C8640846C06C00F001000190B7
:1040B00000BF00BF4FF4C060139002201490002096
:1040C000159016900720179013A94FF09040FEF717
:1040D00087F8002211462520FEF70CFA2520FEF76E
:1040E000F5F918B010BD0000003801400010024082
:1040F00070B504460D461646D4F88C00202821D110
:1041000005B10EB9012070BD0020E0660E4920689F
:10411000884211D02068406800F4000060B100BF00
:1041200000BF216851E8001F41F08060226842E82A
:1041300000010029F5D100BF32462946204601F092
:1041400079FFE0E70220DEE70080004010B504467A
:104150000248844201D102F0F5FB10BD3401002079
:1041600030B50346D3F88800202845D101B10AB9FB
:10417000012030BD43F8501F9A80DA8000209862F9
:104180001864212098635869503BB0F1005F19D141
:104190009868B0F5805F04D1186910B9174898671E
:1041A00001E01748986700BF00BF1C68083454E856
:1041B000004F44F400001C68083444E80005002D5A
:1041C000F3D117E09868B0F5805F04D1186910B991
:1041D0000C48986701E00C48986700BF00BF1C6856
:1041E00054E8004F44F080001D6845E80004002CAE
:1041F000F5D100BF0020BCE70220BAE7F361000858
:10420000D16200089161000875620008704700BF24
:10421000FEE7000000B585B014216846FCF7ABF955
:104220004FF6FF70009000200190032003900020C3
:10423000029069460248FDF7D3FF05B000BD0000BB
:104240000008004800B585B014216846FCF793F9D2
:104250004FF6FF7000900120019003200390002092
:10426000029069460248FDF7BBFF05B000BD0000A3
:104270000008004870B50546002204210E48FEF7EC
:10428000AFF80E48066800240021084600F07AF9CD
:1042900000F0C8F900BF03E0284600F087F9641C6D
:1042A000B4F5963FF8D30548066001220421024880
:1042B000FEF796F870BD0000000C00481408004896
:1042C00000B587B0142102A8FCF755F900BF2A48B1
:1042D000C06C40F004002849C8640846C06C00F077
:1042E0000400019000BF00BF00BF0846C06C40F052
:1042F0000100C8640846C06C00F00100019000BFD6
:1043000000BF00BF0846C06C40F00200C864084609
:10431000C06C00F00200019000BF00BF4FF4487075
:1043200002900120039000200590049002A91348F8
:10433000FDF756FF4FF4807002900120039000209B
:104340000590049002A94FF09040FDF749FFFFF758
:1043500079FF4FF09040806940F480704FF09041B9
:10436000886106481830006840F408700349183125
:10437000086007B000BD00000010024000040048C3
:1043800070B505460E461446A4F12000C4B204EBF5
:104390004400044901EB00123146284600F030F891
:1043A00070BD00001E7400082DE9F04107460C4660
:1043B000002204211048FEF713F81048D0F80080BE
:1043C000002540F23F1609E0227831463846FFF7D3
:1043D000D7FFA6F1100086B2641C6D1C207808B1CE
:1043E000142DF1D30548C0F80080012204210248B1
:1043F000FDF7F6FFBDE8F081000C00481408004806
:104400002DE9F04306468946174600240025A046BC
:10441000B0464946404600F0B5F800BF1EE000F047
:1044200001F900250FE037F814000121A9400840E8
:1044300020B90C48008800F0B9F803E00A48008869
:1044400000F0B4F86D1C102DEDD308F1010000F060
:10445000FF084946404600F095F8641C182CDED34E
:10446000BDE8F083180000201600002010B50022DF
:1044700004211248FDF7B4FF11480468FFF720FF3C
:10448000002000F021F80F4908800846008848F213
:104490003021884202D100F06BFB01E000F0F8FB14
:1044A000002000F011F80749088005480460012247
:1044B00004210248FDF794FF10BD0000000C0048E5
:1044C000140800481A00002070B504462748006808
:1044D00040F40070254908600846006840F4807088
:1044E000086022481038006840F020001F49103949
:1044F00008601F4804601D48006840F020001B4908
:10450000086000BF00BF00BF18481038006840F0C6
:1045100020001649103908600846006840F4807091
:104520000860FFF777FE4FF09040806A40F480709B
:104530004FF09041886200BF00BF00BF0C48001FD1
:10454000006885B24FF09040806940F480704FF071
:1045500090418861FFF776FE04481038006840F407
:104560000070024910390860284670BD28040048D0
:104570001408004801B5BDF800000149088008BDD5
:104580001800002030B504460D462146202000F0DA
:1045900085F82946212000F081F830BD01B5BDF82D
:1045A00000000149088008BD160000201B49096869
:1045B00041F40071194A116018491039096841F431
:1045C0008071164A103A11601146096841F02001C5
:1045D0001160134908601149096841F020010F4A30
:1045E000116000BF00BF00BF0C491039096841F0DD
:1045F00020010A4A103A11601146096841F480719D
:10460000116000BF00BF00BF04491039096841F4C0
:104610000071024A103A11607047000028040048F7
:10462000140800481B48006840F4007019490860ED
:104630000846006840F4807008601648103800682A
:1046400040F0200013491039086022201249086008
:104650001048006840F020000E49086000BF00BF0D
:1046600000BF0C481038006840F02000094910399C
:1046700008600846006840F48070086000BF00BF12
:1046800000BF04481038006840F400700149103938
:10469000086070472804004814080048214A12683E
:1046A00042F400721F4B1A601A46126842F480727C
:1046B0001A601C4A103A126842F02002194B103B53
:1046C0001A60194A1060174A126842F02002154B0E
:1046D0001A6000BF00BF00BF124A103A126842F0D1
:1046E0002002104B103B1A601A46126842F4807286
:1046F0001A600D4A11600B4A126842F02002094B01
:104700001A6000BF00BF00BF064A103A126842F0AC
:104710002002044B103B1A601A46126842F4807261
:104720001A60704728040048140800488168024A4B
:104730001140491C81607047C0FFFF7F01468868B7
:1047400000F01F007047024602F1600000EB810399
:10475000186800F0F840704701468868C0F3C00050
:10476000704701468868C0F340007047014688687A
:1047700000F00100704701468868C0F30070704780
:1047800001468868C0F38000704700008168024AD3
:104790001140091D81607047C0FFFF7F70B500F1B7
:1047A0001404C1F3406504EB85031C68C1F304568F
:1047B0000725B540AC43C1F3045502FA05F52C4377
:1047C0001C6070BD826822F0E0720A43826070470C
:1047D00010B500F1600404EB81031C6824F0004470
:1047E00014431C6010BD426922F000420A4342613A
:1047F0007047000000B589B0202101A8FBF7BBFE7F
:104800001A481B490860400248600021184881602E
:10481000C16001614161042181610021017741771B
:1048200001210162002180F82410C162016380F837
:104830003810C16380F84010FDF730FA08B1FCF77A
:1048400049FF0C48019006200290002003907F2031
:104850000490042005900020069001A90448FCF76C
:1048600095FF08B1FCF736FF09B000BD000100500C
:10487000300000200080F03E00B587B0142102A86F
:10488000FBF779FE00BF4A48C06C40F0040048497D
:10489000C8640846C06C00F00400019000BF00BF6F
:1048A00000BF0846C06C40F02000C8640846C06CD9
:1048B00000F02000019000BF00BF00BF0846C06CA0
:1048C00040F00100C8640846C06C00F0010001908F
:1048D00000BF00BF00BF0846C06C40F00200C864C3
:1048E0000846C06C00F00200019000BF00BF00BF8E
:1048F0000846C06C40F00800C8640846C06C00F070
:104900000800019000BF00BF00224FF6BF71294888
:10491000FDF766FD00224FF480714FF09040FDF7E7
:104920005FFD002204212448FDF75AFD00224FF4C8
:1049300008712248FDF754FD4FF6BF700290012028
:10494000039000200490059002A91A48FDF748FC46
:1049500007200290002003900120049002A917482C
:10496000FDF73EFC4FF48070029001200390002080
:104970000490059002A94FF09040FDF731FC04200F
:1049800002900120039000200490059002A90A489B
:10499000FDF726FC4FF408700290012003900020E0
:1049A0000490059002A90548FDF71AFC07B000BD68
:1049B0000010024000080048000C004800040048B5
:1049C00000B58BB00020089009900A901C2101A826
:1049D000FBF7D1FD1848194908604F2048600021B5
:1049E0001648816040F2E731C160002101618161B8
:1049F000FEF773FF08B1FCF76DFE002008900A90E7
:104A000008A90E48FEF76CFC08B1FCF763FE6020B5
:104A1000019064200290002003900590042201A9D7
:104A20000648FEF7A2FE08B1FCF754FE0348FEF765
:104A30006DFE0BB000BD0000000400409C00002093
:104A40000EB500200090019002900F480F490860B9
:104A500040F21F30486000210C48816042F20F7123
:104A6000C16000218161FEF798FC08B1FCF732FEBD
:104A700000200090029069460448FEF731FC08B11E
:104A8000FCF728FE0EBD000000100040E8000020EA
:104A900010B51848184908604FF4165048600021B6
:104AA00015488160C16001610C2141610021816173
:104AB000C1610162416200200F4988620846FFF728
:104AC00089FA08B1FCF706FE00210B48FFF767F8EA
:104AD00008B1FCF7FFFD00210748FFF731F808B1E6
:104AE000FCF7F8FD0448FFF702F808B1FCF7F2FD07
:104AF00010BD0000003801403401002000BFFEE777
:104B000000BFFEE77047000070B5164DED6805F078
:104B10000304144DED68C5F303156B1C022C0CD077
:104B2000032C09D1104DB5FBF3F50E4EF668C6F314
:104B3000062605FB06F10AE000BF0C4DB5FBF3F5B8
:104B4000084EF668C6F3062605FB06F100BF00BF57
:104B5000044DED68C5F341656D1C6A00B1FBF2F0D0
:104B600070BD00000010024000366E010024F40009
:104B700000B501210020FFF791FD4FF47A70FCF79A
:104B80009AFD00210120FFF789FD41F2907110206C
:104B9000FFF784FD4FF41C516020FFF77FFD0121DA
:104BA0006120FFF77BFD02214620FFF777FD48F2E9
:104BB00010011320FFF772FD48F2FE011220FFF7EB
:104BC0006DFD4FF4A0610220FFF768FD41F2300156
:104BD0000320FFF763FD40F203313020FFF75EFD55
:104BE00040F203313120FFF759FD40F2033132200A
:104BF000FFF754FD4FF440713320FFF74FFD0321C1
:104C00003420FFF74BFD40F203313520FFF746FD1E
:104C100014213620FFF742FD40F203313720FFF721
:104C20003DFD40F203313820FFF738FD40F20331FB
:104C30003920FFF733FD4FF440713A20FFF72EFD86
:104C400003213B20FFF72AFD40F203313C20FFF710
:104C500025FD4FF4A0513D20FFF720FD4FF40071DA
:104C60009220FFF71BFD40F203319320FFF716FD62
:104C700040F60D019020FFF711FD41F218010320CD
:104C8000FFF70CFD40F273110720FFF707FD00BD91
:104C900010B543F20801E320FFF700FD1221E720E1
:104CA000FFF7FCFC41F23121EF20FFF7F7FC002178
:104CB0000120FFF7F3FC4FF4E0610220FFF7EEFC68
:104CC00041F230010320FFF7E9FC00210420FFF747
:104CD000E5FC40F207210820FFF7E0FC0021092055
:104CE000FFF7DCFC00210A20FFF7D8FC00210C2094
:104CF000FFF7D4FC00210D20FFF7D0FC00210F208E
:104D0000FFF7CCFC00211020FFF7C8FC0721112081
:104D1000FFF7C4FC00211220FFF7C0FC0021132084
:104D2000FFF7BCFCC820FDF747FA41F29061102064
:104D3000FFF7B4FC40F227211120FFF7AFFC32202F
:104D4000FDF73AFA1D211220FFF7A8FC3220FDF7EB
:104D500033FA4FF400611320FFF7A0FC142129203F
:104D6000FFF79CFC0B212B20FFF798FC3220FDF76E
:104D700023FA00212020FFF791FC00212120FFF7DA
:104D80008DFC07213020FFF789FC40F207713120AC
:104D9000FFF784FC06213220FFF780FC40F204710B
:104DA0003520FFF77BFC41F604713620FFF776FCD7
:104DB00004213720FFF772FC00213820FFF76EFC3A
:104DC00040F206713920FFF769FC40F201713C2086
:104DD000FFF764FC0F213D20FFF760FC002150200D
:104DE000FFF75CFCEF215120FFF758FC0021522017
:104DF000FFF754FC40F23F115320FFF74FFC4FF4F4
:104E00001C516020FFF74AFC01216120FFF746FC9E
:104E100000216A20FFF742FC00218020FFF73EFCC2
:104E200000218120FFF73AFC00218220FFF736FCA9
:104E300000218320FFF732FC00218420FFF72EFCA5
:104E400000218520FFF72AFC10219020FFF726FC87
:104E500000219220FFF722FC03219320FFF71EFC84
:104E60004FF488719520FFF719FC00219720FFF778
:104E700015FC00219820FFF711FC41F218010320D6
:104E8000FFF70CFC40F273110720FFF707FC10BD81
:104E9000704710B5FDF7B0FA10BD00B593B03821DA
:104EA00005A8FBF768FB14216846FBF764FB4FF489
:104EB0000070FDF771FB01200590000406900220B0
:104EC0000C9003210D910E9114210F91022110914C
:104ED0001191129105A8FDF735FF08B1FCF7FAFB17
:104EE0000F20009003200190002002900390049076
:104EF00002216846FDF79EFD08B1FCF7EBFB13B0FD
:104F000000BD00000348006840F4700001490860DB
:104F10007047000088ED00E010B50248FEF7E5FAA2
:104F200010BD0000E800002010B50268284B984230
:104F30000BD0B0F1804F08D0264B984205D0264BBD
:104F4000984202D0254B984203D122F070024B6860
:104F50001A431F4B984214D0B0F1804F11D01D4B13
:104F600098420ED01C4B98420BD01C4B984208D054
:104F70001B4B984205D01B4B984202D01A4B9842CB
:104F800003D122F44072CB681A4322F080034C69AB
:104F900043EA04028B68C3620B6883620C4B98423D
:104FA0000BD00E4B984208D00D4B984205D00D4BBC
:104FB000984202D00C4B984201D10B6903630368FD
:104FC00043F00403036001234361026010BD00004D
:104FD000002C014000040040000800400034014063
:104FE00000400140004401400048014030B501F05C
:104FF0001F05012404FA05F3046A9C430462046A51
:1050000001F01F0502FA05F52C43046230BD0000D3
:1050100030B5026A056A25F00105056243688469B6
:10502000214D2C4024F003040D682C4322F0020291
:105030008D682A431D4DA84200D10FE01C4DA842A7
:1050400000D10BE01B4DA84200D107E01A4DA84249
:1050500000D103E0194DA84208D100BF056A25F030
:105060000405056222F00802CD682A430F4DA842CC
:105070000BD00F4DA84208D00E4DA84205D00E4DC2
:10508000A84202D00D4DA84207D123F4807323F427
:1050900000734D692B438D692B43436084614D68D8
:1050A0004563026230BD00008FFFFEFF002C01400F
:1050B00000340140004001400044014000480140EC
:1050C00030B5026A056A25F01005056243688469F7
:1050D000234D2C4024F440740D6844EA052422F04A
:1050E00020028D6842EA05121E4DA84200D10FE051
:1050F0001D4DA84200D10BE01C4DA84200D100BFBD
:105100001B4DA84200D100BF1A4DA84209D108E0AA
:10511000056A25F04005056222F08002CD6842EA6A
:105120000512104DA8420BD00F4DA84208D00F4DCC
:10513000A84205D00E4DA84202D00E4DA84209D17A
:1051400023F4806323F400634D6943EA85038D698A
:1051500043EA8503436084614D688563026230BD24
:10516000FF8FFFFE002C0140003401400040014051
:10517000004401400048014030B5026A056A25F448
:10518000807505624368C469234D2C4024F00304F4
:105190000D682C4322F400728D6842EA05221F4DEF
:1051A000A84200D10FE01E4DA84200D10BE01D4DDA
:1051B000A84200D100BF1C4DA84200D100BF1B4D2A
:1051C000A84209D108E0056A25F48065056222F449
:1051D0000062CD6842EA0522104DA8420BD0104D66
:1051E000A84208D00F4DA84205D00F4DA84202D0CA
:1051F0000E4DA84209D123F4805323F400534D6986
:1052000043EA05138D6943EA05134360C4614D68A1
:10521000C563026230BD00008FFFFEFF002C01401D
:10522000003401400040014000440140004801407A
:1052300030B5026A056A25F4805505624368C46981
:10524000234D2C4024F440740D6844EA052422F4D4
:1052500000528D6842EA05321E4DA84200D10FE08F
:105260001D4DA84200D10BE01C4DA84200D100BF4B
:105270001B4DA84200D100BF1A4DA84209D108E039
:10528000056A25F48045056222F40042CD6842EAB1
:105290000532104DA8420BD00F4DA84208D00F4D3B
:1052A000A84205D00E4DA84202D00E4DA84209D109
:1052B00023F4804323F400434D6943EA85138D6949
:1052C00043EA85134360C4614D680564026230BDE2
:1052D000FF8FFFFE002C01400034014000400140E0
:1052E000004401400048014030B5026A056A25F4D7
:1052F000803505624368046D114D2C400D682C43C8
:1053000022F400320D8942EA05420E4DA8420BD02C
:105310000D4DA84208D00D4DA84205D00C4DA84215
:1053200002D00C4DA84204D123F480334D6943EAE6
:105330000523436004654D688564026230BD00004A
:105340008FFFFEFF002C014000340140004001406F
:10535000004401400048014030B5026A056A25F466
:10536000801505624368046D114D2C400D6844EAB8
:10537000052422F400120D8942EA05520D4DA8427F
:105380000BD00D4DA84208D00C4DA84205D00C4DB5
:10539000A84202D00B4DA84204D123F480234D69CA
:1053A00043EA8523436004654D68C564026230BDED
:1053B000FF8FFFFE002C01400034014000400140FF
:1053C000004401400048014070B5456E2DB90125EB
:1053D000A0F86A50A0F868501CE00823082405686B
:1053E000AD68C5F342610568AD686A0F0A4DAD5CF2
:1053F00015FB04F5094EB65C95FBF6F5A0F86A506E
:10540000054D6D5C15FB03F5044E765C95FBF6F5DA
:10541000A0F8685070BD0000F6730008FE73000825
:1054200090F8281001F00801082907D1016849689F
:1054300021F40041826B11430268516090F82810FA
:1054400001F0010139B10168496821F40031C26AF3
:1054500011430268516090F8281001F002010229FE
:1054600007D10168496821F48031026B1143026859
:10547000516090F8281001F00401042907D1016857
:10548000496821F48021426B11430268516090F811
:10549000281001F01001102907D10168896821F452
:1054A0008051C26B11430268916090F8281001F09E
:1054B0002001202907D10168896821F40051026C7C
:1054C00011430268916090F8281001F040014029D2
:1054D00013D10168496821F48011426C11430268BC
:1054E0005160416CB1F5801F07D10168496821F412
:1054F000C001826C11430268516090F8281001F0DD
:105500008001802907D10168496821F40021C26C1B
:10551000114302685160704738B504460020C4F852
:105520009000FCF763FF05462068006800F0080063
:10553000082821D16FF07E402B4600224FF4001145
:105540000090204600F003FFB0B100BF00BF21680B
:1055500051E8001F21F08000226842E80001002984
:10556000F5D100BF2020C4F8880000BF002084F8D7
:10557000840000BF032038BD2068006800F00400EC
:10558000042830D16FF07E402B4600224FF480017A
:105590000090204600F0DBFE28B300BF00BF21686A
:1055A00051E8001F21F49070226842E800010029B0
:1055B000F5D100BF00BF00BF2168083151E8001FCE
:1055C00021F001002168083141E80002002AF3D1EE
:1055D00000BF2020C4F88C0000BF002084F88400A5
:1055E00000BF0320C7E72020C4F88800C4F88C005F
:1055F0000020E066206700BF84F8840000BF00BF81
:10560000B9E770B50446A56A2846FEF7F9FA70BDF9
:1056100000BF00BF026852E8002F22F490710368B7
:1056200043E80012002AF5D100BF00BF00BF0268A6
:10563000083252E8002F104B02EA030102680832D8
:1056400042E80013002BF2D100BFC16E01290CD13A
:1056500000BF00BF026852E8002F22F0100103686B
:1056600043E80012002AF5D100BF2021C0F88C10B9
:105670000021C16641677047FEFFFFEF10B5044689
:1056800000BF00BF216851E8001F21F040002268E0
:1056900042E800010029F5D100BF2020C4F88800AD
:1056A0000020A0672046FEF7B1FD10BD2DE9F041B6
:1056B0000446B4F86070D4F88C0022286ED12068BB
:1056C000406A86B2A56D06EA07002880A06D801C9E
:1056D000A065B4F85E00401EA4F85E00B4F85E0059
:1056E000002861D100BF00BF216851E8001F21F4EC
:1056F0009070226842E800010029F5D100BF00BF88
:1057000000BF2168083151E8001F21F00100216825
:10571000083141E80002002AF3D100BF2020C4F87C
:105720008C0000206067206720492068884211D0E3
:105730002068406800F4000060B100BF00BF21682D
:1057400051E8001F21F08060226842E80001002932
:10575000F5D100BFE06E01281CD10020E06600BF3B
:1057600000BF216851E8001F21F01000226842E8C4
:1057700000010029F5D100BF2068C069C0F3001006
:1057800010B1102021680862B4F85C102046FEF7C2
:10579000D5F909E02046FEF7D9FC05E020688069CC
:1057A00040F0080021688861BDE8F0810080004079
:1057B0002DE9F84F0446B4F860B02068C569206848
:1057C000006800902068D0F808A0D4F88C00222847
:1057D0007ED1B4F86890AEE02068406A1FFA80F885
:1057E000A76D08EA0B003880A06D801CA065B4F896
:1057F0005E00401EA4F85E002068C56905F0070041
:10580000B0B305F0010060B1009800F4807040B1C1
:10581000012021680862D4F8900040F00100C4F82B
:10582000900005F0020058B10AF0010040B10220DA
:1058300021680862D4F8900040F00400C4F8900099
:1058400005F0040058B10AF0010040B104202168BD
:105850000862D4F8900040F00200C4F89000D4F838
:10586000900028B12046FEF7CBF90020C4F8900044
:10587000B4F85E0000285ED100BF00BF216851E887
:10588000001F21F48070226842E800010029F5D150
:1058900000BF00BF00BF2168083151E8001F414A26
:1058A00001EA02002168083141E80002002AF2D131
:1058B00000BF2020C4F88C000020606720673A49B0
:1058C0002068884213D02068406800F4000000E09F
:1058D0005FE060B100BF00BF216851E8001F21F008
:1058E0008060226842E800010029F5D100BFE06E27
:1058F00001281CD10020E06600BF00BF216851E8EC
:10590000001F21F01000226842E800010029F5D1B3
:1059100000BF2068C069C0F3001010B110202168DA
:105920000862B4F85C102046FEF708F902E0204651
:10593000FEF70CFC07E0B9F1000F04D005F02000E1
:1059400000287FF449AF00BFB4F85E6006B3B4F836
:105950006800B04223DD00BF00BF2168083151E874
:10596000001F21F080502168083141E80002002A20
:10597000F3D100BF0D48606700BF00BF216851E848
:10598000001F41F02000226842E800010029F5D103
:1059900005E02068806940F0080021688861BDE862
:1059A000F88F0000FEFFFFEF00800040AD560008BA
:1059B00070B50446B4F86060D4F88C0022286FD12A
:1059C0002068406A85B2F0B22840A16D0870A06DD1
:1059D000401CA065B4F85E00401EA4F85E00B4F858
:1059E0005E00002862D100BF00BF216851E8001F9F
:1059F00021F49070226842E800010029F5D100BF2F
:105A000000BF00BF2168083151E8001F21F00100EC
:105A10002168083141E80002002AF3D100BF2020AC
:105A2000C4F88C0000206067206721492068884204
:105A300011D02068406800F4000060B100BF00BFD2
:105A4000216851E8001F21F08060226842E80001CF
:105A50000029F5D100BFE06E01281CD10020E066CE
:105A600000BF00BF216851E8001F21F0100022682C
:105A700042E800010029F5D100BF2068C069C0F3E9
:105A8000001010B1102021680862B4F85C102046A4
:105A9000FEF754F80AE02046FEF758FB06E0FFE761
:105AA0002068806940F008002168886170BD0000AE
:105AB000008000402DE9F05F0446B4F860A0206843
:105AC000C5692068D0F800B02068D0F80890D4F8F4
:105AD0008C0022287ED1B4F86880ADE02068406A4E
