:020000040800F2
:1000000050050020F1010008672900084D22000872
:10001000652900086D070008852E00080000000013
:100020000000000000000000000000007F2C00081D
:100030006F0700080000000069290008812C0008F3
:100040000B0200080B0200080B0200080B0200085C
:100050000B0200080B0200080B0200080B0200084C
:100060000B0200080B0200080B0200080B0200083C
:100070000B0200080B0200080B0200080B0200082C
:100080000B020008000000000B0200080B02000831
:100090000B0200080B0200080B0200080B0200080C
:1000A0000B0200080B0200080B0200080B020008FC
:1000B000FD2C00080B0200080B0200080B020008D0
:1000C0000B0200080B0200080B0200080B020008DC
:1000D0000B0200080B0200080B0200080B020008CC
:1000E0000B0200080B0200080B0200080B020008BC
:1000F0000B0200080B0200080B02000800000000C1
:10010000000000000B020008000000000B020008C5
:100110000B020008000000000B0200080B020008A0
:100120000B0200080B0200080B0200080B0200087B
:100130000B02000800000000000000000B02000895
:100140000B0200080B020008000000000000000085
:10015000000000000000000000000000000000009F
:100160000000000000000000000000000B0200087A
:100170000B0200080000000000000000000000006A
:10018000000000000B02000800000000000000005A
:10019000000000000000000000000000000000005F
:1001A00000000000000000000B0200080B02000825
:1001B0000B0200080B0200080B0200080000000000
:1001C000000000000B02000800000000000000001A
:1001D0000B0200080B020008DFF810D000F006FA4E
:1001E0000048004705350008AFF3008050050020A7
:1001F0000648804706480047FEE7FEE7FEE7FEE7C1
:10020000FEE7FEE7FEE7FEE7FEE7FEE7ED2C00086F
:10021000D9010008D2B201E000F8012B491EFBD23F
:1002200070470022F6E710B513460A460446194601
:10023000FFF7F0FF204610BD2DE9FE4F81EA0304D1
:1002400004F0004421F0004100944FF0000B23F033
:10025000004350EA01045ED052EA03045BD0C3F3CA
:100260000A54C1F30A552C44A4F2F3340194A0FBC0
:100270000254C1F3130141F48011C3F3130343F497
:10028000801301FB024400FB034E840A970A44EAF0
:10029000815447EA8357A4FB076802958D0A05FB42
:1002A00007854FEA932C04FB0C542705029D4FEA67
:1002B000065847EA1637B5EB08056EEB070C870EB4
:1002C000920E47EA811742EA8312A7FB0201B6EBBE
:1002D0000B0164EB00042B0D43EA0C335E1844EB76
:1002E0001C50DA465146E7FB0201C5F313044FEAFE
:1002F0000B3343EA14534FEA0432019C43EA0603EA
:10030000A4F10C040294009CCDE900B400F020F9A3
:1003100003B0BDE8F08F00200146F9E72DE9F04D6C
:1003200081EA030404F0004B21F0004514464FF02D
:10033000000A23F0004150EA050220D054EA0102ED
:100340001DD0C5F30A570246C5F31303C1F31300CA
:10035000C1F30A5640F4801543F48013A7EB060856
:10036000101BD64608F2FD3873EB050002D308F1E6
:10037000010801E092185B41B8F1000F03DA002098
:100380000146BDE8F08D00204FF4801106468446FA
:100390000EE0171B73EB050705D3121B63EB050378
:1003A00006434CEA010C49084FEA300092185B41C1
:1003B00050EA0107EDD152EA030012D082EA0400AC
:1003C00083EA0501084305D0101BAB4106D2012288
:1003D000002306E000224FF0004302E06FF001022C
:1003E00053101AEB06004CEB085110EB0A0041EBDE
:1003F0000B01BDE8F04D00F09CB80EB5C10F80EACE
:10040000E0700844CA07002140F233438DE80E0033
:100410000A460B4600F09CF803B000BD0EB540F252
:10042000334102910021CDE900110A460B4600F04C
:100430008FF803B000BD00F0004230F000400AD059
:10044000C10D01F56071C0F3160042EA0151C20806
:1004500040071143704700200146704730B5041E25
:1004600071F1000404DB4FF00044404264EB0101F1
:10047000141E73F1000405DB1C464FF0004352428A
:1004800063EB04038B4208BF824230BD01F000439E
:1004900030B421F0004150EA010206D00A0DA2F565
:1004A0006072C1F31301002A02DC30BC00207047E7
:1004B000440F44EAC104C100E01830BC00EBC25054
:1004C000AFF300800029A8BF7047401C490008BF57
:1004D00020F00100704710B4B0FA80FC00FA0CF074
:1004E00050EA010404BF10BC704749B1CCF12004AC
:1004F00021FA04F411FA0CF118BF01212143084339
:10050000A3EB0C01CB1D4FEA00614FEA102042BF64
:10051000002010BC704700EBC35010440029A4BF5A
:1005200010BC7047401C490008BF20F0010010BCFF
:10053000704710B5141E73F1000408DA401C41F135
:10054000000192185B411A4301D120F0010010BD57
:100550002DE9F04D92469B4611B1B1FA81F202E0CD
:10056000B0FA80F22032904600F052F804460F466E
:1005700040EA0A0041EA0B0153465A46084313D0A9
:10058000114653EA010019D0C8F14002504600F06C
:100590004EF805460E4650465946424600F038F899
:1005A000084305D0012004E020463946BDE8F08D1F
:1005B0000020054346EAE0762C4337430A9863055A
:1005C000E40AA0EB08000022FD0A44EA47540A307E
:1005D00002D500200146E9E7010510196941DDE96E
:1005E000084500196941BDE8F04DA2E7064C074DEA
:1005F00006E0E06840F0010394E8070098471034F3
:10060000AC42F6D3FFF7ECFD6847000888470008C6
:10061000202A04DB203A00FA02F1002070479140C2
:10062000C2F1200320FA03F3194390407047202AB7
:1006300004DB203A21FA02F00021704721FA02F38C
:10064000D040C2F120029140084319467047000093
:1006500070B50446006881688268C1F3400112F0F9
:10066000010F28D039BB816801F00D01012914D197
:100670008168124A1140891C81602168032008604A
:1006800000F06EFE054612E000F06AFE401B0228F4
:100690000DD920688068C00709D0E06D40F01000D7
:1006A000E065206E40F001002066012070BD2068EA
:1006B0008068C007E8D1002070BD0000C0FFFF7F48
:1006C000F8B50446002000902068816811F0010F01
:1006D00041D18168214A11422ED18168D5432940F8
:1006E000491C81601E48806800F0E07000020DD552
:1006F0001C481D490068B0FBF1F0401C00EB4000B5
:10070000800000E0401E00900028FBD100F028FE91
:1007100006461BE0816811F0010F03D18168294072
:10072000491C816000F01CFE801B02280ED9206845
:100730000068C043C00709D0E06D40F01000E065DC
:10074000206E40F0010020660120F8BD206801689D
:10075000C943C907DED10020F8BD00003F0000807A
:100760000003005010000020400D0300FEE770471A
:10077000002240F6B83306E00021491C89B29942B4
:10078000FBD3521C92B28242F6D3704772B6FEE798
:10079000F8B500260446009690F858000D4601284A
:1007A0000BD0012084F858002046FFF751FF0100CC
:1007B000E06D04D040F010002AE00220F8BD20F4E3
:1007C000885040F00200E06520688268134B1A40B0
:1007D00005F080431A4342F000428260104A2068CC
:1007E0000EE0009B5B1C0093934209D3E06D20F068
:1007F000020040F01000E06584F858600120F8BD68
:100800008368DB0FEDD1E06D20F0020040F00100C5
:10081000E06584F858600846F8BD0000C0FFFF3F5F
:1008200002DE04002DE9F047044690F858009CB021
:100830000E464FF00009012815D0012084F8580019
:1008400000251795189520684FF0A04840450ED117
:10085000284F0097384601F027FF8246206801F0B4
:1008600023FF60B10EE002201CB0BDE8F087E06D10
:1008700040F02000E06584F858500120F4E7BAF118
:10088000000F09D0E06D40F02000E0654FF0010955
:1008900084F858504846E7E71748326840F61F7119
:1008A000002A826822F4604216D094F8383042EA76
:1008B000433273681A438260D8F80820BB6802F09C
:1008C000010203F001031A43E2D1B36832681A430C
:1008D00083688B431A430BE08260D8F80820BB681A
:1008E00002F0010203F001031A43D1D182688A4366
:1008F0008260CDE700010050000300502DE9F84F61
:1009000000270446009790F85800DFF8E0930D4662
:10091000B846012811D0012684F85860206801F0FB
:10092000BFFE60B1E06D40F02000E0655FF00107C0
:1009300084F858803846BDE8F88F0220FBE7D5E9F7
:1009400000210C23206803EA91131844036B01F083
:100950001F014FF01F0C0CFA01FCC2F3846223EA62
:100960000C038A4013430363206801F099FE82461A
:10097000206801F091FE5AEA00003CD1AA6829687B
:100980002068B2F1004F37D001F092FE2068416933
:1009900021F00041416120686969C268C2F3C10267
:1009A000520091402A69042A31D000EB82002B6862
:1009B000026EDFF83CC303F0F84302EA0C020B437B
:1009C0001A4342F00041016620682A69A96900EBD8
:1009D0008200026E22F080720A430266297F22683A
:1009E0002869012910D0002102EB8000026E22F05C
:1009F00000720A4302667DE0002201F059FE206881
:100A0000416941F00041C5E74FF00071ECE700217A
:100A100001F03CFE400320684FF0000172D001F06D
:100A200035FE90FAA0F0B0FA80F1286842036ED04B
:100A300090FAA0F0B0FA80F0814204D10022114671
:100A4000206801F044FE0121206801F01FFE4003F0
:100A500020684FF001015DD001F018FE90FAA0F07F
:100A6000B0FA80F12868420359D090FAA0F0B0FAA9
:100A700080F0814204D100220121206801F027FE8C
:100A80000221206801F002FE400320684FF00201BD
:100A900048D001F0FBFD90FAA0F0B0FA80F1286890
:100AA000420344D090FAA0F0B0FA80F0814204D121
:100AB00000220221206801F00AFE0321206801F0D3
:100AC000E5FD400320684FF0030133D001F0DEFD67
:100AD00090FAA0F0B0FA80F1286842032FD090FA83
:100AE000A0F0B0FA80F0814204D1002203212068F6
:100AF00001F0EDFD2068816811F0010F22D0ACE01B
:100B000000E004E001F0C2FDC0F384618DE7C0F3B2
:100B1000846091E701F0BAFDC0F38461A2E7C0F3FD
:100B20008460A6E701F0B2FDC0F38461B7E7C0F3CB
:100B30008460BBE701F0AAFDC0F38461CCE7C0F399
:100B40008460D0E72A7B296850F8B03FC1F3120CCB
:100B500023EA0C0302F0180C664A22FA0CF20A404F
:100B600013430360E968494577D1286841031CD0E5
:100B700090FAA0F1B1FA81F1491C01F01F01092995
:100B80004FEA403132D8002912D000BF90FAA0F1CC
:100B9000B1FA81F101F1010101F01F0106FA01F63C
:100BA00009D100BFC0F3846109E0C0F38461E3E7C9
:100BB000C0F38461EEE790FAA0F1B1FA81F101F19E
:100BC000010101F01F0146EA816102D1C0F3846096
:100BD00003E090FAA0F0B0FA80F000F1010000F01C
:100BE0001F0000EB400041EA005132E000290ED026
:100BF00090FAA0F1B1FA81F101F1010101F01F01B8
:100C000006FA01F606D100BFC0F3846106E0C0F326
:100C10008461F1E790FAA0F1B1FA81F101F10101EB
:100C200001F01F0146EA816102D1C0F3846003E054
:100C300090FAA0F0B0FA80F000F1010000F01F007F
:100C40002D4A00EB400002EB005041EA000141F068
:100C50000071AA68206801F02BFD28482A6802422A
:100C60003FF466AE26488168264B01F0E0719A4257
:100C700002D0254B9A421CD10B021AD42268B2F141
:100C8000A04F7FF455AE826841F4000122F0E0727B
:100C90000A4382601D481E490068B0FBF1F0401C09
:100CA00000EB4000800000E0401E00900028FBD1D7
:100CB0003EE6184D184BAA4207D1CD0105D4226853
:100CC0009A42F5D041F0807109E0144DAA42EFD16B
:100CD0004A02EDD422689A42EAD041F48001826847
:100CE00022F0E0720A43826022E6000000007F40AA
:100CF00000F0FF03FFFF0700000020FE0000088057
:100D000000030050000021C31000C090100000201C
:100D1000400D0300000052C700010050000084CBCA
:100D20000068006C70470000F8B54FF00005040043
:100D30002E46009502D0E06D10B107E00120F8BD0D
:100D4000204600F0EBF8266684F858602068816839
:100D5000C1F3407119B18168684A1140816020680F
:100D60008168C1F3007189B98168654A114041F019
:100D700080518160634864490068B0FBF1F0400035
:100D8000801C00E0401E00900028FBD12068816894
:100D9000C1F3007141B9E16D41F01001E165216ECF
:100DA00041F001012166012501F07AFCE16DC906DF
:100DB00000D430B1E06D40F01000E0650125284618
:100DC000F8BDE06D20F4807040F00200E06520681E
:100DD000806810F0010F11D14FF0A04080684B499E
:100DE00000F00100896801F00101084306D148487C
:100DF0006168826822F47C120A438260E168E06BD9
:100E0000627F0843A16841EA4231084394F8241004
:100E100040EA0140012904D1218D3E4A02EB4141C3
:100E20000843E16A29B101F47871226B014342EA77
:100E300001002268D168384B19400143D160206815
:100E40000169626B21F0406111430161206801F08A
:100E500023FC70BB207F94F83810800340EA4102E5
:100E60002168C86844F2020398431043C8602069AF
:100E70000028206801690AD041F4803101612068AE
:100E800050F8C01F22696FF30D01114307E021F4F0
:100E900080310161206850F8C01F6FF30D010160BF
:100EA00094F8400001280CD02068016921F001016C
:100EB0000161606901282068016B21F00F0111D0E8
:100EC00013E0D4E911010843D4E913121143084394
:100ED00021680A6940F2FC739A43104340F0010014
:100EE0000861E6E7226A521E11430163E06D20F0BB
:100EF000020040F00100E06561E70000C0FFFF5F15
:100F0000C0FFFF7F10000020400D030000010050D3
:100F1000000300500000FEFF0740F0FF2DE9F04302
:100F200097B00446142111A8FFF77BF944216846C5
:100F3000FFF777F94FF0005021682D4D0327DFF8B8
:100F4000B49086132C4C4FF00008B1F1A04F10D094
:100F50002A4A914248D100960F90684600F0FEFA66
:100F600008B1FFF713FC2868401C2860012824D032
:100F70002BE000960F90684600F0F0FA08B1FFF7FA
:100F800005FC2868401C2860012807D1E06C40F46B
:100F90000050E064E06C00F400501690E06C40F00B
:100FA0000200E064E06C11A900F0020016904FF41A
:100FB000805081E88101484614E0E06C40F4005024
:100FC000E064E06C00F400501690E06C40F0020029
:100FD000E064E06C11AA00F00200169082E8C00103
:100FE00011A9484600F098F817B0BDE8F08300005A
:100FF00000000020000400480010024000010050E2
:101000002DE9F04104463848806800F01F0520684B
:1010100001F046FB18B102210846BDE8F08194F8C2
:10102000580001280CD0012084F858002046FFF712
:1010300047FB01004FF0000304D084F85830EBE781
:101040000220EAE7E06D40F60162904340F48070D0
:10105000E065264A20684FF0A046904201D137460D
:1010600000E00746874200D01DB9E76D27F48017DE
:10107000E765E76DFF0404D5276E27F006072766AE
:1010800000E023661C27076084F8583020689042EF
:1010900001D1334600E00346834215D0A5B1052DAA
:1010A00012D0092D10D0E36D43F48013E365904214
:1010B00000D13046C0688001AED5E06D20F400500C
:1010C00040F48050E065A7E7C268920105D5E26D63
:1010D00022F4005242F48052E2658268044B1A40C6
:1010E000121D826098E700000003005000010050CC
:1010F000C0FFFF7F70B5044600F032F90546601C62
:1011000002D004484068044400F02AF9401BA04281
:10111000FAD370BD040000202DE9F04FDFF80C92E7
:10112000002301260325A9F1040B85B00F2709F13F
:10113000040AABF1040EF1E006FA03FC12EA0C0219
:101140007ED00C7904F00304012C01D0022C20D1B4
:10115000846800945C0005FA04F80494009C24EA76
:1011600008040094D1F80C80049C08FA04F8009C50
:1011700048EA0408C0F80880446824EA0C0491F89E
:1011800004C0CCF3001C0CFA03FC4CEA040CC0F8BD
:1011900004C00C79E443A40702D18C68012C0ED062
:1011A000C4684FEA430805FA08FC24EA0C04D1F8A5
:1011B00008C00CFA08FC4CEA040CC0F80CC00C790E
:1011C00004F00304022C16D1DC0800EB840CCDF8EB
:1011D00008C0DCF820C05C074FEAD46807FA08F4BE
:1011E0002CEA040C0C6904FA08F444EA0C04DDF857
:1011F00008C0CCF8204004684FEA430805FA08FC10
:1012000024EA0C0491F804C00CF0030C0CFA08FC5E
:101210004CEA040CC0F800C04C6814F4403F7CD089
:10122000434CD4F860C04CF0010CC4F860C0246E8C
:1012300023F0030C04F0010400943E4C644400E0ED
:101240006BE00294A4684FEA837C4FEA1C7807FAAB
:1012500008FC24EA0C04B0F1904F06D0DFF8D8C0A7
:10126000604505D14FF0010C20E04FF0000C1DE06F
:10127000DFF8C8C0604502D14FF0020C16E0DFF87D
:10128000C0C0604502D14FF0030C0FE0DFF8B4C0DE
:10129000604502D14FF0040C08E0DFF8ACC06045B7
:1012A00002D14FF0050C01E04FF0060C0CFA08FCDF
:1012B0004CEA040C029CC4F808C0D9F80040CC46A3
:1012C000D1F8048094435FEAC82800D51443CCF8D1
:1012D0000040DAF80040D446D1F8048094435FEA35
:1012E000882800D51443CCF80040DBF80040DC46E9
:1012F000D1F8048094435FEA883800D51443CCF8D1
:101300000040DEF80040F446D1F8048094435FEAE0
:10131000C83800D51443CCF800405B1C0C6822464A
:10132000DC407FF409AF05B0BDE8F08F0804014050
:10133000001002400000014000040048000800487E
:10134000000C0048001000480014004800690840E4
:1013500000D0012070470AB18161704781627047F7
:10136000014880687047000004000020024881683E
:1013700042681144816070470400002010B50024C9
:10138000032000F073F80F2000F008F808B10124E2
:1013900001E000F025F8204610BD000070B50E4EAB
:1013A00005460024706898B14FF47A71B1FBF0F0F3
:1013B0000A490968B1FBF0F000F03CFD40B9102D7E
:1013C00006D200222946501E00F030F8356000E0B9
:1013D0000124204670BD0000040000201000002001
:1013E0000A4882B0016E41F001010166016E01F010
:1013F00001010091816D41F080518165806D00F0A7
:101400008050009002B000F0A1B80000001002402F
:10141000002809DB00F01F020121914040098000F3
:1014200000F1E020C0F8001170470000F0B40E4B4E
:101430001B680C46C3F30223C3F10705042D00D932
:101440000425191D072901D2002300E0DB1E012617
:1014500006FA05F1491E214099409E40761E16402D
:101460003143F0BC01F00FBD0CED00E0064900F087
:10147000070208684FF6FF03184040EA0220034ABB
:1014800010430860704700000CED00E00000FA0512
:101490002B492C4B0A6832214A432B4940B1B0F505
:1014A000007F086829D020F4C06040F480602CE000
:1014B0000868C0F34120022804D051F8800F20F4BE
:1014C000807022E0D1F8800020F48070C1F88000A4
:1014D000086820F4C06040F400700860B2FBF3F0CC
:1014E000401C00E0401E4A69520501D50028F9D190
:1014F000486940050AD503207047C0F341200228FF
:1015000006D051F8800F40F48070086000207047CA
:10151000D1F8800040F48070C1F88000086820F4A1
:10152000C06040F400700860B2FBF3F0401C00E0C3
:10153000401E4A695205DBD50028F9D1D8E70000E2
:101540001000002040420F000070004002488168F7
:1015500041F4804181607047007000402DE9F843FC
:101560000446006800269D4D00035ED5A86D002747
:10157000C00008D4A86D40F08050A865A86D012770
:1015800000F080500090DFF85892D9F8001041F434
:101590008071C9F80010FFF7E3FE804606E000BF47
:1015A000FFF7DEFEA0EB080002282BD8D9F80000D8
:1015B000C005F5D5D5F8900010F4407014D0216C1A
:1015C000814211D0D5F89000D5F8901020F44070E9
:1015D00041F48031C5F89010D5F8901021F4803195
:1015E000C5F89010C5F89000C00711D0FFF7B8FEFD
:1015F000804641F2883907E0FFF7B2FEA0EB080110
:10160000494501D903260BE0D5F890008007F3D5B2
:10161000D5F89000216C20F440700843C5F8900084
:101620001FB1A86D20F08050A8652078C00707D0B2
:10163000D5F88800616820F003000843C5F88800E9
:101640002078800707D5D5F88800A16820F00C0025
:101650000843C5F888002078400707D5D5F88800EA
:10166000E16820F030000843C5F8880020780007C2
:1016700007D5D5F88800216920F0C0000843C5F8D7
:1016800088002078800607D5D5F88800616920F4A5
:1016900040600843C5F888002078400607D5D5F893
:1016A0008800A16920F440500843C5F888002078DC
:1016B000000607D5D5F88800E16920F440400843CA
:1016C000C5F888002088C00507D5D5F88800216AAC
:1016D00020F440300843C5F888002088800507D5ED
:1016E000D5F88800616A20F440200843C5F88800D6
:1016F000208840050FD5D5F88800A16A20F4401055
:101700000843C5F88800A06AB0F5801F03D1E868D7
:1017100040F48010E860208800050FD5D5F88800D7
:10172000E16A20F440000843C5F88800E06AB0F59B
:10173000800F03D1E86840F48010E8602088C0047E
:101740000FD5D5F88800216B20F040700843C5F80C
:101750008800206BB0F1807F03D1E86840F48010EE
:10176000E86020884FF0006180040ED5D5F888002D
:10177000626B20F040601043C5F88800606B8842BF
:1017800003D1E86840F48010E860208840040ED55A
:10179000D5F88800A26B20F040601043C5F888009F
:1017A000A06B884203D1E86840F48010E86020888C
:1017B00000040FD5D5F88800E16B20F040500843B5
:1017C000C5F88800E06BB0F1805F03D1E86840F4B1
:1017D0008030E8603046BDE8F88300000010024029
:1017E000007000402DE9F0470E4605004FF000075D
:1017F00025D0DFF8AC81D8F8000000F00F00B0422F
:101800000CD2D8F8001021F00F013143C8F80010B5
:10181000D8F8000000F00F00B04210D12968614CE8
:10182000C80741F2883A5AD06868DFF87C910328EB
:1018300008D0022820682DD0400500282CDB01208C
:10184000BDE8F08720688001F9D5E06800F0030268
:10185000E068C0F30310401C032A19D0534A00BFAC
:10186000B2FBF0F0E268C2F306225043E268C2F332
:101870004162521C5200B0FBF2F0484517D9A068F3
:1018800010F0F00F0CD0880711D5A86840B10EE019
:10189000474AE5E78003D0E700F092F8484506D9CB
:1018A000A06820F0F00040F08000A0608027A068D1
:1018B000696820F003000843A060FFF751FD8146EE
:1018C00006E000BFFFF74CFDA0EB090151453AD8F7
:1018D000A068696800F00C00B0EB810FF2D12868B5
:1018E000810714D5400703D5A06840F4E060A060EC
:1018F0002878000705D5A06820F4605040F4E06027
:10190000A060A068A96820F0F000084304E0802FE0
:1019100003D1A06820F0F000A060D8F80010404685
:1019200001F00F01B14216D9016821F00F013143D6
:101930000160FFF715FD074607E000BFFFF710FD48
:10194000C11B514501D903207AE7D8F8000000F007
:101950000F00B042F2D12878400705D5A068E968A9
:1019600020F4E0600843A0602878000706D5A0684E
:10197000296920F4605040EAC100A06000F020F81E
:10198000A1680C4AC1F30311515C01F01F01C8406A
:101990000949086009480068BDE8F047FFF7FEBC48
:1019A000002002400010024000B4C4040024F400EF
:1019B00000366E0188350008100000200400002069
:1019C000184910B58868C0F381021748012A0BD066
:1019D0008A68164BC2F38102022A06D08A68C2F3D3
:1019E0008102032A03D0002010BD184610BDCA682A
:1019F00002F00304CA68C2F30312521C032C02D083
:101A0000B0FBF2F001E0B3FBF2F0CA68C968C2F3C0
:101A100006225043C1F34161491C4900B0FBF1F07B
:101A200010BD0000001002400024F40000366E01DA
:101A30002DE9F84304007AD02078F84DC00747D04C
:101A4000A868E96800F00C0001F003010C2802D03E
:101A5000082817D001E0032914D06068B0F5803F52
:101A600017D0B0F5A02F286817D020F48030286058
:101A7000286820F4802028606068E0B1FFF770FCDF
:101A8000064614E02868800322D560680028D2D07A
:101A90001EE0286840F48030EDE740F480202860A4
:101AA000F7E700BFFFF75CFC801B642870D828684C
:101AB0008003F7D50CE0FFF753FC064605E000BFB6
:101AC000FFF74EFC801B6428F0D828688003F7D409
:101AD000207880074CD5A868E96800F00C0001F078
:101AE00003010C2802D004280DD001E002290AD0FD
:101AF000E068002828682BD040F480702860FFF749
:101B00002FFC064619E02868400502D5E068002849
:101B100091D06868217C20F0FE4040EA0160686056
:101B2000BF480068FFF73AFC002800D120E072E1CE
:101B3000FFF716FC801B0228B8D828684005F7D5A7
:101B40006868217C20F0FE4040EA016068600FE098
:101B500020F480702860FFF703FC064605E000BF14
:101B6000FFF7FEFB801B0228A0D828684005F7D4A9
:101B70002078000729D560690028D5F8940013D093
:101B800040F00100C5F89400FFF7EAFB064606E0C6
:101B900090E000BFFFF7E4FB801B022886D8D5F851
:101BA00094008007F6D510E020F00100C5F89400FD
:101BB000FFF7D6FB064604E0FFF7D2FB801B0228A6
:101BC00078D8D5F894008007F6D42078400761D5FE
:101BD000A86D0026C00008D4A86D40F08050A8650C
:101BE000A86D012600F0805000908E480168C9055C
:101BF00011D40168804641F480710160FFF7B0FBA9
:101C0000074604E0FFF7ACFBC01B022852D8D8F807
:101C10000000C005F6D5A068012815D00528D5F824
:101C2000900016D020F00100C5F89000D5F8900083
:101C300020F00400C5F89000A06841F28838B8B1DF
:101C4000FFF78EFB07460EE0D5F8900040F001004C
:101C5000F0E740F00400C5F89000F5E7FFF780FBDF
:101C6000C11B414526D8D5F890008007F6D50CE079
:101C7000FFF776FB074604E0FFF772FBC11B414507
:101C800018D8D5F890008007F6D41EB1A86D20F0C2
:101C90008050A8652078800629D5A0690028D5F84D
:101CA000980013D040F00100C5F89800FFF758FBEA
:101CB000064606E075E000BFFFF752FB801B0228D6
:101CC0006FD8D5F898008007F6D510E020F0010015
:101CD000C5F89800FFF744FB064604E0FFF740FB19
:101CE000801B02285DD8D5F898008007F6D4E069FB
:101CF000F0B3A968C1F3810103295DD002282868E7
:101D000020F08070286003D0FFF72AFB04464BE0E8
:101D1000FFF726FB064604E0FFF722FB801B0228A4
:101D20003FD828688001F7D4F4E908016FF00F026A
:101D300002EB01110843218A5204490802EB415188
:101D4000A26841EA02210843217D4FF07E42490802
:101D500002EB41610843217B40EAC160E968324AF5
:101D600011400843E860286840F08070286000E077
:101D70005EE0E86840F08070E860FFF7F1FA044642
:101D800005E000BFFFF7ECFA001B022809D828681D
:101D90008001F7D54CE000BFFFF7E2FA001B0228F4
:101DA00002D90320BDE8F88328688001F4D4E868EC
:101DB0001E490840E8603BE00128F3D0E868226A49
:101DC00000F00301914226D1616A00F0F00209019E
:101DD000103991421FD1A26A00F4FE41B1EB022FEB
:101DE00019D194F82C2000F07841B1EBC26F12D1D8
:101DF000218E00F4C00249084905A1F50011914265
:101E000009D194F8341000F0C06049084906A1F1E6
:101E1000007181420CD00120C4E700000010024094
:101E200004000020007000400C809F01FCFFEEFECB
:101E30000020B7E710B5401EB0F1807F01D301202C
:101E400010BD4FF0E02460610F21601701F01BF816
:101E50000020A06107202061002010BD704770475E
:101E60007047704770477047F0B590F83C20012AE2
:101E70003AD0012580F83C50022280F83D200368CA
:101E80005A689C68194E1A4FB34201D0BB4204D124
:101E900022F4700C4A6842EA0C02DFF858C002EAE9
:101EA0000C02D1F800C04CEA020CC3F804C002686E
:101EB000B2420DD0B2F1804F0AD00F4B9A4207D0F8
:101EC0000E4B9A4204D0BA4202D00D4B9A4204D132
:101ED000896824F080031943916080F83D50002107
:101EE00080F83C100846F0BD0220F0BD002C0140F7
:101EF000003401408FFFFFFD000400400008004057
:101F000000400140704710B5040003D094F83D0034
:101F100010B107E0012010BD002084F83C002046ED
:101F200000F022F8022084F83D00211D206800F016
:101F3000EBFE012084F8480084F83E0084F83F005E
:101F400084F8400084F8410084F8420084F843009B
:101F500084F8440084F8450084F8460084F847007B
:101F600084F83D00002010BD08B50068B0F1804F36
:101F700012D10A48816D41F001018165806D002216
:101F800000F00100009011461C20FFF74FFABDE859
:101F900008401C20FFF73CBA08BD000000100240BA
:101FA00070B5044690F83C000025012814D00126A5
:101FB00084F83C60022084F83D0022689068364B2B
:101FC000184020F47F409060086870282ED010DC04
:101FD00010F00F0F03D021E04FF0020070BD4FEA68
:101FE0002012072A1AD2DFE802F0525252524A381F
:101FF00040002A4BC21A984249D009DCB0F5805FF4
:102000000DD0B0F5005F1CD0B0F1101F06D13EE03E
:10201000102A3CD0202A3AD0502A38D0012584F802
:102020003D60002084F83C00284670BDCB68D1E9B3
:102030000121206800F0C4FE2068816841F077012A
:1020400009E0CB68D1E90121206800F0B9FE2068E1
:10205000816841F480418160E1E7CA68496820688D
:1020600000F0C2FE5021206806E0CA684968206876
:1020700000F0E8FE6021206800F0ACFECFE7CA68FF
:102080004968206800F0B0FE40212068F4E722682B
:1020900001461046F0E7000088FFCEFF2000100048
:1020A00070472DE9F04104460068C66805694FF0A5
:1020B0000007A90713D5B10711D5F91E0161012049
:1020C0002077206880698007204602D0FFF7E8FF6C
:1020D00004E000F0B7F8204600F0B5F8277768076D
:1020E00016D5700714D521686FF00400086102202E
:1020F00020772068806910F4407F204602D0FFF7E7
:10210000CFFF04E000F09EF8204600F09CF827770F
:10211000280715D5300713D521686FF0080008612E
:10212000042020772068C0698007204602D0FFF78E
:10213000B7FF04E000F086F8204600F084F8277727
:10214000E80616D5F00614D521686FF01000086176
:10215000082020772068C06910F4407F204602D014
:10216000FFF79EFF04E000F06DF8204600F06BF8EA
:102170002777E80708D0F00706D021686FF0010044
:102180000861204600F060F8280601D4A80408D5AC
:10219000300606D521686FF4025008612046FFF72B
:1021A0005EFEE80508D5300606D521686FF480701C
:1021B00008612046FFF752FE680608D5700606D56E
:1021C00021686FF040000861204600F03EF8A80644
:1021D00008D5B00606D521686FF0200008612046BA
:1021E000FFF73EFEE80208D5F00206D521686FF43D
:1021F000801008612046FFF735FEA80208D5B0021E
:1022000006D521686FF4001008612046FFF729FE0B
:10221000680208D5700206D521686FF48000086155
:102220002046FFF720FE28020AD5300208D5216893
:102230006FF4000008612046BDE8F041FFF762BE80
:10224000BDE8F0817047704770477047FEE70000B7
:1022500000B585B014216846FDF7E3FF4FF6FF7027
:10226000009000200321CDE9020101906946024857
:10227000FEF752FF05B000BD0008004800B585B06C
:1022800014216846FDF7CDFF4FF6FF700090012046
:102290000190032003900020029069460248FEF757
:1022A0003BFF05B000BD0000000800482DE9F047E5
:1022B000DFF840808146002204214046FFF74BF8BA
:1022C0000D4E3068002485B22146204600F03AF9D0
:1022D00000F078F94FF49637484600F047F9641C4F
:1022E000BC42F9D335604046BDE8F04701220421E5
:1022F000FFF731B8000C00481408004830B587B02B
:1023000014216846FDF78DFF1E48C16C41F00401A1
:10231000C164C16C01F004010591C16C41F001017F
:10232000C164C16C01F001010591C16C41F0020171
:10233000C164C06C012500F0020005904FF44870A4
:10234000CDE9000500240394694602940E48FEF787
:10235000E3FE280203940090CDE901544FF090442D
:1023600069462046FEF7D8FEFFF788FFA06940F4D3
:102370008070A06104481830016841F40871016060
:1023800007B030BD0010024000040048203AD2B22D
:10239000034B02EB420203EB021200F031B80000E3
:1023A000983500082DE9F047DFF84C900E4682463C
:1023B000002204214846FEF7CEFFDFF84080D8F81F
:1023C0000000002587B240F23F1407E02146504646
:1023D000FFF7DCFF103C6D1CA4B2761C32780AB10A
:1023E000142DF3D3C8F800704846BDE8F047012229
:1023F0000421FEF7B0BF0000000C0048140800489C
:102400002DE9F04791468A460026044600F09AF8E6
:10241000DFF84080012700BF00F0D4F85FF000052E
:1024200039F8160007FA05F10842404601D1408804
:1024300000E0008800F09AF86D1C102DF0D3641CA9
:10244000E4B25146204600F07DF8761C182EE3D306
:10245000BDE8F087180000202DE9F041124F00225E
:1024600004213846FEF777FF104E306885B2FFF73B
:1024700045FF002000F01EF80D4CA080A088A0F5BC
:10248000024130390DD000F0F9FA002000F012F8C6
:10249000A08035603846BDE8F04101220421FEF7F6
:1024A0005ABF00F062FAF0E7000C00481408004838
:1024B0001800002070B51D490A6842F400720A60D5
:1024C0000A6842F480720A60184C103C226842F09C
:1024D00020022260164A1060086840F02000086060
:1024E00000BF00BF00BF206840F0200020602068CF
:1024F00040F480702060FFF7ABFE4FF09041886A97
:1025000040F48070886200BF00BF00BF0848001F11
:10251000006885B2886940F480708861FFF7AEFE7C
:10252000206840F400702060284670BD28040048F0
:102530001408004801B5BDF800000149488008BDF5
:102540001800002010B50C460146202000F068F865
:102550002146BDE81040212000F062B801B5BDF869
:1025600000000149088008BD18000020134A1168C6
:1025700041F400711160114910390B6843F4807304
:102580000B600B6843F020030B600D4B1860106864
:1025900040F02000106000BF00BF00BF086840F09E
:1025A00020000860086840F48070086000BF00BF29
:1025B00000BF086840F400700860704728040048B5
:1025C000140800481449086840F40070086008685E
:1025D00040F48070086010481038026842F0200211
:1025E00002600E4B22221A600A6842F020020A6042
:1025F00000BF00BF00BF016841F020010160016819
:1026000041F48071016000BF00BF00BF016841F468
:102610000071016070470000280400481408004859
:10262000184B10B51A6842F400721A601A6842F426
:1026300080721A60134A103A146844F0200414603F
:10264000114C2060186840F02000186000BF00BFE7
:1026500000BF106840F020001060106840F48070E7
:1026600010602160186840F02000186000BF00BFB3
:1026700000BF106840F020001060106840F48070C7
:10268000106010BD280400481408004800EB8100C9
:10269000006E00F0F84070478068C0F3C0007047DB
:1026A0008068C0F3800070478068C0F38000704786
:1026B000042303EAD15310B518444369C1F304510C
:1026C00007248C40A3438A401343436110BD00EBB1
:1026D0008100016E21F00041114301667047000046
:1026E00030B58BB0002408940994202168460A94E0
:1026F000FDF797FD1C484FF0A041042501604FF401
:102700000031C0E90114C4600461C0E905450477E3
:1027100044770121016280F82440C462046380F898
:102720003840C46380F84040FEF7FEFA08B1FEF777
:102730002DF808A90C480894FEF774F808B1FEF7C4
:1027400025F80A4800900620CDE901047F20059471
:10275000CDE9030569460448FEF7D0F8002801D00A
:10276000FEF714F80BB030BD280000200008302E12
:1027700030B589B020216846FDF753FD1948184946
:10278000002401604902C0E90114C4600425046109
:10279000C0E90545047744770121016280F82440AF
:1027A000C462046380F83840C46380F84040FEF798
:1027B000BBFA08B1FDF7EAFF0B4800900620CDE90F
:1027C00001047F200594CDE9030569460548FEF71D
:1027D00095F8002801D0FDF7D9FF09B030BD000001
:1027E00000010050940000200080F03E2DE9F04FE1
:1027F00087B014216846FDF714FD3C48C16C41F0D8
:102800000401C164C16C01F004010591C16C41F087
:102810002001C164C16C01F020010591C16C41F03F
:102820000201C164C16C01F002010591C16C41F06B
:102830000101C164C16C01F001010591C16C41F05D
:102840000801C164C06CDFF8A88000F008004FF6F2
:10285000FF740590002221464046FEF77CFD4FF4B0
:1028600080764FF09049002231464846FEF773FDCE
:10287000DFF880A0002204215046FEF76CFDDFF84F
:1028800078B04FF40877002239465846FEF763FDCA
:102890000125CDE900450024029469464046039491
:1028A000FEF73AFCCDE90054694658460295FEF71A
:1028B00033FC0096CDE90154694648460394FEF77F
:1028C0002BFC04200090CDE9015469465046039446
:1028D000FEF722FC0097CDE901546946584603945F
:1028E000FEF71AFC07B0BDE8F08F000000100240B0
:1028F00000080048000C00480004004810B588B0EB
:1029000000241748009401940294039404940594BD
:102910004FF08041069401604F21C0E9011441F25B
:102920008731C0E903148461FFF7EDFA08B1FDF7C0
:102930002DFF4FF48050009069460948FFF730FBA7
:1029400008B1FDF723FF049404A905480694FFF796
:102950008BFA002801D0FDF719FF08B010BD000068
:1029600000010020FEE7FEE7704730B5012100209E
:10297000FFF756FE4FF47A70FDF7FAFE00210120B2
:10298000FFF74EFE41F290711020FFF749FE4FF421
:102990001C516020FFF744FE01216120FFF740FE3B
:1029A00002214620FFF73CFE48F210011320FFF7FA
:1029B00037FE48F2FE011220FFF732FE4FF4A0610D
:1029C0000220FFF72DFE41F230010320FFF728FE21
:1029D00040F2033421463020FFF722FE2146312009
:1029E000FFF71EFE21463220FFF71AFEE51E29469C
:1029F0003320FFF715FE03213420FFF711FE214697
:102A00003520FFF70DFE14213620FFF709FE214681
:102A10003720FFF705FE21463820FFF701FE21464B
:102A20003920FFF7FDFD29463A20FFF7F9FD032184
:102A30003B20FFF7F5FD21463C20FFF7F1FD4FF469
:102A4000A0513D20FFF7ECFD4FF400719220FFF7FD
:102A5000E7FD21469320FFF7E3FD40F60D019020AE
:102A6000FFF7DEFD41F218010320FFF7D9FDBDE8B5
:102A7000304040F273110720FFF7D2BD10B543F28A
:102A80000801E320FFF7CCFD1221E720FFF7C8FD86
:102A900041F23121EF20FFF7C3FD00210120FFF7B4
:102AA000BFFD4FF4E0610220FFF7BAFD41F23001B3
:102AB0000320FFF7B5FD00210420FFF7B1FD40F230
:102AC00007210820FFF7ACFD00210920FFF7A8FD32
:102AD00000210A20FFF7A4FD00210C20FFF7A0FD34
:102AE00000210D20FFF79CFD00210F20FFF798FD2E
:102AF00000211020FFF794FD07211120FFF790FD22
:102B000000211220FFF78CFD00211320FFF788FD24
:102B1000C820FEF7EFFA41F290611020FFF780FD28
:102B200040F227211120FFF77BFD3220FEF7E2FA69
:102B30001D211220FFF774FD3220FEF7DBFA4FF45F
:102B400000611320FFF76CFD14212920FFF768FDB9
:102B50000B212B20FFF764FD3220FEF7CBFA00217A
:102B60002020FFF75DFD00212120FFF759FD0721FF
:102B70003020FFF755FD40F207713120FFF750FD7F
:102B800006213220FFF74CFD40F204713520FFF79B
:102B900047FD41F604713620FFF742FD042137203E
:102BA000FFF73EFD00213820FFF73AFD40F20671A5
:102BB0003920FFF735FD40F201713C20FFF730FD71
:102BC0000F213D20FFF72CFD00215020FFF728FDAD
:102BD000EF215120FFF724FD00215220FFF720FDB7
:102BE00040F23F115320FFF71BFD4FF41C516020B2
:102BF000FFF716FD01216120FFF712FD00216A2079
:102C0000FFF70EFD00218020FFF70AFD0021812043
:102C1000FFF706FD00218220FFF702FD002183203F
:102C2000FFF7FEFC00218420FFF7FAFC002185203D
:102C3000FFF7F6FC10219020FFF7F2FC0021922014
:102C4000FFF7EEFC03219320FFF7EAFC4FF48871B5
:102C50009520FFF7E5FC00219720FFF7E1FC00211C
:102C60009820FFF7DDFC41F218010320FFF7D8FCA4
:102C7000BDE8104040F273110720FFF7D1BC704748
:102C8000FEF774BB10B594B038216846FDF7C9FA59
:102C900014210EA8FDF7C5FA4FF40070FEF7F8FBFB
:102CA000012000900004019002200324CDE90704D4
:102CB0001421CDE90A100C900D9009946846FEF796
:102CC000B7FE08B172B6FEE70F20CDE90E04002072
:102CD00010901190129002210EA8FEF783FD00289B
:102CE00001D072B6FEE714B010BD000002480168C2
:102CF00041F470010160704788ED00E00148FFF782
:102D0000D0B90000000100202DE9F0430268254BF6
:102D1000254D264E264C4FF08049984207D0484515
:102D200005D0A84203D0B04201D0A04203D122F086
:102D300070074A683A431F4FDFF87CC0DFF87C8099
:102D400098420DD048450BD0A84209D0B04207D0D8
:102D5000A04205D0B84203D0604501D0404503D120
:102D600022F44075CA682A434D6922F080022A4342
:102D70008D68C5620D688562984207D0A04205D073
:102D8000B84203D0604501D0404501D109690163D3
:102D9000016841F004010160012141610260BDE868
:102DA000F0830000002C01400004004000080040B7
:102DB000003401400040014000440140004801400F
:102DC00010B5846842EA032224F47F440A43224374
:102DD000826010BD8268034B1A400A4342F007012B
:102DE000816070478FFFCFFF10B5036A046A24F03B
:102DF000010404620E4CA0420BD00E4CA04208D03D
:102E00000D4CA04205D00D4CA04202D00C4CA0426B
:102E100003D1046A24F004040462846924F0F004F9
:102E200044EA021423F00A020A438461026210BDDC
:102E3000002C0140003401400040014000440140AA
:102E40000048014010B5036A046A24F010040462CB
:102E50000A4CA04202D00A4CA04203D1046A24F0DA
:102E600040040462846923F0A00324F4704444EA1B
:102E7000023243EA01118261016210BD002C01405F
:102E800000340140FEE70907090E002804DB00F1C9
:102E9000E02080F80014704700F00F0000F1E020FF
:102EA00080F8141D704702E008C8121F08C1002AEC
:102EB000FAD170477047002001E001C1121F002ABB
:102EC000FBD1704770B57F212DED048B1C48FDF7B9
:102ED0005FFC7F211B48FDF75BFC1948FEF790F86B
:102EE0001848FEF78DF81648FDF71AFF85B2154809
:102EF000FDF716FF84B22846FDF790FA9FED128B7E
:102F000053EC182BFDF70AFA9FED119B53EC192B8C
:102F1000FDF792F9FDF7BAFA0F4D28602046FDF74C
:102F20007DFA53EC182BFDF7F9F953EC192BFDF74B
:102F300083F9FDF7ABFA6860BDEC048B70BD00004F
:102F400028000020940000200000000000FEAF4098
:102F50006666666666660A402000002010B501219C
:102F60000D48FEF7F3F90D4901224B785BB1012BB7
:102F70000DD0022B06D1012804D1087882430A70B3
:102F80000020487010BD0028FCD14A7010BD0028F8
:102F9000FCD10220F5E700000004004816000020E4
:102FA0002DE9F05FB6A12DED0A8B0020FFF7FAF9AD
:102FB000B7A11820FFF7F6F9BAA17820FFF7F2F9C8
:102FC000BC480078002875D14FF6FF70FFF76EF906
:102FD000B94EDFF8E8A2DFF8E88296ED000ADFF8E4
:102FE000E4B200274FF0FF399FEDB7AB9FEDB89BE0
:102FF000B5EEC00AB84CF1EE10FA05DB10EE100A7F
:10300000504501DA277047E010EE100A00EB080186
:10301000594502D80E2020703EE00125B0EE4A8AC4
:10302000F0EE6A8A3068FDF706FA41EC1C0B09EBFA
:103030004500FDF7E2F953EC182BFDF7FDF8B0EE73
:1030400049BAF0EE69BA53EC1B2BFDF767F953EC64
:103050001C2BFDF703FA1BD8012000EB4500FDF700
:10306000DDF9B0EE481AF0EE681A53EC112BFDF7BB
:10307000E3F853EC1B2BFDF751F941EC1C0B3068C6
:10308000FDF7D9F953EC1C2BFDF7E8F900D22570B8
:103090006D1CEDB20E2DC5D3904E96ED000AB5EE27
:1030A000C00AF1EE10FA06DB10EE100A504502DA03
:1030B000677045E0BBE010EE100A00EB08015945CF
:1030C00002D80E2060703BE001254F463068FDF7C6
:1030D000B2F941EC1B0B07EB4500FDF78EF953EC01
:1030E0001A2BFDF7A9F853EC192BFDF717F953EC40
:1030F0001B2BFDF7B3F91FD8012000EB4500FDF7AE
:103100008DF9B0EE4A1AF0EE6A1A53EC112BFDF766
:1031100093F8B0EE491AF0EE691A53EC112BFDF753
:10312000FDF841EC180B3068FDF785F953EC182BCE
:10313000FDF794F900D265706D1CEDB20E2DC5D36C
:1031400021786078814230D10F2970D2DFE801F018
:10315000080A0C0E10121416181B1E2124272A0010
:103160005FA120E062A11BE065A116E064A111E06F
:1031700063A10CE05EA107E059A102E064A166E052
:1031800067A1C02064E06BA1A82061E06EA190203F
:103190005EE06DA178205BE06BA1602058E065A146
:1031A000482055E05EA1302052E00F2810D2DFE821
:1031B00000F0080A1C1E20222426292C2F32353824
:1031C0003B0067A131E069A12CE000BFFFF7EAF8FE
:1031D00020780F2850D2DFE800F02B2D2F31333527
:1031E000373941434547494B4D0063A117E062A180
:1031F00012E061A10DE05DA108E059A103E061A129
:10320000D820E3E762A1C020E0E764A1A820DDE7C1
:1032100065A19020DAE764A17820D7E762A1602059
:10322000D4E75EA14820D1E762A13020CEE723E0B9
:1032300063A1B8E766A1B3E769A1AEE76BA1A9E70F
:103240006AA1A4E762A19FE75DA19AE76AA1D820DD
:10325000BDEC0A8BBDE8F05FFFF7A4B86AA190E768
:103260006EA191E772A192E771A193E770A194E733
:103270006AA195E764A196E7BDEC0A8BBDE8F09FD3
:1032800020202020202020414E474C4500000000F7
:103290002020202052333720202020202052333875
:1032A0000000000020202020202D20202020202091
:1032B00020203D001600002020000020165FF13D78
:1032C000C557B4BFF88A07006666666666660A4038
:1032D0000000000000003C401400002024000020FA
:1032E00020202A20202020202020202B2000000029
:1032F000202A20202020202020202B202000000019
:103300002A20202020202020202B20202000000008
:1033100020202020202A20202020202020202B00B8
:1033200020202020202020202A2020202020202093
:10333000202B00002020202020202020202A2020B8
:103340002020202020202B00202020202020202092
:1033500020202A20202020202020202B00000000D8
:1033600020202A202020202020000000202A2020A9
:1033700020202020200000002A20202020202020A3
:103380002000000020202020202A202020000000F3
:1033900020202020202020202A2000002020202063
:1033A00020202020202A2000202020202020202033
:1033B00020202A0020202020202020202A20200039
:1033C00020202020202020202020202B2000000052
:1033D000202020202020202020202B200000000062
:1033E00020202020202020202B20200020202020F2
:1033F000202020202B200000202020202020202002
:103400002020202020202B002020202020202020D1
:103410002020202020202020202B000020202020E1
:1034200020202020202020202020202020202B00B1
:10343000202020202020202020202020202020208C
:103440002020202B000000002DE9F041DFF89480BF
:10345000012204214046FDF77EFF0124224D260271
:1034600006FA04F081B201222846FDF774FF641CBD
:10347000E4B2072CF4D31D4F4FF4004438780128F0
:1034800009D1002231462846FDF765FF0122214679
:103490002846FDF760FF3878C0B90122314628463A
:1034A000FDF759FF387888B9114812490068084477
:1034B0001149884208D2114801680E4840428142B1
:1034C00002DB0F48814201DB002200E0012221469D
:1034D0002846FDF740FF4046BDE8F04100220421A8
:1034E000FDF739BF000C0048000800481600002016
:1034F000200000203333F3C03333230124000020A5
:1035000000003040FDF73AFFFFF7BCFBFFF76EF914
:10351000FFF7E6F8FFF72CF9FFF7F0F9184E012254
:1035200004213046FDF717FF164F00244FF4807535
:1035300005FA04F081B201223846FDF70CFF641C45
:10354000E4B2082CF4D3002204213046FDF703FF37
:10355000FEF782FF4FF6FF742046FEF7A7FE00201D
:10356000FEF7E8FF2046FEF7F9FF00BFFFF7AAFCD1
:10357000FFF7F4FCFFF714FDFFF766FFF6E7000026
:10358000000C004800080048000000000000000097
:103590000102030406070809000000000000000003
:1035A000000000000000000000000000000000001B
:1035B000000000000000000000000000000000000B
:1035C0000000000000000000000080018001800178
:1035D00080018001800180018001800180018001E3
:1035E00080018001000000008001800100000000D7
:1035F000000000000000000000000000CC00CC0033
:10360000CC00CC00CC00CC0000000000000000008A
:1036100000000000000000000000000000000000AA
:10362000000000000000000000000000000000009A
:1036300000000000600C600C600C30063006FE1FBD
:10364000FE1F300638071803FE1FFE1F180318035D
:103650008C018C018C01000000008000E003F80F59
:103660009C0E8C1C8C188C009800F801E007800ED2
:10367000801C8C188C189C18B80CF00FE00380008C
:1036800080000000000000000000000000000E1894
:103690001B0C110C11061106110311039B018E0165
:1036A000C038C06C60446044304430441844186CE6
:1036B0000C380000000000000000E001F0033807B3
:1036C000180618063003F001F000F8009C310E33A4
:1036D000061E061C061C063FFC73F02100000000BD
:1036E0000000000000000000000000000C000C00C2
:1036F0000C000C000C000C0000000000000000009A
:1037000000000000000000000000000000000000B9
:103710000000000000000000000000020003800123
:10372000C000C00060006000300030003000300099
:10373000300030003000300060006000C000C00089
:103740008001000300020000000020006000C000B3
:103750008001800100030003000600060006000649
:103760000006000600060006000300038001800139
:10377000C000600020000000000000000000000009
:1037800000000000C000C000D806F807E0013003C8
:1037900038070000000000000000000000000000EA
:1037A0000000000000000000000000000000000019
:1037B0000000000080018001800180018001FC3F49
:1037C000FC3F800180018001800180010000000039
:1037D00000000000000000000000000000000000E9
:1037E00000000000000000000000000000000000D9
:1037F00000000000000000000000800180010001C6
:103800000001800000000000000000000000000037
:1038100000000000000000000000000000000000A8
:10382000E007E007000000000000000000000000CA
:103830000000000000000000000000000000000088
:103840000000000000000000000000000000000078
:1038500000000000000000000000C000C0000000E8
:1038600000000000000000000000000C000C00063A
:1038700000060006000300030003800380018001AE
:103880008001C000C000C0006000600000000000B7
:1038900000000000000000000000E003F007380E08
:1038A000180C0C180C180C180C180C180C180C18F8
:1038B0000C180C18180C380EF007E003000000007C
:1038C0000000000000000000000000018001C001B5
:1038D000F001980188018001800180018001800150
:1038E00080018001800180018001800100000000D2
:1038F00000000000000000000000E003F80F180CBA
:103900000C180C1800180018000C000600038001A9
:10391000C000600030001800FC1FFC1F0000000009
:1039200000000000000000000000E001F807180E91
:103930000C0C0C0C000C0006C003C007000C001897
:1039400000180C180C18180CF807E0030000000011
:1039500000000000000000000000000C000E000F3E
:10396000000F800DC00C600C600C300C180C0C0C9F
:10397000FC3FFC3F000C000C000C000C00000000A1
:1039800000000000000000000000F80FF80F180011
:1039900018000C00EC03FC071C0E001C001800189B
:1039A00000180C181C0C180EF807E00300000000AB
:1039B00000000000000000000000C007F00F381CED
:1039C000181818000C00CC03EC0F3C0E1C1C0C1833
:1039D0000C180C18181C380EF007E003000000004B
:1039E00000000000000000000000FC1FFC1F000C95
:1039F00000060006000380038001C001C000E00053
:103A000060006000700030003000300000000000F6
:103A100000000000000000000000E003F007380E86
:103A2000180C180C180C3806F007F007180C0C18B6
:103A30000C180C180C18380CF80FE00300000000EC
:103A400000000000000000000000E003F007380E56
:103A50001C0C0C180C180C181C1C381EF81BE01938
:103A60000018000C000C1C0EF807F001000000000C
:103A70000000000000000000000000000000000046
:103A80000000000080018001000000000000000034
:103A90000000000000000000800180010000000024
:103AA0000000000000000000000000000000000016
:103AB0000000000080018001000000000000000004
:103AC00000000000000000008001800100010001F2
:103AD0008000000000000000000000000000000066
:103AE00000000000000000000010001C800FE00338
:103AF000F8001800F800E003800F001C0010000020
:103B000000000000000000000000000000000000B5
:103B10000000000000000000F81F0000000000008E
:103B2000F81F00000000000000000000000000007E
:103B30000000000000000000000000000000000085
:103B4000000000000000000008003800F001C0077D
:103B5000001F0018001FC007F00138000800000017
:103B600000000000000000000000E003F80F180C47
:103B70000C180C180018000C000600038001C0008F
:103B8000C000C00000000000C000C0000000000035
:103B9000000000000000000000000000E00718180E
:103BA0000420C229224A1144094409440944092233
:103BB0001113E20C024004201818E0070000000076
:103BC0000000000000000000000080038003C00629
:103BD000C006C006600C600C301830183018F83F72
:103BE000F83F1C700C600C6006C006C000000000AE
:103BF00000000000000000000000FC03FC0F0C0CA3
:103C00000C180C180C180C0CFC07FC0F0C180C30C2
:103C10000C300C300C300C18FC1FFC0700000000AE
:103C200000000000000000000000C007F01F38384E
:103C30001C300C7006600600060006000600060038
:103C4000060006600C701C30F01FE007000000004A
:103C500000000000000000000000FE03FE0F060E42
:103C600006180618063006300630063006300630D4
:103C7000063006180618060EFE0FFE0300000000B0
:103C800000000000000000000000FC3FFC3F0C00B2
:103C90000C000C000C000C00FC1FFC1F0C000C00A6
:103CA0000C000C000C000C00FC3FFC3F000000006E
:103CB00000000000000000000000F83FF83F18007E
:103CC0001800180018001800F81FF81F1800180036
:103CD0001800180018001800180018000000000054
:103CE00000000000000000000000E00FF83F3C78FA
:103CF0000E6006E007C00300030003FE03FE03C0DE
:103D000007C006C00EC03CF0F83FE00F0000000006
:103D1000000000000000000000000C300C300C30EF
:103D20000C300C300C300C30FC3FFC3F0C300C30B5
:103D30000C300C300C300C300C300C30000000001B
:103D400000000000000000000000800180018001F0
:103D5000800180018001800180018001800180015B
:103D6000800180018001800180018001000000004D
:103D70000000000000000000000000060006000631
:103D80000006000600060006000600060006000603
:103D90000006180618063807F003E00100000000CE
:103DA0000000000000000000000006300618060CAD
:103DB000060606038601C60066007600DE008E0158
:103DC00006030606060C0618063006600000000012
:103DD000000000000000000000001800180018009B
:103DE0001800180018001800180018001800180013
:103DF0001800180018001800F81FF81F0000000035
:103E0000000000000000000000000EE01EF01EF0A8
:103E10001EF036D836D836D836D866CC66CC66CCC6
:103E2000C6C6C6C6C6C6C6C686C386C300000000D0
:103E3000000000000000000000000C301C303C308E
:103E40003C306C306C30CC30CC308C310C330C339B
:103E50000C360C360C3C0C3C0C380C3000000000CE
:103E600000000000000000000000E007F81F1C3800
:103E70000E70066003C003C003C003C003C003C0CC
:103E800003C006600E701C38F81FE0070000000039
:103E900000000000000000000000FC0FFC1F0C38B8
:103EA0000C300C300C300C300C18FC1FFC070C00D4
:103EB0000C000C000C000C000C000C0000000000BA
:103EC00000000000000000000000E007F81F1C38A0
:103ED0000E70066003E003C003C003C003C003C04C
:103EE00007E006630E3F1C3CF83FE0F700C000000F
:103EF00000000000000000000000FE0FFE1F06385A
:103F00000630063006300638FE1FFE07060306069A
:103F1000060C061806180630063006600000000081
:103F200000000000000000000000E003F80F1C0C7F
:103F30000C180C180C001C00F803E00F001E0038D1
:103F4000063006300E301C1CF80FE00700000000A1
:103F500000000000000000000000FE7FFE7F8001E6
:103F60008001800180018001800180018001800149
:103F7000800180018001800180018001000000003B
:103F8000000000000000000000000C300C300C307D
:103F90000C300C300C300C300C300C300C300C3041
:103FA0000C300C300C301818F81FE007000000002F
:103FB0000000000000000000000003600630063032
:103FC00006300C180C180C18180C180C380E30068B
:103FD0003006700760036003C001C00100000000EC
:103FE000000000000000000000000360C361C36126
:103FF000C3616633663366336633663366336C1B80
:104000006C1B6C1B2C1A3C1E380E380E0000000076
:10401000000000000000000000000FE00C701830ED
:104020003018700C600EC00780038003C003E006E8
:10403000700C301C18180C300E6007E000000000F7
:104040000000000000000000000003C006600C300B
:104050001C383818300C6006E007C003800180016E
:10406000800180018001800180018001000000004A
:1040700000000000000000000000FC7FFC7F0060EA
:1040800000300018000C000600038001C000600032
:10409000300018000C000600FE7FFE7F00000000CC
:1040A00000000000000000000000E003E0036000EA
:1040B0006000600060006000600060006000600000
:1040C00060006000600060006000600060006000F0
:1040D0006000E003E00300000000300030006000FA
:1040E00060006000C000C000C000C001800180010D
:1040F000800100030003000300060006000000002A
:1041000000000000000000000000E003E0030003E6
:104110000003000300030003000300030003000387
:104120000003000300030003000300030003000377
:104130000003E003E003000000000000C001C00134
:1041400060036003600330063006180C180C000092
:10415000000000000000000000000000000000005F
:10416000000000000000000000000000000000004F
:10417000000000000000000000000000000000003F
:1041800000000000000000000000FFFFFFFF000033
:10419000000000000000000000000C000C000C00FB
:1041A0000C000C000C0000000000000000000000EB
:1041B00000000000000000000000000000000000FF
:1041C00000000000000000000000000000000000EF
:1041D00000000000F003F8071C0C0C0C000FF00F9F
:1041E000F80C0C0C0C0C1C0FF80FF0180000000061
:1041F0000000000000000000000018001800180077
:1042000018001800D803F80F380C181818181818C8
:10421000181818181818380CF80FD80300000000E8
:10422000000000000000000000000000000000008E
:1042300000000000C003F007300E180C1800180032
:1042400018001800180C300EF007C0030000000022
:104250000000000000000000000000180018001816
:1042600000180018C01BF01F301C18181818181858
:10427000181818181818301CF01FC01B0000000078
:10428000000000000000000000000000000000002E
:1042900000000000C003F00F300C1818F81FF81FC2
:1042A000180018003818301CF00FC007000000007C
:1042B00000000000000000000000800FC00FC000E0
:1042C000C000C000F007F007C000C000C000C00080
:1042D000C000C000C000C000C000C000000000005E
:1042E00000000000000000000000000000000000CE
:1042F00000000000E00DF80F180E0C0C0C0C0C0C5C
:104300000C0C0C0C0C0C180EF80FE00D000C0C0C27
:104310001C06F807F0010000000018001800180043
:1043200018001800D807F80F381C18181818181893
:10433000181818181818181818181818000000005D
:1043400000000000000000000000C000C0000000ED
:1043500000000000C000C000C000C000C000C000DD
:10436000C000C000C000C000C000C00000000000CD
:1043700000000000000000000000C000C0000000BD
:1043800000000000C000C000C000C000C000C000AD
:10439000C000C000C000C000C000C000C000C0001D
:1043A000C000F8007800000000000C000C000C00B9
:1043B0000C000C000C0C0C060C038C01CC006C00E7
:1043C000FC009C018C030C030C060C0C000000008C
:1043D00000000000000000000000C000C000C0009D
:1043E000C000C000C000C000C000C000C000C000CD
:1043F000C000C000C000C000C000C000000000003D
:1044000000000000000000000000000000000000AC
:10441000000000007C3CFF7EC7E383C183C183C1F1
:1044200083C183C183C183C183C183C100000000F4
:10443000000000000000000000000000000000007C
:10444000000000009807F80F381C181818181818E2
:10445000181818181818181818181818000000003C
:10446000000000000000000000000000000000004C
:1044700000000000C003F00F300C181818181818AE
:10448000181818181818300CF00FC003000000009E
:10449000000000000000000000000000000000001C
:1044A00000000000D803F80F380C18181818181856
:1044B000181818181818380CF80FD8031800180016
:1044C00018001800180000000000000000000000A4
:1044D00000000000C01BF01F301C18181818181816
:1044E000181818181818301CF01FC01B00180018D6
:1044F0000018001800180000000000000000000074
:1045000000000000B007F003700030003000300001
:10451000300030003000300030003000000000007B
:10452000000000000000000000000000000000008B
:1045300000000000E003F003380E180C3800F00310
:10454000C007000C180C380EF007E0030000000054
:104550000000000000000000000000008000C0001B
:10456000C000C000F007F007C000C000C000C000DD
:10457000C000C000C000C000C007800700000000ED
:10458000000000000000000000000000000000002B
:1045900000000000181818181818181818181818FB
:1045A000181818181818381CF01FE019000000001F
:1045B00000000000000000000000000000000000FB
:1045C000000000000C18180C180C180C30063006EF
:1045D0003006600360036003C001C00100000000FA
:1045E00000000000000000000000000000000000CB
:1045F00000000000C141C141C36163636363636341
:104600003636363636361C1C1C1C1C1C00000000BE
:10461000000000000000000000000000000000009A
:10462000000000001C38381C300C6006600360037A
:10463000600360036006300C381C1C38000000006A
:10464000000000000000000000000000000000006A
:10465000000000001830301830187018600C600C22
:10466000E00CC006C0068003800380038001800147
:10467000C001F00070000000000000000000000019
:1046800000000000FC1FFC1F000C0006000380015E
:10469000C000600030001800FC1FFC1F000000007C
:1046A0000000000000000000000000038001C000C6
:1046B000C000C000C000C000C0006000600030004A
:1046C00060004000C000C000C000C000C000C000CA
:1046D00080010003000000000000800180018001D3
:1046E00080018001800180018001800180018001C2
:1046F00080018001800180018001800180018001B2
:10470000800180018001000000006000C000C00145
:104710008001800180018001800100030003000608
:10472000000300018001800180018001800180017F
:10473000C000600000000000000000000000000059
:104740000000000000000000F010F81F080F00003B
:104750000000000000000000000000000000000059
:104760000000000000000000884700080000002052
:1047700028000000A62E0008B047000828000020EE
:1047800028050000B62E0008000000001000000000
:1047900001000000000000000024F4000000000000
:1047A0000000FFFF0000000000000000000000000B
:04000005080001D915
:00000001FF
